{
  "abi": [
    {
      "inputs": [],
      "name": "Unsuccessful",
      "type": "error"
    },
    {
      "inputs": [
        {
          "internalType": "uint256",
          "name": "blockNumber",
          "type": "uint256"
        }
      ],
      "name": "getBlockHash",
      "outputs": [
        {
          "internalType": "bytes32",
          "name": "blockHash",
          "type": "bytes32"
        }
      ],
      "stateMutability": "view",
      "type": "function"
    },
    {
      "inputs": [
        {
          "internalType": "address",
          "name": "target",
          "type": "address"
        }
      ],
      "name": "sendBackValue",
      "outputs": [],
      "stateMutability": "payable",
      "type": "function"
    },
    {
      "inputs": [],
      "name": "thisMethodReverts",
      "outputs": [],
      "stateMutability": "pure",
      "type": "function"
    }
  ],
  "bytecode": {
    "object": "0x608060405234801561001057600080fd5b506101f0806100206000396000f3fe6080604052600436106100345760003560e01c8063032d00741461003957806336c40ea614610050578063ee82ac5e14610063575b600080fd5b34801561004557600080fd5b5061004e610094565b005b61004e61005e366004610164565b6100c6565b34801561006f57600080fd5b5061008261007e3660046101a1565b4090565b60405190815260200160405180910390f35b6040517f81775cc300000000000000000000000000000000000000000000000000000000815260040160405180910390fd5b60008173ffffffffffffffffffffffffffffffffffffffff163460405160006040518083038185875af1925050503d8060008114610120576040519150601f19603f3d011682016040523d82523d6000602084013e610125565b606091505b5050905080610160576040517f81775cc300000000000000000000000000000000000000000000000000000000815260040160405180910390fd5b5050565b60006020828403121561017657600080fd5b813573ffffffffffffffffffffffffffffffffffffffff8116811461019a57600080fd5b9392505050565b6000602082840312156101b357600080fd5b503591905056fea2646970667358221220c5e2fa5e3183393442e72d051b7c8dc34148ac9e3a5b9216c5811273bff38c3164736f6c63430008140033",
    "linkReferences": {}
  },
  "methodIdentifiers": {
    "getBlockHash(uint256)": "ee82ac5e",
    "sendBackValue(address)": "36c40ea6",
    "thisMethodReverts()": "032d0074"
  },
  "id": 37
}