{"_format":"hh-sol-artifact-1","contractName":"AccountToken","sourceName":"contracts/satellites/AccountToken.sol","abi":[{"inputs":[],"name":"AlreadyInitialized","type":"error"},{"inputs":[{"internalType":"address","name":"","type":"address"}],"name":"CannotSelfApprove","type":"error"},{"inputs":[{"internalType":"address","name":"implementation","type":"address"}],"name":"ImplementationIsSterile","type":"error"},{"inputs":[{"internalType":"address","name":"","type":"address"}],"name":"InvalidTransferRecipient","type":"error"},{"inputs":[],"name":"NoChange","type":"error"},{"inputs":[{"internalType":"address","name":"contr","type":"address"}],"name":"NotAContract","type":"error"},{"inputs":[{"internalType":"address","name":"addr","type":"address"}],"name":"NotNominated","type":"error"},{"inputs":[{"internalType":"uint256","name":"","type":"uint256"}],"name":"TokenAlreadyMinted","type":"error"},{"inputs":[{"internalType":"uint256","name":"","type":"uint256"}],"name":"TokenDoesNotExist","type":"error"},{"inputs":[{"internalType":"address","name":"addr","type":"address"}],"name":"Unauthorized","type":"error"},{"inputs":[],"name":"UpgradeSimulationFailed","type":"error"},{"inputs":[],"name":"ZeroAddress","type":"error"},{"anonymous":false,"inputs":[{"indexed":false,"internalType":"address","name":"owner","type":"address"},{"indexed":false,"internalType":"uint256","name":"accountId","type":"uint256"}],"name":"AccountMinted","type":"event"},{"anonymous":false,"inputs":[{"indexed":true,"internalType":"address","name":"owner","type":"address"},{"indexed":true,"internalType":"address","name":"approved","type":"address"},{"indexed":true,"internalType":"uint256","name":"tokenId","type":"uint256"}],"name":"Approval","type":"event"},{"anonymous":false,"inputs":[{"indexed":true,"internalType":"address","name":"owner","type":"address"},{"indexed":true,"internalType":"address","name":"operator","type":"address"},{"indexed":false,"internalType":"bool","name":"approved","type":"bool"}],"name":"ApprovalForAll","type":"event"},{"anonymous":false,"inputs":[{"indexed":false,"internalType":"address","name":"oldOwner","type":"address"},{"indexed":false,"internalType":"address","name":"newOwner","type":"address"}],"name":"OwnerChanged","type":"event"},{"anonymous":false,"inputs":[{"indexed":false,"internalType":"address","name":"newOwner","type":"address"}],"name":"OwnerNominated","type":"event"},{"anonymous":false,"inputs":[{"indexed":true,"internalType":"address","name":"from","type":"address"},{"indexed":true,"internalType":"address","name":"to","type":"address"},{"indexed":true,"internalType":"uint256","name":"tokenId","type":"uint256"}],"name":"Transfer","type":"event"},{"anonymous":false,"inputs":[{"indexed":false,"internalType":"address","name":"implementation","type":"address"}],"name":"Upgraded","type":"event"},{"inputs":[],"name":"acceptOwnership","outputs":[],"stateMutability":"nonpayable","type":"function"},{"inputs":[{"internalType":"address","name":"to","type":"address"},{"internalType":"uint256","name":"tokenId","type":"uint256"}],"name":"approve","outputs":[],"stateMutability":"nonpayable","type":"function"},{"inputs":[{"internalType":"address","name":"holder","type":"address"}],"name":"balanceOf","outputs":[{"internalType":"uint256","name":"","type":"uint256"}],"stateMutability":"view","type":"function"},{"inputs":[{"internalType":"uint256","name":"tokenId","type":"uint256"}],"name":"getApproved","outputs":[{"internalType":"address","name":"","type":"address"}],"stateMutability":"view","type":"function"},{"inputs":[],"name":"getImplementation","outputs":[{"internalType":"address","name":"","type":"address"}],"stateMutability":"view","type":"function"},{"inputs":[{"internalType":"string","name":"tokenName","type":"string"},{"internalType":"string","name":"tokenSymbol","type":"string"},{"internalType":"string","name":"uri","type":"string"},{"internalType":"address","name":"mainProxy","type":"address"}],"name":"initialize","outputs":[],"stateMutability":"nonpayable","type":"function"},{"inputs":[],"name":"isAccountInitialized","outputs":[{"internalType":"bool","name":"","type":"bool"}],"stateMutability":"view","type":"function"},{"inputs":[{"internalType":"address","name":"holder","type":"address"},{"internalType":"address","name":"operator","type":"address"}],"name":"isApprovedForAll","outputs":[{"internalType":"bool","name":"","type":"bool"}],"stateMutability":"view","type":"function"},{"inputs":[{"internalType":"address","name":"owner","type":"address"},{"internalType":"uint256","name":"accountId","type":"uint256"}],"name":"mint","outputs":[],"stateMutability":"nonpayable","type":"function"},{"inputs":[],"name":"name","outputs":[{"internalType":"string","name":"","type":"string"}],"stateMutability":"view","type":"function"},{"inputs":[{"internalType":"address","name":"newNominatedOwner","type":"address"}],"name":"nominateNewOwner","outputs":[],"stateMutability":"nonpayable","type":"function"},{"inputs":[],"name":"nominatedOwner","outputs":[{"internalType":"address","name":"","type":"address"}],"stateMutability":"view","type":"function"},{"inputs":[],"name":"owner","outputs":[{"internalType":"address","name":"","type":"address"}],"stateMutability":"view","type":"function"},{"inputs":[{"internalType":"uint256","name":"tokenId","type":"uint256"}],"name":"ownerOf","outputs":[{"internalType":"address","name":"","type":"address"}],"stateMutability":"view","type":"function"},{"inputs":[],"name":"renounceNomination","outputs":[],"stateMutability":"nonpayable","type":"function"},{"inputs":[{"internalType":"address","name":"from","type":"address"},{"internalType":"address","name":"to","type":"address"},{"internalType":"uint256","name":"tokenId","type":"uint256"}],"name":"safeTransferFrom","outputs":[],"stateMutability":"nonpayable","type":"function"},{"inputs":[{"internalType":"address","name":"from","type":"address"},{"internalType":"address","name":"to","type":"address"},{"internalType":"uint256","name":"tokenId","type":"uint256"},{"internalType":"bytes","name":"data","type":"bytes"}],"name":"safeTransferFrom","outputs":[],"stateMutability":"nonpayable","type":"function"},{"inputs":[{"internalType":"address","name":"operator","type":"address"},{"internalType":"bool","name":"approved","type":"bool"}],"name":"setApprovalForAll","outputs":[],"stateMutability":"nonpayable","type":"function"},{"inputs":[{"internalType":"address","name":"newImplementation","type":"address"}],"name":"simulateUpgradeTo","outputs":[],"stateMutability":"nonpayable","type":"function"},{"inputs":[{"internalType":"bytes4","name":"interfaceId","type":"bytes4"}],"name":"supportsInterface","outputs":[{"internalType":"bool","name":"","type":"bool"}],"stateMutability":"view","type":"function"},{"inputs":[],"name":"symbol","outputs":[{"internalType":"string","name":"","type":"string"}],"stateMutability":"view","type":"function"},{"inputs":[{"internalType":"uint256","name":"tokenId","type":"uint256"}],"name":"tokenURI","outputs":[{"internalType":"string","name":"","type":"string"}],"stateMutability":"view","type":"function"},{"inputs":[{"internalType":"address","name":"from","type":"address"},{"internalType":"address","name":"to","type":"address"},{"internalType":"uint256","name":"tokenId","type":"uint256"}],"name":"transferFrom","outputs":[],"stateMutability":"nonpayable","type":"function"},{"inputs":[{"internalType":"address","name":"newImplementation","type":"address"}],"name":"upgradeTo","outputs":[],"stateMutability":"nonpayable","type":"function"}],"bytecode":"0x608060405234801561001057600080fd5b50611cba806100206000396000f3fe608060405234801561001057600080fd5b50600436106101585760003560e01c806370a08231116100c3578063aaf10f421161007c578063aaf10f42146102e3578063b88d4fde14610301578063c7f62cda14610314578063c87b56dd14610327578063e985e9c51461033a578063f05940fc1461034d57600080fd5b806370a082311461028f578063718fe928146102b057806379ba5097146102b85780638da5cb5b146102c057806395d89b41146102c8578063a22cb465146102d057600080fd5b80633659cfe6116101155780633659cfe61461020057806340c10f191461021357806342842e0e1461022657806353a47bb7146102395780635c6d8da1146102695780636352211e1461027c57600080fd5b806301ffc9a71461015d57806306fdde0314610185578063081812fc1461019a578063095ea7b3146101c55780631627540c146101da57806323b872dd146101ed575b600080fd5b61017061016b366004611722565b610355565b60405190151581526020015b60405180910390f35b61018d6103a7565b60405161017c9190611797565b6101ad6101a83660046117aa565b610446565b6040516001600160a01b03909116815260200161017c565b6101d86101d33660046117df565b6104b1565b005b6101d86101e8366004611809565b610578565b6101d86101fb366004611824565b61065a565b6101d861020e366004611809565b610693565b6101d86102213660046117df565b6106a7565b6101d8610234366004611824565b610700565b7f66d20a9eef910d2df763b9de0d390f3cc67f7d52c6475118cd57fa98be8cf6cc546001600160a01b03166101ad565b6101d861027736600461190c565b61071b565b6101ad61028a3660046117aa565b610785565b6102a261029d366004611809565b6107eb565b60405190815260200161017c565b6101d861084f565b6101d86108be565b6101ad61099a565b61018d6109bb565b6101d86102de3660046119a5565b6109da565b600080516020611c65833981519152546001600160a01b03166101ad565b6101d861030f3660046119e1565b610a9a565b6101d8610322366004611809565b610b02565b61018d6103353660046117aa565b610c1c565b610170610348366004611a5d565b610d36565b610170610d83565b60006001600160e01b031982166301ffc9a760e01b148061038657506001600160e01b031982166380ac58cd60e01b145b806103a157506001600160e01b03198216635b5e139f60e01b145b92915050565b6060600080516020611c4583398151915280546103c390611a90565b80601f01602080910402602001604051908101604052809291908181526020018280546103ef90611a90565b801561043c5780601f106104115761010080835404028352916020019161043c565b820191906000526020600020905b81548152906001019060200180831161041f57829003601f168201915b5050505050905090565b600061045182610db5565b6104765760405163c927e5bf60e01b8152600481018390526024015b60405180910390fd5b5060009081527fcff586616dbfd8fcbd4d6ec876c80f6e96179ad989cea8424b590d1e270e5bd460205260409020546001600160a01b031690565b60008181527fcff586616dbfd8fcbd4d6ec876c80f6e96179ad989cea8424b590d1e270e5bd26020526040902054600080516020611c45833981519152906001600160a01b039081169084168114156105285760405163132d05df60e31b81526001600160a01b038516600482015260240161046d565b336001600160a01b0382161480159061054857506105468133610d36565b155b156105685760405163472511eb60e11b815233600482015260240161046d565b6105728484610df1565b50505050565b600061058261099a565b90506001600160a01b0381161561059b5761059b610e7e565b600080516020611c258339815191526001600160a01b0383166105d15760405163d92e233d60e01b815260040160405180910390fd5b60018101546001600160a01b03848116911614156106025760405163a88ee57760e01b815260040160405180910390fd5b6001810180546001600160a01b0319166001600160a01b0385169081179091556040519081527f906a1c6bd7e3091ea86693dd029a831c19049ce77f1dce2ce0bab1cacbabce229060200160405180910390a1505050565b6106643382610ebb565b6106835760405163472511eb60e11b815233600482015260240161046d565b61068e838383610f1a565b505050565b61069b610e7e565b6106a48161107b565b50565b6106af610e7e565b6106b9828261119a565b604080516001600160a01b0384168152602081018390527f1d7e5b3c780349235b33fb189b35c2b75be5210c167eab995d06d91f3307621d91015b60405180910390a15050565b61068e83838360405180602001604052806000815250610a9a565b610723610e7e565b61072e848484611286565b60007fc8ca6284657224e913ed6965e10e3e3b51a0642aff2bbaaae02f526ca2fe92c7805460ff196001600160a01b0390941661010002939093166001600160a81b03199093169290921760011790915550505050565b600061079082610db5565b6107b05760405163c927e5bf60e01b81526004810183905260240161046d565b5060009081527fcff586616dbfd8fcbd4d6ec876c80f6e96179ad989cea8424b590d1e270e5bd260205260409020546001600160a01b031690565b60006001600160a01b0382166108145760405163d92e233d60e01b815260040160405180910390fd5b506001600160a01b031660009081527fcff586616dbfd8fcbd4d6ec876c80f6e96179ad989cea8424b590d1e270e5bd3602052604090205490565b7f66d20a9eef910d2df763b9de0d390f3cc67f7d52c6475118cd57fa98be8cf6cc54600080516020611c25833981519152906001600160a01b031633146108ab5760405163a0e5a0d760e01b815233600482015260240161046d565b60010180546001600160a01b0319169055565b7f66d20a9eef910d2df763b9de0d390f3cc67f7d52c6475118cd57fa98be8cf6cc54600080516020611c25833981519152906001600160a01b031633811461091b5760405163a0e5a0d760e01b815233600482015260240161046d565b8154604080516101009092046001600160a01b039081168352831660208301527fb532073b38c83145e3e5135377a08bf9aab55bc0fd7c1179cd4fb995d2a5159c910160405180910390a181546001600160a01b0390911661010002610100600160a81b031990911617815560010180546001600160a01b0319169055565b600080516020611c258339815191525461010090046001600160a01b031690565b6060600080516020611c4583398151915260010180546103c390611a90565b336001600160a01b0383161415610a0f5760405163132d05df60e31b81526001600160a01b038316600482015260240161046d565b3360008181527fcff586616dbfd8fcbd4d6ec876c80f6e96179ad989cea8424b590d1e270e5bd5602090815260408083206001600160a01b03871680855290835292819020805460ff191686151590811790915590519081529192917f17307eab39ab6107e8899845ad3d59bd9653f200f220920489ca2b5937696c31910160405180910390a35050565b610aa43383610ebb565b610ac35760405163472511eb60e11b815233600482015260240161046d565b610ace848484610f1a565b610ada84848484611340565b610572576040516307d7841560e21b81526001600160a01b038416600482015260240161046d565b600080516020611c6583398151915280546001600160a01b038381166001600160a81b031983168117600160a01b1784556040805192909316602480840182905284518085039091018152604490930184526020830180516001600160e01b0316631b2ce7f360e11b1790529251600092610b7c91611acb565b600060405180830381855af49150503d8060008114610bb7576040519150601f19603f3d011682016040523d82523d6000602084013e610bbc565b606091505b50509050801580610bee57506001600160a01b038216600080516020611c65833981519152546001600160a01b031614155b15610c0c57604051631439f4b560e31b815260040160405180910390fd5b825460ff60a01b19168355600080fd5b6060610c2782610db5565b610c475760405163c927e5bf60e01b81526004810183905260240161046d565b6000600080516020611c458339815191526002018054610c6690611a90565b80601f0160208091040260200160405190810160405280929190818152602001828054610c9290611a90565b8015610cdf5780601f10610cb457610100808354040283529160200191610cdf565b820191906000526020600020905b815481529060010190602001808311610cc257829003601f168201915b505050505090506000815111610d045760405180602001604052806000815250610d2f565b80610d0e846113e7565b604051602001610d1f929190611ae7565b6040516020818303038152906040525b9392505050565b6001600160a01b0391821660009081527fcff586616dbfd8fcbd4d6ec876c80f6e96179ad989cea8424b590d1e270e5bd56020908152604080832093909416825291909152205460ff1690565b6000610db07fc8ca6284657224e913ed6965e10e3e3b51a0642aff2bbaaae02f526ca2fe92c75460ff1690565b905090565b60009081527fcff586616dbfd8fcbd4d6ec876c80f6e96179ad989cea8424b590d1e270e5bd260205260409020546001600160a01b0316151590565b60008181527fcff586616dbfd8fcbd4d6ec876c80f6e96179ad989cea8424b590d1e270e5bd46020526040902080546001600160a01b0319166001600160a01b0384169081179091558190610e4582610785565b6001600160a01b03167f8c5be1e5ebec7d5bd14f71427d1e84f3dd0314c0f7b2291e5b200ac8c7c3b92560405160405180910390a45050565b610e8661099a565b6001600160a01b0316336001600160a01b031614610eb95760405163472511eb60e11b815233600482015260240161046d565b565b600080610ec783610785565b9050806001600160a01b0316846001600160a01b03161480610f025750836001600160a01b0316610ef784610446565b6001600160a01b0316145b80610f125750610f128185610d36565b949350505050565b600080516020611c458339815191526001600160a01b038416610f3c83610785565b6001600160a01b031614610f6e5760405163472511eb60e11b81526001600160a01b038516600482015260240161046d565b6001600160a01b038316610f955760405163d92e233d60e01b815260040160405180910390fd5b610fa0600083610df1565b6001600160a01b03841660009081526004820160205260408120805460019290610fcb908490611b2c565b90915550506001600160a01b03831660009081526004820160205260408120805460019290610ffb908490611b43565b90915550506000828152600382016020526040902080546001600160a01b0319166001600160a01b0385161790556110348484846114e5565b81836001600160a01b0316856001600160a01b03167fddf252ad1be2c89b69c2b068fc378daa952ba7f163c4a11628f55a4df523b3ef60405160405180910390a450505050565b6001600160a01b0381166110a25760405163d92e233d60e01b815260040160405180910390fd5b803b6110cc576040516322a2d07b60e21b81526001600160a01b038216600482015260240161046d565b600080516020611c6583398151915280546001600160a01b03838116911614156111095760405163a88ee57760e01b815260040160405180910390fd5b8054600160a01b900460ff16158015611126575061112682611575565b1561114f57604051631550430160e01b81526001600160a01b038316600482015260240161046d565b80546001600160a01b0319166001600160a01b03831690811782556040519081527fbc7cd75a20ee27fd9adebab32041f755214dbc6bffa90cc0225b39da2e5c2d3b906020016106f4565b600080516020611c458339815191526001600160a01b0383166111d05760405163d92e233d60e01b815260040160405180910390fd5b6111d982610db5565b156111fa576040516322d1d39560e21b81526004810183905260240161046d565b6001600160a01b03831660009081526004820160205260408120805460019290611225908490611b43565b9091555050600082815260038201602052604080822080546001600160a01b0319166001600160a01b03871690811790915590518492907fddf252ad1be2c89b69c2b068fc378daa952ba7f163c4a11628f55a4df523b3ef908290a4505050565b600080516020611c45833981519152805460009082906112a590611a90565b905011806112c3575060008160010180546112bf90611a90565b9050115b806112de575060008160020180546112da90611a90565b9050115b156112fb5760405162dc149f60e41b815260040160405180910390fd5b835161130d9082906020870190611673565b5082516113239060018301906020860190611673565b5081516113399060028301906020850190611673565b5050505050565b6000833b156113dc57604051630a85bd0160e11b81526001600160a01b0385169063150b7a029061137b903390899088908890600401611b5b565b6020604051808303816000875af19250505080156113b6575060408051601f3d908101601f191682019092526113b391810190611b98565b60015b6113c257506000610f12565b6001600160e01b031916630a85bd0160e11b149050610f12565b506001949350505050565b60608161140b5750506040805180820190915260018152600360fc1b602082015290565b8160005b8115611435578061141f81611bb5565b915061142e9050600a83611be6565b915061140f565b60008167ffffffffffffffff81111561145057611450611860565b6040519080825280601f01601f19166020018201604052801561147a576020820181803683370190505b5090505b8415610f125761148f600183611b2c565b915061149c600a86611bfa565b6114a7906030611b43565b60f81b8183815181106114bc576114bc611c0e565b60200101906001600160f81b031916908160001a9053506114de600a86611be6565b945061147e565b7fc8ca6284657224e913ed6965e10e3e3b51a0642aff2bbaaae02f526ca2fe92c754604051639169187360e01b81526001600160a01b0384811660048301526024820184905261010090920490911690639169187390604401600060405180830381600087803b15801561155857600080fd5b505af115801561156c573d6000803e3d6000fd5b50505050505050565b604080516001600160a01b03831660248083019190915282518083039091018152604490910182526020810180516001600160e01b03166363fb166d60e11b17905290516000918291829130916115cc9190611acb565b600060405180830381855af49150503d8060008114611607576040519150601f19603f3d011682016040523d82523d6000602084013e61160c565b606091505b509150915081158015610f125750604051631439f4b560e31b602082015260240160405160208183030381529060405280519060200120816040516020016116549190611acb565b6040516020818303038152906040528051906020012014949350505050565b82805461167f90611a90565b90600052602060002090601f0160209004810192826116a157600085556116e7565b82601f106116ba57805160ff19168380011785556116e7565b828001600101855582156116e7579182015b828111156116e75782518255916020019190600101906116cc565b506116f39291506116f7565b5090565b5b808211156116f357600081556001016116f8565b6001600160e01b0319811681146106a457600080fd5b60006020828403121561173457600080fd5b8135610d2f8161170c565b60005b8381101561175a578181015183820152602001611742565b838111156105725750506000910152565b6000815180845261178381602086016020860161173f565b601f01601f19169290920160200192915050565b602081526000610d2f602083018461176b565b6000602082840312156117bc57600080fd5b5035919050565b80356001600160a01b03811681146117da57600080fd5b919050565b600080604083850312156117f257600080fd5b6117fb836117c3565b946020939093013593505050565b60006020828403121561181b57600080fd5b610d2f826117c3565b60008060006060848603121561183957600080fd5b611842846117c3565b9250611850602085016117c3565b9150604084013590509250925092565b634e487b7160e01b600052604160045260246000fd5b600067ffffffffffffffff8084111561189157611891611860565b604051601f8501601f19908116603f011681019082821181831017156118b9576118b9611860565b816040528093508581528686860111156118d257600080fd5b858560208301376000602087830101525050509392505050565b600082601f8301126118fd57600080fd5b610d2f83833560208501611876565b6000806000806080858703121561192257600080fd5b843567ffffffffffffffff8082111561193a57600080fd5b611946888389016118ec565b9550602087013591508082111561195c57600080fd5b611968888389016118ec565b9450604087013591508082111561197e57600080fd5b5061198b878288016118ec565b92505061199a606086016117c3565b905092959194509250565b600080604083850312156119b857600080fd5b6119c1836117c3565b9150602083013580151581146119d657600080fd5b809150509250929050565b600080600080608085870312156119f757600080fd5b611a00856117c3565b9350611a0e602086016117c3565b925060408501359150606085013567ffffffffffffffff811115611a3157600080fd5b8501601f81018713611a4257600080fd5b611a5187823560208401611876565b91505092959194509250565b60008060408385031215611a7057600080fd5b611a79836117c3565b9150611a87602084016117c3565b90509250929050565b600181811c90821680611aa457607f821691505b60208210811415611ac557634e487b7160e01b600052602260045260246000fd5b50919050565b60008251611add81846020870161173f565b9190910192915050565b60008351611af981846020880161173f565b835190830190611b0d81836020880161173f565b01949350505050565b634e487b7160e01b600052601160045260246000fd5b600082821015611b3e57611b3e611b16565b500390565b60008219821115611b5657611b56611b16565b500190565b6001600160a01b0385811682528416602082015260408101839052608060608201819052600090611b8e9083018461176b565b9695505050505050565b600060208284031215611baa57600080fd5b8151610d2f8161170c565b6000600019821415611bc957611bc9611b16565b5060010190565b634e487b7160e01b600052601260045260246000fd5b600082611bf557611bf5611bd0565b500490565b600082611c0957611c09611bd0565b500690565b634e487b7160e01b600052603260045260246000fdfe66d20a9eef910d2df763b9de0d390f3cc67f7d52c6475118cd57fa98be8cf6cbcff586616dbfd8fcbd4d6ec876c80f6e96179ad989cea8424b590d1e270e5bcf32402780481dd8149e50baad867f01da72e2f7d02639a6fe378dbd80b6bb446ea264697066735822122084c467cef6d185a20b8504941b6a32a87f43d14900bdd5f091cdf4f40e579ed464736f6c634300080b0033","linkReferences":{},"deployedLinkReferences":{}}