{
  "_format": "hh-sol-artifact-1",
  "contractName": "AccountModule",
  "sourceName": "contracts/modules/core/AccountModule.sol",
  "abi": [
    {
      "inputs": [
        {
          "internalType": "bytes32",
          "name": "permission",
          "type": "bytes32"
        }
      ],
      "name": "InvalidPermission",
      "type": "error"
    },
    {
      "inputs": [],
      "name": "InvalidPermission",
      "type": "error"
    },
    {
      "inputs": [
        {
          "internalType": "address",
          "name": "origin",
          "type": "address"
        }
      ],
      "name": "OnlyAccountTokenProxy",
      "type": "error"
    },
    {
      "inputs": [
        {
          "internalType": "uint128",
          "name": "accountId",
          "type": "uint128"
        },
        {
          "internalType": "bytes32",
          "name": "permission",
          "type": "bytes32"
        },
        {
          "internalType": "address",
          "name": "target",
          "type": "address"
        }
      ],
      "name": "PermissionDenied",
      "type": "error"
    },
    {
      "inputs": [
        {
          "internalType": "uint128",
          "name": "accountId",
          "type": "uint128"
        },
        {
          "internalType": "bytes32",
          "name": "permission",
          "type": "bytes32"
        },
        {
          "internalType": "address",
          "name": "user",
          "type": "address"
        }
      ],
      "name": "PermissionNotGranted",
      "type": "error"
    },
    {
      "inputs": [],
      "name": "PositionOutOfBounds",
      "type": "error"
    },
    {
      "inputs": [],
      "name": "ValueAlreadyInSet",
      "type": "error"
    },
    {
      "inputs": [],
      "name": "ValueNotInSet",
      "type": "error"
    },
    {
      "inputs": [],
      "name": "ZeroAddress",
      "type": "error"
    },
    {
      "anonymous": false,
      "inputs": [
        {
          "indexed": true,
          "internalType": "address",
          "name": "sender",
          "type": "address"
        },
        {
          "indexed": true,
          "internalType": "uint128",
          "name": "accountId",
          "type": "uint128"
        }
      ],
      "name": "AccountCreated",
      "type": "event"
    },
    {
      "anonymous": false,
      "inputs": [
        {
          "indexed": true,
          "internalType": "uint128",
          "name": "accountId",
          "type": "uint128"
        },
        {
          "indexed": true,
          "internalType": "bytes32",
          "name": "permission",
          "type": "bytes32"
        },
        {
          "indexed": true,
          "internalType": "address",
          "name": "user",
          "type": "address"
        },
        {
          "indexed": false,
          "internalType": "address",
          "name": "sender",
          "type": "address"
        }
      ],
      "name": "PermissionGranted",
      "type": "event"
    },
    {
      "anonymous": false,
      "inputs": [
        {
          "indexed": true,
          "internalType": "uint128",
          "name": "accountId",
          "type": "uint128"
        },
        {
          "indexed": true,
          "internalType": "bytes32",
          "name": "permission",
          "type": "bytes32"
        },
        {
          "indexed": true,
          "internalType": "address",
          "name": "user",
          "type": "address"
        },
        {
          "indexed": false,
          "internalType": "address",
          "name": "sender",
          "type": "address"
        }
      ],
      "name": "PermissionRevoked",
      "type": "event"
    },
    {
      "inputs": [
        {
          "internalType": "uint128",
          "name": "requestedAccountId",
          "type": "uint128"
        }
      ],
      "name": "createAccount",
      "outputs": [],
      "stateMutability": "nonpayable",
      "type": "function"
    },
    {
      "inputs": [
        {
          "internalType": "uint128",
          "name": "accountId",
          "type": "uint128"
        }
      ],
      "name": "getAccountOwner",
      "outputs": [
        {
          "internalType": "address",
          "name": "",
          "type": "address"
        }
      ],
      "stateMutability": "view",
      "type": "function"
    },
    {
      "inputs": [
        {
          "internalType": "uint128",
          "name": "accountId",
          "type": "uint128"
        }
      ],
      "name": "getAccountPermissions",
      "outputs": [
        {
          "components": [
            {
              "internalType": "address",
              "name": "user",
              "type": "address"
            },
            {
              "internalType": "bytes32[]",
              "name": "permissions",
              "type": "bytes32[]"
            }
          ],
          "internalType": "struct IAccountModule.AccountPermissions[]",
          "name": "permissions",
          "type": "tuple[]"
        }
      ],
      "stateMutability": "view",
      "type": "function"
    },
    {
      "inputs": [],
      "name": "getAccountTokenAddress",
      "outputs": [
        {
          "internalType": "address",
          "name": "",
          "type": "address"
        }
      ],
      "stateMutability": "view",
      "type": "function"
    },
    {
      "inputs": [
        {
          "internalType": "uint128",
          "name": "accountId",
          "type": "uint128"
        },
        {
          "internalType": "bytes32",
          "name": "permission",
          "type": "bytes32"
        },
        {
          "internalType": "address",
          "name": "user",
          "type": "address"
        }
      ],
      "name": "grantPermission",
      "outputs": [],
      "stateMutability": "nonpayable",
      "type": "function"
    },
    {
      "inputs": [
        {
          "internalType": "uint128",
          "name": "accountId",
          "type": "uint128"
        },
        {
          "internalType": "bytes32",
          "name": "permission",
          "type": "bytes32"
        },
        {
          "internalType": "address",
          "name": "user",
          "type": "address"
        }
      ],
      "name": "hasPermission",
      "outputs": [
        {
          "internalType": "bool",
          "name": "",
          "type": "bool"
        }
      ],
      "stateMutability": "view",
      "type": "function"
    },
    {
      "inputs": [
        {
          "internalType": "uint128",
          "name": "accountId",
          "type": "uint128"
        },
        {
          "internalType": "bytes32",
          "name": "permission",
          "type": "bytes32"
        },
        {
          "internalType": "address",
          "name": "user",
          "type": "address"
        }
      ],
      "name": "isAuthorized",
      "outputs": [
        {
          "internalType": "bool",
          "name": "",
          "type": "bool"
        }
      ],
      "stateMutability": "view",
      "type": "function"
    },
    {
      "inputs": [
        {
          "internalType": "address",
          "name": "to",
          "type": "address"
        },
        {
          "internalType": "uint128",
          "name": "accountId",
          "type": "uint128"
        }
      ],
      "name": "notifyAccountTransfer",
      "outputs": [],
      "stateMutability": "nonpayable",
      "type": "function"
    },
    {
      "inputs": [
        {
          "internalType": "uint128",
          "name": "accountId",
          "type": "uint128"
        },
        {
          "internalType": "bytes32",
          "name": "permission",
          "type": "bytes32"
        }
      ],
      "name": "renouncePermission",
      "outputs": [],
      "stateMutability": "nonpayable",
      "type": "function"
    },
    {
      "inputs": [
        {
          "internalType": "uint128",
          "name": "accountId",
          "type": "uint128"
        },
        {
          "internalType": "bytes32",
          "name": "permission",
          "type": "bytes32"
        },
        {
          "internalType": "address",
          "name": "user",
          "type": "address"
        }
      ],
      "name": "revokePermission",
      "outputs": [],
      "stateMutability": "nonpayable",
      "type": "function"
    }
  ],
  "bytecode": "0x608060405234801561001057600080fd5b50611a20806100206000396000f3fe608060405234801561001057600080fd5b506004361061009d5760003560e01c8063a148bf1011610066578063a148bf1014610156578063a762728814610174578063a796fecd14610190578063bf60c31d146101c0578063cadb09a5146101f05761009d565b8062cd9ef3146100a25780631213d453146100be57806347c1c561146100ee5780637dec8b551461010a5780638d34166b14610126575b600080fd5b6100bc60048036038101906100b79190611380565b61020c565b005b6100d860048036038101906100d39190611380565b6103d5565b6040516100e591906113ee565b60405180910390f35b61010860048036038101906101039190611409565b610400565b005b610124600480360381019061011f9190611449565b6104eb565b005b610140600480360381019061013b9190611380565b6105c7565b60405161014d91906113ee565b60405180910390f35b61015e6105f2565b60405161016b9190611498565b60405180910390f35b61018e60048036038101906101899190611380565b610646565b005b6101aa60048036038101906101a591906114b3565b6106f7565b6040516101b791906116ac565b60405180910390f35b6101da60048036038101906101d591906114b3565b610850565b6040516101e79190611498565b60405180910390f35b61020a600480360381019061020591906114b3565b610889565b005b817f4445504f53495400000000000000000000000000000000000000000000000000811415801561025d57507f57495448445241570000000000000000000000000000000000000000000000008114155b801561028957507f44454c45474154450000000000000000000000000000000000000000000000008114155b80156102b557507f4d494e54000000000000000000000000000000000000000000000000000000008114155b80156102e157507f41444d494e0000000000000000000000000000000000000000000000000000008114155b1561032357806040517f2739d2b200000000000000000000000000000000000000000000000000000000815260040161031a91906116dd565b60405180910390fd5b61034d847f41444d494e000000000000000000000000000000000000000000000000000000610967565b61036d838361035b876109d0565b600101610a059092919063ffffffff16565b8173ffffffffffffffffffffffffffffffffffffffff1683856fffffffffffffffffffffffffffffffff167f32ff7c3f84299a3543c1e89057e98ba962f4fbe7786c52289e184c57b9a36a50336040516103c79190611498565b60405180910390a450505050565b60006103f783836103e5876109d0565b600101610b309092919063ffffffff16565b90509392505050565b610420813361040e856109d0565b600101610bd29092919063ffffffff16565b610465578181336040517fee7f573c00000000000000000000000000000000000000000000000000000000815260040161045c93929190611707565b60405180910390fd5b6104858133610473856109d0565b600101610c689092919063ffffffff16565b3373ffffffffffffffffffffffffffffffffffffffff1681836fffffffffffffffffffffffffffffffff167f116c7e9cd2db316974fb473babcbcd625be1350842d0319e761d30aefb09a58a336040516104df9190611498565b60405180910390a45050565b6104f36105f2565b73ffffffffffffffffffffffffffffffffffffffff163373ffffffffffffffffffffffffffffffffffffffff161461056257336040517f937989a40000000000000000000000000000000000000000000000000000000081526004016105599190611498565b60405180910390fd5b600061056d826109d0565b90506105ac8160010160000160009054906101000a900473ffffffffffffffffffffffffffffffffffffffff1682600101610d2890919063ffffffff16565b6105c28382600101610dce90919063ffffffff16565b505050565b60006105e983836105d7876109d0565b600101610bd29092919063ffffffff16565b90509392505050565b600061061d7f6163636f756e744e667400000000000000000000000000000000000000000000610e15565b60000160009054906101000a900473ffffffffffffffffffffffffffffffffffffffff16905090565b610670837f41444d494e000000000000000000000000000000000000000000000000000000610967565b610690828261067e866109d0565b600101610c689092919063ffffffff16565b8073ffffffffffffffffffffffffffffffffffffffff1682846fffffffffffffffffffffffffffffffff167f116c7e9cd2db316974fb473babcbcd625be1350842d0319e761d30aefb09a58a336040516106ea9190611498565b60405180910390a4505050565b60606000610704836109d0565b6001019050600061071782600201610e4a565b90508067ffffffffffffffff8111156107335761073261173e565b5b60405190808252806020026020018201604052801561076c57816020015b61075961126f565b8152602001906001900390816107515790505b5092506000600190505b8181116108485760006107958285600201610e5f90919063ffffffff16565b905060405180604001604052808273ffffffffffffffffffffffffffffffffffffffff1681526020016108078660010160008573ffffffffffffffffffffffffffffffffffffffff1673ffffffffffffffffffffffffffffffffffffffff168152602001908152602001600020610e79565b8152508560018461081891906117a6565b81518110610829576108286117da565b5b602002602001018190525050808061084090611809565b915050610776565b505050919050565b600061085b826109d0565b60010160000160009054906101000a900473ffffffffffffffffffffffffffffffffffffffff169050919050565b60006108936105f2565b90508073ffffffffffffffffffffffffffffffffffffffff166340c10f1933846040518363ffffffff1660e01b81526004016108d092919061188d565b600060405180830381600087803b1580156108ea57600080fd5b505af11580156108fe573d6000803e3d6000fd5b5050505061090c8233610ed5565b50816fffffffffffffffffffffffffffffffff163373ffffffffffffffffffffffffffffffffffffffff167ff30c9f4cbc6701cfc4f4e8139a678e19dbf1550d3e90b764206fe4355f5d822f60405160405180910390a35050565b6109878133610975856109d0565b600101610b309092919063ffffffff16565b6109cc578181336040517f01de55220000000000000000000000000000000000000000000000000000000081526004016109c393929190611707565b60405180910390fd5b5050565b600080826040516020016109e49190611913565b60405160208183030381529060405280519060200120905080915050919050565b600073ffffffffffffffffffffffffffffffffffffffff168173ffffffffffffffffffffffffffffffffffffffff161415610a6c576040517fd92e233d00000000000000000000000000000000000000000000000000000000815260040160405180910390fd5b6000821415610aa7576040517f868a64de00000000000000000000000000000000000000000000000000000000815260040160405180910390fd5b610abd8184600201610f6990919063ffffffff16565b610ad857610ad78184600201610f9990919063ffffffff16565b5b610b2b828460010160008473ffffffffffffffffffffffffffffffffffffffff1673ffffffffffffffffffffffffffffffffffffffff168152602001908152602001600020610fc390919063ffffffff16565b505050565b60008360000160009054906101000a900473ffffffffffffffffffffffffffffffffffffffff1673ffffffffffffffffffffffffffffffffffffffff168273ffffffffffffffffffffffffffffffffffffffff161480610bb75750610bb6847f41444d494e00000000000000000000000000000000000000000000000000000084610bd2565b5b80610bc95750610bc8848484610bd2565b5b90509392505050565b60008073ffffffffffffffffffffffffffffffffffffffff168273ffffffffffffffffffffffffffffffffffffffff1614158015610c5f5750610c5e838560010160008573ffffffffffffffffffffffffffffffffffffffff1673ffffffffffffffffffffffffffffffffffffffff16815260200190815260200160002061105490919063ffffffff16565b5b90509392505050565b610cbb828460010160008473ffffffffffffffffffffffffffffffffffffffff1673ffffffffffffffffffffffffffffffffffffffff16815260200190815260200160002061107790919063ffffffff16565b6000610d068460010160008473ffffffffffffffffffffffffffffffffffffffff1673ffffffffffffffffffffffffffffffffffffffff1681526020019081526020016000206111ac565b1415610d2357610d2281846002016111bd90919063ffffffff16565b5b505050565b6000610d738360010160008473ffffffffffffffffffffffffffffffffffffffff1673ffffffffffffffffffffffffffffffffffffffff168152602001908152602001600020610e79565b90506000600190505b81518111610dc857610db58483600184610d9691906117a6565b81518110610da757610da66117da565b5b602002602001015185610c68565b8080610dc090611809565b915050610d7c565b50505050565b808260000160006101000a81548173ffffffffffffffffffffffffffffffffffffffff021916908373ffffffffffffffffffffffffffffffffffffffff1602179055505050565b60008082604051602001610e29919061198d565b60405160208183030381529060405280519060200120905080915050919050565b6000610e58826000016111ac565b9050919050565b6000610e6e83600001836111e7565b60001c905092915050565b606081600001805480602002602001604051908101604052809291908181526020018280548015610ec957602002820191906000526020600020905b815481526020019060010190808311610eb5575b50505050509050919050565b6000610ee0836109d0565b9050828160000160006101000a8154816fffffffffffffffffffffffffffffffff02191690836fffffffffffffffffffffffffffffffff160217905550818160010160000160006101000a81548173ffffffffffffffffffffffffffffffffffffffff021916908373ffffffffffffffffffffffffffffffffffffffff16021790555092915050565b6000610f91836000018373ffffffffffffffffffffffffffffffffffffffff1660001b611054565b905092915050565b610fbf826000018273ffffffffffffffffffffffffffffffffffffffff1660001b610fc3565b5050565b610fcd8282611054565b15611004576040517f682ad32d00000000000000000000000000000000000000000000000000000000815260040160405180910390fd5b816000018190806001815401808255809150506001900390600052602060002001600090919091909150558160000180549050826001016000838152602001908152602001600020819055505050565b600080836001016000848152602001908152602001600020541415905092915050565b600082600101600083815260200190815260200160002054905060008114156110cc576040517fb3dbc29300000000000000000000000000000000000000000000000000000000815260040160405180910390fd5b60006001826110db91906117a6565b90506000600185600001805490506110f391906117a6565b9050808214611162576000856000018281548110611114576111136117da565b5b9060005260206000200154905080866000018481548110611138576111376117da565b5b90600052602060002001819055508386600101600083815260200190815260200160002081905550505b84600001805480611176576111756119bb565b5b60019003818190600052602060002001600090559055846001016000858152602001908152602001600020600090555050505050565b600081600001805490509050919050565b6111e3826000018273ffffffffffffffffffffffffffffffffffffffff1660001b611077565b5050565b6000808214806111fd5750826000018054905082115b15611234576040517feb9bc44700000000000000000000000000000000000000000000000000000000815260040160405180910390fd5b600060018361124391906117a6565b905083600001818154811061125b5761125a6117da565b5b906000526020600020015491505092915050565b6040518060400160405280600073ffffffffffffffffffffffffffffffffffffffff168152602001606081525090565b600080fd5b60006fffffffffffffffffffffffffffffffff82169050919050565b6112c9816112a4565b81146112d457600080fd5b50565b6000813590506112e6816112c0565b92915050565b6000819050919050565b6112ff816112ec565b811461130a57600080fd5b50565b60008135905061131c816112f6565b92915050565b600073ffffffffffffffffffffffffffffffffffffffff82169050919050565b600061134d82611322565b9050919050565b61135d81611342565b811461136857600080fd5b50565b60008135905061137a81611354565b92915050565b6000806000606084860312156113995761139861129f565b5b60006113a7868287016112d7565b93505060206113b88682870161130d565b92505060406113c98682870161136b565b9150509250925092565b60008115159050919050565b6113e8816113d3565b82525050565b600060208201905061140360008301846113df565b92915050565b600080604083850312156114205761141f61129f565b5b600061142e858286016112d7565b925050602061143f8582860161130d565b9150509250929050565b600080604083850312156114605761145f61129f565b5b600061146e8582860161136b565b925050602061147f858286016112d7565b9150509250929050565b61149281611342565b82525050565b60006020820190506114ad6000830184611489565b92915050565b6000602082840312156114c9576114c861129f565b5b60006114d7848285016112d7565b91505092915050565b600081519050919050565b600082825260208201905092915050565b6000819050602082019050919050565b61151581611342565b82525050565b600081519050919050565b600082825260208201905092915050565b6000819050602082019050919050565b611550816112ec565b82525050565b60006115628383611547565b60208301905092915050565b6000602082019050919050565b60006115868261151b565b6115908185611526565b935061159b83611537565b8060005b838110156115cc5781516115b38882611556565b97506115be8361156e565b92505060018101905061159f565b5085935050505092915050565b60006040830160008301516115f1600086018261150c565b5060208301518482036020860152611609828261157b565b9150508091505092915050565b600061162283836115d9565b905092915050565b6000602082019050919050565b6000611642826114e0565b61164c81856114eb565b93508360208202850161165e856114fc565b8060005b8581101561169a578484038952815161167b8582611616565b94506116868361162a565b925060208a01995050600181019050611662565b50829750879550505050505092915050565b600060208201905081810360008301526116c68184611637565b905092915050565b6116d7816112ec565b82525050565b60006020820190506116f260008301846116ce565b92915050565b611701816112a4565b82525050565b600060608201905061171c60008301866116f8565b61172960208301856116ce565b6117366040830184611489565b949350505050565b7f4e487b7100000000000000000000000000000000000000000000000000000000600052604160045260246000fd5b6000819050919050565b7f4e487b7100000000000000000000000000000000000000000000000000000000600052601160045260246000fd5b60006117b18261176d565b91506117bc8361176d565b9250828210156117cf576117ce611777565b5b828203905092915050565b7f4e487b7100000000000000000000000000000000000000000000000000000000600052603260045260246000fd5b60006118148261176d565b91507fffffffffffffffffffffffffffffffffffffffffffffffffffffffffffffffff82141561184757611846611777565b5b600182019050919050565b6000819050919050565b600061187761187261186d846112a4565b611852565b61176d565b9050919050565b6118878161185c565b82525050565b60006040820190506118a26000830185611489565b6118af602083018461187e565b9392505050565b600082825260208201905092915050565b7f4163636f756e7400000000000000000000000000000000000000000000000000600082015250565b60006118fd6007836118b6565b9150611908826118c7565b602082019050919050565b6000604082019050818103600083015261192c816118f0565b905061193b60208301846116f8565b92915050565b7f4173736f63696174656453797374656d00000000000000000000000000000000600082015250565b60006119776010836118b6565b915061198282611941565b602082019050919050565b600060408201905081810360008301526119a68161196a565b90506119b560208301846116ce565b92915050565b7f4e487b7100000000000000000000000000000000000000000000000000000000600052603160045260246000fdfea264697066735822122059d5fb26819beb71c93719036d627096031db150d42624fe2364fde5ef68b6a364736f6c634300080b0033",
  "linkReferences": {},
  "deployedLinkReferences": {}
}