{
  "_format": "hh-sol-artifact-1",
  "contractName": "CollateralModule",
  "sourceName": "contracts/modules/core/CollateralModule.sol",
  "abi": [
    {
      "inputs": [
        {
          "internalType": "address",
          "name": "collateralType",
          "type": "address"
        }
      ],
      "name": "CollateralDepositDisabled",
      "type": "error"
    },
    {
      "inputs": [
        {
          "internalType": "address",
          "name": "from",
          "type": "address"
        },
        {
          "internalType": "address",
          "name": "to",
          "type": "address"
        },
        {
          "internalType": "uint256",
          "name": "value",
          "type": "uint256"
        }
      ],
      "name": "FailedTransfer",
      "type": "error"
    },
    {
      "inputs": [
        {
          "internalType": "uint256",
          "name": "amount",
          "type": "uint256"
        }
      ],
      "name": "InsufficientAccountCollateral",
      "type": "error"
    },
    {
      "inputs": [
        {
          "internalType": "uint256",
          "name": "required",
          "type": "uint256"
        },
        {
          "internalType": "uint256",
          "name": "existing",
          "type": "uint256"
        }
      ],
      "name": "InsufficientAllowance",
      "type": "error"
    },
    {
      "inputs": [
        {
          "internalType": "address",
          "name": "collateralType",
          "type": "address"
        }
      ],
      "name": "InvalidCollateral",
      "type": "error"
    },
    {
      "inputs": [
        {
          "internalType": "string",
          "name": "incorrectParameter",
          "type": "string"
        },
        {
          "internalType": "string",
          "name": "help",
          "type": "string"
        }
      ],
      "name": "InvalidParameters",
      "type": "error"
    },
    {
      "inputs": [],
      "name": "OutOfBounds",
      "type": "error"
    },
    {
      "inputs": [
        {
          "internalType": "uint128",
          "name": "accountId",
          "type": "uint128"
        },
        {
          "internalType": "bytes32",
          "name": "permission",
          "type": "bytes32"
        },
        {
          "internalType": "address",
          "name": "target",
          "type": "address"
        }
      ],
      "name": "PermissionDenied",
      "type": "error"
    },
    {
      "inputs": [],
      "name": "PositionOutOfBounds",
      "type": "error"
    },
    {
      "inputs": [
        {
          "internalType": "address",
          "name": "addr",
          "type": "address"
        }
      ],
      "name": "Unauthorized",
      "type": "error"
    },
    {
      "inputs": [],
      "name": "ValueAlreadyInSet",
      "type": "error"
    },
    {
      "anonymous": false,
      "inputs": [
        {
          "indexed": true,
          "internalType": "address",
          "name": "collateralType",
          "type": "address"
        },
        {
          "components": [
            {
              "internalType": "bool",
              "name": "depositingEnabled",
              "type": "bool"
            },
            {
              "internalType": "uint256",
              "name": "issuanceRatio",
              "type": "uint256"
            },
            {
              "internalType": "uint256",
              "name": "liquidationRatio",
              "type": "uint256"
            },
            {
              "internalType": "uint256",
              "name": "liquidationReward",
              "type": "uint256"
            },
            {
              "internalType": "address",
              "name": "priceFeed",
              "type": "address"
            },
            {
              "internalType": "address",
              "name": "tokenAddress",
              "type": "address"
            },
            {
              "internalType": "uint256",
              "name": "minDelegation",
              "type": "uint256"
            }
          ],
          "indexed": false,
          "internalType": "struct CollateralConfiguration.Data",
          "name": "config",
          "type": "tuple"
        }
      ],
      "name": "CollateralConfigured",
      "type": "event"
    },
    {
      "anonymous": false,
      "inputs": [
        {
          "indexed": true,
          "internalType": "uint128",
          "name": "accountId",
          "type": "uint128"
        },
        {
          "indexed": true,
          "internalType": "address",
          "name": "collateralType",
          "type": "address"
        },
        {
          "indexed": false,
          "internalType": "uint256",
          "name": "amount",
          "type": "uint256"
        },
        {
          "indexed": true,
          "internalType": "address",
          "name": "sender",
          "type": "address"
        }
      ],
      "name": "Deposited",
      "type": "event"
    },
    {
      "anonymous": false,
      "inputs": [
        {
          "indexed": true,
          "internalType": "uint128",
          "name": "accountId",
          "type": "uint128"
        },
        {
          "indexed": true,
          "internalType": "address",
          "name": "collateralType",
          "type": "address"
        },
        {
          "indexed": false,
          "internalType": "uint256",
          "name": "amount",
          "type": "uint256"
        },
        {
          "indexed": true,
          "internalType": "address",
          "name": "sender",
          "type": "address"
        }
      ],
      "name": "Withdrawn",
      "type": "event"
    },
    {
      "inputs": [
        {
          "internalType": "uint128",
          "name": "accountId",
          "type": "uint128"
        },
        {
          "internalType": "address",
          "name": "collateralType",
          "type": "address"
        },
        {
          "internalType": "uint256",
          "name": "offset",
          "type": "uint256"
        },
        {
          "internalType": "uint256",
          "name": "items",
          "type": "uint256"
        }
      ],
      "name": "cleanExpiredLocks",
      "outputs": [],
      "stateMutability": "nonpayable",
      "type": "function"
    },
    {
      "inputs": [
        {
          "components": [
            {
              "internalType": "bool",
              "name": "depositingEnabled",
              "type": "bool"
            },
            {
              "internalType": "uint256",
              "name": "issuanceRatio",
              "type": "uint256"
            },
            {
              "internalType": "uint256",
              "name": "liquidationRatio",
              "type": "uint256"
            },
            {
              "internalType": "uint256",
              "name": "liquidationReward",
              "type": "uint256"
            },
            {
              "internalType": "address",
              "name": "priceFeed",
              "type": "address"
            },
            {
              "internalType": "address",
              "name": "tokenAddress",
              "type": "address"
            },
            {
              "internalType": "uint256",
              "name": "minDelegation",
              "type": "uint256"
            }
          ],
          "internalType": "struct CollateralConfiguration.Data",
          "name": "config",
          "type": "tuple"
        }
      ],
      "name": "configureCollateral",
      "outputs": [],
      "stateMutability": "nonpayable",
      "type": "function"
    },
    {
      "inputs": [
        {
          "internalType": "uint128",
          "name": "accountId",
          "type": "uint128"
        },
        {
          "internalType": "address",
          "name": "collateralType",
          "type": "address"
        },
        {
          "internalType": "uint256",
          "name": "amount",
          "type": "uint256"
        },
        {
          "internalType": "uint64",
          "name": "expireTimestamp",
          "type": "uint64"
        }
      ],
      "name": "createLock",
      "outputs": [],
      "stateMutability": "nonpayable",
      "type": "function"
    },
    {
      "inputs": [
        {
          "internalType": "uint128",
          "name": "accountId",
          "type": "uint128"
        },
        {
          "internalType": "address",
          "name": "collateralType",
          "type": "address"
        },
        {
          "internalType": "uint256",
          "name": "amount",
          "type": "uint256"
        }
      ],
      "name": "deposit",
      "outputs": [],
      "stateMutability": "nonpayable",
      "type": "function"
    },
    {
      "inputs": [
        {
          "internalType": "uint128",
          "name": "accountId",
          "type": "uint128"
        },
        {
          "internalType": "address",
          "name": "collateralType",
          "type": "address"
        }
      ],
      "name": "getAccountAvailableCollateral",
      "outputs": [
        {
          "internalType": "uint256",
          "name": "",
          "type": "uint256"
        }
      ],
      "stateMutability": "view",
      "type": "function"
    },
    {
      "inputs": [
        {
          "internalType": "uint128",
          "name": "accountId",
          "type": "uint128"
        },
        {
          "internalType": "address",
          "name": "collateralType",
          "type": "address"
        }
      ],
      "name": "getAccountCollateral",
      "outputs": [
        {
          "internalType": "uint256",
          "name": "totalDeposited",
          "type": "uint256"
        },
        {
          "internalType": "uint256",
          "name": "totalAssigned",
          "type": "uint256"
        },
        {
          "internalType": "uint256",
          "name": "totalLocked",
          "type": "uint256"
        }
      ],
      "stateMutability": "view",
      "type": "function"
    },
    {
      "inputs": [
        {
          "internalType": "address",
          "name": "collateralType",
          "type": "address"
        }
      ],
      "name": "getCollateralConfiguration",
      "outputs": [
        {
          "components": [
            {
              "internalType": "bool",
              "name": "depositingEnabled",
              "type": "bool"
            },
            {
              "internalType": "uint256",
              "name": "issuanceRatio",
              "type": "uint256"
            },
            {
              "internalType": "uint256",
              "name": "liquidationRatio",
              "type": "uint256"
            },
            {
              "internalType": "uint256",
              "name": "liquidationReward",
              "type": "uint256"
            },
            {
              "internalType": "address",
              "name": "priceFeed",
              "type": "address"
            },
            {
              "internalType": "address",
              "name": "tokenAddress",
              "type": "address"
            },
            {
              "internalType": "uint256",
              "name": "minDelegation",
              "type": "uint256"
            }
          ],
          "internalType": "struct CollateralConfiguration.Data",
          "name": "",
          "type": "tuple"
        }
      ],
      "stateMutability": "view",
      "type": "function"
    },
    {
      "inputs": [
        {
          "internalType": "bool",
          "name": "hideDisabled",
          "type": "bool"
        }
      ],
      "name": "getCollateralConfigurations",
      "outputs": [
        {
          "components": [
            {
              "internalType": "bool",
              "name": "depositingEnabled",
              "type": "bool"
            },
            {
              "internalType": "uint256",
              "name": "issuanceRatio",
              "type": "uint256"
            },
            {
              "internalType": "uint256",
              "name": "liquidationRatio",
              "type": "uint256"
            },
            {
              "internalType": "uint256",
              "name": "liquidationReward",
              "type": "uint256"
            },
            {
              "internalType": "address",
              "name": "priceFeed",
              "type": "address"
            },
            {
              "internalType": "address",
              "name": "tokenAddress",
              "type": "address"
            },
            {
              "internalType": "uint256",
              "name": "minDelegation",
              "type": "uint256"
            }
          ],
          "internalType": "struct CollateralConfiguration.Data[]",
          "name": "",
          "type": "tuple[]"
        }
      ],
      "stateMutability": "view",
      "type": "function"
    },
    {
      "inputs": [
        {
          "internalType": "address",
          "name": "collateralType",
          "type": "address"
        }
      ],
      "name": "getCollateralPrice",
      "outputs": [
        {
          "internalType": "uint256",
          "name": "",
          "type": "uint256"
        }
      ],
      "stateMutability": "view",
      "type": "function"
    },
    {
      "inputs": [
        {
          "internalType": "uint128",
          "name": "accountId",
          "type": "uint128"
        },
        {
          "internalType": "address",
          "name": "collateralType",
          "type": "address"
        },
        {
          "internalType": "uint256",
          "name": "amount",
          "type": "uint256"
        }
      ],
      "name": "withdraw",
      "outputs": [],
      "stateMutability": "nonpayable",
      "type": "function"
    }
  ],
  "bytecode": "0x608060405234801561001057600080fd5b50613001806100206000396000f3fe608060405234801561001057600080fd5b506004361061009e5760003560e01c806383802968116100665780638380296814610157578063927482ff1461017357806395997c51146101a3578063dc0b3f52146101bf578063ef45148e146101ef5761009e565b80630bae9893146100a3578063198f0aa1146100bf5780632f13e335146100db57806351a40994146100f757806375bf244414610127575b600080fd5b6100bd60048036038101906100b89190611f18565b610221565b005b6100d960048036038101906100d49190611f7f565b610393565b005b6100f560048036038101906100f09190612163565b6105c7565b005b610111600480360381019061010c9190612190565b61062d565b60405161011e91906121cc565b60405180910390f35b610141600480360381019061013c91906121e7565b610647565b60405161014e919061237e565b60405180910390f35b610171600480360381019061016c91906123a0565b610855565b005b61018d600480360381019061018891906123f3565b610a8e565b60405161019a91906121cc565b60405180910390f35b6101bd60048036038101906101b891906123a0565b610ae5565b005b6101d960048036038101906101d49190612190565b610cc8565b6040516101e691906124c1565b60405180910390f35b610209600480360381019061020491906123f3565b610dda565b604051610218939291906124dc565b60405180910390f35b61024b847f41444d494e000000000000000000000000000000000000000000000000000000610e07565b600061025685610e70565b905060008061026e8684610ea590919063ffffffff16565b92505091508481836102809190612542565b10156102c357846040517f4c8cb9dc0000000000000000000000000000000000000000000000000000000081526004016102ba91906121cc565b60405180910390fd5b8260070160008773ffffffffffffffffffffffffffffffffffffffff1673ffffffffffffffffffffffffffffffffffffffff16815260200190815260200160002060040160405180604001604052808781526020018667ffffffffffffffff1681525090806001815401808255809150506001900390600052602060002090600202016000909190919091506000820151816000015560208201518160010160006101000a81548167ffffffffffffffff021916908367ffffffffffffffff160217905550505050505050505050565b600061039e85610e70565b60070160008573ffffffffffffffffffffffffffffffffffffffff1673ffffffffffffffffffffffffffffffffffffffff168152602001908152602001600020600401905080805490508311806103f85750808054905082115b1561042f576040517fb4120f1400000000000000000000000000000000000000000000000000000000815260040160405180910390fd5b60004290506000841480156104445750600083145b1561045157818054905092505b60008490505b82805490508110156105be578167ffffffffffffffff1683828154811061048157610480612576565b5b906000526020600020906002020160010160009054906101000a900467ffffffffffffffff1667ffffffffffffffff16116105aa5782600184805490506104c89190612542565b815481106104d9576104d8612576565b5b90600052602060002090600202018382815481106104fa576104f9612576565b5b9060005260206000209060020201600082015481600001556001820160009054906101000a900467ffffffffffffffff168160010160006101000a81548167ffffffffffffffff021916908367ffffffffffffffff16021790555090505082805480610569576105686125a5565b5b60019003818190600052602060002090600202016000808201600090556001820160006101000a81549067ffffffffffffffff0219169055505090556105b9565b80806105b5906125d4565b9150505b610457565b50505050505050565b6105cf610f5a565b6105d881610fd3565b8060a0015173ffffffffffffffffffffffffffffffffffffffff167fc333f78eb59fdaf69552c91246a4f47348f0968fbe0bd8f27df6f885538fb72e8260405161062291906124c1565b60405180910390a250565b600061064061063b83611155565b61118a565b9050919050565b60606000610653611272565b90506000610660826112a3565b905060008167ffffffffffffffff81111561067e5761067d611ffc565b5b6040519080825280602002602001820160405280156106b757816020015b6106a4611d82565b81526020019060019003908161069c5790505b509050600080600190505b8381116108485760006106de82876112b890919063ffffffff16565b905060006106eb82611155565b905088158061070857508060000160009054906101000a900460ff165b1561083357806040518060e00160405290816000820160009054906101000a900460ff161515151581526020016001820154815260200160028201548152602001600382015481526020016004820160009054906101000a900473ffffffffffffffffffffffffffffffffffffffff1673ffffffffffffffffffffffffffffffffffffffff1673ffffffffffffffffffffffffffffffffffffffff1681526020016005820160009054906101000a900473ffffffffffffffffffffffffffffffffffffffff1673ffffffffffffffffffffffffffffffffffffffff1673ffffffffffffffffffffffffffffffffffffffff168152602001600682015481525050858580610814906125d4565b96508151811061082757610826612576565b5b60200260200101819052505b50508080610840906125d4565b9150506106c2565b5081945050505050919050565b61085e826112d2565b610888837f4445504f53495400000000000000000000000000000000000000000000000000610e07565b600061089384610e70565b905060008160010160000160009054906101000a900473ffffffffffffffffffffffffffffffffffffffff169050600030905060008573ffffffffffffffffffffffffffffffffffffffff1663dd62ed3e84846040518363ffffffff1660e01b815260040161090392919061262c565b602060405180830381865afa158015610920573d6000803e3d6000fd5b505050506040513d601f19601f82011682018060405250810190610944919061266a565b90508481101561098d5784816040517f2a1b2dd8000000000000000000000000000000000000000000000000000000008152600401610984929190612697565b60405180910390fd5b6109ba8383878973ffffffffffffffffffffffffffffffffffffffff16611330909392919063ffffffff16565b610a0d858560070160008973ffffffffffffffffffffffffffffffffffffffff1673ffffffffffffffffffffffffffffffffffffffff16815260200190815260200160002061149290919063ffffffff16565b3373ffffffffffffffffffffffffffffffffffffffff168673ffffffffffffffffffffffffffffffffffffffff16886fffffffffffffffffffffffffffffffff167fd92122e67326e9313bfae33ccb1fccf5194584c6bf93a8529a6b006d8c6e24a988604051610a7d91906121cc565b60405180910390a450505050505050565b6000610a9983610e70565b60070160008373ffffffffffffffffffffffffffffffffffffffff1673ffffffffffffffffffffffffffffffffffffffff16815260200190815260200160002060010154905092915050565b610b0f837f5749544844524157000000000000000000000000000000000000000000000000610e07565b6000610b1a84610e70565b9050818160070160008573ffffffffffffffffffffffffffffffffffffffff1673ffffffffffffffffffffffffffffffffffffffff168152602001908152602001600020600101541015610ba557816040517f4c8cb9dc000000000000000000000000000000000000000000000000000000008152600401610b9c91906121cc565b60405180910390fd5b610bf8828260070160008673ffffffffffffffffffffffffffffffffffffffff1673ffffffffffffffffffffffffffffffffffffffff1681526020019081526020016000206114f390919063ffffffff16565b610c4a8160010160000160009054906101000a900473ffffffffffffffffffffffffffffffffffffffff16838573ffffffffffffffffffffffffffffffffffffffff166115129092919063ffffffff16565b3373ffffffffffffffffffffffffffffffffffffffff168373ffffffffffffffffffffffffffffffffffffffff16856fffffffffffffffffffffffffffffffff167f8b5f9d7ce522936589c630db08c0fa2405b21c4a5ff8ef19899900172736ba3885604051610cba91906121cc565b60405180910390a450505050565b610cd0611d82565b610cd982611155565b6040518060e00160405290816000820160009054906101000a900460ff161515151581526020016001820154815260200160028201548152602001600382015481526020016004820160009054906101000a900473ffffffffffffffffffffffffffffffffffffffff1673ffffffffffffffffffffffffffffffffffffffff1673ffffffffffffffffffffffffffffffffffffffff1681526020016005820160009054906101000a900473ffffffffffffffffffffffffffffffffffffffff1673ffffffffffffffffffffffffffffffffffffffff1673ffffffffffffffffffffffffffffffffffffffff1681526020016006820154815250509050919050565b6000806000610dfa84610dec87610e70565b610ea590919063ffffffff16565b9250925092509250925092565b610e278133610e1585610e70565b6001016116719092919063ffffffff16565b610e6c578181336040517f01de5522000000000000000000000000000000000000000000000000000000008152600401610e63939291906126e8565b60405180910390fd5b5050565b60008082604051602001610e84919061277c565b60405160208183030381529060405280519060200120905080915050919050565b6000806000610eb48585611713565b91508460070160008573ffffffffffffffffffffffffffffffffffffffff1673ffffffffffffffffffffffffffffffffffffffff1681526020019081526020016000206001015482610f0691906127aa565b9250610f518560070160008673ffffffffffffffffffffffffffffffffffffffff1673ffffffffffffffffffffffffffffffffffffffff168152602001908152602001600020611806565b90509250925092565b610f626118b1565b73ffffffffffffffffffffffffffffffffffffffff163373ffffffffffffffffffffffffffffffffffffffff1614610fd157336040517f8e4a23d6000000000000000000000000000000000000000000000000000000008152600401610fc89190612800565b60405180910390fd5b565b6000610fdd611272565b9050610ff68260a00151826118e490919063ffffffff16565b611012576110118260a001518261191490919063ffffffff16565b5b81606001518260c00151101561105d576040517f01674a6b000000000000000000000000000000000000000000000000000000008152600401611054906128d9565b60405180910390fd5b600061106c8360a00151611155565b90508260a001518160050160006101000a81548173ffffffffffffffffffffffffffffffffffffffff021916908373ffffffffffffffffffffffffffffffffffffffff160217905550826020015181600101819055508260400151816002018190555082608001518160040160006101000a81548173ffffffffffffffffffffffffffffffffffffffff021916908373ffffffffffffffffffffffffffffffffffffffff160217905550826060015181600301819055508260c00151816006018190555082600001518160000160006101000a81548160ff021916908315150217905550505050565b600080826040516020016111699190612958565b60405160208183030381529060405280519060200120905080915050919050565b6000808260040160009054906101000a900473ffffffffffffffffffffffffffffffffffffffff1673ffffffffffffffffffffffffffffffffffffffff1663feaf968c6040518163ffffffff1660e01b815260040160a060405180830381865afa1580156111fc573d6000803e3d6000fd5b505050506040513d601f19601f8201168201806040525081019061122091906129fe565b50505091505060008113611269576040517f08c379a000000000000000000000000000000000000000000000000000000000815260040161126090612ac5565b60405180910390fd5b80915050919050565b60008060405160200161128490612b57565b6040516020818303038152906040528051906020012090508091505090565b60006112b18260000161193e565b9050919050565b60006112c7836000018361194f565b60001c905092915050565b6112db81611155565b60000160009054906101000a900460ff1661132d57806040517fc109f9e80000000000000000000000000000000000000000000000000000000081526004016113249190612800565b60405180910390fd5b50565b6000808573ffffffffffffffffffffffffffffffffffffffff166323b872dd60e01b86868660405160240161136793929190612b77565b604051602081830303815290604052907bffffffffffffffffffffffffffffffffffffffffffffffffffffffff19166020820180517bffffffffffffffffffffffffffffffffffffffffffffffffffffffff83818316178352505050506040516113d19190612c28565b6000604051808303816000865af19150503d806000811461140e576040519150601f19603f3d011682016040523d82523d6000602084013e611413565b606091505b5091509150811580611444575060008151141580156114435750808060200190518101906114419190612c54565b155b5b1561148a578484846040517f3210e1d900000000000000000000000000000000000000000000000000000000815260040161148193929190612b77565b60405180910390fd5b505050505050565b8160000160009054906101000a900460ff166114d35760018260000160006101000a81548160ff0219169083151502179055508082600101819055506114ef565b808260010160008282546114e791906127aa565b925050819055505b5050565b808260010160008282546115079190612542565b925050819055505050565b6000808473ffffffffffffffffffffffffffffffffffffffff1663a9059cbb60e01b8585604051602401611547929190612c81565b604051602081830303815290604052907bffffffffffffffffffffffffffffffffffffffffffffffffffffffff19166020820180517bffffffffffffffffffffffffffffffffffffffffffffffffffffffff83818316178352505050506040516115b19190612c28565b6000604051808303816000865af19150503d80600081146115ee576040519150601f19603f3d011682016040523d82523d6000602084013e6115f3565b606091505b5091509150811580611624575060008151141580156116235750808060200190518101906116219190612c54565b155b5b1561166a573084846040517f3210e1d900000000000000000000000000000000000000000000000000000000815260040161166193929190612b77565b60405180910390fd5b5050505050565b60008360000160009054906101000a900473ffffffffffffffffffffffffffffffffffffffff1673ffffffffffffffffffffffffffffffffffffffff168273ffffffffffffffffffffffffffffffffffffffff1614806116f857506116f7847f41444d494e000000000000000000000000000000000000000000000000000000846119d7565b5b8061170a57506117098484846119d7565b5b90509392505050565b6000806000905060008460070160008573ffffffffffffffffffffffffffffffffffffffff1673ffffffffffffffffffffffffffffffffffffffff16815260200190815260200160002060020190506000600190505b61177282611a6d565b81116117fa57600061178d8284611a8290919063ffffffff16565b9050600061179a82611a9c565b905060006117d3888a60000160009054906101000a90046fffffffffffffffffffffffffffffffff1684611ad19092919063ffffffff16565b50905080866117e291906127aa565b955050505080806117f2906125d4565b915050611769565b50819250505092915050565b600080429050600080600090505b84600401805490508110156118a657600085600401828154811061183b5761183a612576565b5b906000526020600020906002020190508367ffffffffffffffff168160010160009054906101000a900467ffffffffffffffff1667ffffffffffffffff1611156118925780600001548361188f91906127aa565b92505b50808061189e906125d4565b915050611814565b508092505050919050565b60006118bb611b5c565b60000160019054906101000a900473ffffffffffffffffffffffffffffffffffffffff16905090565b600061190c836000018373ffffffffffffffffffffffffffffffffffffffff1660001b611b8d565b905092915050565b61193a826000018273ffffffffffffffffffffffffffffffffffffffff1660001b611bb0565b5050565b600081600001805490509050919050565b6000808214806119655750826000018054905082115b1561199c576040517feb9bc44700000000000000000000000000000000000000000000000000000000815260040160405180910390fd5b60006001836119ab9190612542565b90508360000181815481106119c3576119c2612576565b5b906000526020600020015491505092915050565b60008073ffffffffffffffffffffffffffffffffffffffff168273ffffffffffffffffffffffffffffffffffffffff1614158015611a645750611a63838560010160008573ffffffffffffffffffffffffffffffffffffffff1673ffffffffffffffffffffffffffffffffffffffff168152602001908152602001600020611b8d90919063ffffffff16565b5b90509392505050565b6000611a7b8260000161193e565b9050919050565b6000611a91836000018361194f565b60001c905092915050565b60008082604051602001611ab09190612cf6565b60405160208183030381529060405280519060200120905080915050919050565b6000806000611ae7611ae286611155565b61118a565b9050611b3c8487600a0160008873ffffffffffffffffffffffffffffffffffffffff1673ffffffffffffffffffffffffffffffffffffffff168152602001908152602001600020611c4190919063ffffffff16565b9250611b518382611c6690919063ffffffff16565b915050935093915050565b600080604051602001611b6e90612d70565b6040516020818303038152906040528051906020012090508091505090565b600080836001016000848152602001908152602001600020541415905092915050565b611bba8282611b8d565b15611bf1576040517f682ad32d00000000000000000000000000000000000000000000000000000000815260040160405180910390fd5b816000018190806001815401808255809150506001900390600052602060002001600090919091909150558160000180549050826001016000838152602001908152602001600020819055505050565b6000611c5e82611c5085611c8f565b611cb190919063ffffffff16565b905092915050565b6000670de0b6b3a76400008284611c7d9190612d90565b611c879190612e19565b905092915050565b6000816002016000836000015481526020019081526020016000209050919050565b6000611cd1611cbf83611cd9565b84600301611cf890919063ffffffff16565b905092915050565b6000816fffffffffffffffffffffffffffffffff1660001b9050919050565b6000611d5983600101600084815260200190815260200160002060000160009054906101000a90046fffffffffffffffffffffffffffffffff16600f0b8460000160109054906101000a9004600f0b600f0b611d549190612e4a565b611d61565b905092915050565b60006b033b2e3c9fd0803ce800000082611d7b9190612f61565b9050919050565b6040518060e00160405280600015158152602001600081526020016000815260200160008152602001600073ffffffffffffffffffffffffffffffffffffffff168152602001600073ffffffffffffffffffffffffffffffffffffffff168152602001600081525090565b6000604051905090565b600080fd5b60006fffffffffffffffffffffffffffffffff82169050919050565b611e2181611dfc565b8114611e2c57600080fd5b50565b600081359050611e3e81611e18565b92915050565b600073ffffffffffffffffffffffffffffffffffffffff82169050919050565b6000611e6f82611e44565b9050919050565b611e7f81611e64565b8114611e8a57600080fd5b50565b600081359050611e9c81611e76565b92915050565b6000819050919050565b611eb581611ea2565b8114611ec057600080fd5b50565b600081359050611ed281611eac565b92915050565b600067ffffffffffffffff82169050919050565b611ef581611ed8565b8114611f0057600080fd5b50565b600081359050611f1281611eec565b92915050565b60008060008060808587031215611f3257611f31611df7565b5b6000611f4087828801611e2f565b9450506020611f5187828801611e8d565b9350506040611f6287828801611ec3565b9250506060611f7387828801611f03565b91505092959194509250565b60008060008060808587031215611f9957611f98611df7565b5b6000611fa787828801611e2f565b9450506020611fb887828801611e8d565b9350506040611fc987828801611ec3565b9250506060611fda87828801611ec3565b91505092959194509250565b600080fd5b6000601f19601f8301169050919050565b7f4e487b7100000000000000000000000000000000000000000000000000000000600052604160045260246000fd5b61203482611feb565b810181811067ffffffffffffffff8211171561205357612052611ffc565b5b80604052505050565b6000612066611ded565b9050612072828261202b565b919050565b60008115159050919050565b61208c81612077565b811461209757600080fd5b50565b6000813590506120a981612083565b92915050565b600060e082840312156120c5576120c4611fe6565b5b6120cf60e061205c565b905060006120df8482850161209a565b60008301525060206120f384828501611ec3565b602083015250604061210784828501611ec3565b604083015250606061211b84828501611ec3565b606083015250608061212f84828501611e8d565b60808301525060a061214384828501611e8d565b60a08301525060c061215784828501611ec3565b60c08301525092915050565b600060e0828403121561217957612178611df7565b5b6000612187848285016120af565b91505092915050565b6000602082840312156121a6576121a5611df7565b5b60006121b484828501611e8d565b91505092915050565b6121c681611ea2565b82525050565b60006020820190506121e160008301846121bd565b92915050565b6000602082840312156121fd576121fc611df7565b5b600061220b8482850161209a565b91505092915050565b600081519050919050565b600082825260208201905092915050565b6000819050602082019050919050565b61224981612077565b82525050565b61225881611ea2565b82525050565b61226781611e64565b82525050565b60e0820160008201516122836000850182612240565b506020820151612296602085018261224f565b5060408201516122a9604085018261224f565b5060608201516122bc606085018261224f565b5060808201516122cf608085018261225e565b5060a08201516122e260a085018261225e565b5060c08201516122f560c085018261224f565b50505050565b6000612307838361226d565b60e08301905092915050565b6000602082019050919050565b600061232b82612214565b612335818561221f565b935061234083612230565b8060005b8381101561237157815161235888826122fb565b975061236383612313565b925050600181019050612344565b5085935050505092915050565b600060208201905081810360008301526123988184612320565b905092915050565b6000806000606084860312156123b9576123b8611df7565b5b60006123c786828701611e2f565b93505060206123d886828701611e8d565b92505060406123e986828701611ec3565b9150509250925092565b6000806040838503121561240a57612409611df7565b5b600061241885828601611e2f565b925050602061242985828601611e8d565b9150509250929050565b60e0820160008201516124496000850182612240565b50602082015161245c602085018261224f565b50604082015161246f604085018261224f565b506060820151612482606085018261224f565b506080820151612495608085018261225e565b5060a08201516124a860a085018261225e565b5060c08201516124bb60c085018261224f565b50505050565b600060e0820190506124d66000830184612433565b92915050565b60006060820190506124f160008301866121bd565b6124fe60208301856121bd565b61250b60408301846121bd565b949350505050565b7f4e487b7100000000000000000000000000000000000000000000000000000000600052601160045260246000fd5b600061254d82611ea2565b915061255883611ea2565b92508282101561256b5761256a612513565b5b828203905092915050565b7f4e487b7100000000000000000000000000000000000000000000000000000000600052603260045260246000fd5b7f4e487b7100000000000000000000000000000000000000000000000000000000600052603160045260246000fd5b60006125df82611ea2565b91507fffffffffffffffffffffffffffffffffffffffffffffffffffffffffffffffff82141561261257612611612513565b5b600182019050919050565b61262681611e64565b82525050565b6000604082019050612641600083018561261d565b61264e602083018461261d565b9392505050565b60008151905061266481611eac565b92915050565b6000602082840312156126805761267f611df7565b5b600061268e84828501612655565b91505092915050565b60006040820190506126ac60008301856121bd565b6126b960208301846121bd565b9392505050565b6126c981611dfc565b82525050565b6000819050919050565b6126e2816126cf565b82525050565b60006060820190506126fd60008301866126c0565b61270a60208301856126d9565b612717604083018461261d565b949350505050565b600082825260208201905092915050565b7f4163636f756e7400000000000000000000000000000000000000000000000000600082015250565b600061276660078361271f565b915061277182612730565b602082019050919050565b6000604082019050818103600083015261279581612759565b90506127a460208301846126c0565b92915050565b60006127b582611ea2565b91506127c083611ea2565b9250827fffffffffffffffffffffffffffffffffffffffffffffffffffffffffffffffff038211156127f5576127f4612513565b5b828201905092915050565b6000602082019050612815600083018461261d565b92915050565b7f6d696e44656c65676174696f6e00000000000000000000000000000000000000600082015250565b6000612851600d8361271f565b915061285c8261281b565b602082019050919050565b7f6d7573742062652067726561746572207468616e206c69717569646174696f6e60008201527f5265776172640000000000000000000000000000000000000000000000000000602082015250565b60006128c360268361271f565b91506128ce82612867565b604082019050919050565b600060408201905081810360008301526128f281612844565b90508181036020830152612905816128b6565b9050919050565b7f436f6c6c61746572616c436f6e66696775726174696f6e000000000000000000600082015250565b600061294260178361271f565b915061294d8261290c565b602082019050919050565b6000604082019050818103600083015261297181612935565b9050612980602083018461261d565b92915050565b600069ffffffffffffffffffff82169050919050565b6129a581612986565b81146129b057600080fd5b50565b6000815190506129c28161299c565b92915050565b6000819050919050565b6129db816129c8565b81146129e657600080fd5b50565b6000815190506129f8816129d2565b92915050565b600080600080600060a08688031215612a1a57612a19611df7565b5b6000612a28888289016129b3565b9550506020612a39888289016129e9565b9450506040612a4a88828901612655565b9350506060612a5b88828901612655565b9250506080612a6c888289016129b3565b9150509295509295909350565b7f54686520636f6c6c61746572616c2076616c7565206973203000000000000000600082015250565b6000612aaf60198361271f565b9150612aba82612a79565b602082019050919050565b60006020820190508181036000830152612ade81612aa2565b9050919050565b7f436f6c6c61746572616c436f6e66696775726174696f6e5f617661696c61626c60008201527f65436f6c6c61746572616c730000000000000000000000000000000000000000602082015250565b6000612b41602c8361271f565b9150612b4c82612ae5565b604082019050919050565b60006020820190508181036000830152612b7081612b34565b9050919050565b6000606082019050612b8c600083018661261d565b612b99602083018561261d565b612ba660408301846121bd565b949350505050565b600081519050919050565b600081905092915050565b60005b83811015612be2578082015181840152602081019050612bc7565b83811115612bf1576000848401525b50505050565b6000612c0282612bae565b612c0c8185612bb9565b9350612c1c818560208601612bc4565b80840191505092915050565b6000612c348284612bf7565b915081905092915050565b600081519050612c4e81612083565b92915050565b600060208284031215612c6a57612c69611df7565b5b6000612c7884828501612c3f565b91505092915050565b6000604082019050612c96600083018561261d565b612ca360208301846121bd565b9392505050565b7f506f6f6c00000000000000000000000000000000000000000000000000000000600082015250565b6000612ce060048361271f565b9150612ceb82612caa565b602082019050919050565b60006040820190508181036000830152612d0f81612cd3565b9050612d1e60208301846126c0565b92915050565b7f4f776e61626c6500000000000000000000000000000000000000000000000000600082015250565b6000612d5a60078361271f565b9150612d6582612d24565b602082019050919050565b60006020820190508181036000830152612d8981612d4d565b9050919050565b6000612d9b82611ea2565b9150612da683611ea2565b9250817fffffffffffffffffffffffffffffffffffffffffffffffffffffffffffffffff0483118215151615612ddf57612dde612513565b5b828202905092915050565b7f4e487b7100000000000000000000000000000000000000000000000000000000600052601260045260246000fd5b6000612e2482611ea2565b9150612e2f83611ea2565b925082612e3f57612e3e612dea565b5b828204905092915050565b6000612e55826129c8565b9150612e60836129c8565b9250827f7fffffffffffffffffffffffffffffffffffffffffffffffffffffffffffffff0482116000841360008413161615612e9f57612e9e612513565b5b817f80000000000000000000000000000000000000000000000000000000000000000583126000841260008413161615612edc57612edb612513565b5b827f80000000000000000000000000000000000000000000000000000000000000000582126000841360008412161615612f1957612f18612513565b5b827f7fffffffffffffffffffffffffffffffffffffffffffffffffffffffffffffff0582126000841260008412161615612f5657612f55612513565b5b828202905092915050565b6000612f6c826129c8565b9150612f77836129c8565b925082612f8757612f86612dea565b5b600160000383147f800000000000000000000000000000000000000000000000000000000000000083141615612fc057612fbf612513565b5b82820590509291505056fea2646970667358221220d9d11a8167a03e6213c19ac197b3eb08898ad066dff05231290060e757d9e9de64736f6c634300080b0033",
  "linkReferences": {},
  "deployedLinkReferences": {}
}