{
  "_format": "hh-sol-artifact-1",
  "contractName": "CollateralConfigurationModule",
  "sourceName": "contracts/modules/core/CollateralConfigurationModule.sol",
  "abi": [
    {
      "inputs": [
        {
          "internalType": "string",
          "name": "parameter",
          "type": "string"
        },
        {
          "internalType": "string",
          "name": "reason",
          "type": "string"
        }
      ],
      "name": "InvalidParameter",
      "type": "error"
    },
    {
      "inputs": [],
      "name": "PositionOutOfBounds",
      "type": "error"
    },
    {
      "inputs": [
        {
          "internalType": "address",
          "name": "addr",
          "type": "address"
        }
      ],
      "name": "Unauthorized",
      "type": "error"
    },
    {
      "inputs": [],
      "name": "ValueAlreadyInSet",
      "type": "error"
    },
    {
      "anonymous": false,
      "inputs": [
        {
          "indexed": true,
          "internalType": "address",
          "name": "collateralType",
          "type": "address"
        },
        {
          "components": [
            {
              "internalType": "bool",
              "name": "depositingEnabled",
              "type": "bool"
            },
            {
              "internalType": "uint256",
              "name": "issuanceRatioD18",
              "type": "uint256"
            },
            {
              "internalType": "uint256",
              "name": "liquidationRatioD18",
              "type": "uint256"
            },
            {
              "internalType": "uint256",
              "name": "liquidationRewardD18",
              "type": "uint256"
            },
            {
              "internalType": "bytes32",
              "name": "oracleNodeId",
              "type": "bytes32"
            },
            {
              "internalType": "address",
              "name": "tokenAddress",
              "type": "address"
            },
            {
              "internalType": "uint256",
              "name": "minDelegationD18",
              "type": "uint256"
            }
          ],
          "indexed": false,
          "internalType": "struct CollateralConfiguration.Data",
          "name": "config",
          "type": "tuple"
        }
      ],
      "name": "CollateralConfigured",
      "type": "event"
    },
    {
      "inputs": [
        {
          "components": [
            {
              "internalType": "bool",
              "name": "depositingEnabled",
              "type": "bool"
            },
            {
              "internalType": "uint256",
              "name": "issuanceRatioD18",
              "type": "uint256"
            },
            {
              "internalType": "uint256",
              "name": "liquidationRatioD18",
              "type": "uint256"
            },
            {
              "internalType": "uint256",
              "name": "liquidationRewardD18",
              "type": "uint256"
            },
            {
              "internalType": "bytes32",
              "name": "oracleNodeId",
              "type": "bytes32"
            },
            {
              "internalType": "address",
              "name": "tokenAddress",
              "type": "address"
            },
            {
              "internalType": "uint256",
              "name": "minDelegationD18",
              "type": "uint256"
            }
          ],
          "internalType": "struct CollateralConfiguration.Data",
          "name": "config",
          "type": "tuple"
        }
      ],
      "name": "configureCollateral",
      "outputs": [],
      "stateMutability": "nonpayable",
      "type": "function"
    },
    {
      "inputs": [
        {
          "internalType": "address",
          "name": "collateralType",
          "type": "address"
        }
      ],
      "name": "getCollateralConfiguration",
      "outputs": [
        {
          "components": [
            {
              "internalType": "bool",
              "name": "depositingEnabled",
              "type": "bool"
            },
            {
              "internalType": "uint256",
              "name": "issuanceRatioD18",
              "type": "uint256"
            },
            {
              "internalType": "uint256",
              "name": "liquidationRatioD18",
              "type": "uint256"
            },
            {
              "internalType": "uint256",
              "name": "liquidationRewardD18",
              "type": "uint256"
            },
            {
              "internalType": "bytes32",
              "name": "oracleNodeId",
              "type": "bytes32"
            },
            {
              "internalType": "address",
              "name": "tokenAddress",
              "type": "address"
            },
            {
              "internalType": "uint256",
              "name": "minDelegationD18",
              "type": "uint256"
            }
          ],
          "internalType": "struct CollateralConfiguration.Data",
          "name": "",
          "type": "tuple"
        }
      ],
      "stateMutability": "view",
      "type": "function"
    },
    {
      "inputs": [
        {
          "internalType": "bool",
          "name": "hideDisabled",
          "type": "bool"
        }
      ],
      "name": "getCollateralConfigurations",
      "outputs": [
        {
          "components": [
            {
              "internalType": "bool",
              "name": "depositingEnabled",
              "type": "bool"
            },
            {
              "internalType": "uint256",
              "name": "issuanceRatioD18",
              "type": "uint256"
            },
            {
              "internalType": "uint256",
              "name": "liquidationRatioD18",
              "type": "uint256"
            },
            {
              "internalType": "uint256",
              "name": "liquidationRewardD18",
              "type": "uint256"
            },
            {
              "internalType": "bytes32",
              "name": "oracleNodeId",
              "type": "bytes32"
            },
            {
              "internalType": "address",
              "name": "tokenAddress",
              "type": "address"
            },
            {
              "internalType": "uint256",
              "name": "minDelegationD18",
              "type": "uint256"
            }
          ],
          "internalType": "struct CollateralConfiguration.Data[]",
          "name": "",
          "type": "tuple[]"
        }
      ],
      "stateMutability": "view",
      "type": "function"
    },
    {
      "inputs": [
        {
          "internalType": "address",
          "name": "collateralType",
          "type": "address"
        }
      ],
      "name": "getCollateralPrice",
      "outputs": [
        {
          "internalType": "uint256",
          "name": "",
          "type": "uint256"
        }
      ],
      "stateMutability": "view",
      "type": "function"
    }
  ],
  "bytecode": "0x608060405234801561001057600080fd5b50610aa7806100206000396000f3fe608060405234801561001057600080fd5b506004361061004c5760003560e01c806351a4099414610051578063644cb0f31461007757806375bf24441461008c578063dc0b3f52146100ac575b600080fd5b61006461005f366004610803565b6100cc565b6040519081526020015b60405180910390f35b61008a610085366004610844565b6100e5565b005b61009f61009a3660046108e2565b61013e565b60405161006e9190610949565b6100bf6100ba366004610803565b61028d565b60405161006e9190610997565b60006100df6100da836102ff565b610375565b92915050565b6100ed610410565b6100f681610452565b8060a001516001600160a01b03167fefc23317f58afd6b22480bd22174cc7da0913bce25c03d9859216dacddebe6fe826040516101339190610997565b60405180910390a250565b6060600061014a610591565b9050600061015782610608565b905060008167ffffffffffffffff8111156101745761017461081e565b6040519080825280602002602001820160405280156101ad57816020015b61019a61079c565b8152602001906001900390816101925790505b509050600060015b8381116102825760006101c88683610612565b905060006101d5826102ff565b90508815806101e55750805460ff165b1561026d576040805160e081018252825460ff161515815260018301546020820152600283015491810191909152600382015460608201526004820154608082015260058201546001600160a01b031660a0820152600682015460c0820152858561024f816109bb565b965081518110610261576102616109d4565b60200260200101819052505b5050808061027a906109bb565b9150506101b5565b509095945050505050565b61029561079c565b61029e826102ff565b6040805160e081018252825460ff161515815260018301546020820152600283015491810191909152600382015460608201526004820154608082015260058201546001600160a01b031660a082015260069091015460c082015292915050565b60008082604051602001610356919060408082526017908201527f436f6c6c61746572616c436f6e66696775726174696f6e00000000000000000060608201526001600160a01b0391909116602082015260800190565b60408051601f1981840301815291905280516020909101209392505050565b600080610380610625565b6040805160208101825291546001600160a01b03168083526004808701549251632a952b2d60e01b81529394506000939192632a952b2d926103c6920190815260200190565b608060405180830381865afa1580156103e3573d6000803e3d6000fd5b505050506040513d601f19601f8201168201806040525081019061040791906109ea565b51949350505050565b610418610659565b6001600160a01b0316336001600160a01b0316146104505760405163472511eb60e11b81523360048201526024015b60405180910390fd5b565b600061045c610591565b90506104758260a001518261067790919063ffffffff16565b6104895760a0820151610489908290610699565b81606001518260c0015110156105175760408051634bab873760e11b81526004810191909152600d60448201526c36b4b72232b632b3b0ba34b7b760991b606482015260806024820152602660848201527f6d7573742062652067726561746572207468616e206c69717569646174696f6e60a48201526514995dd85c9960d21b60c482015260e401610447565b60006105268360a001516102ff565b60a08401516005820180546001600160a01b0319166001600160a01b039092169190911790556020840151600182015560408401516002820155608084015160048201556060840151600382015560c084015160068201559251835460ff1916901515179092555050565b6000806040516020016105ea906020808252602c908201527f436f6c6c61746572616c436f6e66696775726174696f6e5f617661696c61626c60408201526b65436f6c6c61746572616c7360a01b606082015260800190565b60408051601f19818403018152919052805160209091012092915050565b60006100df825490565b600061061e83836106b0565b9392505050565b6000806040516020016105ea906020808252600d908201526c27b930b1b632a6b0b730b3b2b960991b604082015260600190565b6000610663610715565b5461010090046001600160a01b0316919050565b6001600160a01b0381166000908152600183016020526040812054151561061e565b6106ac826001600160a01b038316610743565b5050565b60008115806106bf5750825482115b156106dd5760405163eb9bc44760e01b815260040160405180910390fd5b60006106ea600184610a5e565b9050836000018181548110610701576107016109d4565b906000526020600020015491505092915050565b6000806040516020016105ea906020808252600790820152664f776e61626c6560c81b604082015260600190565b6000818152600183016020526040902054156107725760405163682ad32d60e01b815260040160405180910390fd5b81546001818101845560008481526020808220909301849055845493815293019052604090912055565b6040518060e001604052806000151581526020016000815260200160008152602001600081526020016000801916815260200160006001600160a01b03168152602001600081525090565b80356001600160a01b03811681146107fe57600080fd5b919050565b60006020828403121561081557600080fd5b61061e826107e7565b634e487b7160e01b600052604160045260246000fd5b803580151581146107fe57600080fd5b600060e0828403121561085657600080fd5b60405160e0810181811067ffffffffffffffff8211171561088757634e487b7160e01b600052604160045260246000fd5b60405261089383610834565b8152602083013560208201526040830135604082015260608301356060820152608083013560808201526108c960a084016107e7565b60a082015260c083013560c08201528091505092915050565b6000602082840312156108f457600080fd5b61061e82610834565b8051151582526020808201519083015260408082015190830152606080820151908301526080808201519083015260a0808201516001600160a01b03169083015260c090810151910152565b6020808252825182820181905260009190848201906040850190845b8181101561098b576109788385516108fd565b9284019260e09290920191600101610965565b50909695505050505050565b60e081016100df82846108fd565b634e487b7160e01b600052601160045260246000fd5b6000600182016109cd576109cd6109a5565b5060010190565b634e487b7160e01b600052603260045260246000fd5b6000608082840312156109fc57600080fd5b6040516080810181811067ffffffffffffffff82111715610a2d57634e487b7160e01b600052604160045260246000fd5b8060405250825181526020830151602082015260408301516040820152606083015160608201528091505092915050565b818103818111156100df576100df6109a556fea264697066735822122069815cf03fb638ddfc18b8bf8bc1a5f52884f73546d62d1f7b102bdbcdc35c6c64736f6c63430008110033",
  "linkReferences": {},
  "deployedLinkReferences": {}
}