{
  "_format": "hh-sol-artifact-1",
  "contractName": "CollateralModule",
  "sourceName": "contracts/modules/core/CollateralModule.sol",
  "abi": [
    {
      "inputs": [
        {
          "internalType": "address",
          "name": "collateralType",
          "type": "address"
        }
      ],
      "name": "CollateralDepositDisabled",
      "type": "error"
    },
    {
      "inputs": [],
      "name": "CollateralNotFound",
      "type": "error"
    },
    {
      "inputs": [
        {
          "internalType": "address",
          "name": "from",
          "type": "address"
        },
        {
          "internalType": "address",
          "name": "to",
          "type": "address"
        },
        {
          "internalType": "uint256",
          "name": "value",
          "type": "uint256"
        }
      ],
      "name": "FailedTransfer",
      "type": "error"
    },
    {
      "inputs": [
        {
          "internalType": "uint256",
          "name": "amount",
          "type": "uint256"
        }
      ],
      "name": "InsufficientAccountCollateral",
      "type": "error"
    },
    {
      "inputs": [
        {
          "internalType": "uint256",
          "name": "required",
          "type": "uint256"
        },
        {
          "internalType": "uint256",
          "name": "existing",
          "type": "uint256"
        }
      ],
      "name": "InsufficientAllowance",
      "type": "error"
    },
    {
      "inputs": [],
      "name": "OutOfBounds",
      "type": "error"
    },
    {
      "inputs": [],
      "name": "OverflowInt256ToUint256",
      "type": "error"
    },
    {
      "inputs": [],
      "name": "OverflowUint256ToUint128",
      "type": "error"
    },
    {
      "inputs": [
        {
          "internalType": "uint128",
          "name": "accountId",
          "type": "uint128"
        },
        {
          "internalType": "bytes32",
          "name": "permission",
          "type": "bytes32"
        },
        {
          "internalType": "address",
          "name": "target",
          "type": "address"
        }
      ],
      "name": "PermissionDenied",
      "type": "error"
    },
    {
      "inputs": [],
      "name": "PositionOutOfBounds",
      "type": "error"
    },
    {
      "anonymous": false,
      "inputs": [
        {
          "indexed": true,
          "internalType": "uint128",
          "name": "accountId",
          "type": "uint128"
        },
        {
          "indexed": true,
          "internalType": "address",
          "name": "collateralType",
          "type": "address"
        },
        {
          "indexed": false,
          "internalType": "uint256",
          "name": "tokenAmount",
          "type": "uint256"
        },
        {
          "indexed": true,
          "internalType": "address",
          "name": "sender",
          "type": "address"
        }
      ],
      "name": "Deposited",
      "type": "event"
    },
    {
      "anonymous": false,
      "inputs": [
        {
          "indexed": true,
          "internalType": "uint128",
          "name": "accountId",
          "type": "uint128"
        },
        {
          "indexed": true,
          "internalType": "address",
          "name": "collateralType",
          "type": "address"
        },
        {
          "indexed": false,
          "internalType": "uint256",
          "name": "tokenAmount",
          "type": "uint256"
        },
        {
          "indexed": true,
          "internalType": "address",
          "name": "sender",
          "type": "address"
        }
      ],
      "name": "Withdrawn",
      "type": "event"
    },
    {
      "inputs": [
        {
          "internalType": "uint128",
          "name": "accountId",
          "type": "uint128"
        },
        {
          "internalType": "address",
          "name": "collateralType",
          "type": "address"
        },
        {
          "internalType": "uint256",
          "name": "offset",
          "type": "uint256"
        },
        {
          "internalType": "uint256",
          "name": "items",
          "type": "uint256"
        }
      ],
      "name": "cleanExpiredLocks",
      "outputs": [],
      "stateMutability": "nonpayable",
      "type": "function"
    },
    {
      "inputs": [
        {
          "internalType": "uint128",
          "name": "accountId",
          "type": "uint128"
        },
        {
          "internalType": "address",
          "name": "collateralType",
          "type": "address"
        },
        {
          "internalType": "uint256",
          "name": "amount",
          "type": "uint256"
        },
        {
          "internalType": "uint64",
          "name": "expireTimestamp",
          "type": "uint64"
        }
      ],
      "name": "createLock",
      "outputs": [],
      "stateMutability": "nonpayable",
      "type": "function"
    },
    {
      "inputs": [
        {
          "internalType": "uint128",
          "name": "accountId",
          "type": "uint128"
        },
        {
          "internalType": "address",
          "name": "collateralType",
          "type": "address"
        },
        {
          "internalType": "uint256",
          "name": "tokenAmount",
          "type": "uint256"
        }
      ],
      "name": "deposit",
      "outputs": [],
      "stateMutability": "nonpayable",
      "type": "function"
    },
    {
      "inputs": [
        {
          "internalType": "uint128",
          "name": "accountId",
          "type": "uint128"
        },
        {
          "internalType": "address",
          "name": "collateralType",
          "type": "address"
        }
      ],
      "name": "getAccountAvailableCollateral",
      "outputs": [
        {
          "internalType": "uint256",
          "name": "",
          "type": "uint256"
        }
      ],
      "stateMutability": "view",
      "type": "function"
    },
    {
      "inputs": [
        {
          "internalType": "uint128",
          "name": "accountId",
          "type": "uint128"
        },
        {
          "internalType": "address",
          "name": "collateralType",
          "type": "address"
        }
      ],
      "name": "getAccountCollateral",
      "outputs": [
        {
          "internalType": "uint256",
          "name": "totalDeposited",
          "type": "uint256"
        },
        {
          "internalType": "uint256",
          "name": "totalAssigned",
          "type": "uint256"
        },
        {
          "internalType": "uint256",
          "name": "totalLocked",
          "type": "uint256"
        }
      ],
      "stateMutability": "view",
      "type": "function"
    },
    {
      "inputs": [
        {
          "internalType": "uint128",
          "name": "accountId",
          "type": "uint128"
        },
        {
          "internalType": "address",
          "name": "collateralType",
          "type": "address"
        },
        {
          "internalType": "uint256",
          "name": "tokenAmount",
          "type": "uint256"
        }
      ],
      "name": "withdraw",
      "outputs": [],
      "stateMutability": "nonpayable",
      "type": "function"
    }
  ],
  "bytecode": "0x608060405234801561001057600080fd5b50611451806100206000396000f3fe608060405234801561001057600080fd5b50600436106100625760003560e01c80630bae989314610067578063198f0aa11461007c578063838029681461008f578063927482ff146100a257806395997c51146100c8578063ef45148e146100db575b600080fd5b61007a610075366004611038565b610109565b005b61007a61008a366004611094565b6101ea565b61007a61009d3660046110d6565b61037f565b6100b56100b0366004611112565b6104e5565b6040519081526020015b60405180910390f35b61007a6100d63660046110d6565b610519565b6100ee6100e9366004611112565b610624565b604080519384526020840192909252908201526060016100bf565b61011b846420a226a4a760d91b610649565b600061012685610699565b905060008061013583876106f9565b9250509150848183610147919061115b565b101561016e576040516313232e7760e21b8152600481018690526024015b60405180910390fd5b50506001600160a01b03939093166000908152600790930160209081526040808520815180830190925293815267ffffffffffffffff9283168183019081526004909401805460018082018355918752929095209051600290920201908155915191909201805467ffffffffffffffff19169190921617905550565b60006101f585610699565b6001600160a01b03851660009081526007919091016020526040902060040180549091508311806102265750805482115b1561024457604051632d0483c560e21b815260040160405180910390fd5b4283158015610251575082155b1561025b57815492505b835b8254811015610376578167ffffffffffffffff168382815481106102835761028361116e565b600091825260209091206001600290920201015467ffffffffffffffff161161036457825483906102b69060019061115b565b815481106102c6576102c661116e565b90600052602060002090600202018382815481106102e6576102e661116e565b6000918252602090912082546002909202019081556001918201549101805467ffffffffffffffff191667ffffffffffffffff909216919091179055825483908061033357610333611184565b600082815260208120600260001990930192830201908155600101805467ffffffffffffffff19169055905561025d565b8061036e8161119a565b91505061025d565b50505050505050565b61038882610762565b600061039384610699565b604051636eb1769f60e11b81523360048201819052306024830181905292935091906000906001600160a01b0387169063dd62ed3e90604401602060405180830381865afa1580156103e9573d6000803e3d6000fd5b505050506040513d601f19601f8201168201806040525081019061040d91906111b3565b90508481101561043a5760405163054365bb60e31b81526004810186905260248101829052604401610165565b61044f6001600160a01b03871684848861079a565b6104856104658661045f896108ae565b90610905565b6001600160a01b03881660009081526007870160205260409020906109da565b336001600160a01b0316866001600160a01b0316886001600160801b03167fd92122e67326e9313bfae33ccb1fccf5194584c6bf93a8529a6b006d8c6e24a9886040516104d491815260200190565b60405180910390a450505050505050565b60006104f083610699565b6001600160a01b0383166000908152600791909101602052604090206001015490505b92915050565b61052e8367574954484452415760c01b610649565b600061053984610699565b9050600061054a8361045f866108ae565b6001600160a01b038516600090815260078401602052604090206001015490915081111561058e576040516313232e7760e21b815260048101829052602401610165565b6001600160a01b038416600090815260078301602052604090206105b29082610a13565b6105c66001600160a01b0385163385610a27565b336001600160a01b0316846001600160a01b0316866001600160801b03167f8b5f9d7ce522936589c630db08c0fa2405b21c4a5ff8ef19899900172736ba388660405161061591815260200190565b60405180910390a45050505050565b600080600061063c8461063687610699565b906106f9565b9250925092509250925092565b610661813361065785610699565b6001019190610b30565b6106955760405162ef2a9160e11b81526001600160801b038316600482015260248101829052336044820152606401610165565b5050565b600080826040516020016106da91906040808252600790820152661058d8dbdd5b9d60ca1b60608201526001600160801b0391909116602082015260800190565b60408051601f1981840301815291905280516020909101209392505050565b60008060006107088585610b75565b6001600160a01b038516600090815260078701602052604090206001015490925061073390836111cc565b6001600160a01b0385166000908152600787016020526040902090935061075990610c14565b90509250925092565b61076b816108ae565b5460ff16610797576040516318213f3d60e31b81526001600160a01b0382166004820152602401610165565b50565b604080516001600160a01b0385811660248301528481166044830152606480830185905283518084039091018152608490920183526020820180516001600160e01b03166323b872dd60e01b17905291516000928392908816916107fe91906111df565b6000604051808303816000865af19150503d806000811461083b576040519150601f19603f3d011682016040523d82523d6000602084013e610840565b606091505b509150915081158061086e575080511580159061086e57508080602001905181019061086c919061120e565b155b156108a657604051633210e1d960e01b81526001600160a01b0380871660048301528516602482015260448101849052606401610165565b505050505050565b600080826040516020016106da919060408082526017908201527f436f6c6c61746572616c436f6e66696775726174696f6e00000000000000000060608201526001600160a01b0391909116602082015260800190565b60058201546000906001600160a01b031661093357604051635b348b0760e11b815260040160405180910390fd5b8260050160009054906101000a90046001600160a01b03166001600160a01b031663313ce5676040518163ffffffff1660e01b8152600401602060405180830381865afa158015610988573d6000803e3d6000fd5b505050506040513d601f19601f820116820180604052508101906109ac9190611230565b6109b790600a611337565b6109c9670de0b6b3a764000084611346565b6109d3919061135d565b9392505050565b815460ff166109f657815460ff19166001908117835590910155565b80826001016000828254610a0a91906111cc565b90915550505050565b80826001016000828254610a0a919061115b565b604080516001600160a01b038481166024830152604480830185905283518084039091018152606490920183526020820180516001600160e01b031663a9059cbb60e01b1790529151600092839290871691610a8391906111df565b6000604051808303816000865af19150503d8060008114610ac0576040519150601f19603f3d011682016040523d82523d6000602084013e610ac5565b606091505b5091509150811580610af35750805115801590610af3575080806020019051810190610af1919061120e565b155b15610b2957604051633210e1d960e01b81523060048201526001600160a01b038516602482015260448101849052606401610165565b5050505050565b82546000906001600160a01b0383811691161480610b5c5750610b5c846420a226a4a760d91b84610c93565b80610b6d5750610b6d848484610c93565b949350505050565b6001600160a01b03811660009081526007830160205260408120819060020160015b610ba082610cd8565b8111610c0a576000610bba610bb58484610ce2565b610cee565b90506000610bc782610d1c565b8854909150600090610be59083908a906001600160801b0316610d5a565b509050610bf281876111cc565b95505050508080610c029061119a565b915050610b97565b5090949350505050565b60004281805b6004850154811015610c8b576000856004018281548110610c3d57610c3d61116e565b60009182526020909120600290910201600181015490915067ffffffffffffffff85811691161115610c78578054610c7590846111cc565b92505b5080610c838161119a565b915050610c1a565b509392505050565b60006001600160a01b03821615801590610b6d57506001600160a01b038216600090815260018581016020908152604080842087855290920190529020541515610b6d565b6000610513825490565b60006109d38383610dae565b60006001600160801b03821115610d1857604051637d5864af60e11b815260040160405180910390fd5b5090565b600080826040516020016106da9190604080825260049082015263141bdbdb60e21b60608201526001600160801b0391909116602082015260800190565b6000806000610d70610d6b866108ae565b610e13565b6001600160a01b03861660009081526008880160205260409020909150610d979085610eae565b9250610da38184610eca565b915050935093915050565b6000811580610dbd5750825482115b15610ddb5760405163eb9bc44760e01b815260040160405180910390fd5b6000610de860018461115b565b9050836000018181548110610dff57610dff61116e565b906000526020600020015491505092915050565b600080610e1e610edf565b6040805160208101825291546001600160a01b03168083526004808701549251632a952b2d60e01b81529394506000939192632a952b2d92610e64920190815260200190565b608060405180830381865afa158015610e81573d6000803e3d6000fd5b505050506040513d601f19601f82011682018060405250810190610ea5919061137f565b51949350505050565b8154600090815260028301602052604081206109d39083610f31565b6000670de0b6b3a76400006109c98385611346565b600080604051602001610f13906020808252600d908201526c27b930b1b632a6b0b730b3b2b960991b604082015260600190565b60408051601f19818403018152919052805160209091012092915050565b60006109d3600384016001600160801b03841681546000906001600160801b0316808203610f63576000915050610513565b80610f6d85610f92565b6000858152600187016020526040902054610f889190611346565b610b6d919061135d565b80546000906b033b2e3c9fd0803ce8000000906001600160801b03811690610fce90610fc9908490600160801b9004600f0b6113f3565b610fe2565b610fd89190611346565b610513919061135d565b600080821215610d185760405163029f024d60e31b815260040160405180910390fd5b80356001600160801b038116811461101c57600080fd5b919050565b80356001600160a01b038116811461101c57600080fd5b6000806000806080858703121561104e57600080fd5b61105785611005565b935061106560208601611021565b925060408501359150606085013567ffffffffffffffff8116811461108957600080fd5b939692955090935050565b600080600080608085870312156110aa57600080fd5b6110b385611005565b93506110c160208601611021565b93969395505050506040820135916060013590565b6000806000606084860312156110eb57600080fd5b6110f484611005565b925061110260208501611021565b9150604084013590509250925092565b6000806040838503121561112557600080fd5b61112e83611005565b915061113c60208401611021565b90509250929050565b634e487b7160e01b600052601160045260246000fd5b8181038181111561051357610513611145565b634e487b7160e01b600052603260045260246000fd5b634e487b7160e01b600052603160045260246000fd5b6000600182016111ac576111ac611145565b5060010190565b6000602082840312156111c557600080fd5b5051919050565b8082018082111561051357610513611145565b6000825160005b8181101561120057602081860181015185830152016111e6565b506000920191825250919050565b60006020828403121561122057600080fd5b815180151581146109d357600080fd5b60006020828403121561124257600080fd5b815160ff811681146109d357600080fd5b600181815b8085111561128e57816000190482111561127457611274611145565b8085161561128157918102915b93841c9390800290611258565b509250929050565b6000826112a557506001610513565b816112b257506000610513565b81600181146112c857600281146112d2576112ee565b6001915050610513565b60ff8411156112e3576112e3611145565b50506001821b610513565b5060208310610133831016604e8410600b8410161715611311575081810a610513565b61131b8383611253565b806000190482111561132f5761132f611145565b029392505050565b60006109d360ff841683611296565b808202811582820484141761051357610513611145565b60008261137a57634e487b7160e01b600052601260045260246000fd5b500490565b60006080828403121561139157600080fd5b6040516080810181811067ffffffffffffffff821117156113c257634e487b7160e01b600052604160045260246000fd5b8060405250825181526020830151602082015260408301516040820152606083015160608201528091505092915050565b808201828112600083128015821682158216171561141357611413611145565b50509291505056fea26469706673582212206f1b9920e6f030107ce9dfbd726455d902bb3f8cbf211a627a05745275631e8264736f6c63430008110033",
  "linkReferences": {},
  "deployedLinkReferences": {}
}