{
  "_format": "hh-sol-artifact-1",
  "contractName": "CollateralModule",
  "sourceName": "contracts/modules/core/CollateralModule.sol",
  "abi": [
    {
      "inputs": [
        {
          "internalType": "address",
          "name": "from",
          "type": "address"
        },
        {
          "internalType": "address",
          "name": "to",
          "type": "address"
        },
        {
          "internalType": "uint256",
          "name": "value",
          "type": "uint256"
        }
      ],
      "name": "FailedTransfer",
      "type": "error"
    },
    {
      "inputs": [
        {
          "internalType": "uint256",
          "name": "amount",
          "type": "uint256"
        }
      ],
      "name": "InsufficientAccountCollateral",
      "type": "error"
    },
    {
      "inputs": [
        {
          "internalType": "uint256",
          "name": "required",
          "type": "uint256"
        },
        {
          "internalType": "uint256",
          "name": "existing",
          "type": "uint256"
        }
      ],
      "name": "InsufficientAllowance",
      "type": "error"
    },
    {
      "inputs": [
        {
          "internalType": "address",
          "name": "collateralType",
          "type": "address"
        }
      ],
      "name": "InvalidCollateral",
      "type": "error"
    },
    {
      "inputs": [
        {
          "internalType": "address",
          "name": "collateralType",
          "type": "address"
        }
      ],
      "name": "InvalidCollateral",
      "type": "error"
    },
    {
      "inputs": [],
      "name": "OutOfBounds",
      "type": "error"
    },
    {
      "inputs": [
        {
          "internalType": "uint128",
          "name": "accountId",
          "type": "uint128"
        },
        {
          "internalType": "bytes32",
          "name": "permission",
          "type": "bytes32"
        },
        {
          "internalType": "address",
          "name": "target",
          "type": "address"
        }
      ],
      "name": "PermissionDenied",
      "type": "error"
    },
    {
      "inputs": [],
      "name": "PositionOutOfBounds",
      "type": "error"
    },
    {
      "inputs": [
        {
          "internalType": "address",
          "name": "addr",
          "type": "address"
        }
      ],
      "name": "Unauthorized",
      "type": "error"
    },
    {
      "inputs": [],
      "name": "ValueAlreadyInSet",
      "type": "error"
    },
    {
      "anonymous": false,
      "inputs": [
        {
          "indexed": true,
          "internalType": "address",
          "name": "collateralType",
          "type": "address"
        },
        {
          "indexed": true,
          "internalType": "address",
          "name": "priceFeed",
          "type": "address"
        },
        {
          "indexed": false,
          "internalType": "uint256",
          "name": "targetCollateralizationRatio",
          "type": "uint256"
        },
        {
          "indexed": false,
          "internalType": "uint256",
          "name": "minimumCollateralizationRatio",
          "type": "uint256"
        },
        {
          "indexed": false,
          "internalType": "uint256",
          "name": "liquidationReward",
          "type": "uint256"
        },
        {
          "indexed": true,
          "internalType": "bool",
          "name": "depositingEnabled",
          "type": "bool"
        }
      ],
      "name": "CollateralConfigured",
      "type": "event"
    },
    {
      "anonymous": false,
      "inputs": [
        {
          "indexed": true,
          "internalType": "uint128",
          "name": "accountId",
          "type": "uint128"
        },
        {
          "indexed": true,
          "internalType": "address",
          "name": "collateralType",
          "type": "address"
        },
        {
          "indexed": false,
          "internalType": "uint256",
          "name": "amount",
          "type": "uint256"
        },
        {
          "indexed": true,
          "internalType": "address",
          "name": "sender",
          "type": "address"
        }
      ],
      "name": "Deposited",
      "type": "event"
    },
    {
      "anonymous": false,
      "inputs": [
        {
          "indexed": true,
          "internalType": "uint128",
          "name": "accountId",
          "type": "uint128"
        },
        {
          "indexed": true,
          "internalType": "address",
          "name": "collateralType",
          "type": "address"
        },
        {
          "indexed": false,
          "internalType": "uint256",
          "name": "amount",
          "type": "uint256"
        },
        {
          "indexed": true,
          "internalType": "address",
          "name": "sender",
          "type": "address"
        }
      ],
      "name": "Withdrawn",
      "type": "event"
    },
    {
      "inputs": [
        {
          "internalType": "uint128",
          "name": "accountId",
          "type": "uint128"
        },
        {
          "internalType": "address",
          "name": "collateralType",
          "type": "address"
        },
        {
          "internalType": "uint256",
          "name": "offset",
          "type": "uint256"
        },
        {
          "internalType": "uint256",
          "name": "items",
          "type": "uint256"
        }
      ],
      "name": "cleanExpiredLocks",
      "outputs": [],
      "stateMutability": "nonpayable",
      "type": "function"
    },
    {
      "inputs": [
        {
          "internalType": "address",
          "name": "collateralType",
          "type": "address"
        },
        {
          "internalType": "address",
          "name": "priceFeed",
          "type": "address"
        },
        {
          "internalType": "uint256",
          "name": "targetCRatio",
          "type": "uint256"
        },
        {
          "internalType": "uint256",
          "name": "minimumCRatio",
          "type": "uint256"
        },
        {
          "internalType": "uint256",
          "name": "liquidationReward",
          "type": "uint256"
        },
        {
          "internalType": "bool",
          "name": "depositingEnabled",
          "type": "bool"
        }
      ],
      "name": "configureCollateral",
      "outputs": [],
      "stateMutability": "nonpayable",
      "type": "function"
    },
    {
      "inputs": [
        {
          "internalType": "uint128",
          "name": "accountId",
          "type": "uint128"
        },
        {
          "internalType": "address",
          "name": "collateralType",
          "type": "address"
        },
        {
          "internalType": "uint256",
          "name": "amount",
          "type": "uint256"
        },
        {
          "internalType": "uint64",
          "name": "expireTimestamp",
          "type": "uint64"
        }
      ],
      "name": "createLock",
      "outputs": [],
      "stateMutability": "nonpayable",
      "type": "function"
    },
    {
      "inputs": [
        {
          "internalType": "uint128",
          "name": "accountId",
          "type": "uint128"
        },
        {
          "internalType": "address",
          "name": "collateralType",
          "type": "address"
        },
        {
          "internalType": "uint256",
          "name": "amount",
          "type": "uint256"
        }
      ],
      "name": "deposit",
      "outputs": [],
      "stateMutability": "nonpayable",
      "type": "function"
    },
    {
      "inputs": [
        {
          "internalType": "uint128",
          "name": "accountId",
          "type": "uint128"
        },
        {
          "internalType": "address",
          "name": "collateralType",
          "type": "address"
        }
      ],
      "name": "getAccountAvailableCollateral",
      "outputs": [
        {
          "internalType": "uint256",
          "name": "",
          "type": "uint256"
        }
      ],
      "stateMutability": "view",
      "type": "function"
    },
    {
      "inputs": [
        {
          "internalType": "uint128",
          "name": "accountId",
          "type": "uint128"
        },
        {
          "internalType": "address",
          "name": "collateralType",
          "type": "address"
        }
      ],
      "name": "getAccountCollateral",
      "outputs": [
        {
          "internalType": "uint256",
          "name": "totalDeposited",
          "type": "uint256"
        },
        {
          "internalType": "uint256",
          "name": "totalAssigned",
          "type": "uint256"
        },
        {
          "internalType": "uint256",
          "name": "totalLocked",
          "type": "uint256"
        }
      ],
      "stateMutability": "view",
      "type": "function"
    },
    {
      "inputs": [
        {
          "internalType": "address",
          "name": "collateralType",
          "type": "address"
        }
      ],
      "name": "getCollateralConfiguration",
      "outputs": [
        {
          "components": [
            {
              "internalType": "bool",
              "name": "depositingEnabled",
              "type": "bool"
            },
            {
              "internalType": "uint256",
              "name": "targetCRatio",
              "type": "uint256"
            },
            {
              "internalType": "uint256",
              "name": "minimumCRatio",
              "type": "uint256"
            },
            {
              "internalType": "uint256",
              "name": "liquidationReward",
              "type": "uint256"
            },
            {
              "internalType": "address",
              "name": "priceFeed",
              "type": "address"
            },
            {
              "internalType": "address",
              "name": "tokenAddress",
              "type": "address"
            }
          ],
          "internalType": "struct CollateralConfiguration.Data",
          "name": "",
          "type": "tuple"
        }
      ],
      "stateMutability": "view",
      "type": "function"
    },
    {
      "inputs": [
        {
          "internalType": "bool",
          "name": "hideDisabled",
          "type": "bool"
        }
      ],
      "name": "getCollateralConfigurations",
      "outputs": [
        {
          "components": [
            {
              "internalType": "bool",
              "name": "depositingEnabled",
              "type": "bool"
            },
            {
              "internalType": "uint256",
              "name": "targetCRatio",
              "type": "uint256"
            },
            {
              "internalType": "uint256",
              "name": "minimumCRatio",
              "type": "uint256"
            },
            {
              "internalType": "uint256",
              "name": "liquidationReward",
              "type": "uint256"
            },
            {
              "internalType": "address",
              "name": "priceFeed",
              "type": "address"
            },
            {
              "internalType": "address",
              "name": "tokenAddress",
              "type": "address"
            }
          ],
          "internalType": "struct CollateralConfiguration.Data[]",
          "name": "",
          "type": "tuple[]"
        }
      ],
      "stateMutability": "view",
      "type": "function"
    },
    {
      "inputs": [
        {
          "internalType": "address",
          "name": "collateralType",
          "type": "address"
        }
      ],
      "name": "getCollateralPrice",
      "outputs": [
        {
          "internalType": "uint256",
          "name": "",
          "type": "uint256"
        }
      ],
      "stateMutability": "view",
      "type": "function"
    },
    {
      "inputs": [
        {
          "internalType": "uint128",
          "name": "accountId",
          "type": "uint128"
        },
        {
          "internalType": "address",
          "name": "collateralType",
          "type": "address"
        },
        {
          "internalType": "uint256",
          "name": "amount",
          "type": "uint256"
        }
      ],
      "name": "withdraw",
      "outputs": [],
      "stateMutability": "nonpayable",
      "type": "function"
    }
  ],
  "bytecode": "0x608060405234801561001057600080fd5b50612ec1806100206000396000f3fe608060405234801561001057600080fd5b506004361061009e5760003560e01c8063927482ff11610066578063927482ff1461015757806395997c51146101875780639cbbb824146101a3578063dc0b3f52146101bf578063ef45148e146101ef5761009e565b80630bae9893146100a3578063198f0aa1146100bf57806351a40994146100db57806375bf24441461010b578063838029681461013b575b600080fd5b6100bd60048036038101906100b89190611eb2565b610221565b005b6100d960048036038101906100d49190611f19565b610393565b005b6100f560048036038101906100f09190611f80565b6105c7565b6040516101029190611fbc565b60405180910390f35b6101256004803603810190610120919061200f565b6105e1565b6040516101329190612193565b60405180910390f35b610155600480360381019061015091906121b5565b6107e5565b005b610171600480360381019061016c9190612208565b610a1e565b60405161017e9190611fbc565b60405180910390f35b6101a1600480360381019061019c91906121b5565b610a75565b005b6101bd60048036038101906101b89190612248565b610c58565b005b6101d960048036038101906101d49190611f80565b610ce2565b6040516101e69190612350565b60405180910390f35b61020960048036038101906102049190612208565b610dea565b6040516102189392919061236b565b60405180910390f35b61024b847f41444d494e000000000000000000000000000000000000000000000000000000610e17565b600061025685610e80565b905060008061026e8684610eb590919063ffffffff16565b925050915084818361028091906123d1565b10156102c357846040517f4c8cb9dc0000000000000000000000000000000000000000000000000000000081526004016102ba9190611fbc565b60405180910390fd5b8260070160008773ffffffffffffffffffffffffffffffffffffffff1673ffffffffffffffffffffffffffffffffffffffff16815260200190815260200160002060040160405180604001604052808781526020018667ffffffffffffffff1681525090806001815401808255809150506001900390600052602060002090600202016000909190919091506000820151816000015560208201518160010160006101000a81548167ffffffffffffffff021916908367ffffffffffffffff160217905550505050505050505050565b600061039e85610e80565b60070160008573ffffffffffffffffffffffffffffffffffffffff1673ffffffffffffffffffffffffffffffffffffffff168152602001908152602001600020600401905080805490508311806103f85750808054905082115b1561042f576040517fb4120f1400000000000000000000000000000000000000000000000000000000815260040160405180910390fd5b60004290506000841480156104445750600083145b1561045157818054905092505b60008490505b82805490508110156105be578167ffffffffffffffff1683828154811061048157610480612405565b5b906000526020600020906002020160010160009054906101000a900467ffffffffffffffff1667ffffffffffffffff16116105aa5782600184805490506104c891906123d1565b815481106104d9576104d8612405565b5b90600052602060002090600202018382815481106104fa576104f9612405565b5b9060005260206000209060020201600082015481600001556001820160009054906101000a900467ffffffffffffffff168160010160006101000a81548167ffffffffffffffff021916908367ffffffffffffffff1602179055509050508280548061056957610568612434565b5b60019003818190600052602060002090600202016000808201600090556001820160006101000a81549067ffffffffffffffff0219169055505090556105b9565b80806105b590612463565b9150505b610457565b50505050505050565b60006105da6105d583610f6a565b610f9f565b9050919050565b606060006105ed611087565b905060006105fa826110b8565b905060008167ffffffffffffffff811115610618576106176124ac565b5b60405190808252806020026020018201604052801561065157816020015b61063e611d2d565b8152602001906001900390816106365790505b509050600080600190505b8381116107d857600061067882876110cd90919063ffffffff16565b9050600061068582610f6a565b90508815806106a257508060000160009054906101000a900460ff165b156107c357806040518060c00160405290816000820160009054906101000a900460ff161515151581526020016001820154815260200160028201548152602001600382015481526020016004820160009054906101000a900473ffffffffffffffffffffffffffffffffffffffff1673ffffffffffffffffffffffffffffffffffffffff1673ffffffffffffffffffffffffffffffffffffffff1681526020016005820160009054906101000a900473ffffffffffffffffffffffffffffffffffffffff1673ffffffffffffffffffffffffffffffffffffffff1673ffffffffffffffffffffffffffffffffffffffff16815250508585806107a490612463565b9650815181106107b7576107b6612405565b5b60200260200101819052505b505080806107d090612463565b91505061065c565b5081945050505050919050565b6107ee826110e7565b610818837f4445504f53495400000000000000000000000000000000000000000000000000610e17565b600061082384610e80565b905060008160010160000160009054906101000a900473ffffffffffffffffffffffffffffffffffffffff169050600030905060008573ffffffffffffffffffffffffffffffffffffffff1663dd62ed3e84846040518363ffffffff1660e01b81526004016108939291906124ea565b602060405180830381865afa1580156108b0573d6000803e3d6000fd5b505050506040513d601f19601f820116820180604052508101906108d49190612528565b90508481101561091d5784816040517f2a1b2dd8000000000000000000000000000000000000000000000000000000008152600401610914929190612555565b60405180910390fd5b61094a8383878973ffffffffffffffffffffffffffffffffffffffff16611145909392919063ffffffff16565b61099d858560070160008973ffffffffffffffffffffffffffffffffffffffff1673ffffffffffffffffffffffffffffffffffffffff1681526020019081526020016000206112a790919063ffffffff16565b3373ffffffffffffffffffffffffffffffffffffffff168673ffffffffffffffffffffffffffffffffffffffff16886fffffffffffffffffffffffffffffffff167fd92122e67326e9313bfae33ccb1fccf5194584c6bf93a8529a6b006d8c6e24a988604051610a0d9190611fbc565b60405180910390a450505050505050565b6000610a2983610e80565b60070160008373ffffffffffffffffffffffffffffffffffffffff1673ffffffffffffffffffffffffffffffffffffffff16815260200190815260200160002060010154905092915050565b610a9f837f5749544844524157000000000000000000000000000000000000000000000000610e17565b6000610aaa84610e80565b9050818160070160008573ffffffffffffffffffffffffffffffffffffffff1673ffffffffffffffffffffffffffffffffffffffff168152602001908152602001600020600101541015610b3557816040517f4c8cb9dc000000000000000000000000000000000000000000000000000000008152600401610b2c9190611fbc565b60405180910390fd5b610b88828260070160008673ffffffffffffffffffffffffffffffffffffffff1673ffffffffffffffffffffffffffffffffffffffff16815260200190815260200160002061130890919063ffffffff16565b610bda8160010160000160009054906101000a900473ffffffffffffffffffffffffffffffffffffffff16838573ffffffffffffffffffffffffffffffffffffffff166113279092919063ffffffff16565b3373ffffffffffffffffffffffffffffffffffffffff168373ffffffffffffffffffffffffffffffffffffffff16856fffffffffffffffffffffffffffffffff167f8b5f9d7ce522936589c630db08c0fa2405b21c4a5ff8ef19899900172736ba3885604051610c4a9190611fbc565b60405180910390a450505050565b610c60611486565b610c6e8686868686866114ff565b8015158573ffffffffffffffffffffffffffffffffffffffff168773ffffffffffffffffffffffffffffffffffffffff167fbf04712a493c2a6936157298ee23c6ededad50eba5660d2c80f4be11aef74c0a878787604051610cd29392919061236b565b60405180910390a4505050505050565b610cea611d2d565b610cf382610f6a565b6040518060c00160405290816000820160009054906101000a900460ff161515151581526020016001820154815260200160028201548152602001600382015481526020016004820160009054906101000a900473ffffffffffffffffffffffffffffffffffffffff1673ffffffffffffffffffffffffffffffffffffffff1673ffffffffffffffffffffffffffffffffffffffff1681526020016005820160009054906101000a900473ffffffffffffffffffffffffffffffffffffffff1673ffffffffffffffffffffffffffffffffffffffff1673ffffffffffffffffffffffffffffffffffffffff16815250509050919050565b6000806000610e0a84610dfc87610e80565b610eb590919063ffffffff16565b9250925092509250925092565b610e378133610e2585610e80565b60010161160a9092919063ffffffff16565b610e7c578181336040517f01de5522000000000000000000000000000000000000000000000000000000008152600401610e73939291906125a6565b60405180910390fd5b5050565b60008082604051602001610e94919061263a565b60405160208183030381529060405280519060200120905080915050919050565b6000806000610ec485856116ac565b91508460070160008573ffffffffffffffffffffffffffffffffffffffff1673ffffffffffffffffffffffffffffffffffffffff1681526020019081526020016000206001015482610f169190612668565b9250610f618560070160008673ffffffffffffffffffffffffffffffffffffffff1673ffffffffffffffffffffffffffffffffffffffff16815260200190815260200160002061179f565b90509250925092565b60008082604051602001610f7e919061270a565b60405160208183030381529060405280519060200120905080915050919050565b6000808260040160009054906101000a900473ffffffffffffffffffffffffffffffffffffffff1673ffffffffffffffffffffffffffffffffffffffff1663feaf968c6040518163ffffffff1660e01b815260040160a060405180830381865afa158015611011573d6000803e3d6000fd5b505050506040513d601f19601f8201168201806040525081019061103591906127b0565b5050509150506000811361107e576040517f08c379a000000000000000000000000000000000000000000000000000000000815260040161107590612877565b60405180910390fd5b80915050919050565b60008060405160200161109990612909565b6040516020818303038152906040528051906020012090508091505090565b60006110c68260000161184a565b9050919050565b60006110dc836000018361185b565b60001c905092915050565b6110f081610f6a565b60000160009054906101000a900460ff1661114257806040517f719d81850000000000000000000000000000000000000000000000000000000081526004016111399190612929565b60405180910390fd5b50565b6000808573ffffffffffffffffffffffffffffffffffffffff166323b872dd60e01b86868660405160240161117c93929190612944565b604051602081830303815290604052907bffffffffffffffffffffffffffffffffffffffffffffffffffffffff19166020820180517bffffffffffffffffffffffffffffffffffffffffffffffffffffffff83818316178352505050506040516111e691906129f5565b6000604051808303816000865af19150503d8060008114611223576040519150601f19603f3d011682016040523d82523d6000602084013e611228565b606091505b5091509150811580611259575060008151141580156112585750808060200190518101906112569190612a21565b155b5b1561129f578484846040517f3210e1d900000000000000000000000000000000000000000000000000000000815260040161129693929190612944565b60405180910390fd5b505050505050565b8160000160009054906101000a900460ff166112e85760018260000160006101000a81548160ff021916908315150217905550808260010181905550611304565b808260010160008282546112fc9190612668565b925050819055505b5050565b8082600101600082825461131c91906123d1565b925050819055505050565b6000808473ffffffffffffffffffffffffffffffffffffffff1663a9059cbb60e01b858560405160240161135c929190612a4e565b604051602081830303815290604052907bffffffffffffffffffffffffffffffffffffffffffffffffffffffff19166020820180517bffffffffffffffffffffffffffffffffffffffffffffffffffffffff83818316178352505050506040516113c691906129f5565b6000604051808303816000865af19150503d8060008114611403576040519150601f19603f3d011682016040523d82523d6000602084013e611408565b606091505b5091509150811580611439575060008151141580156114385750808060200190518101906114369190612a21565b155b5b1561147f573084846040517f3210e1d900000000000000000000000000000000000000000000000000000000815260040161147693929190612944565b60405180910390fd5b5050505050565b61148e6118e3565b73ffffffffffffffffffffffffffffffffffffffff163373ffffffffffffffffffffffffffffffffffffffff16146114fd57336040517f8e4a23d60000000000000000000000000000000000000000000000000000000081526004016114f49190612929565b60405180910390fd5b565b6000611509611087565b905061151e878261191690919063ffffffff16565b61153657611535878261194690919063ffffffff16565b5b600061154188610f6a565b9050878160050160006101000a81548173ffffffffffffffffffffffffffffffffffffffff021916908373ffffffffffffffffffffffffffffffffffffffff160217905550858160010181905550848160020181905550868160040160006101000a81548173ffffffffffffffffffffffffffffffffffffffff021916908373ffffffffffffffffffffffffffffffffffffffff160217905550838160030181905550828160000160006101000a81548160ff0219169083151502179055505050505050505050565b60008360000160009054906101000a900473ffffffffffffffffffffffffffffffffffffffff1673ffffffffffffffffffffffffffffffffffffffff168273ffffffffffffffffffffffffffffffffffffffff1614806116915750611690847f41444d494e00000000000000000000000000000000000000000000000000000084611970565b5b806116a357506116a2848484611970565b5b90509392505050565b6000806000905060008460070160008573ffffffffffffffffffffffffffffffffffffffff1673ffffffffffffffffffffffffffffffffffffffff16815260200190815260200160002060020190506000600190505b61170b82611a06565b81116117935760006117268284611a1b90919063ffffffff16565b9050600061173382611a35565b9050600061176c888a60000160009054906101000a90046fffffffffffffffffffffffffffffffff1684611a6a9092919063ffffffff16565b509050808661177b9190612668565b9550505050808061178b90612463565b915050611702565b50819250505092915050565b600080429050600080600090505b846004018054905081101561183f5760008560040182815481106117d4576117d3612405565b5b906000526020600020906002020190508367ffffffffffffffff168160010160009054906101000a900467ffffffffffffffff1667ffffffffffffffff16111561182b578060000154836118289190612668565b92505b50808061183790612463565b9150506117ad565b508092505050919050565b600081600001805490509050919050565b6000808214806118715750826000018054905082115b156118a8576040517feb9bc44700000000000000000000000000000000000000000000000000000000815260040160405180910390fd5b60006001836118b791906123d1565b90508360000181815481106118cf576118ce612405565b5b906000526020600020015491505092915050565b60006118ed611af5565b60000160019054906101000a900473ffffffffffffffffffffffffffffffffffffffff16905090565b600061193e836000018373ffffffffffffffffffffffffffffffffffffffff1660001b611b26565b905092915050565b61196c826000018273ffffffffffffffffffffffffffffffffffffffff1660001b611b49565b5050565b60008073ffffffffffffffffffffffffffffffffffffffff168273ffffffffffffffffffffffffffffffffffffffff16141580156119fd57506119fc838560010160008573ffffffffffffffffffffffffffffffffffffffff1673ffffffffffffffffffffffffffffffffffffffff168152602001908152602001600020611b2690919063ffffffff16565b5b90509392505050565b6000611a148260000161184a565b9050919050565b6000611a2a836000018361185b565b60001c905092915050565b60008082604051602001611a499190612ac3565b60405160208183030381529060405280519060200120905080915050919050565b6000806000611a80611a7b86610f6a565b610f9f565b9050611ad58487600a0160008873ffffffffffffffffffffffffffffffffffffffff1673ffffffffffffffffffffffffffffffffffffffff168152602001908152602001600020611bda90919063ffffffff16565b9250611aea8382611bff90919063ffffffff16565b915050935093915050565b600080604051602001611b0790612b3d565b6040516020818303038152906040528051906020012090508091505090565b600080836001016000848152602001908152602001600020541415905092915050565b611b538282611b26565b15611b8a576040517f682ad32d00000000000000000000000000000000000000000000000000000000815260040160405180910390fd5b816000018190806001815401808255809150506001900390600052602060002001600090919091909150558160000180549050826001016000838152602001908152602001600020819055505050565b6000611bf782611be985611c24565b611c4690919063ffffffff16565b905092915050565b6000611c1c8383601260ff16600a611c179190612c90565b611c6e565b905092915050565b6000816002016000836000015481526020019081526020016000209050919050565b6000611c66611c5483611c96565b84600301611cb590919063ffffffff16565b905092915050565b60008284029050828482041484151782151516611c8a57600080fd5b81810490509392505050565b6000816fffffffffffffffffffffffffffffffff1660001b9050919050565b60006b033b2e3c9fd0803ce800000083600101600084815260200190815260200160002060000160009054906101000a90046fffffffffffffffffffffffffffffffff16600f0b8460000160109054906101000a9004600f0b600f0b611d1b9190612cdb565b611d259190612e21565b905092915050565b6040518060c00160405280600015158152602001600081526020016000815260200160008152602001600073ffffffffffffffffffffffffffffffffffffffff168152602001600073ffffffffffffffffffffffffffffffffffffffff1681525090565b600080fd5b60006fffffffffffffffffffffffffffffffff82169050919050565b611dbb81611d96565b8114611dc657600080fd5b50565b600081359050611dd881611db2565b92915050565b600073ffffffffffffffffffffffffffffffffffffffff82169050919050565b6000611e0982611dde565b9050919050565b611e1981611dfe565b8114611e2457600080fd5b50565b600081359050611e3681611e10565b92915050565b6000819050919050565b611e4f81611e3c565b8114611e5a57600080fd5b50565b600081359050611e6c81611e46565b92915050565b600067ffffffffffffffff82169050919050565b611e8f81611e72565b8114611e9a57600080fd5b50565b600081359050611eac81611e86565b92915050565b60008060008060808587031215611ecc57611ecb611d91565b5b6000611eda87828801611dc9565b9450506020611eeb87828801611e27565b9350506040611efc87828801611e5d565b9250506060611f0d87828801611e9d565b91505092959194509250565b60008060008060808587031215611f3357611f32611d91565b5b6000611f4187828801611dc9565b9450506020611f5287828801611e27565b9350506040611f6387828801611e5d565b9250506060611f7487828801611e5d565b91505092959194509250565b600060208284031215611f9657611f95611d91565b5b6000611fa484828501611e27565b91505092915050565b611fb681611e3c565b82525050565b6000602082019050611fd16000830184611fad565b92915050565b60008115159050919050565b611fec81611fd7565b8114611ff757600080fd5b50565b60008135905061200981611fe3565b92915050565b60006020828403121561202557612024611d91565b5b600061203384828501611ffa565b91505092915050565b600081519050919050565b600082825260208201905092915050565b6000819050602082019050919050565b61207181611fd7565b82525050565b61208081611e3c565b82525050565b61208f81611dfe565b82525050565b60c0820160008201516120ab6000850182612068565b5060208201516120be6020850182612077565b5060408201516120d16040850182612077565b5060608201516120e46060850182612077565b5060808201516120f76080850182612086565b5060a082015161210a60a0850182612086565b50505050565b600061211c8383612095565b60c08301905092915050565b6000602082019050919050565b60006121408261203c565b61214a8185612047565b935061215583612058565b8060005b8381101561218657815161216d8882612110565b975061217883612128565b925050600181019050612159565b5085935050505092915050565b600060208201905081810360008301526121ad8184612135565b905092915050565b6000806000606084860312156121ce576121cd611d91565b5b60006121dc86828701611dc9565b93505060206121ed86828701611e27565b92505060406121fe86828701611e5d565b9150509250925092565b6000806040838503121561221f5761221e611d91565b5b600061222d85828601611dc9565b925050602061223e85828601611e27565b9150509250929050565b60008060008060008060c0878903121561226557612264611d91565b5b600061227389828a01611e27565b965050602061228489828a01611e27565b955050604061229589828a01611e5d565b94505060606122a689828a01611e5d565b93505060806122b789828a01611e5d565b92505060a06122c889828a01611ffa565b9150509295509295509295565b60c0820160008201516122eb6000850182612068565b5060208201516122fe6020850182612077565b5060408201516123116040850182612077565b5060608201516123246060850182612077565b5060808201516123376080850182612086565b5060a082015161234a60a0850182612086565b50505050565b600060c08201905061236560008301846122d5565b92915050565b60006060820190506123806000830186611fad565b61238d6020830185611fad565b61239a6040830184611fad565b949350505050565b7f4e487b7100000000000000000000000000000000000000000000000000000000600052601160045260246000fd5b60006123dc82611e3c565b91506123e783611e3c565b9250828210156123fa576123f96123a2565b5b828203905092915050565b7f4e487b7100000000000000000000000000000000000000000000000000000000600052603260045260246000fd5b7f4e487b7100000000000000000000000000000000000000000000000000000000600052603160045260246000fd5b600061246e82611e3c565b91507fffffffffffffffffffffffffffffffffffffffffffffffffffffffffffffffff8214156124a1576124a06123a2565b5b600182019050919050565b7f4e487b7100000000000000000000000000000000000000000000000000000000600052604160045260246000fd5b6124e481611dfe565b82525050565b60006040820190506124ff60008301856124db565b61250c60208301846124db565b9392505050565b60008151905061252281611e46565b92915050565b60006020828403121561253e5761253d611d91565b5b600061254c84828501612513565b91505092915050565b600060408201905061256a6000830185611fad565b6125776020830184611fad565b9392505050565b61258781611d96565b82525050565b6000819050919050565b6125a08161258d565b82525050565b60006060820190506125bb600083018661257e565b6125c86020830185612597565b6125d560408301846124db565b949350505050565b600082825260208201905092915050565b7f4163636f756e7400000000000000000000000000000000000000000000000000600082015250565b60006126246007836125dd565b915061262f826125ee565b602082019050919050565b6000604082019050818103600083015261265381612617565b9050612662602083018461257e565b92915050565b600061267382611e3c565b915061267e83611e3c565b9250827fffffffffffffffffffffffffffffffffffffffffffffffffffffffffffffffff038211156126b3576126b26123a2565b5b828201905092915050565b7f436f6c6c61746572616c436f6e66696775726174696f6e000000000000000000600082015250565b60006126f46017836125dd565b91506126ff826126be565b602082019050919050565b60006040820190508181036000830152612723816126e7565b905061273260208301846124db565b92915050565b600069ffffffffffffffffffff82169050919050565b61275781612738565b811461276257600080fd5b50565b6000815190506127748161274e565b92915050565b6000819050919050565b61278d8161277a565b811461279857600080fd5b50565b6000815190506127aa81612784565b92915050565b600080600080600060a086880312156127cc576127cb611d91565b5b60006127da88828901612765565b95505060206127eb8882890161279b565b94505060406127fc88828901612513565b935050606061280d88828901612513565b925050608061281e88828901612765565b9150509295509295909350565b7f54686520636f6c6c61746572616c2076616c7565206973203000000000000000600082015250565b60006128616019836125dd565b915061286c8261282b565b602082019050919050565b6000602082019050818103600083015261289081612854565b9050919050565b7f436f6c6c61746572616c436f6e66696775726174696f6e5f617661696c61626c60008201527f65436f6c6c61746572616c730000000000000000000000000000000000000000602082015250565b60006128f3602c836125dd565b91506128fe82612897565b604082019050919050565b60006020820190508181036000830152612922816128e6565b9050919050565b600060208201905061293e60008301846124db565b92915050565b600060608201905061295960008301866124db565b61296660208301856124db565b6129736040830184611fad565b949350505050565b600081519050919050565b600081905092915050565b60005b838110156129af578082015181840152602081019050612994565b838111156129be576000848401525b50505050565b60006129cf8261297b565b6129d98185612986565b93506129e9818560208601612991565b80840191505092915050565b6000612a0182846129c4565b915081905092915050565b600081519050612a1b81611fe3565b92915050565b600060208284031215612a3757612a36611d91565b5b6000612a4584828501612a0c565b91505092915050565b6000604082019050612a6360008301856124db565b612a706020830184611fad565b9392505050565b7f506f6f6c00000000000000000000000000000000000000000000000000000000600082015250565b6000612aad6004836125dd565b9150612ab882612a77565b602082019050919050565b60006040820190508181036000830152612adc81612aa0565b9050612aeb602083018461257e565b92915050565b7f4f776e61626c6500000000000000000000000000000000000000000000000000600082015250565b6000612b276007836125dd565b9150612b3282612af1565b602082019050919050565b60006020820190508181036000830152612b5681612b1a565b9050919050565b60008160011c9050919050565b6000808291508390505b6001851115612bb457808604811115612b9057612b8f6123a2565b5b6001851615612b9f5780820291505b8081029050612bad85612b5d565b9450612b74565b94509492505050565b600082612bcd5760019050612c89565b81612bdb5760009050612c89565b8160018114612bf15760028114612bfb57612c2a565b6001915050612c89565b60ff841115612c0d57612c0c6123a2565b5b8360020a915084821115612c2457612c236123a2565b5b50612c89565b5060208310610133831016604e8410600b8410161715612c5f5782820a905083811115612c5a57612c596123a2565b5b612c89565b612c6c8484846001612b6a565b92509050818404811115612c8357612c826123a2565b5b81810290505b9392505050565b6000612c9b82611e3c565b9150612ca683611e3c565b9250612cd37fffffffffffffffffffffffffffffffffffffffffffffffffffffffffffffffff8484612bbd565b905092915050565b6000612ce68261277a565b9150612cf18361277a565b9250827f7fffffffffffffffffffffffffffffffffffffffffffffffffffffffffffffff0482116000841360008413161615612d3057612d2f6123a2565b5b817f80000000000000000000000000000000000000000000000000000000000000000583126000841260008413161615612d6d57612d6c6123a2565b5b827f80000000000000000000000000000000000000000000000000000000000000000582126000841360008412161615612daa57612da96123a2565b5b827f7fffffffffffffffffffffffffffffffffffffffffffffffffffffffffffffff0582126000841260008412161615612de757612de66123a2565b5b828202905092915050565b7f4e487b7100000000000000000000000000000000000000000000000000000000600052601260045260246000fd5b6000612e2c8261277a565b9150612e378361277a565b925082612e4757612e46612df2565b5b600160000383147f800000000000000000000000000000000000000000000000000000000000000083141615612e8057612e7f6123a2565b5b82820590509291505056fea26469706673582212203d2b782db2b1f093d40f92466f5281a818bd97cb3c3f16c7d7a7fffac273338b64736f6c634300080b0033",
  "linkReferences": {},
  "deployedLinkReferences": {}
}