{
  "_format": "hh-sol-artifact-1",
  "contractName": "IssueUSDModule",
  "sourceName": "contracts/modules/core/IssueUSDModule.sol",
  "abi": [
    {
      "inputs": [],
      "name": "EmptyDistribution",
      "type": "error"
    },
    {
      "inputs": [],
      "name": "InconsistentDistribution",
      "type": "error"
    },
    {
      "inputs": [
        {
          "internalType": "uint256",
          "name": "collateralValue",
          "type": "uint256"
        },
        {
          "internalType": "uint256",
          "name": "debt",
          "type": "uint256"
        },
        {
          "internalType": "uint256",
          "name": "ratio",
          "type": "uint256"
        },
        {
          "internalType": "uint256",
          "name": "minRatio",
          "type": "uint256"
        }
      ],
      "name": "InsufficientCollateralRatio",
      "type": "error"
    },
    {
      "inputs": [
        {
          "internalType": "int256",
          "name": "currentDebt",
          "type": "int256"
        }
      ],
      "name": "InsufficientDebt",
      "type": "error"
    },
    {
      "inputs": [
        {
          "internalType": "uint128",
          "name": "marketId",
          "type": "uint128"
        }
      ],
      "name": "MarketNotFound",
      "type": "error"
    },
    {
      "inputs": [
        {
          "internalType": "bytes32",
          "name": "expected",
          "type": "bytes32"
        },
        {
          "internalType": "bytes32",
          "name": "actual",
          "type": "bytes32"
        }
      ],
      "name": "MismatchAssociatedSystemKind",
      "type": "error"
    },
    {
      "inputs": [
        {
          "internalType": "uint128",
          "name": "accountId",
          "type": "uint128"
        },
        {
          "internalType": "bytes32",
          "name": "permission",
          "type": "bytes32"
        },
        {
          "internalType": "address",
          "name": "target",
          "type": "address"
        }
      ],
      "name": "PermissionDenied",
      "type": "error"
    },
    {
      "inputs": [],
      "name": "ZeroValuePerShare",
      "type": "error"
    },
    {
      "anonymous": false,
      "inputs": [
        {
          "indexed": true,
          "internalType": "uint128",
          "name": "accountId",
          "type": "uint128"
        },
        {
          "indexed": true,
          "internalType": "uint128",
          "name": "poolId",
          "type": "uint128"
        },
        {
          "indexed": false,
          "internalType": "address",
          "name": "collateralType",
          "type": "address"
        },
        {
          "indexed": false,
          "internalType": "uint256",
          "name": "amount",
          "type": "uint256"
        },
        {
          "indexed": true,
          "internalType": "address",
          "name": "sender",
          "type": "address"
        }
      ],
      "name": "UsdBurned",
      "type": "event"
    },
    {
      "anonymous": false,
      "inputs": [
        {
          "indexed": true,
          "internalType": "uint128",
          "name": "accountId",
          "type": "uint128"
        },
        {
          "indexed": true,
          "internalType": "uint128",
          "name": "poolId",
          "type": "uint128"
        },
        {
          "indexed": false,
          "internalType": "address",
          "name": "collateralType",
          "type": "address"
        },
        {
          "indexed": false,
          "internalType": "uint256",
          "name": "amount",
          "type": "uint256"
        },
        {
          "indexed": true,
          "internalType": "address",
          "name": "sender",
          "type": "address"
        }
      ],
      "name": "UsdMinted",
      "type": "event"
    },
    {
      "inputs": [
        {
          "internalType": "uint128",
          "name": "accountId",
          "type": "uint128"
        },
        {
          "internalType": "uint128",
          "name": "poolId",
          "type": "uint128"
        },
        {
          "internalType": "address",
          "name": "collateralType",
          "type": "address"
        },
        {
          "internalType": "uint256",
          "name": "amount",
          "type": "uint256"
        }
      ],
      "name": "burnUsd",
      "outputs": [],
      "stateMutability": "nonpayable",
      "type": "function"
    },
    {
      "inputs": [
        {
          "internalType": "uint128",
          "name": "accountId",
          "type": "uint128"
        },
        {
          "internalType": "uint128",
          "name": "poolId",
          "type": "uint128"
        },
        {
          "internalType": "address",
          "name": "collateralType",
          "type": "address"
        },
        {
          "internalType": "uint256",
          "name": "amount",
          "type": "uint256"
        }
      ],
      "name": "mintUsd",
      "outputs": [],
      "stateMutability": "nonpayable",
      "type": "function"
    }
  ],
  "bytecode": "0x608060405234801561001057600080fd5b506142bb806100206000396000f3fe608060405234801561001057600080fd5b50600436106100365760003560e01c8063d3264e431461003b578063df16a07414610057575b600080fd5b610055600480360381019061005091906131fc565b610073565b005b610071600480360381019061006c91906131fc565b6102a9565b005b600061007e846105e5565b9050600061009784878461061a9092919063ffffffff16565b905060008112156100df57806040517fd0937b710000000000000000000000000000000000000000000000000000000081526004016100d6919061327c565b60405180910390fd5b828112156100eb578092505b61011c6101177f555344546f6b656e000000000000000000000000000000000000000000000000610683565b6106b8565b73ffffffffffffffffffffffffffffffffffffffff16639dc29fac33856040518363ffffffff1660e01b81526004016101569291906132b5565b600060405180830381600087803b15801561017057600080fd5b505af1158015610184573d6000803e3d6000fd5b5050505060006101db610196876105e5565b600a0160008773ffffffffffffffffffffffffffffffffffffffff1673ffffffffffffffffffffffffffffffffffffffff168152602001908152602001600020610710565b9050610215876fffffffffffffffffffffffffffffffff1660001b8584610202919061330d565b836005016107329092919063ffffffff16565b506102298584610a0a90919063ffffffff16565b503373ffffffffffffffffffffffffffffffffffffffff16866fffffffffffffffffffffffffffffffff16886fffffffffffffffffffffffffffffffff167f6b0230f0abe9188cbdbb1c816a4c5e213758b5b743d8a94af056280cc1e7aeb188886040516102989291906132b5565b60405180910390a450505050505050565b837f4d494e54000000000000000000000000000000000000000000000000000000006102eb81336102d985610b89565b600101610bbe9092919063ffffffff16565b610330578181336040517f01de5522000000000000000000000000000000000000000000000000000000008152600401610327939291906133c9565b60405180910390fd5b600061033b866105e5565b9050600061035486898461061a9092919063ffffffff16565b9050600061036d878a85610c609092919063ffffffff16565b9150506000868361037e9190613400565b90508281136103c2576040517f08c379a00000000000000000000000000000000000000000000000000000000081526004016103b9906134f1565b60405180910390fd5b60008113156103e9576103e881836103d98b610ceb565b610d209092919063ffffffff16565b5b600061043c6103f78b6105e5565b600a0160008b73ffffffffffffffffffffffffffffffffffffffff1673ffffffffffffffffffffffffffffffffffffffff168152602001908152602001600020610710565b905061046b8b6fffffffffffffffffffffffffffffffff1660001b83836005016107329092919063ffffffff16565b5061047f8986610a0a90919063ffffffff16565b5087600f0b88146104c5576040517f08c379a00000000000000000000000000000000000000000000000000000000081526004016104bc9061355d565b60405180910390fd5b6104f66104f17f555344546f6b656e000000000000000000000000000000000000000000000000610683565b6106b8565b73ffffffffffffffffffffffffffffffffffffffff166340c10f19338a6040518363ffffffff1660e01b81526004016105309291906132b5565b600060405180830381600087803b15801561054a57600080fd5b505af115801561055e573d6000803e3d6000fd5b505050503373ffffffffffffffffffffffffffffffffffffffff168a6fffffffffffffffffffffffffffffffff168c6fffffffffffffffffffffffffffffffff167f2100f67dc9a5917400f799bb13194553e3f74c19a207c56350d2c223ac9c36c98c8c6040516105d09291906132b5565b60405180910390a45050505050505050505050565b600080826040516020016105f991906135c9565b60405160208183030381529060405280519060200120905080915050919050565b60006106268484610a0a565b5061067a8285600a0160008673ffffffffffffffffffffffffffffffffffffffff1673ffffffffffffffffffffffffffffffffffffffff168152602001908152602001600020610da990919063ffffffff16565b90509392505050565b600080826040516020016106979190613643565b60405160208183030381529060405280519060200120905080915050919050565b60006106e4827f6572633230000000000000000000000000000000000000000000000000000000610dce565b8160000160009054906101000a900473ffffffffffffffffffffffffffffffffffffffff169050919050565b6000816002016000836000015481526020019081526020016000209050919050565b6000808460000160109054906101000a9004600f0b600f0b14801561078a575060008460000160009054906101000a90046fffffffffffffffffffffffffffffffff166fffffffffffffffffffffffffffffffff1614155b156107c1576040517f7d06244800000000000000000000000000000000000000000000000000000000815260040160405180910390fd5b6000846001016000858152602001908152602001600020905060008160000160109054906101000a9004600f0b600f0b14610828576040517f842be92f00000000000000000000000000000000000000000000000000000000815260040160405180910390fd5b60008560000160009054906101000a90046fffffffffffffffffffffffffffffffff166fffffffffffffffffffffffffffffffff1614156108cd576b033b2e3c9fd0803ce80000008560000160106101000a8154816fffffffffffffffffffffffffffffffff0219169083600f0b6fffffffffffffffffffffffffffffffff160217905550600083136108c457826108bf90613671565b6108c6565b825b9150610912565b6108d685610e50565b8560000160009054906101000a90046fffffffffffffffffffffffffffffffff16600f0b8461090591906136ba565b61090f9190613800565b91505b8060000160009054906101000a90046fffffffffffffffffffffffffffffffff166fffffffffffffffffffffffffffffffff16828660000160009054906101000a90046fffffffffffffffffffffffffffffffff166fffffffffffffffffffffffffffffffff16610983919061386a565b61098d91906138c0565b8560000160006101000a8154816fffffffffffffffffffffffffffffffff02191690836fffffffffffffffffffffffffffffffff160217905550818160000160006101000a8154816fffffffffffffffffffffffffffffffff02191690836fffffffffffffffffffffffffffffffff160217905550509392505050565b6000610a1583610eb3565b610a26610a2183610ceb565b61110a565b9050600080610a7e8386600a0160008773ffffffffffffffffffffffffffffffffffffffff1673ffffffffffffffffffffffffffffffffffffffff1681526020019081526020016000206111f290919063ffffffff16565b925050915060008473ffffffffffffffffffffffffffffffffffffffff1660001b90506000610abb82858960060161130f9092919063ffffffff16565b9050828760040160109054906101000a90046fffffffffffffffffffffffffffffffff16610ae99190613901565b8760040160106101000a8154816fffffffffffffffffffffffffffffffff02191690836fffffffffffffffffffffffffffffffff160217905550610b768188600a0160008973ffffffffffffffffffffffffffffffffffffffff1673ffffffffffffffffffffffffffffffffffffffff16815260200190815260200160002061150490919063ffffffff16565b610b7f87610eb3565b5050505092915050565b60008082604051602001610b9d91906139d1565b60405160208183030381529060405280519060200120905080915050919050565b60008360000160009054906101000a900473ffffffffffffffffffffffffffffffffffffffff1673ffffffffffffffffffffffffffffffffffffffff168273ffffffffffffffffffffffffffffffffffffffff161480610c455750610c44847f41444d494e00000000000000000000000000000000000000000000000000000084611523565b5b80610c575750610c56848484611523565b5b90509392505050565b6000806000610c76610c7186610ceb565b61110a565b9050610ccb8487600a0160008873ffffffffffffffffffffffffffffffffffffffff1673ffffffffffffffffffffffffffffffffffffffff1681526020019081526020016000206115b990919063ffffffff16565b9250610ce083826115de90919063ffffffff16565b915050935093915050565b60008082604051602001610cff9190613a4b565b60405160208183030381529060405280519060200120905080915050919050565b60008214158015610d4657508260010154610d44838361160390919063ffffffff16565b105b15610da4578082610d60848461160390919063ffffffff16565b85600101546040517f6119eca7000000000000000000000000000000000000000000000000000000008152600401610d9b9493929190613a79565b60405180910390fd5b505050565b6000610dc682610db885610710565b61162890919063ffffffff16565b905092915050565b600082600201549050818114158015610e0757507f756e6d616e6167656400000000000000000000000000000000000000000000008114155b15610e4b5781816040517f06a98cf8000000000000000000000000000000000000000000000000000000008152600401610e42929190613abe565b60405180910390fd5b505050565b60006b033b2e3c9fd0803ce80000008260000160009054906101000a90046fffffffffffffffffffffffffffffffff16600f0b8360000160109054906101000a9004600f0b600f0b610ea291906136ba565b610eac9190613800565b9050919050565b60008160040160009054906101000a90046fffffffffffffffffffffffffffffffff166fffffffffffffffffffffffffffffffff1690506000811415610ef95750611107565b60008260060160000160009054906101000a90046fffffffffffffffffffffffffffffffff16600f0b905060008360040160109054906101000a90046fffffffffffffffffffffffffffffffff1690506000805b85600501805490508110156110eb576000866005018281548110610f7457610f73613ae7565b5b9060005260206000209060020201905060008160000160109054906101000a90046fffffffffffffffffffffffffffffffff166fffffffffffffffffffffffffffffffff1690506000808713610fcb576000610fe3565b878288610fd89190613b16565b610fe29190613b70565b5b905060008883886fffffffffffffffffffffffffffffffff166110069190613b16565b6110109190613b70565b9050600061103d8560000160009054906101000a90046fffffffffffffffffffffffffffffffff166116f0565b9050600061104c8c8385611725565b905060008660010160009054906101000a9004600f0b600f0b90508082126110745780611076565b815b91506110c48760000160009054906101000a90046fffffffffffffffffffffffffffffffff168e60000160009054906101000a90046fffffffffffffffffffffffffffffffff1684886117f8565b896110cf9190613400565b98505050505050505080806110e390613ba1565b915050610f4d565b5061110281866006016118c290919063ffffffff16565b505050505b50565b6000808260040160009054906101000a900473ffffffffffffffffffffffffffffffffffffffff1673ffffffffffffffffffffffffffffffffffffffff1663feaf968c6040518163ffffffff1660e01b815260040160a060405180830381865afa15801561117c573d6000803e3d6000fd5b505050506040513d601f19601f820116820180604052508101906111a09190613c6d565b505050915050600081136111e9576040517f08c379a00000000000000000000000000000000000000000000000000000000081526004016111e090613d34565b60405180910390fd5b80915050919050565b60008060008061120186610710565b905061124b858260010160000160009054906101000a90046fffffffffffffffffffffffffffffffff166fffffffffffffffffffffffffffffffff166115de90919063ffffffff16565b9350600061126d8661125f84600301610e50565b6115de90919063ffffffff16565b9050600061127a836119cf565b905080821361128a576000611297565b8082611296919061330d565b5b94508760010160109054906101000a90046fffffffffffffffffffffffffffffffff16600f0b856112c8919061330d565b9350848860010160106101000a8154816fffffffffffffffffffffffffffffffff02191690836fffffffffffffffffffffffffffffffff1602179055505050509250925092565b600080846001016000858152602001908152602001600020905060008160000160109054906101000a9004600f0b8660000160109054906101000a9004600f0b6113599190613d54565b905060008260000160009054906101000a90046fffffffffffffffffffffffffffffffff16600f0b82600f0b61138f91906136ba565b90506b033b2e3c9fd0803ce8000000816113a99190613800565b93508260000160009054906101000a90046fffffffffffffffffffffffffffffffff166fffffffffffffffffffffffffffffffff16858860000160009054906101000a90046fffffffffffffffffffffffffffffffff166fffffffffffffffffffffffffffffffff1661141c919061386a565b61142691906138c0565b8760000160006101000a8154816fffffffffffffffffffffffffffffffff02191690836fffffffffffffffffffffffffffffffff160217905550848360000160006101000a8154816fffffffffffffffffffffffffffffffff02191690836fffffffffffffffffffffffffffffffff160217905550600085146114ba578660000160109054906101000a9004600f0b6114bd565b60005b8360000160106101000a8154816fffffffffffffffffffffffffffffffff0219169083600f0b6fffffffffffffffffffffffffffffffff1602179055505050509392505050565b61151f8161151184610710565b611a0390919063ffffffff16565b5050565b60008073ffffffffffffffffffffffffffffffffffffffff168273ffffffffffffffffffffffffffffffffffffffff16141580156115b057506115af838560010160008573ffffffffffffffffffffffffffffffffffffffff1673ffffffffffffffffffffffffffffffffffffffff168152602001908152602001600020611a7690919063ffffffff16565b5b90509392505050565b60006115d6826115c885610710565b611a9990919063ffffffff16565b905092915050565b60006115fb8383601260ff16600a6115f69190613f0b565b611ac1565b905092915050565b600061162083601260ff16600a61161a9190613f0b565b84611ac1565b905092915050565b60008061163483611ae9565b905061164c8185600501611b0890919063ffffffff16565b915060006116668286600101611b8090919063ffffffff16565b905080836116749190613400565b925061168e8284876005016107329092919063ffffffff16565b50808560000160008282829054906101000a9004600f0b6116af9190613d54565b92506101000a8154816fffffffffffffffffffffffffffffffff0219169083600f0b6fffffffffffffffffffffffffffffffff160217905550505092915050565b600080826040516020016117049190613fa2565b60405160208183030381529060405280519060200120905080915050919050565b600080611730611b9e565b6000015490506000633b9aca0085600a0160000160109054906101000a9004600f0b61175c9190613fd0565b905060008083141561178057601260ff16600a6117799190613f0b565b90506117dd565b6117da8760060160000160009054906101000a90046fffffffffffffffffffffffffffffffff166fffffffffffffffffffffffffffffffff166117cc858861160390919063ffffffff16565b61160390919063ffffffff16565b90505b8082600f0b6117ec9190613400565b93505050509392505050565b600080611804866116f0565b9050600073ffffffffffffffffffffffffffffffffffffffff168160010160009054906101000a900473ffffffffffffffffffffffffffffffffffffffff1673ffffffffffffffffffffffffffffffffffffffff16141561189c57856040517ff080c1ea000000000000000000000000000000000000000000000000000000008152600401611893919061403a565b60405180910390fd5b6118ab816402540be3ff611bcf565b6118b781868587612045565b915050949350505050565b60008114156118d0576119cb565b60008260000160009054906101000a90046fffffffffffffffffffffffffffffffff166fffffffffffffffffffffffffffffffff1690506000811415611942576040517f3b182f5500000000000000000000000000000000000000000000000000000000815260040160405180910390fd5b60006b033b2e3c9fd0803ce80000008361195c91906136ba565b90506000828261196c9190613800565b9050808560000160108282829054906101000a9004600f0b61198e9190613901565b92506101000a8154816fffffffffffffffffffffffffffffffff0219169083600f0b6fffffffffffffffffffffffffffffffff1602179055505050505b5050565b60006119dd82600501610e50565b8260000160009054906101000a9004600f0b600f0b6119fc9190613400565b9050919050565b611a1981836001016118c290919063ffffffff16565b808260000160008282829054906101000a9004600f0b611a399190613901565b92506101000a8154816fffffffffffffffffffffffffffffffff0219169083600f0b6fffffffffffffffffffffffffffffffff1602179055505050565b600080836001016000848152602001908152602001600020541415905092915050565b6000611ab9611aa783611ae9565b84600301611b0890919063ffffffff16565b905092915050565b60008284029050828482041484151782151516611add57600080fd5b81810490509392505050565b6000816fffffffffffffffffffffffffffffffff1660001b9050919050565b60006b033b2e3c9fd0803ce800000083600101600084815260200190815260200160002060000160009054906101000a90046fffffffffffffffffffffffffffffffff16600f0b8460000160109054906101000a9004600f0b600f0b611b6e91906136ba565b611b789190613800565b905092915050565b6000611b968383611b9186866122e6565b61130f565b905092915050565b600080604051602001611bb0906140a1565b6040516020818303038152906040528051906020012090508091505090565b600082600a0160000160009054906101000a90046fffffffffffffffffffffffffffffffff166fffffffffffffffffffffffffffffffff161415611c1257612041565b6000611c1d83612337565b905060008360030160009054906101000a9004600f0b600f0b9050600084600a0160000160009054906101000a90046fffffffffffffffffffffffffffffffff16600f0b601260ff16600a611c729190613f0b565b8385611c7e919061330d565b611c8891906136ba565b611c929190613800565b633b9aca0086600a0160000160109054906101000a9004600f0b611cb69190613fd0565b600f0b611cc39190613400565b905060005b6000611cd68760040161237b565b118015611cfd575081611ceb876004016123ae565b60200151611cf8906140c1565b600f0b125b8015611d0857508481105b15611fdd576000611d1b876004016123c8565b90506000670de0b6b3a7640000633b9aca0089600a0160000160109054906101000a9004600f0b611d4c9190613fd0565b8360200151611d5a906140c1565b611d649190613d54565b600f0b89600a0160000160009054906101000a90046fffffffffffffffffffffffffffffffff16600f0b611d9891906136ba565b611da29190613800565b9050611dba8189600a016118c290919063ffffffff16565b8085611dc69190613400565b94506000611df983600001516fffffffffffffffffffffffffffffffff1660001b8a600a016122e690919063ffffffff16565b11611e39576040517f08c379a0000000000000000000000000000000000000000000000000000000008152600401611e3090614156565b60405180910390fd5b6000611e6d83600001516fffffffffffffffffffffffffffffffff1660001b60008b600a0161130f9092919063ffffffff16565b90508089600c01600085600001516fffffffffffffffffffffffffffffffff166fffffffffffffffffffffffffffffffff1681526020019081526020016000206000828254611ebc9190613400565b92505081905550600089600a0160000160009054906101000a90046fffffffffffffffffffffffffffffffff166fffffffffffffffffffffffffffffffff161415611f4b57858960030160006101000a8154816fffffffffffffffffffffffffffffffff0219169083600f0b6fffffffffffffffffffffffffffffffff16021790555050505050505050612041565b88600a0160000160009054906101000a90046fffffffffffffffffffffffffffffffff16600f0b601260ff16600a611f839190613f0b565b8789611f8f919061330d565b611f9991906136ba565b611fa39190613800565b89600a0160000160109054906101000a9004600f0b600f0b611fc59190613400565b94505050508080611fd590613ba1565b915050611cc8565b50611fff8284611fed919061330d565b86600a016118c290919063ffffffff16565b828560030160006101000a8154816fffffffffffffffffffffffffffffffff0219169083600f0b6fffffffffffffffffffffffffffffffff1602179055505050505b5050565b60008061205286866123e2565b9050600061206c868860040161241790919063ffffffff16565b60200151612079906140c1565b600f0b9050633b9aca0087600a0160000160109054906101000a9004600f0b6120a29190613fd0565b600f0b84136120cb57600094506120c5868860040161246a90919063ffffffff16565b506120ee565b6120ec86856120d9906140c1565b896004016124bd9092919063ffffffff16565b505b61211b866fffffffffffffffffffffffffffffffff1660001b8689600a0161130f9092919063ffffffff16565b87600c016000886fffffffffffffffffffffffffffffffff166fffffffffffffffffffffffffffffffff1681526020019081526020016000205461215f9190613400565b9250600087600c016000886fffffffffffffffffffffffffffffffff166fffffffffffffffffffffffffffffffff16815260200190815260200160002081905550633b9aca0087600a0160000160109054906101000a9004600f0b6121c49190613fd0565b600f0b84131561223e576121d98786866125cd565b8760020160108282829054906101000a90046fffffffffffffffffffffffffffffffff166122079190614176565b92506101000a8154816fffffffffffffffffffffffffffffffff02191690836fffffffffffffffffffffffffffffffff1602179055505b633b9aca0087600a0160000160109054906101000a9004600f0b6122629190613fd0565b600f0b8113156122dc576122778783836125cd565b8760020160108282829054906101000a90046fffffffffffffffffffffffffffffffff166122a591906141bc565b92506101000a8154816fffffffffffffffffffffffffffffffff02191690836fffffffffffffffffffffffffffffffff1602179055505b5050949350505050565b600082600101600083815260200190815260200160002060000160009054906101000a90046fffffffffffffffffffffffffffffffff166fffffffffffffffffffffffffffffffff16905092915050565b60006123428261261c565b8260020160009054906101000a9004600f0b600f0b6123608461271e565b61236a9190613400565b612374919061330d565b9050919050565b6000808260010180549050116123925760006123a7565b600182600101805490506123a691906138c0565b5b9050919050565b6123b66130ec565b6123c18260016127e5565b9050919050565b6123d06130ec565b6123db8260016128c7565b9050919050565b600061240f826fffffffffffffffffffffffffffffffff1660001b84600a016122e690919063ffffffff16565b905092915050565b61241f6130ec565b61246283846002016000856fffffffffffffffffffffffffffffffff166fffffffffffffffffffffffffffffffff168152602001908152602001600020546127e5565b905092915050565b6124726130ec565b6124b583846002016000856fffffffffffffffffffffffffffffffff166fffffffffffffffffffffffffffffffff168152602001908152602001600020546128c7565b905092915050565b6124c56130ec565b6000846001018054905014156124df576124de84612bd0565b5b6124e76130ec565b6124f1858561246a565b5084600001600081819054906101000a90046fffffffffffffffffffffffffffffffff1680929190612522906141f0565b91906101000a8154816fffffffffffffffffffffffffffffffff02191690836fffffffffffffffffffffffffffffffff16021790555050846001016001816001815401808255809150500390600052602060002050506040518060400160405280856fffffffffffffffffffffffffffffffff16815260200184600f0b81525090506125c28582600188600101805490506125bd91906138c0565b612cbc565b809150509392505050565b600061261383633b9aca0086600a0160000160109054906101000a9004600f0b6125f79190613fd0565b600f0b84612605919061330d565b6115de90919063ffffffff16565b90509392505050565b6000806000905060005b83600d018054905081101561271457600084600d01828154811061264d5761264c613ae7565b5b90600052602060002090600202016040518060400160405290816000820160009054906101000a900473ffffffffffffffffffffffffffffffffffffffff1673ffffffffffffffffffffffffffffffffffffffff1673ffffffffffffffffffffffffffffffffffffffff16815260200160018201548152505090506126f381602001516126e56126e08460000151610ceb565b61110a565b6115de90919063ffffffff16565b836126fe919061386a565b925050808061270c90613ba1565b915050612626565b5080915050919050565b60008160010160009054906101000a900473ffffffffffffffffffffffffffffffffffffffff1673ffffffffffffffffffffffffffffffffffffffff1663bcec0d0f8360000160009054906101000a90046fffffffffffffffffffffffffffffffff166040518263ffffffff1660e01b815260040161279d919061403a565b602060405180830381865afa1580156127ba573d6000803e3d6000fd5b505050506040513d601f19601f820116820180604052508101906127de9190614229565b9050919050565b6127ed6130ec565b8183600101805490501161282c57604051806040016040528060006fffffffffffffffffffffffffffffffff1681526020016000600f0b8152506128bf565b82600101828154811061284257612841613ae7565b5b906000526020600020016040518060400160405290816000820160009054906101000a90046fffffffffffffffffffffffffffffffff166fffffffffffffffffffffffffffffffff166fffffffffffffffffffffffffffffffff1681526020016000820160109054906101000a9004600f0b600f0b600f0b815250505b905092915050565b6128cf6130ec565b8183600101805490501115806128e6575060008211155b1561291e57604051806040016040528060006fffffffffffffffffffffffffffffffff1681526020016000600f0b8152509050612bca565b600083600101838154811061293657612935613ae7565b5b906000526020600020016040518060400160405290816000820160009054906101000a90046fffffffffffffffffffffffffffffffff166fffffffffffffffffffffffffffffffff166fffffffffffffffffffffffffffffffff1681526020016000820160109054906101000a9004600f0b600f0b600f0b81525050905083600201600082600001516fffffffffffffffffffffffffffffffff166fffffffffffffffffffffffffffffffff1681526020019081526020016000206000905560008460010160018660010180549050612a0f91906138c0565b81548110612a2057612a1f613ae7565b5b906000526020600020016040518060400160405290816000820160009054906101000a90046fffffffffffffffffffffffffffffffff166fffffffffffffffffffffffffffffffff166fffffffffffffffffffffffffffffffff1681526020016000820160109054906101000a9004600f0b600f0b600f0b81525050905084600101805480612ab257612ab1614256565b5b60019003818190600052602060002001600080820160006101000a8154906fffffffffffffffffffffffffffffffff02191690556000820160106101000a8154906fffffffffffffffffffffffffffffffff0219169055505090558460010180549050841015612bc457612b27858286612cbc565b612bc385866001018681548110612b4157612b40613ae7565b5b906000526020600020016040518060400160405290816000820160009054906101000a90046fffffffffffffffffffffffffffffffff166fffffffffffffffffffffffffffffffff166fffffffffffffffffffffffffffffffff1681526020016000820160109054906101000a9004600f0b600f0b600f0b8152505086612deb565b5b81925050505b92915050565b600081600101805490501415612cb95780600101604051806040016040528060006fffffffffffffffffffffffffffffffff1681526020016000600f0b8152509080600181540180825580915050600190039060005260206000200160009091909190915060008201518160000160006101000a8154816fffffffffffffffffffffffffffffffff02191690836fffffffffffffffffffffffffffffffff16021790555060208201518160000160106101000a8154816fffffffffffffffffffffffffffffffff0219169083600f0b6fffffffffffffffffffffffffffffffff16021790555050505b50565b6001811480612d11575082600101600282612cd79190613b70565b81548110612ce857612ce7613ae7565b5b9060005260206000200160000160109054906101000a9004600f0b600f0b8260200151600f0b13155b15612d2657612d21838383613000565b612de6565b612dce8384600101600284612d3b9190613b70565b81548110612d4c57612d4b613ae7565b5b906000526020600020016040518060400160405290816000820160009054906101000a90046fffffffffffffffffffffffffffffffff166fffffffffffffffffffffffffffffffff166fffffffffffffffffffffffffffffffff1681526020016000820160109054906101000a9004600f0b600f0b600f0b8152505083613000565b612de58383600284612de09190613b70565b612cbc565b5b505050565b6000836001018054905090506000600283612e069190613b16565b9050808211612e1f57612e1a858585613000565b612ff9565b6000856001018281548110612e3757612e36613ae7565b5b906000526020600020016040518060400160405290816000820160009054906101000a90046fffffffffffffffffffffffffffffffff166fffffffffffffffffffffffffffffffff166fffffffffffffffffffffffffffffffff1681526020016000820160109054906101000a9004600f0b600f0b600f0b815250509050600182612ec2919061386a565b83118015612f1557508060200151600f0b86600101600184612ee4919061386a565b81548110612ef557612ef4613ae7565b5b9060005260206000200160000160109054906101000a9004600f0b600f0b135b15612fbb578560010182612f2890613ba1565b92508281548110612f3c57612f3b613ae7565b5b906000526020600020016040518060400160405290816000820160009054906101000a90046fffffffffffffffffffffffffffffffff166fffffffffffffffffffffffffffffffff166fffffffffffffffffffffffffffffffff1681526020016000820160109054906101000a9004600f0b600f0b600f0b8152505090505b8460200151600f0b8160200151600f0b13612fe057612fdb868686613000565b612ff7565b612feb868286613000565b612ff6868684612deb565b5b505b5050505050565b8183600101828154811061301757613016613ae7565b5b9060005260206000200160008201518160000160006101000a8154816fffffffffffffffffffffffffffffffff02191690836fffffffffffffffffffffffffffffffff16021790555060208201518160000160106101000a8154816fffffffffffffffffffffffffffffffff0219169083600f0b6fffffffffffffffffffffffffffffffff1602179055509050508083600201600084600001516fffffffffffffffffffffffffffffffff166fffffffffffffffffffffffffffffffff16815260200190815260200160002081905550505050565b604051806040016040528060006fffffffffffffffffffffffffffffffff1681526020016000600f0b81525090565b600080fd5b60006fffffffffffffffffffffffffffffffff82169050919050565b61314581613120565b811461315057600080fd5b50565b6000813590506131628161313c565b92915050565b600073ffffffffffffffffffffffffffffffffffffffff82169050919050565b600061319382613168565b9050919050565b6131a381613188565b81146131ae57600080fd5b50565b6000813590506131c08161319a565b92915050565b6000819050919050565b6131d9816131c6565b81146131e457600080fd5b50565b6000813590506131f6816131d0565b92915050565b600080600080608085870312156132165761321561311b565b5b600061322487828801613153565b945050602061323587828801613153565b9350506040613246878288016131b1565b9250506060613257878288016131e7565b91505092959194509250565b6000819050919050565b61327681613263565b82525050565b6000602082019050613291600083018461326d565b92915050565b6132a081613188565b82525050565b6132af816131c6565b82525050565b60006040820190506132ca6000830185613297565b6132d760208301846132a6565b9392505050565b7f4e487b7100000000000000000000000000000000000000000000000000000000600052601160045260246000fd5b600061331882613263565b915061332383613263565b9250827f80000000000000000000000000000000000000000000000000000000000000000182126000841215161561335e5761335d6132de565b5b827f7fffffffffffffffffffffffffffffffffffffffffffffffffffffffffffffff018213600084121615613396576133956132de565b5b828203905092915050565b6133aa81613120565b82525050565b6000819050919050565b6133c3816133b0565b82525050565b60006060820190506133de60008301866133a1565b6133eb60208301856133ba565b6133f86040830184613297565b949350505050565b600061340b82613263565b915061341683613263565b9250817f7fffffffffffffffffffffffffffffffffffffffffffffffffffffffffffffff03831360008312151615613451576134506132de565b5b817f8000000000000000000000000000000000000000000000000000000000000000038312600083121615613489576134886132de565b5b828201905092915050565b600082825260208201905092915050565b7f496e636f7272656374206e657720646562740000000000000000000000000000600082015250565b60006134db601283613494565b91506134e6826134a5565b602082019050919050565b6000602082019050818103600083015261350a816134ce565b9050919050565b7f496e636f727265637420616d6f756e7420737065636966696564000000000000600082015250565b6000613547601a83613494565b915061355282613511565b602082019050919050565b600060208201905081810360008301526135768161353a565b9050919050565b7f506f6f6c00000000000000000000000000000000000000000000000000000000600082015250565b60006135b3600483613494565b91506135be8261357d565b602082019050919050565b600060408201905081810360008301526135e2816135a6565b90506135f160208301846133a1565b92915050565b7f4173736f63696174656453797374656d00000000000000000000000000000000600082015250565b600061362d601083613494565b9150613638826135f7565b602082019050919050565b6000604082019050818103600083015261365c81613620565b905061366b60208301846133ba565b92915050565b600061367c82613263565b91507f80000000000000000000000000000000000000000000000000000000000000008214156136af576136ae6132de565b5b816000039050919050565b60006136c582613263565b91506136d083613263565b9250827f7fffffffffffffffffffffffffffffffffffffffffffffffffffffffffffffff048211600084136000841316161561370f5761370e6132de565b5b817f8000000000000000000000000000000000000000000000000000000000000000058312600084126000841316161561374c5761374b6132de565b5b827f80000000000000000000000000000000000000000000000000000000000000000582126000841360008412161615613789576137886132de565b5b827f7fffffffffffffffffffffffffffffffffffffffffffffffffffffffffffffff05821260008412600084121616156137c6576137c56132de565b5b828202905092915050565b7f4e487b7100000000000000000000000000000000000000000000000000000000600052601260045260246000fd5b600061380b82613263565b915061381683613263565b925082613826576138256137d1565b5b600160000383147f80000000000000000000000000000000000000000000000000000000000000008314161561385f5761385e6132de565b5b828205905092915050565b6000613875826131c6565b9150613880836131c6565b9250827fffffffffffffffffffffffffffffffffffffffffffffffffffffffffffffffff038211156138b5576138b46132de565b5b828201905092915050565b60006138cb826131c6565b91506138d6836131c6565b9250828210156138e9576138e86132de565b5b828203905092915050565b600081600f0b9050919050565b600061390c826138f4565b9150613917836138f4565b9250816f7fffffffffffffffffffffffffffffff03831360008312151615613942576139416132de565b5b817fffffffffffffffffffffffffffffffff8000000000000000000000000000000003831260008312161561397a576139796132de565b5b828201905092915050565b7f4163636f756e7400000000000000000000000000000000000000000000000000600082015250565b60006139bb600783613494565b91506139c682613985565b602082019050919050565b600060408201905081810360008301526139ea816139ae565b90506139f960208301846133a1565b92915050565b7f436f6c6c61746572616c436f6e66696775726174696f6e000000000000000000600082015250565b6000613a35601783613494565b9150613a40826139ff565b602082019050919050565b60006040820190508181036000830152613a6481613a28565b9050613a736020830184613297565b92915050565b6000608082019050613a8e60008301876132a6565b613a9b60208301866132a6565b613aa860408301856132a6565b613ab560608301846132a6565b95945050505050565b6000604082019050613ad360008301856133ba565b613ae060208301846133ba565b9392505050565b7f4e487b7100000000000000000000000000000000000000000000000000000000600052603260045260246000fd5b6000613b21826131c6565b9150613b2c836131c6565b9250817fffffffffffffffffffffffffffffffffffffffffffffffffffffffffffffffff0483118215151615613b6557613b646132de565b5b828202905092915050565b6000613b7b826131c6565b9150613b86836131c6565b925082613b9657613b956137d1565b5b828204905092915050565b6000613bac826131c6565b91507fffffffffffffffffffffffffffffffffffffffffffffffffffffffffffffffff821415613bdf57613bde6132de565b5b600182019050919050565b600069ffffffffffffffffffff82169050919050565b613c0981613bea565b8114613c1457600080fd5b50565b600081519050613c2681613c00565b92915050565b613c3581613263565b8114613c4057600080fd5b50565b600081519050613c5281613c2c565b92915050565b600081519050613c67816131d0565b92915050565b600080600080600060a08688031215613c8957613c8861311b565b5b6000613c9788828901613c17565b9550506020613ca888828901613c43565b9450506040613cb988828901613c58565b9350506060613cca88828901613c58565b9250506080613cdb88828901613c17565b9150509295509295909350565b7f54686520636f6c6c61746572616c2076616c7565206973203000000000000000600082015250565b6000613d1e601983613494565b9150613d2982613ce8565b602082019050919050565b60006020820190508181036000830152613d4d81613d11565b9050919050565b6000613d5f826138f4565b9150613d6a836138f4565b9250827fffffffffffffffffffffffffffffffff8000000000000000000000000000000001821260008412151615613da557613da46132de565b5b826f7fffffffffffffffffffffffffffffff018213600084121615613dcd57613dcc6132de565b5b828203905092915050565b60008160011c9050919050565b6000808291508390505b6001851115613e2f57808604811115613e0b57613e0a6132de565b5b6001851615613e1a5780820291505b8081029050613e2885613dd8565b9450613def565b94509492505050565b600082613e485760019050613f04565b81613e565760009050613f04565b8160018114613e6c5760028114613e7657613ea5565b6001915050613f04565b60ff841115613e8857613e876132de565b5b8360020a915084821115613e9f57613e9e6132de565b5b50613f04565b5060208310610133831016604e8410600b8410161715613eda5782820a905083811115613ed557613ed46132de565b5b613f04565b613ee78484846001613de5565b92509050818404811115613efe57613efd6132de565b5b81810290505b9392505050565b6000613f16826131c6565b9150613f21836131c6565b9250613f4e7fffffffffffffffffffffffffffffffffffffffffffffffffffffffffffffffff8484613e38565b905092915050565b7f4d61726b65740000000000000000000000000000000000000000000000000000600082015250565b6000613f8c600683613494565b9150613f9782613f56565b602082019050919050565b60006040820190508181036000830152613fbb81613f7f565b9050613fca60208301846133a1565b92915050565b6000613fdb826138f4565b9150613fe6836138f4565b925082613ff657613ff56137d1565b5b600160000383147fffffffffffffffffffffffffffffffff800000000000000000000000000000008314161561402f5761402e6132de565b5b828205905092915050565b600060208201905061404f60008301846133a1565b92915050565b7f506f6f6c436f6e66696775726174696f6e000000000000000000000000000000600082015250565b600061408b601183613494565b915061409682614055565b602082019050919050565b600060208201905081810360008301526140ba8161407e565b9050919050565b60006140cc826138f4565b91507fffffffffffffffffffffffffffffffff800000000000000000000000000000008214156140ff576140fe6132de565b5b816000039050919050565b7f6e6f20736861726573206f6e206163746f722072656d6f76616c000000000000600082015250565b6000614140601a83613494565b915061414b8261410a565b602082019050919050565b6000602082019050818103600083015261416f81614133565b9050919050565b600061418182613120565b915061418c83613120565b9250826fffffffffffffffffffffffffffffffff038211156141b1576141b06132de565b5b828201905092915050565b60006141c782613120565b91506141d283613120565b9250828210156141e5576141e46132de565b5b828203905092915050565b60006141fb82613120565b91506fffffffffffffffffffffffffffffffff82141561421e5761421d6132de565b5b600182019050919050565b60006020828403121561423f5761423e61311b565b5b600061424d84828501613c58565b91505092915050565b7f4e487b7100000000000000000000000000000000000000000000000000000000600052603160045260246000fdfea264697066735822122047055b2556efcf450c8e0d1e7894099ff8a99f1d14105e9f253eaf325849144e64736f6c634300080b0033",
  "linkReferences": {},
  "deployedLinkReferences": {}
}