{
  "_format": "hh-sol-artifact-1",
  "contractName": "IssueUSDModule",
  "sourceName": "contracts/modules/core/IssueUSDModule.sol",
  "abi": [
    {
      "inputs": [],
      "name": "EmptyDistribution",
      "type": "error"
    },
    {
      "inputs": [
        {
          "internalType": "uint256",
          "name": "collateralValue",
          "type": "uint256"
        },
        {
          "internalType": "uint256",
          "name": "debt",
          "type": "uint256"
        },
        {
          "internalType": "uint256",
          "name": "ratio",
          "type": "uint256"
        },
        {
          "internalType": "uint256",
          "name": "minRatio",
          "type": "uint256"
        }
      ],
      "name": "InsufficientCollateralRatio",
      "type": "error"
    },
    {
      "inputs": [
        {
          "internalType": "int256",
          "name": "currentDebt",
          "type": "int256"
        }
      ],
      "name": "InsufficientDebt",
      "type": "error"
    },
    {
      "inputs": [
        {
          "internalType": "uint128",
          "name": "marketId",
          "type": "uint128"
        }
      ],
      "name": "MarketNotFound",
      "type": "error"
    },
    {
      "inputs": [
        {
          "internalType": "bytes32",
          "name": "expected",
          "type": "bytes32"
        },
        {
          "internalType": "bytes32",
          "name": "actual",
          "type": "bytes32"
        }
      ],
      "name": "MismatchAssociatedSystemKind",
      "type": "error"
    },
    {
      "inputs": [],
      "name": "OverflowInt256ToInt128",
      "type": "error"
    },
    {
      "inputs": [],
      "name": "OverflowInt256ToUint256",
      "type": "error"
    },
    {
      "inputs": [],
      "name": "OverflowUint128ToInt128",
      "type": "error"
    },
    {
      "inputs": [],
      "name": "OverflowUint256ToInt256",
      "type": "error"
    },
    {
      "inputs": [],
      "name": "OverflowUint256ToUint128",
      "type": "error"
    },
    {
      "inputs": [
        {
          "internalType": "uint128",
          "name": "accountId",
          "type": "uint128"
        },
        {
          "internalType": "bytes32",
          "name": "permission",
          "type": "bytes32"
        },
        {
          "internalType": "address",
          "name": "target",
          "type": "address"
        }
      ],
      "name": "PermissionDenied",
      "type": "error"
    },
    {
      "anonymous": false,
      "inputs": [
        {
          "indexed": true,
          "internalType": "uint128",
          "name": "accountId",
          "type": "uint128"
        },
        {
          "indexed": true,
          "internalType": "uint128",
          "name": "poolId",
          "type": "uint128"
        },
        {
          "indexed": false,
          "internalType": "address",
          "name": "collateralType",
          "type": "address"
        },
        {
          "indexed": false,
          "internalType": "uint256",
          "name": "amount",
          "type": "uint256"
        },
        {
          "indexed": true,
          "internalType": "address",
          "name": "sender",
          "type": "address"
        }
      ],
      "name": "UsdBurned",
      "type": "event"
    },
    {
      "anonymous": false,
      "inputs": [
        {
          "indexed": true,
          "internalType": "uint128",
          "name": "accountId",
          "type": "uint128"
        },
        {
          "indexed": true,
          "internalType": "uint128",
          "name": "poolId",
          "type": "uint128"
        },
        {
          "indexed": false,
          "internalType": "address",
          "name": "collateralType",
          "type": "address"
        },
        {
          "indexed": false,
          "internalType": "uint256",
          "name": "amount",
          "type": "uint256"
        },
        {
          "indexed": true,
          "internalType": "address",
          "name": "sender",
          "type": "address"
        }
      ],
      "name": "UsdMinted",
      "type": "event"
    },
    {
      "inputs": [
        {
          "internalType": "uint128",
          "name": "accountId",
          "type": "uint128"
        },
        {
          "internalType": "uint128",
          "name": "poolId",
          "type": "uint128"
        },
        {
          "internalType": "address",
          "name": "collateralType",
          "type": "address"
        },
        {
          "internalType": "uint256",
          "name": "amount",
          "type": "uint256"
        }
      ],
      "name": "burnUsd",
      "outputs": [],
      "stateMutability": "nonpayable",
      "type": "function"
    },
    {
      "inputs": [
        {
          "internalType": "uint128",
          "name": "accountId",
          "type": "uint128"
        },
        {
          "internalType": "uint128",
          "name": "poolId",
          "type": "uint128"
        },
        {
          "internalType": "address",
          "name": "collateralType",
          "type": "address"
        },
        {
          "internalType": "uint256",
          "name": "amount",
          "type": "uint256"
        }
      ],
      "name": "mintUsd",
      "outputs": [],
      "stateMutability": "nonpayable",
      "type": "function"
    }
  ],
  "bytecode": "0x608060405234801561001057600080fd5b50612737806100206000396000f3fe608060405234801561001057600080fd5b50600436106100365760003560e01c8063d3264e431461003b578063df16a07414610050575b600080fd5b61004e6100493660046122a1565b610063565b005b61004e61005e3660046122a1565b610207565b600061006e846103f3565b9050600061007d828588610450565b9050600081136100a85760405163d0937b7160e01b8152600481018290526024015b60405180910390fd5b6100b183610489565b8112156100c4576100c1816104b7565b92505b6100e06100db672aa9a22a37b5b2b760c11b6104da565b610518565b604051632770a7eb60e21b8152336004820152602481018590526001600160a01b039190911690639dc29fac90604401600060405180830381600087803b15801561012a57600080fd5b505af115801561013e573d6000803e3d6000fd5b50505050600061017e610150876103f3565b6001600160a01b03871660009081526008919091016020908152604080832080548452600201909152902090565b905061019e8761018d86610489565b61019690612310565b83919061053a565b506101a983866105f5565b50604080516001600160a01b03871681526020810186905233916001600160801b03808a1692908b16917f6b0230f0abe9188cbdbb1c816a4c5e213758b5b743d8a94af056280cc1e7aeb1910160405180910390a450505050505050565b61021884631352539560e21b6106df565b6000610223846103f3565b90506000610232828588610450565b9050600061023f84610489565b610249908361232c565b905081811361028f5760405162461bcd60e51b8152602060048201526012602482015271125b98dbdc9c9958dd081b995dc81919589d60721b604482015260640161009f565b600061029c84878a61072f565b91505060008213156102c5576102c56102b4836104b7565b826102be8961077e565b91906107d5565b60006103016102d3896103f3565b6001600160a01b03891660009081526008919091016020908152604080832080548452600201909152902090565b90506103108961019688610489565b5061031b85886105f5565b506103336100db672aa9a22a37b5b2b760c11b6104da565b6040516340c10f1960e01b8152336004820152602481018890526001600160a01b0391909116906340c10f1990604401600060405180830381600087803b15801561037d57600080fd5b505af1158015610391573d6000803e3d6000fd5b5050604080516001600160a01b038b168152602081018a90523393506001600160801b03808d1693508d16917f2100f67dc9a5917400f799bb13194553e3f74c19a207c56350d2c223ac9c36c9910160405180910390a4505050505050505050565b600080826040516020016104319190604080825260049082015263141bdbdb60e21b60608201526001600160801b0391909116602082015260800190565b60408051601f1981840301815291905280516020909101209392505050565b600061045c84846105f5565b506001600160a01b03831660009081526008850160205260409020610481908361083a565b949350505050565b60006001600160ff1b038211156104b35760405163677c430560e11b815260040160405180910390fd5b5090565b6000808212156104b35760405163029f024d60e31b815260040160405180910390fd5b6040805160208101829052601060608201526f4173736f63696174656453797374656d60801b6080820152908101829052600090819060a001610431565b600061052c8264065726332360dc1b61085f565b50546001600160a01b031690565b6001600160801b038216600090815260058401602052604081205461055e836108a7565b600f0b856005016000866001600160801b03168152602001908152602001600020600082825461058e919061232c565b9091555061059d9050836108a7565b855486906010906105b9908490600160801b9004600f0b612354565b92506101000a8154816001600160801b030219169083600f0b6001600160801b0316021790555082816105ec919061232c565b95945050505050565b6000610600836108e3565b6001600160a01b03821661063a61061a6006860183610a5a565b6001600160a01b0385166000908152600887016020526040902090610a81565b61064b6106468461077e565b610a9d565b6001600160a01b038416600090815260088601602052604081209193509081906106759085610b38565b91935090915061068b9050600687018484610c1d565b50610695816108a7565b60048701546106ae9190600160801b9004600f0b612354565b6004870180546001600160801b03928316600160801b0292169190911790556106d6866108e3565b50505092915050565b6106f781336106ed85610cce565b6001019190610d0f565b61072b5760405162ef2a9160e11b81526001600160801b03831660048201526024810182905233604482015260640161009f565b5050565b60008060006107406106468661077e565b6001600160a01b038616600090815260088801602052604090209091506107679085610d4c565b92506107738184610d68565b915050935093915050565b60008082604051602001610431919060408082526017908201527f436f6c6c61746572616c436f6e66696775726174696f6e00000000000000000060608201526001600160a01b0391909116602082015260800190565b81158015906107f0575060018301546107ee8284610d87565b105b156108355780826108018282610d87565b6001860154604051636119eca760e01b8152600481019490945260248401929092526044830152606482015260840161009f565b505050565b8154600090815260028301602052604081206108569083610d9c565b90505b92915050565b60028201548181148015906108805750681d5b9b585b9859d95960ba1b8114155b156108355760405162d5319f60e31b8152600481018390526024810182905260440161009f565b600060016001607f1b03198212806108c5575060016001607f1b0382135b156104b357604051634022cc0360e01b815260040160405180910390fd5b60048101546001600160801b031660008190036108fe575050565b600682015460048301546001600160801b0390911690600160801b9004600f0b6000805b6005860154811015610a4557600086600501828154811061094557610945612381565b60009182526020822060029091020180549092506001600160801b03600160801b9091041690876109768389612397565b61098091906123c4565b9050600061098d89610489565b61099684610489565b88600f0b6109a491906123d8565b6109ae9190612408565b84549091506000906109c8906001600160801b0316610e12565b80549091506000906109e6908d906001600160801b03168686610e52565b6001870154909150600f0b8082126109fe5780610a00565b815b87548e54919350610a1f916001600160801b0391821691168488610f30565b610a29908a61232c565b9850505050505050508080610a3d90612436565b915050610922565b50610a536006860182610f9a565b5050505050565b600081815260018301602052604081205461085690849084906001600160801b0316610c1d565b81546000908152600283016020526040902061072b9082611057565b600080610aa86110ad565b6040805160208101825291546001600160a01b03168083526004808701549251632a952b2d60e01b81529394506000939192632a952b2d92610aee920190815260200190565b608060405180830381865afa158015610b0b573d6000803e3d6000fd5b505050506040513d601f19601f82011682018060405250810190610b2f919061244f565b51949350505050565b8154600090815260028301602052604081206003810154829182918290610b7f90610b7a906b033b2e3c9fd0803ce800000090600160801b9004600f0b61232c565b6104b7565b6001830154909150610bbf9087906b033b2e3c9fd0803ce800000090610baf9085906001600160801b0316612397565b610bb991906123c4565b90610d68565b9450610bca826110ff565b6001880154909450610be690600160801b9004600f0b856124c3565b9250610bf1846108a7565b600190970180546001600160801b03988916600160801b02981697909717909655509194909350909150565b6000610c298484611125565b60008481526001860160205260408120919250610c458461119c565b825487549192506001600160801b0390811691610c64918491166124e3565b610c6e9190612503565b86546001600160801b03199081166001600160801b039283161788558354169082161782558315610caa578554600160801b9004600f0b610cad565b60005b82546001600160801b03918216600160801b02911617909155509392505050565b6000808260405160200161043191906040808252600790820152661058d8dbdd5b9d60ca1b60608201526001600160801b0391909116602082015260800190565b82546000906001600160a01b0383811691161480610d3b5750610d3b846420a226a4a760d91b846111c6565b8061048157506104818484846111c6565b815460009081526002830160205260408120610856908361120b565b6000670de0b6b3a7640000610d7d8385612397565b61085691906123c4565b600081610d7d670de0b6b3a764000085612397565b60006001600160801b03821681610db66001860183610a5a565b9050610dc385858361053a565b9250610dce816108a7565b85548690600090610de3908490600f0b612523565b92506101000a8154816001600160801b030219169083600f0b6001600160801b03160217905550505092915050565b60008082604051602001610431919060408082526006908201526513585c9ad95d60d21b60608201526001600160801b0391909116602082015260800190565b600080610e5e85610e12565b90506000610e6a611223565b5460068801549091506001600160801b03166000610e8a600a850161125b565b905082600003610eb157610ea6670de0b6b3a76400008261232c565b945050505050610481565b81600003610ec457935061048192505050565b6000610eda83610ed48a87610d87565b90610d87565b9050610eef610ee884610489565b8890611275565b610ef882610489565b610f0487600a0161125b565b610f0e919061232c565b610f1891906124c3565b95505050505050610481565b50505050949350505050565b600080610f3c86610e12565b60018101549091506001600160a01b0316610f755760405163784060f560e11b81526001600160801b038716600482015260240161009f565b610f84816402540be3ff611294565b610f908186858761133c565b9695505050505050565b80600003610fa6575050565b81546001600160801b03166000819003610fd357604051633b182f5560e01b815260040160405180910390fd5b6000610feb6b033b2e3c9fd0803ce8000000846123d8565b90506000610ff883610489565b6110029083612408565b905061100d816108a7565b85548690601090611029908490600160801b9004600f0b612354565b92506101000a8154816001600160801b030219169083600f0b6001600160801b031602179055505050505050565b6110646001830182610f9a565b61106d816108a7565b82548390600090611082908490600f0b612354565b92506101000a8154816001600160801b030219169083600f0b6001600160801b031602179055505050565b6000806040516020016110e1906020808252600d908201526c27b930b1b632a6b0b730b3b2b960991b604082015260600190565b60408051601f19818403018152919052805160209091012092915050565b805460009061111c90600160801b8104600f90810b91900b612354565b600f0b92915050565b6000818152600183016020526040812080548454839161115891600160801b91829004600f90810b92909104900b612523565b8254600f9190910b9150600090611177906001600160801b031661157a565b61118490600f0b836123d8565b9050610f906b033b2e3c9fd0803ce800000082612408565b60006001600160801b038211156104b357604051637d5864af60e11b815260040160405180910390fd5b60006001600160a01b0382161580159061048157506001600160a01b038216600090815260018581016020908152604080842087855290920190529020541515610481565b6000610856600384016001600160801b0384166115ad565b6000806040516020016110e1906020808252601190820152702837b7b621b7b73334b3bab930ba34b7b760791b604082015260600190565b805460009061085990600160801b9004600f0b60096115fb565b60008161128a670de0b6b3a7640000856123d8565b6108569190612408565b600061129f83611612565b60038401549091506000906112b790600f0b836124c3565b905060006112c685838661164d565b915050801580156112e35750600a8501546001600160801b031615155b15610a53576003850154611308906112fe90600f0b856124c3565b600a870190610f9a565b611311836108a7565b6003860180546001600160801b03929092166001600160801b03199092169190911790555050505050565b6000806113498686611991565b9050600061135a60048801876119b5565b6020015161136790612550565b600f0b90506113758561119c565b6001600160801b038781166000908152600c8a016020526040812080546001600160801b031916939092169290921790556113ba6113b5600a8a0161125b565b6108a7565b905080600f0b8512156113f757600095506113d860048901886119ef565b506113f1876113e6876108a7565b60078b019190611a29565b50611428565b61141887611404876108a7565b61140d90612550565b60048b019190611a29565b5061142660078901886119ef565b505b6000611441600a8a016001600160801b038a1689610c1d565b6001600160801b03808a166000908152600c8c016020526040902054919250829161147491600160801b9091041661157a565b600f0b611481919061232c565b6001600160801b03808a166000908152600c8c0160205260409020805490911690559450600f82900b86131561150d576114c46114bf8a8989611aed565b61119c565b60028a0180546010906114e8908490600160801b90046001600160801b03166124e3565b92506101000a8154816001600160801b0302191690836001600160801b031602179055505b81600f0b831315610f24576115266114bf8a8686611aed565b60028a01805460109061154a908490600160801b90046001600160801b0316612503565b92506101000a8154816001600160801b0302191690836001600160801b0316021790555050505050949350505050565b600060016001607f1b036001600160801b03831611156104b357604051634593782f60e11b815260040160405180910390fd5b81546000906001600160801b03168082036115cc576000915050610859565b806115d685611b15565b60008581526001870160205260409020546115f19190612397565b61048191906123c4565b600061160882600a61265a565b6108569084612408565b600061162561162083611b60565b610489565b6002830154600f0b61163961162085611c18565b611643919061232c565b61085991906124c3565b6000808315806116685750600a8501546001600160801b0316155b1561167857506000905080611989565b6000806000808713156116985750600191505060048601600787016116a8565b5060001991505060078601600487015b60005b86811015611938576116bc83611c93565b156119385760006116cc84611cb6565b90506116e18a6116dc898c6124c3565b611cd5565b85600f0b6116ef91906123d8565b81602001516116fd90612550565b600f0b1261170b5750611938565b6117158484611d13565b600061176b6117268c600a0161125b565b602084015161173489612550565b61173e9190612666565b600f0b61174b91906124c3565b600a8d0154611762906001600160801b031661157a565b600f0b90611d44565b905061177a600a8c0182610f9a565b611784818961232c565b975060008a13156118875781516001600160801b039081166000908152600b8d016020526040902054166117fa5760405162461bcd60e51b815260206004820152601e60248201527f6e6f20736861726573206265666f7265206163746f722072656d6f76616c0000604482015260640161009f565b815160009061181b90610b7a90600a8f01906001600160801b031684610c1d565b90506118268161119c565b83516001600160801b039081166000908152600c8f01602052604090208054909160109161185d918591600160801b9004166124e3565b92506101000a8154816001600160801b0302191690836001600160801b0316021790555050611923565b81516001600160801b039081166000908152600b8d01602052604090205416156118f35760405162461bcd60e51b815260206004820152601b60248201527f6163746f722068617320736861726573206265666f7265206164640000000000604482015260640161009f565b81516001600160801b039081166000818152600c8e01602052604090205461192192600a8f01929116610c1d565b505b5050808061193090612436565b9150506116ab565b611941866108a7565b60038a018054600090611958908490600f0b612354565b92506101000a8154816001600160801b030219169083600f0b6001600160801b031602179055508681149450505050505b935093915050565b6001600160801b038181166000908152600b84016020526040812054909116610856565b60408051808201909152600080825260208201526001600160801b0382166000908152600284016020526040902054610856908490611d59565b60408051808201909152600080825260208201526001600160801b0382166000908152600284016020526040902054610856908490611de2565b60408051808201909152600080825260208201526001840154600003611a5257611a5284611f7b565b6040805180820190915260008082526020820152611a7085856119ef565b5084546001600160801b0316856000611a8883612686565b82546101009290920a6001600160801b03818102199093169183160217909155600187810180548201808255600091909152604080518082019091529288168352600f87900b6020840152919350610481925087918491611ae8916126ac565b611fd2565b600080611b09611aff86600a0161125b565b610b7a90856124c3565b90506105ec8185610d68565b80546000906b033b2e3c9fd0803ce8000000906001600160801b03811690611b4c90610b7a908490600160801b9004600f0b61232c565b611b569190612397565b61085991906123c4565b600080805b600d840154811015611c1157600084600d018281548110611b8857611b88612381565b600091825260208083206040805180820190915260029093020180546001600160a01b031680845260019091015491830191909152909250611bc99061077e565b90506000611bd682610a9d565b9050611bef836020015182610d6890919063ffffffff16565b611bf990866126bf565b94505050508080611c0990612436565b915050611b65565b5092915050565b6001810154815460405163bcec0d0f60e01b81526001600160801b0390911660048201526000916001600160a01b03169063bcec0d0f90602401602060405180830381865afa158015611c6f573d6000803e3d6000fd5b505050506040513d601f19601f8201168201806040525081019061085991906126d2565b6001810154600090611ca6576000610859565b60018281015461085991906126ac565b6040805180820190915260008082526020820152610859826001611d59565b600a820154600090611cfd90611cf3906001600160801b031661157a565b8390600f0b611275565b611d0984600a0161125b565b610856919061232c565b6000611d1e8361209d565b9050611d3e81600001518260200151611d3690612550565b849190611a29565b50505050565b6000670de0b6b3a764000061128a83856123d8565b604080518082019091526000808252602082015260018301548210611d91576040805180820190915260008082526020820152610856565b826001018281548110611da657611da6612381565b6000918252602091829020604080518082019091529101546001600160801b0381168252600160801b9004600f0b918101919091529392505050565b6040805180820190915260008082526020820152600183015482101580611e07575081155b15611e2657506040805180820190915260008082526020820152610859565b6000836001018381548110611e3d57611e3d612381565b6000918252602080832060408051808201825293909101546001600160801b038116808552600160801b909104600f0b8484015284526002880190915282208290556001808701805492945091611e9491906126ac565b81548110611ea457611ea4612381565b6000918252602091829020604080518082019091529101546001600160801b0381168252600160801b9004600f0b918101919091526001860180549192509080611ef057611ef06126eb565b6000828152602081208201600019908101919091550190556001850154841015611f7357611f1f858286611fd2565b611f7385866001018681548110611f3857611f38612381565b6000918252602091829020604080518082019091529101546001600160801b0381168252600160801b9004600f0b91810191909152866120bc565b509392505050565b6001810154600003611fcf576040805180820190915260008082526020808301828152600180860180549182018155845291909220925191516001600160801b03908116600160801b029216919091179101555b50565b600181148061201f575060018301611feb6002836123c4565b81548110611ffb57611ffb612381565b6000918252602091829020015490830151600160801b909104600f90810b91900b13155b1561202f5761083583838361222a565b61208d83600181016120426002856123c4565b8154811061205257612052612381565b6000918252602091829020604080518082019091529101546001600160801b0381168252600160801b9004600f0b918101919091528361222a565b6108358383611ae86002856123c4565b6040805180820190915260008082526020820152610859826001611de2565b600183015460006120ce836002612397565b90508082116120e7576120e285858561222a565b610a53565b60008560010182815481106120fe576120fe612381565b6000918252602091829020604080518082019091529101546001600160801b0381168252600160801b9004600f0b9181019190915290506121408260016126bf565b8311801561218a57508060200151600f0b8660010183600161216291906126bf565b8154811061217257612172612381565b600091825260209091200154600160801b9004600f0b135b156121e7576001860161219c83612436565b925082815481106121af576121af612381565b6000918252602091829020604080518082019091529101546001600160801b0381168252600160801b9004600f0b9181019190915290505b8460200151600f0b8160200151600f0b1361220c5761220786868661222a565b612222565b61221786828661222a565b6122228686846120bc565b505050505050565b8183600101828154811061224057612240612381565b600091825260208083208451948201516001600160801b03908116600160801b0295811695909517920191909155935190911681526002909301909152604090912055565b80356001600160801b038116811461229c57600080fd5b919050565b600080600080608085870312156122b757600080fd5b6122c085612285565b93506122ce60208601612285565b925060408501356001600160a01b03811681146122ea57600080fd5b9396929550929360600135925050565b634e487b7160e01b600052601160045260246000fd5b6000600160ff1b8201612325576123256122fa565b5060000390565b808201828112600083128015821682158216171561234c5761234c6122fa565b505092915050565b600f81810b9083900b0160016001607f1b03811360016001607f1b031982121715610859576108596122fa565b634e487b7160e01b600052603260045260246000fd5b8082028115828204841417610859576108596122fa565b634e487b7160e01b600052601260045260246000fd5b6000826123d3576123d36123ae565b500490565b80820260008212600160ff1b841416156123f4576123f46122fa565b8181058314821517610859576108596122fa565b600082612417576124176123ae565b600160ff1b821460001984141615612431576124316122fa565b500590565b600060018201612448576124486122fa565b5060010190565b60006080828403121561246157600080fd5b6040516080810181811067ffffffffffffffff8211171561249257634e487b7160e01b600052604160045260246000fd5b8060405250825181526020830151602082015260408301516040820152606083015160608201528091505092915050565b8181036000831280158383131683831282161715611c1157611c116122fa565b6001600160801b03818116838216019080821115611c1157611c116122fa565b6001600160801b03828116828216039080821115611c1157611c116122fa565b600f82810b9082900b0360016001607f1b0319811260016001607f1b0382131715610859576108596122fa565b600081600f0b60016001607f1b0319810361256d5761256d6122fa565b60000392915050565b600181815b808511156125b1578160001904821115612597576125976122fa565b808516156125a457918102915b93841c939080029061257b565b509250929050565b6000826125c857506001610859565b816125d557506000610859565b81600181146125eb57600281146125f557612611565b6001915050610859565b60ff841115612606576126066122fa565b50506001821b610859565b5060208310610133831016604e8410600b8410161715612634575081810a610859565b61263e8383612576565b8060001904821115612652576126526122fa565b029392505050565b600061085683836125b9565b600082600f0b82600f0b0280600f0b9150808214611c1157611c116122fa565b60006001600160801b038083168181036126a2576126a26122fa565b6001019392505050565b81810381811115610859576108596122fa565b80820180821115610859576108596122fa565b6000602082840312156126e457600080fd5b5051919050565b634e487b7160e01b600052603160045260246000fdfea2646970667358221220b880d35a9217c63b68797aedfed46c38963caa6593fac8cd387fad0759a99cd064736f6c63430008110033",
  "linkReferences": {},
  "deployedLinkReferences": {}
}