{
  "_format": "hh-sol-artifact-1",
  "contractName": "LiquidationModule",
  "sourceName": "contracts/modules/core/LiquidationModule.sol",
  "abi": [
    {
      "inputs": [
        {
          "internalType": "uint128",
          "name": "accountId",
          "type": "uint128"
        }
      ],
      "name": "AccountNotFound",
      "type": "error"
    },
    {
      "inputs": [],
      "name": "EmptyDistribution",
      "type": "error"
    },
    {
      "inputs": [
        {
          "internalType": "uint256",
          "name": "collateralValue",
          "type": "uint256"
        },
        {
          "internalType": "int256",
          "name": "debt",
          "type": "int256"
        },
        {
          "internalType": "uint256",
          "name": "currentCRatio",
          "type": "uint256"
        },
        {
          "internalType": "uint256",
          "name": "cratio",
          "type": "uint256"
        }
      ],
      "name": "IneligibleForLiquidation",
      "type": "error"
    },
    {
      "inputs": [
        {
          "internalType": "int256",
          "name": "scaleModifier",
          "type": "int256"
        }
      ],
      "name": "InsufficientMappedAmount",
      "type": "error"
    },
    {
      "inputs": [
        {
          "internalType": "string",
          "name": "parameter",
          "type": "string"
        },
        {
          "internalType": "string",
          "name": "reason",
          "type": "string"
        }
      ],
      "name": "InvalidParameter",
      "type": "error"
    },
    {
      "inputs": [
        {
          "internalType": "uint128",
          "name": "marketId",
          "type": "uint128"
        }
      ],
      "name": "MarketNotFound",
      "type": "error"
    },
    {
      "inputs": [
        {
          "internalType": "bytes32",
          "name": "expected",
          "type": "bytes32"
        },
        {
          "internalType": "bytes32",
          "name": "actual",
          "type": "bytes32"
        }
      ],
      "name": "MismatchAssociatedSystemKind",
      "type": "error"
    },
    {
      "inputs": [],
      "name": "MustBeVaultLiquidated",
      "type": "error"
    },
    {
      "inputs": [],
      "name": "OverflowInt128ToUint128",
      "type": "error"
    },
    {
      "inputs": [],
      "name": "OverflowInt256ToInt128",
      "type": "error"
    },
    {
      "inputs": [],
      "name": "OverflowInt256ToUint256",
      "type": "error"
    },
    {
      "inputs": [],
      "name": "OverflowUint128ToInt128",
      "type": "error"
    },
    {
      "inputs": [],
      "name": "OverflowUint256ToInt256",
      "type": "error"
    },
    {
      "inputs": [],
      "name": "OverflowUint256ToUint128",
      "type": "error"
    },
    {
      "anonymous": false,
      "inputs": [
        {
          "indexed": true,
          "internalType": "uint128",
          "name": "accountId",
          "type": "uint128"
        },
        {
          "indexed": true,
          "internalType": "uint128",
          "name": "poolId",
          "type": "uint128"
        },
        {
          "indexed": true,
          "internalType": "address",
          "name": "collateralType",
          "type": "address"
        },
        {
          "components": [
            {
              "internalType": "uint256",
              "name": "debtLiquidated",
              "type": "uint256"
            },
            {
              "internalType": "uint256",
              "name": "collateralLiquidated",
              "type": "uint256"
            },
            {
              "internalType": "uint256",
              "name": "amountRewarded",
              "type": "uint256"
            }
          ],
          "indexed": false,
          "internalType": "struct ILiquidationModule.LiquidationData",
          "name": "liquidationData",
          "type": "tuple"
        },
        {
          "indexed": false,
          "internalType": "uint128",
          "name": "liquidateAsAccountId",
          "type": "uint128"
        },
        {
          "indexed": false,
          "internalType": "address",
          "name": "sender",
          "type": "address"
        }
      ],
      "name": "Liquidation",
      "type": "event"
    },
    {
      "anonymous": false,
      "inputs": [
        {
          "indexed": true,
          "internalType": "uint128",
          "name": "poolId",
          "type": "uint128"
        },
        {
          "indexed": true,
          "internalType": "address",
          "name": "collateralType",
          "type": "address"
        },
        {
          "components": [
            {
              "internalType": "uint256",
              "name": "debtLiquidated",
              "type": "uint256"
            },
            {
              "internalType": "uint256",
              "name": "collateralLiquidated",
              "type": "uint256"
            },
            {
              "internalType": "uint256",
              "name": "amountRewarded",
              "type": "uint256"
            }
          ],
          "indexed": false,
          "internalType": "struct ILiquidationModule.LiquidationData",
          "name": "liquidationData",
          "type": "tuple"
        },
        {
          "indexed": false,
          "internalType": "uint128",
          "name": "liquidateAsAccountId",
          "type": "uint128"
        },
        {
          "indexed": false,
          "internalType": "address",
          "name": "sender",
          "type": "address"
        }
      ],
      "name": "VaultLiquidation",
      "type": "event"
    },
    {
      "inputs": [
        {
          "internalType": "uint128",
          "name": "accountId",
          "type": "uint128"
        },
        {
          "internalType": "uint128",
          "name": "poolId",
          "type": "uint128"
        },
        {
          "internalType": "address",
          "name": "collateralType",
          "type": "address"
        }
      ],
      "name": "isPositionLiquidatable",
      "outputs": [
        {
          "internalType": "bool",
          "name": "",
          "type": "bool"
        }
      ],
      "stateMutability": "nonpayable",
      "type": "function"
    },
    {
      "inputs": [
        {
          "internalType": "uint128",
          "name": "poolId",
          "type": "uint128"
        },
        {
          "internalType": "address",
          "name": "collateralType",
          "type": "address"
        }
      ],
      "name": "isVaultLiquidatable",
      "outputs": [
        {
          "internalType": "bool",
          "name": "",
          "type": "bool"
        }
      ],
      "stateMutability": "nonpayable",
      "type": "function"
    },
    {
      "inputs": [
        {
          "internalType": "uint128",
          "name": "accountId",
          "type": "uint128"
        },
        {
          "internalType": "uint128",
          "name": "poolId",
          "type": "uint128"
        },
        {
          "internalType": "address",
          "name": "collateralType",
          "type": "address"
        },
        {
          "internalType": "uint128",
          "name": "liquidateAsAccountId",
          "type": "uint128"
        }
      ],
      "name": "liquidate",
      "outputs": [
        {
          "components": [
            {
              "internalType": "uint256",
              "name": "debtLiquidated",
              "type": "uint256"
            },
            {
              "internalType": "uint256",
              "name": "collateralLiquidated",
              "type": "uint256"
            },
            {
              "internalType": "uint256",
              "name": "amountRewarded",
              "type": "uint256"
            }
          ],
          "internalType": "struct ILiquidationModule.LiquidationData",
          "name": "liquidationData",
          "type": "tuple"
        }
      ],
      "stateMutability": "nonpayable",
      "type": "function"
    },
    {
      "inputs": [
        {
          "internalType": "uint128",
          "name": "poolId",
          "type": "uint128"
        },
        {
          "internalType": "address",
          "name": "collateralType",
          "type": "address"
        },
        {
          "internalType": "uint128",
          "name": "liquidateAsAccountId",
          "type": "uint128"
        },
        {
          "internalType": "uint256",
          "name": "maxUsd",
          "type": "uint256"
        }
      ],
      "name": "liquidateVault",
      "outputs": [
        {
          "components": [
            {
              "internalType": "uint256",
              "name": "debtLiquidated",
              "type": "uint256"
            },
            {
              "internalType": "uint256",
              "name": "collateralLiquidated",
              "type": "uint256"
            },
            {
              "internalType": "uint256",
              "name": "amountRewarded",
              "type": "uint256"
            }
          ],
          "internalType": "struct ILiquidationModule.LiquidationData",
          "name": "liquidationData",
          "type": "tuple"
        }
      ],
      "stateMutability": "nonpayable",
      "type": "function"
    }
  ],
  "bytecode": "0x608060405234801561001057600080fd5b50612eca806100206000396000f3fe608060405234801561001057600080fd5b506004361061004c5760003560e01c80632a5354d2146100515780632fa7bb65146100795780633e033a061461008c5780637d8a4140146100ac575b600080fd5b61006461005f366004612917565b6100bf565b60405190151581526020015b60405180910390f35b61006461008736600461294a565b61010d565b61009f61009a36600461298d565b61015e565b60405161007091906129e1565b61009f6100ba366004612a02565b61041a565b6000806100cb846107b0565b905060006100d9828561080d565b905060006100e7838661083d565b91505060008212158015610101575061010185838361088f565b93505050505b92915050565b600080610119846107b0565b905060006101288285886108c2565b905060006101378386896108fb565b91505060008212158015610151575061015185838361088f565b93505050505b9392505050565b61018260405180606001604052806000815260200160008152602001600081525090565b61018b8261094a565b6000610196856107b0565b905060006101a38561098e565b6001600160a01b038616600090815260088401602090815260408083208054845260020190915281209192506101da84888b6108c2565b90506000806101ea868a8d6108fb565b60208901829052909250905060008313158061020e575061020c89848361088f565b155b1561027257808360008513156102365761023161022a866109e5565b8490610a0c565b610239565b60005b60028801546040516305ece12f60e51b815260048101949094526024840192909252604483015260648201526084015b60405180910390fd5b61027b836109e5565b87526001600160801b038b81166000908152600286016020526040902054600186015490821691168190036102c357604051632603071d60e01b815260040160405180910390fd5b60038087015460408a01526102d9908601610a2b565b8860400151106102fc57604051632603071d60e01b815260040160405180910390fd5b610309858d600080610a7a565b61033a6103198960400151610ad2565b6103268a60200151610ad2565b6103309190612a63565b6003870190610afc565b61035c8c61034b8a60000151610ad2565b61035490612a83565b879190610bf2565b5061037461036d8960000151610ad2565b8690610cad565b61037e878b610d03565b506103b288604001516103908b610de8565b6001600160a01b038d1660009081526007919091016020526040902090610e29565b896001600160a01b03168b6001600160801b03168d6001600160801b03167fe6c1b26644f880854bf954d4186be9f0b2d06d50fa0484b596e79d409c07a5fd8b8d3360405161040393929190612a9f565b60405180910390a450505050505050949350505050565b61043e60405180606001604052806000815260200160008152602001600081525090565b6104478361094a565b816000036104af5760408051634bab873760e11b8152600481019190915260066044820152651b585e155cd960d21b606482015260806024820152601560848201527406d75737420626520686967686572207468616e203605c1b60a482015260c401610269565b60006104ba866107b0565b905060006104c78661098e565b6001600160a01b038716600090815260088401602052604081209192506104ee848961080d565b905060006104fc858a61083d565b91505061050a89838361088f565b61055f5780826000841361051f57600061052b565b61052b61022a856109e5565b60028701546040516305ece12f60e51b81526004810194909452602484019290925260448301526064820152608401610269565b600080831261057657610571836109e5565b610579565b60005b9050878111610637578087526105a161059c672aa9a22a37b5b2b760c11b610e63565b610ea1565b604051632770a7eb60e21b8152336004820152602481018390526001600160a01b039190911690639dc29fac90604401600060405180830381600087803b1580156105eb57600080fd5b505af11580156105ff573d6000803e3d6000fd5b5050855460009081526002870160205260409020610623925090505b600301610a2b565b6020880152610632868b610ec3565b610734565b87875261065161059c672aa9a22a37b5b2b760c11b610e63565b604051632770a7eb60e21b8152336004820152602481018a90526001600160a01b039190911690639dc29fac90604401600060405180830381600087803b15801561069b57600080fd5b505af11580156106af573d6000803e3d6000fd5b505085546000908152600287016020526040902089519092508391506106d760038401610a2b565b6106e19190612adf565b6106eb9190612b0c565b6020890152875161070f906106ff90610ad2565b61070890612a83565b8290610cad565b61073261071f8960200151610ad2565b61072890612a83565b6003830190610afc565b505b61074587602001516103908b610de8565b8660000151876040018181525050896001600160a01b03168b6001600160801b03167f1834a7cc9d14f9bfa482df5c0404dadd1b8ec123b41f082e76ae28a3b2ea68d5898c3360405161079a93929190612a9f565b60405180910390a3505050505050949350505050565b600080826040516020016107ee9190604080825260049082015263141bdbdb60e21b60608201526001600160801b0391909116602082015260800190565b60408051601f1981840301815291905280516020909101209392505050565b60006108198383610d03565b506001600160a01b0382166000908152600884016020526040902061015790610ef5565b600080600061085361084e8561098e565b610f10565b6001600160a01b0385166000908152600887016020526040902090915061087990610fab565b92506108858184610fc6565b9150509250929050565b60008083136108a057506000610157565b6108a98461098e565b600201546108b961022a856109e5565b10949350505050565b60006108ce8484610d03565b506001600160a01b038316600090815260088501602052604090206108f39083610fdb565b949350505050565b600080600061090c61084e8661098e565b6001600160a01b038616600090815260088801602052604090209091506109339085610ff7565b925061093f8184610fc6565b915050935093915050565b600061095582610de8565b600101546001600160a01b03160361098b576040516301c52d9360e31b81526001600160801b0382166004820152602401610269565b50565b600080826040516020016107ee919060408082526017908201527f436f6c6c61746572616c436f6e66696775726174696f6e00000000000000000060608201526001600160a01b0391909116602082015260800190565b600080821215610a085760405163029f024d60e31b815260040160405180910390fd5b5090565b600081610a21670de0b6b3a764000085612adf565b6101579190612b0c565b8054600090676765c793fa10079d601b1b906001600160801b03811690610a6690610a61908490600160801b9004600f0b612b20565b6109e5565b610a709190612adf565b6101079190612b0c565b6001600160801b038316610a8e8585611013565b50610a9d600386018285611089565b506000818152600486016020526040902054610aca908290610abf9085610fc6565b60018801919061111c565b505050505050565b60006001600160ff1b03821115610a085760405163677c430560e11b815260040160405180910390fd5b80600003610b08575050565b81546001600160801b03166000610b2a676765c793fa10079d601b1b84612b48565b90506000610b3783610ad2565b610b419083612b78565b9050610b4c816111cd565b85548690601090610b68908490600160801b9004600f0b612ba6565b92506101000a8154816001600160801b030219169083600f0b6001600160801b03160217905550676765c793fa10079d601b1b610ba490612a83565b8554600160801b9004600f0b1215610beb578454610bcb90600160801b9004600f0b612bd3565b60405163083762f960e41b8152600f9190910b6004820152602401610269565b5050505050565b6001600160801b0382166000908152600584016020526040812054610c16836111cd565b600f0b856005016000866001600160801b031681526020019081526020016000206000828254610c469190612b20565b90915550610c559050836111cd565b85548690601090610c71908490600160801b9004600f0b612ba6565b92506101000a8154816001600160801b030219169083600f0b6001600160801b031602179055508281610ca49190612b20565b95945050505050565b610cba6001830182611209565b610cc3816111cd565b82548390600090610cd8908490600f0b612ba6565b92506101000a8154816001600160801b030219169083600f0b6001600160801b031602179055505050565b6000610d0e836112c5565b6001600160a01b038216610d48610d286006860183611435565b6001600160a01b038516600090815260088701602052604090209061145c565b610d5461084e8461098e565b6001600160a01b03841660009081526008860160205260408120919350908190610d7e9085611478565b919350909150610d94905060068701848461111c565b50610d9e816111cd565b6004870154610db79190600160801b9004600f0b612ba6565b6004870180546001600160801b03928316600160801b029216919091179055610ddf866112c5565b50505092915050565b600080826040516020016107ee91906040808252600790820152661058d8dbdd5b9d60ca1b60608201526001600160801b0391909116602082015260800190565b815460ff16610e4557815460ff19166001908117835590910155565b80826001016000828254610e599190612bf9565b90915550505b5050565b6040805160208101829052601060608201526f4173736f63696174656453797374656d60801b6080820152908101829052600090819060a0016107ee565b6000610eb58264065726332360dc1b611556565b50546001600160a01b031690565b6001600160a01b03811660009081526008830160205260409020610ee69061159e565b610ef08282610d03565b505050565b805460009081526002820160205260408120610107906115b4565b600080610f1b6115da565b6040805160208101825291546001600160a01b03168083526004808701549251632a952b2d60e01b81529394506000939192632a952b2d92610f61920190815260200190565b608060405180830381865afa158015610f7e573d6000803e3d6000fd5b505050506040513d601f19601f82011682018060405250810190610fa29190612c0c565b51949350505050565b8054600090815260028201602052604081206101079061061b565b6000670de0b6b3a7640000610a218385612adf565b8154600090815260028301602052604081206101579083611013565b815460009081526002830160205260408120610157908361162c565b60006001600160801b0382168161102d6001860183611435565b905061103a858583610bf2565b9250611045816111cd565b8554869060009061105a908490600f0b612c80565b92506101000a8154816001600160801b030219169083600f0b6001600160801b03160217905550505092915050565b60006110958483611644565b600084815260018601602052604090205485549192506110d2916110c39084906001600160801b0316612bf9565b6110cd9190612cad565b611693565b84546001600160801b0319166001600160801b03919091161784556110f681611693565b6000938452600190940160205260409092206001600160801b0393909316909255919050565b600061112884846116bd565b6000848152600186016020526040812091925061114484611693565b825487549192506001600160801b039081169161116391849116612cc0565b61116d9190612ce0565b86546001600160801b03199081166001600160801b0392831617885583541690821617825583156111a9578554600160801b9004600f0b6111ac565b60005b82546001600160801b03918216600160801b02911617909155509392505050565b600060016001607f1b03198212806111eb575060016001607f1b0382135b15610a0857604051634022cc0360e01b815260040160405180910390fd5b80600003611215575050565b81546001600160801b0316600081900361124257604051633b182f5560e01b815260040160405180910390fd5b6000611259676765c793fa10079d601b1b84612b48565b9050600061126683610ad2565b6112709083612b78565b905061127b816111cd565b85548690601090611297908490600160801b9004600f0b612ba6565b92506101000a8154816001600160801b030219169083600f0b6001600160801b031602179055505050505050565b60048101546001600160801b031660008190036112e0575050565b600682015460048301546001600160801b0390911690600160801b9004600f0b6000805b600586015481101561142757600086600501828154811061132757611327612d00565b60009182526020822060029091020180549092506001600160801b03600160801b9091041690876113588389612adf565b6113629190612b0c565b9050600061136f89610ad2565b61137884610ad2565b88600f0b6113869190612b48565b6113909190612b78565b84549091506000906113aa906001600160801b0316611733565b80549091506000906113c8908d906001600160801b03168686611773565b6001870154909150600f0b8082126113e057806113e2565b815b87548e54919350611401916001600160801b0391821691168488611851565b61140b908a612b20565b985050505050505050808061141f90612d16565b915050611304565b50610beb6006860182611209565b600081815260018301602052604081205461015790849084906001600160801b031661111c565b815460009081526002830160205260409020610e5f9082610cad565b81546000908152600283016020526040812060038101548291829182906114b990610a6190676765c793fa10079d601b1b90600160801b9004600f0b612b20565b60018301549091506114f8908790676765c793fa10079d601b1b906114e89085906001600160801b0316612adf565b6114f29190612b0c565b90610fc6565b9450611503826115b4565b600188015490945061151f90600160801b9004600f0b85612a63565b925061152a846111cd565b600190970180546001600160801b03988916600160801b02981697909717909655509194909350909150565b60028201548181148015906115775750681d5b9b585b9859d95960ba1b8114155b15610ef05760405162d5319f60e31b81526004810183905260248101829052604401610269565b80548160006115ac83612d16565b919050555050565b80546000906115d190600160801b8104600f90810b91900b612ba6565b600f0b92915050565b60008060405160200161160e906020808252600d908201526c27b930b1b632a6b0b730b3b2b960991b604082015260600190565b60408051601f19818403018152919052805160209091012092915050565b6000610157600384016001600160801b0384166118bb565b81546000906116759061166d90676765c793fa10079d601b1b90600160801b9004600f0b612ba6565b600f0b611909565b6001600160801b0316610a21676765c793fa10079d601b1b84612adf565b60006001600160801b03821115610a0857604051637d5864af60e11b815260040160405180910390fd5b600081815260018301602052604081208054845483916116f091600160801b91829004600f90810b92909104900b612c80565b8254600f9190910b915060009061170f906001600160801b031661192f565b61171c90600f0b83612b48565b9050610101676765c793fa10079d601b1b82612b78565b600080826040516020016107ee919060408082526006908201526513585c9ad95d60d21b60608201526001600160801b0391909116602082015260800190565b60008061177f85611733565b9050600061178b611962565b5460068801549091506001600160801b031660006117ab600a850161199a565b9050826000036117d2576117c7670de0b6b3a764000082612b20565b9450505050506108f3565b816000036117e55793506108f392505050565b60006117fb836117f58a87610a0c565b90610a0c565b905061181061180984610ad2565b88906119b4565b61181982610ad2565b61182587600a0161199a565b61182f9190612b20565b6118399190612a63565b955050505050506108f3565b50505050949350505050565b60008061185d86611733565b60018101549091506001600160a01b03166118965760405163784060f560e11b81526001600160801b0387166004820152602401610269565b6118a5816402540be3ff6119d3565b6118b181868587611a7b565b9695505050505050565b81546000906001600160801b03168082036118da576000915050610107565b806118e485610a2b565b60008581526001870160205260409020546118ff9190612adf565b6108f39190612b0c565b60008082600f0b1215610a085760405163144ec41160e21b815260040160405180910390fd5b600060016001607f1b036001600160801b0383161115610a0857604051634593782f60e11b815260040160405180910390fd5b60008060405160200161160e906020808252601190820152702837b7b621b7b73334b3bab930ba34b7b760791b604082015260600190565b805460009061010790600160801b9004600f0b6009611cb4565b6000816119c9670de0b6b3a764000085612b48565b6101579190612b78565b60006119de83611ccb565b60038401549091506000906119f690600f0b83612a63565b90506000611a05858386611d06565b91505080158015611a225750600a8501546001600160801b031615155b15610beb576003850154611a4790611a3d90600f0b85612a63565b600a870190611209565b611a50836111cd565b6003860180546001600160801b03929092166001600160801b03199092169190911790555050505050565b600080611a88868661204a565b90506000611a99600488018761206e565b60200151611aa690612bd3565b600f0b9050611ab485611693565b6001600160801b038781166000908152600c8a016020526040812080546001600160801b03191693909216929092179055611af9611af4600a8a0161199a565b6111cd565b905080600f0b851215611b365760009550611b1760048901886120a8565b50611b3087611b25876111cd565b60078b0191906120e2565b50611b67565b611b5787611b43876111cd565b611b4c90612bd3565b60048b0191906120e2565b50611b6560078901886120a8565b505b6000611b80600a8a016001600160801b038a168961111c565b6001600160801b03808a166000908152600c8c0160205260409020549192508291611bb391600160801b9091041661192f565b600f0b611bc09190612b20565b6001600160801b03808a166000908152600c8c0160205260409020805490911690559450600f82900b861315611c4757611bfe6110cd8a89896121a6565b60028a018054601090611c22908490600160801b90046001600160801b0316612cc0565b92506101000a8154816001600160801b0302191690836001600160801b031602179055505b81600f0b83131561184557611c606110cd8a86866121a6565b60028a018054601090611c84908490600160801b90046001600160801b0316612ce0565b92506101000a8154816001600160801b0302191690836001600160801b0316021790555050505050949350505050565b6000611cc182600a612e13565b6101579084612b78565b6000611cde611cd9836121ce565b610ad2565b6002830154600f0b611cf2611cd985612286565b611cfc9190612b20565b6101079190612a63565b600080831580611d215750600a8501546001600160801b0316155b15611d3157506000905080612042565b600080600080871315611d51575060019150506004860160078701611d61565b5060001991505060078601600487015b60005b86811015611ff157611d7583612301565b15611ff1576000611d8584612324565b9050611d9a8a611d95898c612a63565b612343565b85600f0b611da89190612b48565b8160200151611db690612bd3565b600f0b12611dc45750611ff1565b611dce8484612381565b6000611e24611ddf8c600a0161199a565b6020840151611ded89612bd3565b611df79190612e1f565b600f0b611e049190612a63565b600a8d0154611e1b906001600160801b031661192f565b600f0b906123b2565b9050611e33600a8c0182611209565b611e3d8189612b20565b975060008a1315611f405781516001600160801b039081166000908152600b8d01602052604090205416611eb35760405162461bcd60e51b815260206004820152601e60248201527f6e6f20736861726573206265666f7265206163746f722072656d6f76616c00006044820152606401610269565b8151600090611ed490610a6190600a8f01906001600160801b03168461111c565b9050611edf81611693565b83516001600160801b039081166000908152600c8f016020526040902080549091601091611f16918591600160801b900416612cc0565b92506101000a8154816001600160801b0302191690836001600160801b0316021790555050611fdc565b81516001600160801b039081166000908152600b8d0160205260409020541615611fac5760405162461bcd60e51b815260206004820152601b60248201527f6163746f722068617320736861726573206265666f72652061646400000000006044820152606401610269565b81516001600160801b039081166000818152600c8e016020526040902054611fda92600a8f0192911661111c565b505b50508080611fe990612d16565b915050611d64565b611ffa866111cd565b60038a018054600090612011908490600f0b612ba6565b92506101000a8154816001600160801b030219169083600f0b6001600160801b031602179055508681149450505050505b935093915050565b6001600160801b038181166000908152600b84016020526040812054909116610157565b60408051808201909152600080825260208201526001600160801b03821660009081526002840160205260409020546101579084906123c7565b60408051808201909152600080825260208201526001600160801b0382166000908152600284016020526040902054610157908490612450565b6040805180820190915260008082526020820152600184015460000361210b5761210b846125e9565b604080518082019091526000808252602082015261212985856120a8565b5084546001600160801b031685600061214183612e3f565b82546101009290920a6001600160801b03818102199093169183160217909155600187810180548201808255600091909152604080518082019091529288168352600f87900b60208401529193506108f39250879184916121a191612cad565b612639565b6000806121c26121b886600a0161199a565b610a619085612a63565b9050610ca48185610fc6565b600080805b600d84015481101561227f57600084600d0182815481106121f6576121f6612d00565b600091825260208083206040805180820190915260029093020180546001600160a01b0316808452600190910154918301919091529092506122379061098e565b9050600061224482610f10565b905061225d836020015182610fc690919063ffffffff16565b6122679086612bf9565b9450505050808061227790612d16565b9150506121d3565b5092915050565b6001810154815460405163bcec0d0f60e01b81526001600160801b0390911660048201526000916001600160a01b03169063bcec0d0f90602401602060405180830381865afa1580156122dd573d6000803e3d6000fd5b505050506040513d601f19601f820116820180604052508101906101079190612e65565b6001810154600090612314576000610107565b6001828101546101079190612cad565b60408051808201909152600080825260208201526101078260016123c7565b600a82015460009061236b90612361906001600160801b031661192f565b8390600f0b6119b4565b61237784600a0161199a565b6101579190612b20565b600061238c83612704565b90506123ac816000015182602001516123a490612bd3565b8491906120e2565b50505050565b6000670de0b6b3a76400006119c98385612b48565b6040805180820190915260008082526020820152600183015482106123ff576040805180820190915260008082526020820152610157565b82600101828154811061241457612414612d00565b6000918252602091829020604080518082019091529101546001600160801b0381168252600160801b9004600f0b918101919091529392505050565b6040805180820190915260008082526020820152600183015482101580612475575081155b1561249457506040805180820190915260008082526020820152610107565b60008360010183815481106124ab576124ab612d00565b6000918252602080832060408051808201825293909101546001600160801b038116808552600160801b909104600f0b84840152845260028801909152822082905560018087018054929450916125029190612cad565b8154811061251257612512612d00565b6000918252602091829020604080518082019091529101546001600160801b0381168252600160801b9004600f0b91810191909152600186018054919250908061255e5761255e612e7e565b60008281526020812082016000199081019190915501905560018501548410156125e15761258d858286612639565b6125e1858660010186815481106125a6576125a6612d00565b6000918252602091829020604080518082019091529101546001600160801b0381168252600160801b9004600f0b9181019190915286612723565b509392505050565b600181015460000361098b57604080518082019091526000808252602080830182815260019485018054958601815583529120915190516001600160801b03908116600160801b02911617910155565b6001811480612686575060018301612652600283612b0c565b8154811061266257612662612d00565b6000918252602091829020015490830151600160801b909104600f90810b91900b13155b1561269657610ef0838383612889565b6126f483600181016126a9600285612b0c565b815481106126b9576126b9612d00565b6000918252602091829020604080518082019091529101546001600160801b0381168252600160801b9004600f0b9181019190915283612889565b610ef083836121a1600285612b0c565b6040805180820190915260008082526020820152610107826001612450565b60018301546000612735836002612adf565b905080821161274e57612749858585612889565b610beb565b600085600101828154811061276557612765612d00565b6000918252602091829020604080518082019091529101546001600160801b0381168252600160801b9004600f0b9181019190915290506127a7826001612bf9565b831180156127f157508060200151600f0b866001018360016127c99190612bf9565b815481106127d9576127d9612d00565b600091825260209091200154600160801b9004600f0b135b1561284e576001860161280383612d16565b9250828154811061281657612816612d00565b6000918252602091829020604080518082019091529101546001600160801b0381168252600160801b9004600f0b9181019190915290505b8460200151600f0b8160200151600f0b136128735761286e868686612889565b610aca565b61287e868286612889565b610aca868684612723565b8183600101828154811061289f5761289f612d00565b600091825260208083208451948201516001600160801b03908116600160801b0295811695909517920191909155935190911681526002909301909152604090912055565b80356001600160801b03811681146128fb57600080fd5b919050565b80356001600160a01b03811681146128fb57600080fd5b6000806040838503121561292a57600080fd5b612933836128e4565b915061294160208401612900565b90509250929050565b60008060006060848603121561295f57600080fd5b612968846128e4565b9250612976602085016128e4565b915061298460408501612900565b90509250925092565b600080600080608085870312156129a357600080fd5b6129ac856128e4565b93506129ba602086016128e4565b92506129c860408601612900565b91506129d6606086016128e4565b905092959194509250565b81518152602080830151908201526040808301519082015260608101610107565b60008060008060808587031215612a1857600080fd5b612a21856128e4565b9350612a2f60208601612900565b9250612a3d604086016128e4565b9396929550929360600135925050565b634e487b7160e01b600052601160045260246000fd5b818103600083128015838313168383128216171561227f5761227f612a4d565b6000600160ff1b8201612a9857612a98612a4d565b5060000390565b8351815260208085015190820152604093840151938101939093526001600160801b039190911660608301526001600160a01b0316608082015260a00190565b808202811582820484141761010757610107612a4d565b634e487b7160e01b600052601260045260246000fd5b600082612b1b57612b1b612af6565b500490565b8082018281126000831280158216821582161715612b4057612b40612a4d565b505092915050565b80820260008212600160ff1b84141615612b6457612b64612a4d565b818105831482151761010757610107612a4d565b600082612b8757612b87612af6565b600160ff1b821460001984141615612ba157612ba1612a4d565b500590565b600f81810b9083900b0160016001607f1b03811360016001607f1b03198212171561010757610107612a4d565b600081600f0b60016001607f1b03198103612bf057612bf0612a4d565b60000392915050565b8082018082111561010757610107612a4d565b600060808284031215612c1e57600080fd5b6040516080810181811067ffffffffffffffff82111715612c4f57634e487b7160e01b600052604160045260246000fd5b8060405250825181526020830151602082015260408301516040820152606083015160608201528091505092915050565b600f82810b9082900b0360016001607f1b0319811260016001607f1b038213171561010757610107612a4d565b8181038181111561010757610107612a4d565b6001600160801b0381811683821601908082111561227f5761227f612a4d565b6001600160801b0382811682821603908082111561227f5761227f612a4d565b634e487b7160e01b600052603260045260246000fd5b600060018201612d2857612d28612a4d565b5060010190565b600181815b80851115612d6a578160001904821115612d5057612d50612a4d565b80851615612d5d57918102915b93841c9390800290612d34565b509250929050565b600082612d8157506001610107565b81612d8e57506000610107565b8160018114612da45760028114612dae57612dca565b6001915050610107565b60ff841115612dbf57612dbf612a4d565b50506001821b610107565b5060208310610133831016604e8410600b8410161715612ded575081810a610107565b612df78383612d2f565b8060001904821115612e0b57612e0b612a4d565b029392505050565b60006101578383612d72565b600082600f0b82600f0b0280600f0b915080821461227f5761227f612a4d565b60006001600160801b03808316818103612e5b57612e5b612a4d565b6001019392505050565b600060208284031215612e7757600080fd5b5051919050565b634e487b7160e01b600052603160045260246000fdfea264697066735822122056dae3a35ee2b680766721c7b40b1dfc865238632cfd265d34e82eacc50a798264736f6c63430008110033",
  "linkReferences": {},
  "deployedLinkReferences": {}
}