{
  "_format": "hh-sol-artifact-1",
  "contractName": "MarketManagerModule",
  "sourceName": "contracts/modules/core/MarketManagerModule.sol",
  "abi": [
    {
      "inputs": [],
      "name": "EmptyDistribution",
      "type": "error"
    },
    {
      "inputs": [],
      "name": "FeatureUnavailable",
      "type": "error"
    },
    {
      "inputs": [
        {
          "internalType": "address",
          "name": "market",
          "type": "address"
        },
        {
          "internalType": "address",
          "name": "from",
          "type": "address"
        },
        {
          "internalType": "uint256",
          "name": "requestedAmount",
          "type": "uint256"
        },
        {
          "internalType": "uint256",
          "name": "approvedAmount",
          "type": "uint256"
        }
      ],
      "name": "MarketDepositNotApproved",
      "type": "error"
    },
    {
      "inputs": [
        {
          "internalType": "bytes32",
          "name": "expected",
          "type": "bytes32"
        },
        {
          "internalType": "bytes32",
          "name": "actual",
          "type": "bytes32"
        }
      ],
      "name": "MismatchAssociatedSystemKind",
      "type": "error"
    },
    {
      "inputs": [
        {
          "internalType": "uint128",
          "name": "marketId",
          "type": "uint128"
        },
        {
          "internalType": "uint256",
          "name": "amount",
          "type": "uint256"
        }
      ],
      "name": "NotEnoughLiquidity",
      "type": "error"
    },
    {
      "inputs": [],
      "name": "OverflowInt256ToInt128",
      "type": "error"
    },
    {
      "inputs": [],
      "name": "OverflowUint128ToInt128",
      "type": "error"
    },
    {
      "inputs": [],
      "name": "OverflowUint256ToUint128",
      "type": "error"
    },
    {
      "inputs": [
        {
          "internalType": "address",
          "name": "addr",
          "type": "address"
        }
      ],
      "name": "Unauthorized",
      "type": "error"
    },
    {
      "anonymous": false,
      "inputs": [
        {
          "indexed": true,
          "internalType": "address",
          "name": "market",
          "type": "address"
        },
        {
          "indexed": true,
          "internalType": "uint128",
          "name": "marketId",
          "type": "uint128"
        }
      ],
      "name": "MarketRegistered",
      "type": "event"
    },
    {
      "anonymous": false,
      "inputs": [
        {
          "indexed": true,
          "internalType": "uint128",
          "name": "marketId",
          "type": "uint128"
        },
        {
          "indexed": true,
          "internalType": "address",
          "name": "target",
          "type": "address"
        },
        {
          "indexed": false,
          "internalType": "uint256",
          "name": "amount",
          "type": "uint256"
        },
        {
          "indexed": true,
          "internalType": "address",
          "name": "sender",
          "type": "address"
        }
      ],
      "name": "MarketUsdDeposited",
      "type": "event"
    },
    {
      "anonymous": false,
      "inputs": [
        {
          "indexed": true,
          "internalType": "uint128",
          "name": "marketId",
          "type": "uint128"
        },
        {
          "indexed": true,
          "internalType": "address",
          "name": "target",
          "type": "address"
        },
        {
          "indexed": false,
          "internalType": "uint256",
          "name": "amount",
          "type": "uint256"
        },
        {
          "indexed": true,
          "internalType": "address",
          "name": "sender",
          "type": "address"
        }
      ],
      "name": "MarketUsdWithdrawn",
      "type": "event"
    },
    {
      "inputs": [
        {
          "internalType": "uint128",
          "name": "marketId",
          "type": "uint128"
        },
        {
          "internalType": "address",
          "name": "target",
          "type": "address"
        },
        {
          "internalType": "uint256",
          "name": "amount",
          "type": "uint256"
        }
      ],
      "name": "depositMarketUsd",
      "outputs": [],
      "stateMutability": "nonpayable",
      "type": "function"
    },
    {
      "inputs": [
        {
          "internalType": "uint128",
          "name": "marketId",
          "type": "uint128"
        }
      ],
      "name": "getMarketCollateral",
      "outputs": [
        {
          "internalType": "uint256",
          "name": "",
          "type": "uint256"
        }
      ],
      "stateMutability": "view",
      "type": "function"
    },
    {
      "inputs": [
        {
          "internalType": "uint128",
          "name": "marketId",
          "type": "uint128"
        }
      ],
      "name": "getMarketDebtPerShare",
      "outputs": [
        {
          "internalType": "int256",
          "name": "",
          "type": "int256"
        }
      ],
      "stateMutability": "nonpayable",
      "type": "function"
    },
    {
      "inputs": [
        {
          "internalType": "uint128",
          "name": "marketId",
          "type": "uint128"
        }
      ],
      "name": "getMarketIssuance",
      "outputs": [
        {
          "internalType": "int128",
          "name": "",
          "type": "int128"
        }
      ],
      "stateMutability": "view",
      "type": "function"
    },
    {
      "inputs": [
        {
          "internalType": "uint128",
          "name": "marketId",
          "type": "uint128"
        }
      ],
      "name": "getMarketReportedDebt",
      "outputs": [
        {
          "internalType": "uint256",
          "name": "",
          "type": "uint256"
        }
      ],
      "stateMutability": "view",
      "type": "function"
    },
    {
      "inputs": [
        {
          "internalType": "uint128",
          "name": "marketId",
          "type": "uint128"
        }
      ],
      "name": "getMarketTotalBalance",
      "outputs": [
        {
          "internalType": "int256",
          "name": "",
          "type": "int256"
        }
      ],
      "stateMutability": "view",
      "type": "function"
    },
    {
      "inputs": [
        {
          "internalType": "uint128",
          "name": "marketId",
          "type": "uint128"
        }
      ],
      "name": "getWithdrawableUsd",
      "outputs": [
        {
          "internalType": "uint256",
          "name": "",
          "type": "uint256"
        }
      ],
      "stateMutability": "view",
      "type": "function"
    },
    {
      "inputs": [
        {
          "internalType": "uint128",
          "name": "marketId",
          "type": "uint128"
        }
      ],
      "name": "isMarketCapacityLocked",
      "outputs": [
        {
          "internalType": "bool",
          "name": "",
          "type": "bool"
        }
      ],
      "stateMutability": "view",
      "type": "function"
    },
    {
      "inputs": [
        {
          "internalType": "address",
          "name": "market",
          "type": "address"
        }
      ],
      "name": "registerMarket",
      "outputs": [
        {
          "internalType": "uint128",
          "name": "marketId",
          "type": "uint128"
        }
      ],
      "stateMutability": "nonpayable",
      "type": "function"
    },
    {
      "inputs": [
        {
          "internalType": "uint128",
          "name": "marketId",
          "type": "uint128"
        },
        {
          "internalType": "address",
          "name": "target",
          "type": "address"
        },
        {
          "internalType": "uint256",
          "name": "amount",
          "type": "uint256"
        }
      ],
      "name": "withdrawMarketUsd",
      "outputs": [],
      "stateMutability": "nonpayable",
      "type": "function"
    }
  ],
  "bytecode": "0x608060405234801561001057600080fd5b50613a9a806100206000396000f3fe608060405234801561001057600080fd5b506004361061009e5760003560e01c8063691e84bd11610066578063691e84bd1461016b57806386e3b1cf1461019b57806395909ba3146101cb578063a0b95fe2146101fb578063a79b9ec91461022b5761009e565b806307003f0a146100a357806310b0cf76146100d3578063140a7cfe146100ef578063150834a31461010b578063438d61ea1461013b575b600080fd5b6100bd60048036038101906100b89190612b24565b61025b565b6040516100ca9190612b6c565b60405180910390f35b6100ed60048036038101906100e89190612c1b565b610275565b005b61010960048036038101906101049190612c1b565b6104f7565b005b61012560048036038101906101209190612b24565b6107c0565b6040516101329190612c7d565b60405180910390f35b61015560048036038101906101509190612b24565b610807565b6040516101629190612cb4565b60405180910390f35b61018560048036038101906101809190612b24565b61082a565b6040516101929190612c7d565b60405180910390f35b6101b560048036038101906101b09190612b24565b610889565b6040516101c29190612c7d565b60405180910390f35b6101e560048036038101906101e09190612b24565b6108a3565b6040516101f29190612ce8565b60405180910390f35b61021560048036038101906102109190612b24565b6108d9565b6040516102229190612ce8565b60405180910390f35b61024560048036038101906102409190612d03565b6108f3565b6040516102529190612d3f565b60405180910390f35b600061026e610269836109a4565b6109d9565b9050919050565b6000610280846109a4565b90508060010160009054906101000a900473ffffffffffffffffffffffffffffffffffffffff1673ffffffffffffffffffffffffffffffffffffffff163373ffffffffffffffffffffffffffffffffffffffff161461031657336040517f8e4a23d600000000000000000000000000000000000000000000000000000000815260040161030d9190612d69565b60405180910390fd5b60006103496103447f555344546f6b656e000000000000000000000000000000000000000000000000610a1f565b610a54565b9050828260020160108282829054906101000a90046fffffffffffffffffffffffffffffffff1661037a9190612db3565b92506101000a8154816fffffffffffffffffffffffffffffffff02191690836fffffffffffffffffffffffffffffffff160217905550828260020160008282829054906101000a9004600f0b6103d09190612df9565b92506101000a8154816fffffffffffffffffffffffffffffffff0219169083600f0b6fffffffffffffffffffffffffffffffff1602179055508073ffffffffffffffffffffffffffffffffffffffff1663aaa15fd18533866040518463ffffffff1660e01b815260040161044693929190612e7d565b600060405180830381600087803b15801561046057600080fd5b505af1158015610474573d6000803e3d6000fd5b505050503373ffffffffffffffffffffffffffffffffffffffff168473ffffffffffffffffffffffffffffffffffffffff16866fffffffffffffffffffffffffffffffff167fcbdbec7c74466ca0e764de5f6bca5bef859e31a7d6284be22ac6b4beabddf835866040516104e89190612c7d565b60405180910390a45050505050565b6000610502846109a4565b90508060010160009054906101000a900473ffffffffffffffffffffffffffffffffffffffff1673ffffffffffffffffffffffffffffffffffffffff163373ffffffffffffffffffffffffffffffffffffffff161461059857336040517f8e4a23d600000000000000000000000000000000000000000000000000000000815260040161058f9190612d69565b60405180910390fd5b6105a18461082a565b8211156105e75783826040517f22783fa20000000000000000000000000000000000000000000000000000000081526004016105de929190612eb4565b60405180910390fd5b818160020160108282829054906101000a90046fffffffffffffffffffffffffffffffff166106169190612edd565b92506101000a8154816fffffffffffffffffffffffffffffffff02191690836fffffffffffffffffffffffffffffffff160217905550818160020160008282829054906101000a9004600f0b61066c9190612f11565b92506101000a8154816fffffffffffffffffffffffffffffffff0219169083600f0b6fffffffffffffffffffffffffffffffff1602179055506106d66106d17f555344546f6b656e000000000000000000000000000000000000000000000000610a1f565b610a54565b73ffffffffffffffffffffffffffffffffffffffff166340c10f1984846040518363ffffffff1660e01b8152600401610710929190612f95565b600060405180830381600087803b15801561072a57600080fd5b505af115801561073e573d6000803e3d6000fd5b505050503373ffffffffffffffffffffffffffffffffffffffff168373ffffffffffffffffffffffffffffffffffffffff16856fffffffffffffffffffffffffffffffff167f8669e4526579b1f1da479be2f96d1c7953fff439a4f98362a1c9ca07fe42ba41856040516107b29190612c7d565b60405180910390a450505050565b60006107cb826109a4565b600a0160000160009054906101000a90046fffffffffffffffffffffffffffffffff166fffffffffffffffffffffffffffffffff169050919050565b6000610812826109a4565b60020160009054906101000a9004600f0b9050919050565b600061083d610838836109a4565b610aac565b610846836109a4565b60020160109054906101000a90046fffffffffffffffffffffffffffffffff166fffffffffffffffffffffffffffffffff166108829190612fbe565b9050919050565b600061089c610897836109a4565b610bba565b9050919050565b6000806108af836109a4565b90506108c8633b9ac9ff82610c8190919063ffffffff16565b6108d181610da8565b915050919050565b60006108ec6108e7836109a4565b610dd1565b9050919050565b600061091e7f72656769737465724d61726b6574000000000000000000000000000000000000610e15565b61092782610e58565b60000160009054906101000a90046fffffffffffffffffffffffffffffffff169050806fffffffffffffffffffffffffffffffff168273ffffffffffffffffffffffffffffffffffffffff167fdd302022fd6feea78c84d8b3f82c6f2fce75527c40899e0a6672ff40bf4d813460405160405180910390a3919050565b600080826040516020016109b89190613071565b60405160208183030381529060405280519060200120905080915050919050565b60006109e482610f4d565b8260020160109054906101000a90046fffffffffffffffffffffffffffffffff166fffffffffffffffffffffffffffffffff16109050919050565b60008082604051602001610a339190613104565b60405160208183030381529060405280519060200120905080915050919050565b6000610a80827f6572633230000000000000000000000000000000000000000000000000000000611014565b8160000160009054906101000a900473ffffffffffffffffffffffffffffffffffffffff169050919050565b6000806000905060005b83600d0180549050811015610bb057600084600d018281548110610add57610adc613132565b5b90600052602060002090600202016040518060400160405290816000820160009054906101000a900473ffffffffffffffffffffffffffffffffffffffff1673ffffffffffffffffffffffffffffffffffffffff1673ffffffffffffffffffffffffffffffffffffffff16815260200160018201548152505090506000610b678260000151611096565b90506000610b74826110cb565b9050610b8d8360200151826111b390919063ffffffff16565b85610b989190612fbe565b94505050508080610ba890613161565b915050610ab6565b5080915050919050565b60008160010160009054906101000a900473ffffffffffffffffffffffffffffffffffffffff1673ffffffffffffffffffffffffffffffffffffffff1663bcec0d0f8360000160009054906101000a90046fffffffffffffffffffffffffffffffff166040518263ffffffff1660e01b8152600401610c399190612d3f565b602060405180830381865afa158015610c56573d6000803e3d6000fd5b505050506040513d601f19601f82011682018060405250810190610c7a91906131bf565b9050919050565b6000610c8c83610dd1565b905060008360030160009054906101000a9004600f0b600f0b82610cb091906131ec565b90506000610cbf8583866111dc565b9150506000610ccf86848761156e565b91505080158015610cde575081155b8015610d1f5750600086600a0160000160009054906101000a90046fffffffffffffffffffffffffffffffff166fffffffffffffffffffffffffffffffff16115b15610da057610d598660030160009054906101000a9004600f0b600f0b85610d4791906131ec565b87600a016118ef90919063ffffffff16565b610d62846119ed565b8660030160006101000a8154816fffffffffffffffffffffffffffffffff0219169083600f0b6fffffffffffffffffffffffffffffffff1602179055505b505050505050565b6000610dca82600a0160000160109054906101000a9004600f0b600f0b611a71565b9050919050565b6000610ddc82610aac565b8260020160009054906101000a9004600f0b600f0b610dfa84610bba565b610e049190613280565b610e0e91906131ec565b9050919050565b610e1f8133611a8a565b610e55576040517fe8298be500000000000000000000000000000000000000000000000000000000815260040160405180910390fd5b50565b600080610e63611ad0565b90508080610e7090613314565b915050610e7c816109a4565b9150808260000160006101000a8154816fffffffffffffffffffffffffffffffff02191690836fffffffffffffffffffffffffffffffff160217905550828260010160006101000a81548173ffffffffffffffffffffffffffffffffffffffff021916908373ffffffffffffffffffffffffffffffffffffffff160217905550610f0581611b02565b610f0e83611b32565b8190806001815401808255809150506001900390600052602060002001600090916fffffffffffffffffffffffffffffffff1690919091505550919050565b60008160010160009054906101000a900473ffffffffffffffffffffffffffffffffffffffff1673ffffffffffffffffffffffffffffffffffffffff1663c9c04a7f8360000160009054906101000a90046fffffffffffffffffffffffffffffffff166040518263ffffffff1660e01b8152600401610fcc9190612d3f565b602060405180830381865afa158015610fe9573d6000803e3d6000fd5b505050506040513d601f19601f8201168201806040525081019061100d91906131bf565b9050919050565b60008260020154905081811415801561104d57507f756e6d616e6167656400000000000000000000000000000000000000000000008114155b156110915781816040517f06a98cf800000000000000000000000000000000000000000000000000000000815260040161108892919061334d565b60405180910390fd5b505050565b600080826040516020016110aa91906133c2565b60405160208183030381529060405280519060200120905080915050919050565b6000808260040160009054906101000a900473ffffffffffffffffffffffffffffffffffffffff1673ffffffffffffffffffffffffffffffffffffffff1663feaf968c6040518163ffffffff1660e01b815260040160a060405180830381865afa15801561113d573d6000803e3d6000fd5b505050506040513d601f19601f82011682018060405250810190611161919061345e565b505050915050600081136111aa576040517f08c379a00000000000000000000000000000000000000000000000000000000081526004016111a190613525565b60405180910390fd5b80915050919050565b6000670de0b6b3a764000082846111ca9190613545565b6111d491906135ce565b905092915050565b600080600084136111f35760008091509150611566565b60005b838110156114fe57600061120c87600401611b67565b1415611217576114fe565b600061127761125a88600a0160000160009054906101000a90046fffffffffffffffffffffffffffffffff166fffffffffffffffffffffffffffffffff16611b9a565b600f0b858861126991906131ec565b611c1290919063ffffffff16565b61129788600a0160000160109054906101000a9004600f0b600f0b611a71565b6112a19190613280565b905060006112b188600401611c3b565b90508181602001516112c2906135ff565b600f0b126112d15750506114fe565b6112e18860040189600701611c55565b600081602001516112f1906135ff565b905060006113726113188b600a0160000160109054906101000a9004600f0b600f0b611a71565b83600f0b61132691906131ec565b6113648c600a0160000160009054906101000a90046fffffffffffffffffffffffffffffffff166fffffffffffffffffffffffffffffffff16611c8e565b611ca390919063ffffffff16565b905061138a818b600a016118ef90919063ffffffff16565b80876113969190613280565b965060008360000151905060006113ce826fffffffffffffffffffffffffffffffff1660001b8d600a01611ccc90919063ffffffff16565b1161140e576040517f08c379a000000000000000000000000000000000000000000000000000000000815260040161140590613694565b60405180910390fd5b600061143e826fffffffffffffffffffffffffffffffff1660001b60008e600a01611d1d9092919063ffffffff16565b905061144981611f04565b8c600c016000846fffffffffffffffffffffffffffffffff166fffffffffffffffffffffffffffffffff16815260200190815260200160002060010160008282829054906101000a90046fffffffffffffffffffffffffffffffff166114af9190612db3565b92506101000a8154816fffffffffffffffffffffffffffffffff02191690836fffffffffffffffffffffffffffffffff16021790555050505050505080806114f690613161565b9150506111f6565b611507836119ed565b8660030160008282829054906101000a9004600f0b6115269190612f11565b92506101000a8154816fffffffffffffffffffffffffffffffff0219169083600f0b6fffffffffffffffffffffffffffffffff1602179055508381149150505b935093915050565b6000806000841215806115b65750600085600a0160000160009054906101000a90046fffffffffffffffffffffffffffffffff166fffffffffffffffffffffffffffffffff16145b156115c757600080915091506118e7565b60005b8381101561187f57600061162f61161588600a0160000160009054906101000a90046fffffffffffffffffffffffffffffffff166fffffffffffffffffffffffffffffffff16611c8e565b858861162191906131ec565b611c1290919063ffffffff16565b61164f88600a0160000160109054906101000a9004600f0b600f0b611a71565b6116599190613280565b9050600061166988600701611b67565b1415611675575061187f565b600061168388600701611c3b565b9050818160200151600f0b121561169b57505061187f565b6116ab8860070189600401611c55565b60008160200151905060006117336116d98b600a0160000160109054906101000a9004600f0b600f0b611a71565b83600f0b6116e791906131ec565b6117258c600a0160000160009054906101000a90046fffffffffffffffffffffffffffffffff166fffffffffffffffffffffffffffffffff16611c8e565b611ca390919063ffffffff16565b905061174b818b600a016118ef90919063ffffffff16565b80876117579190613280565b9650600083600001519050600061178f826fffffffffffffffffffffffffffffffff1660001b8d600a01611ccc90919063ffffffff16565b146117cf576040517f08c379a00000000000000000000000000000000000000000000000000000000081526004016117c690613700565b60405180910390fd5b611866816fffffffffffffffffffffffffffffffff1660001b8c600c016000846fffffffffffffffffffffffffffffffff166fffffffffffffffffffffffffffffffff16815260200190815260200160002060000160009054906101000a90046fffffffffffffffffffffffffffffffff166fffffffffffffffffffffffffffffffff168d600a01611d1d9092919063ffffffff16565b505050505050808061187790613161565b9150506115ca565b611888836119ed565b8660030160008282829054906101000a9004600f0b6118a79190612f11565b92506101000a8154816fffffffffffffffffffffffffffffffff0219169083600f0b6fffffffffffffffffffffffffffffffff1602179055508381149150505b935093915050565b60008114156118fd576119e9565b60008260000160009054906101000a90046fffffffffffffffffffffffffffffffff166fffffffffffffffffffffffffffffffff169050600081141561196f576040517f3b182f5500000000000000000000000000000000000000000000000000000000815260040160405180910390fd5b600061197a83611f5a565b90506000828261198a9190613720565b9050808560000160108282829054906101000a9004600f0b6119ac9190612f11565b92506101000a8154816fffffffffffffffffffffffffffffffff0219169083600f0b6fffffffffffffffffffffffffffffffff1602179055505050505b5050565b60007fffffffffffffffffffffffffffffffff80000000000000000000000000000000600f0b821280611a3257506f7fffffffffffffffffffffffffffffff600f0b82135b15611a69576040517f4022cc0300000000000000000000000000000000000000000000000000000000815260040160405180910390fd5b819050919050565b6000633b9aca0082611a839190613720565b9050919050565b600080611a9684611f7b565b90508060010160009054906101000a900460ff1680611ac75750611ac68382600201611fb090919063ffffffff16565b5b91505092915050565b600080604051602001611ae2906137d6565b604051602081830303815290604052805190602001209050805491505090565b6000604051602001611b13906137d6565b6040516020818303038152906040528051906020012090508181555050565b60008082604051602001611b469190613842565b60405160208183030381529060405280519060200120905080915050919050565b600080826001018054905011611b7e576000611b93565b60018260010180549050611b929190613870565b5b9050919050565b60006f7fffffffffffffffffffffffffffffff6fffffffffffffffffffffffffffffffff16826fffffffffffffffffffffffffffffffff161115611c0a576040517f8b26f05e00000000000000000000000000000000000000000000000000000000815260040160405180910390fd5b819050919050565b600081670de0b6b3a764000084611c2991906138a4565b611c339190613720565b905092915050565b611c43612aa8565b611c4e826001611fe0565b9050919050565b6000611c60836120c2565b9050611c8881600001518260200151611c78906135ff565b846120dc9092919063ffffffff16565b50505050565b6000611c9982611b9a565b600f0b9050919050565b6000670de0b6b3a76400008284611cba91906138a4565b611cc49190613720565b905092915050565b600082600101600083815260200190815260200160002060000160009054906101000a90046fffffffffffffffffffffffffffffffff166fffffffffffffffffffffffffffffffff16905092915050565b600080846001016000858152602001908152602001600020905060008160000160109054906101000a9004600f0b8660000160109054906101000a9004600f0b611d679190612df9565b90506000611da68360000160009054906101000a90046fffffffffffffffffffffffffffffffff166fffffffffffffffffffffffffffffffff16611c8e565b82600f0b611db491906138a4565b9050611dbf816121ec565b93506000611dcc86611f04565b90508360000160009054906101000a90046fffffffffffffffffffffffffffffffff16818960000160009054906101000a90046fffffffffffffffffffffffffffffffff16611e1b9190612db3565b611e259190612edd565b8860000160006101000a8154816fffffffffffffffffffffffffffffffff02191690836fffffffffffffffffffffffffffffffff160217905550808460000160006101000a8154816fffffffffffffffffffffffffffffffff02191690836fffffffffffffffffffffffffffffffff16021790555060008614611eb9578760000160109054906101000a9004600f0b611ebc565b60005b8460000160106101000a8154816fffffffffffffffffffffffffffffffff0219169083600f0b6fffffffffffffffffffffffffffffffff160217905550505050509392505050565b60006fffffffffffffffffffffffffffffffff8016821115611f52576040517ffab0c95e00000000000000000000000000000000000000000000000000000000815260040160405180910390fd5b819050919050565b60006b033b2e3c9fd0803ce800000082611f7491906138a4565b9050919050565b60008082604051602001611f8f9190613a07565b60405160208183030381529060405280519060200120905080915050919050565b6000611fd8836000018373ffffffffffffffffffffffffffffffffffffffff1660001b61220d565b905092915050565b611fe8612aa8565b8183600101805490501161202757604051806040016040528060006fffffffffffffffffffffffffffffffff1681526020016000600f0b8152506120ba565b82600101828154811061203d5761203c613132565b5b906000526020600020016040518060400160405290816000820160009054906101000a90046fffffffffffffffffffffffffffffffff166fffffffffffffffffffffffffffffffff166fffffffffffffffffffffffffffffffff1681526020016000820160109054906101000a9004600f0b600f0b600f0b815250505b905092915050565b6120ca612aa8565b6120d5826001612230565b9050919050565b6120e4612aa8565b6000846001018054905014156120fe576120fd84612539565b5b612106612aa8565b6121108585612625565b5084600001600081819054906101000a90046fffffffffffffffffffffffffffffffff168092919061214190613314565b91906101000a8154816fffffffffffffffffffffffffffffffff02191690836fffffffffffffffffffffffffffffffff16021790555050846001016001816001815401808255809150500390600052602060002050506040518060400160405280856fffffffffffffffffffffffffffffffff16815260200184600f0b81525090506121e18582600188600101805490506121dc9190613870565b612678565b809150509392505050565b60006b033b2e3c9fd0803ce8000000826122069190613720565b9050919050565b600080836001016000848152602001908152602001600020541415905092915050565b612238612aa8565b81836001018054905011158061224f575060008211155b1561228757604051806040016040528060006fffffffffffffffffffffffffffffffff1681526020016000600f0b8152509050612533565b600083600101838154811061229f5761229e613132565b5b906000526020600020016040518060400160405290816000820160009054906101000a90046fffffffffffffffffffffffffffffffff166fffffffffffffffffffffffffffffffff166fffffffffffffffffffffffffffffffff1681526020016000820160109054906101000a9004600f0b600f0b600f0b81525050905083600201600082600001516fffffffffffffffffffffffffffffffff166fffffffffffffffffffffffffffffffff16815260200190815260200160002060009055600084600101600186600101805490506123789190613870565b8154811061238957612388613132565b5b906000526020600020016040518060400160405290816000820160009054906101000a90046fffffffffffffffffffffffffffffffff166fffffffffffffffffffffffffffffffff166fffffffffffffffffffffffffffffffff1681526020016000820160109054906101000a9004600f0b600f0b600f0b8152505090508460010180548061241b5761241a613a35565b5b60019003818190600052602060002001600080820160006101000a8154906fffffffffffffffffffffffffffffffff02191690556000820160106101000a8154906fffffffffffffffffffffffffffffffff021916905550509055846001018054905084101561252d57612490858286612678565b61252c858660010186815481106124aa576124a9613132565b5b906000526020600020016040518060400160405290816000820160009054906101000a90046fffffffffffffffffffffffffffffffff166fffffffffffffffffffffffffffffffff166fffffffffffffffffffffffffffffffff1681526020016000820160109054906101000a9004600f0b600f0b600f0b81525050866127a7565b5b81925050505b92915050565b6000816001018054905014156126225780600101604051806040016040528060006fffffffffffffffffffffffffffffffff1681526020016000600f0b8152509080600181540180825580915050600190039060005260206000200160009091909190915060008201518160000160006101000a8154816fffffffffffffffffffffffffffffffff02191690836fffffffffffffffffffffffffffffffff16021790555060208201518160000160106101000a8154816fffffffffffffffffffffffffffffffff0219169083600f0b6fffffffffffffffffffffffffffffffff16021790555050505b50565b61262d612aa8565b61267083846002016000856fffffffffffffffffffffffffffffffff166fffffffffffffffffffffffffffffffff16815260200190815260200160002054612230565b905092915050565b60018114806126cd57508260010160028261269391906135ce565b815481106126a4576126a3613132565b5b9060005260206000200160000160109054906101000a9004600f0b600f0b8260200151600f0b13155b156126e2576126dd8383836129bc565b6127a2565b61278a83846001016002846126f791906135ce565b8154811061270857612707613132565b5b906000526020600020016040518060400160405290816000820160009054906101000a90046fffffffffffffffffffffffffffffffff166fffffffffffffffffffffffffffffffff166fffffffffffffffffffffffffffffffff1681526020016000820160109054906101000a9004600f0b600f0b600f0b81525050836129bc565b6127a1838360028461279c91906135ce565b612678565b5b505050565b60008360010180549050905060006002836127c29190613545565b90508082116127db576127d68585856129bc565b6129b5565b60008560010182815481106127f3576127f2613132565b5b906000526020600020016040518060400160405290816000820160009054906101000a90046fffffffffffffffffffffffffffffffff166fffffffffffffffffffffffffffffffff166fffffffffffffffffffffffffffffffff1681526020016000820160109054906101000a9004600f0b600f0b600f0b81525050905060018261287e9190612fbe565b831180156128d157508060200151600f0b866001016001846128a09190612fbe565b815481106128b1576128b0613132565b5b9060005260206000200160000160109054906101000a9004600f0b600f0b135b156129775785600101826128e490613161565b925082815481106128f8576128f7613132565b5b906000526020600020016040518060400160405290816000820160009054906101000a90046fffffffffffffffffffffffffffffffff166fffffffffffffffffffffffffffffffff166fffffffffffffffffffffffffffffffff1681526020016000820160109054906101000a9004600f0b600f0b600f0b8152505090505b8460200151600f0b8160200151600f0b1361299c576129978686866129bc565b6129b3565b6129a78682866129bc565b6129b28686846127a7565b5b505b5050505050565b818360010182815481106129d3576129d2613132565b5b9060005260206000200160008201518160000160006101000a8154816fffffffffffffffffffffffffffffffff02191690836fffffffffffffffffffffffffffffffff16021790555060208201518160000160106101000a8154816fffffffffffffffffffffffffffffffff0219169083600f0b6fffffffffffffffffffffffffffffffff1602179055509050508083600201600084600001516fffffffffffffffffffffffffffffffff166fffffffffffffffffffffffffffffffff16815260200190815260200160002081905550505050565b604051806040016040528060006fffffffffffffffffffffffffffffffff1681526020016000600f0b81525090565b600080fd5b60006fffffffffffffffffffffffffffffffff82169050919050565b612b0181612adc565b8114612b0c57600080fd5b50565b600081359050612b1e81612af8565b92915050565b600060208284031215612b3a57612b39612ad7565b5b6000612b4884828501612b0f565b91505092915050565b60008115159050919050565b612b6681612b51565b82525050565b6000602082019050612b816000830184612b5d565b92915050565b600073ffffffffffffffffffffffffffffffffffffffff82169050919050565b6000612bb282612b87565b9050919050565b612bc281612ba7565b8114612bcd57600080fd5b50565b600081359050612bdf81612bb9565b92915050565b6000819050919050565b612bf881612be5565b8114612c0357600080fd5b50565b600081359050612c1581612bef565b92915050565b600080600060608486031215612c3457612c33612ad7565b5b6000612c4286828701612b0f565b9350506020612c5386828701612bd0565b9250506040612c6486828701612c06565b9150509250925092565b612c7781612be5565b82525050565b6000602082019050612c926000830184612c6e565b92915050565b600081600f0b9050919050565b612cae81612c98565b82525050565b6000602082019050612cc96000830184612ca5565b92915050565b6000819050919050565b612ce281612ccf565b82525050565b6000602082019050612cfd6000830184612cd9565b92915050565b600060208284031215612d1957612d18612ad7565b5b6000612d2784828501612bd0565b91505092915050565b612d3981612adc565b82525050565b6000602082019050612d546000830184612d30565b92915050565b612d6381612ba7565b82525050565b6000602082019050612d7e6000830184612d5a565b92915050565b7f4e487b7100000000000000000000000000000000000000000000000000000000600052601160045260246000fd5b6000612dbe82612adc565b9150612dc983612adc565b9250826fffffffffffffffffffffffffffffffff03821115612dee57612ded612d84565b5b828201905092915050565b6000612e0482612c98565b9150612e0f83612c98565b9250827fffffffffffffffffffffffffffffffff8000000000000000000000000000000001821260008412151615612e4a57612e49612d84565b5b826f7fffffffffffffffffffffffffffffff018213600084121615612e7257612e71612d84565b5b828203905092915050565b6000606082019050612e926000830186612d5a565b612e9f6020830185612d5a565b612eac6040830184612c6e565b949350505050565b6000604082019050612ec96000830185612d30565b612ed66020830184612c6e565b9392505050565b6000612ee882612adc565b9150612ef383612adc565b925082821015612f0657612f05612d84565b5b828203905092915050565b6000612f1c82612c98565b9150612f2783612c98565b9250816f7fffffffffffffffffffffffffffffff03831360008312151615612f5257612f51612d84565b5b817fffffffffffffffffffffffffffffffff80000000000000000000000000000000038312600083121615612f8a57612f89612d84565b5b828201905092915050565b6000604082019050612faa6000830185612d5a565b612fb76020830184612c6e565b9392505050565b6000612fc982612be5565b9150612fd483612be5565b9250827fffffffffffffffffffffffffffffffffffffffffffffffffffffffffffffffff0382111561300957613008612d84565b5b828201905092915050565b600082825260208201905092915050565b7f4d61726b65740000000000000000000000000000000000000000000000000000600082015250565b600061305b600683613014565b915061306682613025565b602082019050919050565b6000604082019050818103600083015261308a8161304e565b90506130996020830184612d30565b92915050565b7f4173736f63696174656453797374656d00000000000000000000000000000000600082015250565b60006130d5601083613014565b91506130e08261309f565b602082019050919050565b6000819050919050565b6130fe816130eb565b82525050565b6000604082019050818103600083015261311d816130c8565b905061312c60208301846130f5565b92915050565b7f4e487b7100000000000000000000000000000000000000000000000000000000600052603260045260246000fd5b600061316c82612be5565b91507fffffffffffffffffffffffffffffffffffffffffffffffffffffffffffffffff82141561319f5761319e612d84565b5b600182019050919050565b6000815190506131b981612bef565b92915050565b6000602082840312156131d5576131d4612ad7565b5b60006131e3848285016131aa565b91505092915050565b60006131f782612ccf565b915061320283612ccf565b9250827f80000000000000000000000000000000000000000000000000000000000000000182126000841215161561323d5761323c612d84565b5b827f7fffffffffffffffffffffffffffffffffffffffffffffffffffffffffffffff01821360008412161561327557613274612d84565b5b828203905092915050565b600061328b82612ccf565b915061329683612ccf565b9250817f7fffffffffffffffffffffffffffffffffffffffffffffffffffffffffffffff038313600083121516156132d1576132d0612d84565b5b817f800000000000000000000000000000000000000000000000000000000000000003831260008312161561330957613308612d84565b5b828201905092915050565b600061331f82612adc565b91506fffffffffffffffffffffffffffffffff82141561334257613341612d84565b5b600182019050919050565b600060408201905061336260008301856130f5565b61336f60208301846130f5565b9392505050565b7f436f6c6c61746572616c436f6e66696775726174696f6e000000000000000000600082015250565b60006133ac601783613014565b91506133b782613376565b602082019050919050565b600060408201905081810360008301526133db8161339f565b90506133ea6020830184612d5a565b92915050565b600069ffffffffffffffffffff82169050919050565b61340f816133f0565b811461341a57600080fd5b50565b60008151905061342c81613406565b92915050565b61343b81612ccf565b811461344657600080fd5b50565b60008151905061345881613432565b92915050565b600080600080600060a0868803121561347a57613479612ad7565b5b60006134888882890161341d565b955050602061349988828901613449565b94505060406134aa888289016131aa565b93505060606134bb888289016131aa565b92505060806134cc8882890161341d565b9150509295509295909350565b7f54686520636f6c6c61746572616c2076616c7565206973203000000000000000600082015250565b600061350f601983613014565b915061351a826134d9565b602082019050919050565b6000602082019050818103600083015261353e81613502565b9050919050565b600061355082612be5565b915061355b83612be5565b9250817fffffffffffffffffffffffffffffffffffffffffffffffffffffffffffffffff048311821515161561359457613593612d84565b5b828202905092915050565b7f4e487b7100000000000000000000000000000000000000000000000000000000600052601260045260246000fd5b60006135d982612be5565b91506135e483612be5565b9250826135f4576135f361359f565b5b828204905092915050565b600061360a82612c98565b91507fffffffffffffffffffffffffffffffff8000000000000000000000000000000082141561363d5761363c612d84565b5b816000039050919050565b7f6e6f20736861726573206265666f7265206163746f722072656d6f76616c0000600082015250565b600061367e601e83613014565b915061368982613648565b602082019050919050565b600060208201905081810360008301526136ad81613671565b9050919050565b7f6163746f722068617320736861726573206265666f7265206164640000000000600082015250565b60006136ea601b83613014565b91506136f5826136b4565b602082019050919050565b60006020820190508181036000830152613719816136dd565b9050919050565b600061372b82612ccf565b915061373683612ccf565b9250826137465761374561359f565b5b600160000383147f80000000000000000000000000000000000000000000000000000000000000008314161561377f5761377e612d84565b5b828205905092915050565b7f4d61726b65745f6c617374496400000000000000000000000000000000000000600082015250565b60006137c0600d83613014565b91506137cb8261378a565b602082019050919050565b600060208201905081810360008301526137ef816137b3565b9050919050565b7f4d61726b65745f69647342794164647265737300000000000000000000000000600082015250565b600061382c601383613014565b9150613837826137f6565b602082019050919050565b6000604082019050818103600083015261385b8161381f565b905061386a6020830184612d5a565b92915050565b600061387b82612be5565b915061388683612be5565b92508282101561389957613898612d84565b5b828203905092915050565b60006138af82612ccf565b91506138ba83612ccf565b9250827f7fffffffffffffffffffffffffffffffffffffffffffffffffffffffffffffff04821160008413600084131616156138f9576138f8612d84565b5b817f8000000000000000000000000000000000000000000000000000000000000000058312600084126000841316161561393657613935612d84565b5b827f8000000000000000000000000000000000000000000000000000000000000000058212600084136000841216161561397357613972612d84565b5b827f7fffffffffffffffffffffffffffffffffffffffffffffffffffffffffffffff05821260008412600084121616156139b0576139af612d84565b5b828202905092915050565b7f46656174757265466c6167000000000000000000000000000000000000000000600082015250565b60006139f1600b83613014565b91506139fc826139bb565b602082019050919050565b60006040820190508181036000830152613a20816139e4565b9050613a2f60208301846130f5565b92915050565b7f4e487b7100000000000000000000000000000000000000000000000000000000600052603160045260246000fdfea2646970667358221220bead33e2f420d577d0b387dfbfaca8926fde462fe8c2a2c1c845f92fa1a55c6564736f6c634300080b0033",
  "linkReferences": {},
  "deployedLinkReferences": {}
}