{
  "_format": "hh-sol-artifact-1",
  "contractName": "MarketManagerModule",
  "sourceName": "contracts/modules/core/MarketManagerModule.sol",
  "abi": [
    {
      "inputs": [],
      "name": "EmptyDistribution",
      "type": "error"
    },
    {
      "inputs": [],
      "name": "FeatureUnavailable",
      "type": "error"
    },
    {
      "inputs": [
        {
          "internalType": "address",
          "name": "market",
          "type": "address"
        }
      ],
      "name": "IncorrectMarketInterface",
      "type": "error"
    },
    {
      "inputs": [
        {
          "internalType": "bytes32",
          "name": "expected",
          "type": "bytes32"
        },
        {
          "internalType": "bytes32",
          "name": "actual",
          "type": "bytes32"
        }
      ],
      "name": "MismatchAssociatedSystemKind",
      "type": "error"
    },
    {
      "inputs": [
        {
          "internalType": "uint128",
          "name": "marketId",
          "type": "uint128"
        },
        {
          "internalType": "uint256",
          "name": "amount",
          "type": "uint256"
        }
      ],
      "name": "NotEnoughLiquidity",
      "type": "error"
    },
    {
      "inputs": [],
      "name": "OverflowInt256ToInt128",
      "type": "error"
    },
    {
      "inputs": [],
      "name": "OverflowInt256ToUint256",
      "type": "error"
    },
    {
      "inputs": [],
      "name": "OverflowUint128ToInt128",
      "type": "error"
    },
    {
      "inputs": [],
      "name": "OverflowUint256ToInt256",
      "type": "error"
    },
    {
      "inputs": [],
      "name": "OverflowUint256ToUint128",
      "type": "error"
    },
    {
      "inputs": [
        {
          "internalType": "address",
          "name": "addr",
          "type": "address"
        }
      ],
      "name": "Unauthorized",
      "type": "error"
    },
    {
      "anonymous": false,
      "inputs": [
        {
          "indexed": true,
          "internalType": "address",
          "name": "market",
          "type": "address"
        },
        {
          "indexed": true,
          "internalType": "uint128",
          "name": "marketId",
          "type": "uint128"
        },
        {
          "indexed": true,
          "internalType": "address",
          "name": "sender",
          "type": "address"
        }
      ],
      "name": "MarketRegistered",
      "type": "event"
    },
    {
      "anonymous": false,
      "inputs": [
        {
          "indexed": true,
          "internalType": "uint128",
          "name": "marketId",
          "type": "uint128"
        },
        {
          "indexed": true,
          "internalType": "address",
          "name": "target",
          "type": "address"
        },
        {
          "indexed": false,
          "internalType": "uint256",
          "name": "amount",
          "type": "uint256"
        },
        {
          "indexed": true,
          "internalType": "address",
          "name": "sender",
          "type": "address"
        }
      ],
      "name": "MarketUsdDeposited",
      "type": "event"
    },
    {
      "anonymous": false,
      "inputs": [
        {
          "indexed": true,
          "internalType": "uint128",
          "name": "marketId",
          "type": "uint128"
        },
        {
          "indexed": true,
          "internalType": "address",
          "name": "target",
          "type": "address"
        },
        {
          "indexed": false,
          "internalType": "uint256",
          "name": "amount",
          "type": "uint256"
        },
        {
          "indexed": true,
          "internalType": "address",
          "name": "sender",
          "type": "address"
        }
      ],
      "name": "MarketUsdWithdrawn",
      "type": "event"
    },
    {
      "inputs": [
        {
          "internalType": "uint128",
          "name": "marketId",
          "type": "uint128"
        },
        {
          "internalType": "address",
          "name": "target",
          "type": "address"
        },
        {
          "internalType": "uint256",
          "name": "amount",
          "type": "uint256"
        }
      ],
      "name": "depositMarketUsd",
      "outputs": [],
      "stateMutability": "nonpayable",
      "type": "function"
    },
    {
      "inputs": [
        {
          "internalType": "uint128",
          "name": "marketId",
          "type": "uint128"
        }
      ],
      "name": "getMarketCollateral",
      "outputs": [
        {
          "internalType": "uint256",
          "name": "",
          "type": "uint256"
        }
      ],
      "stateMutability": "view",
      "type": "function"
    },
    {
      "inputs": [
        {
          "internalType": "uint128",
          "name": "marketId",
          "type": "uint128"
        }
      ],
      "name": "getMarketDebtPerShare",
      "outputs": [
        {
          "internalType": "int256",
          "name": "",
          "type": "int256"
        }
      ],
      "stateMutability": "nonpayable",
      "type": "function"
    },
    {
      "inputs": [
        {
          "internalType": "uint128",
          "name": "marketId",
          "type": "uint128"
        }
      ],
      "name": "getMarketNetIssuance",
      "outputs": [
        {
          "internalType": "int128",
          "name": "",
          "type": "int128"
        }
      ],
      "stateMutability": "view",
      "type": "function"
    },
    {
      "inputs": [
        {
          "internalType": "uint128",
          "name": "marketId",
          "type": "uint128"
        }
      ],
      "name": "getMarketReportedDebt",
      "outputs": [
        {
          "internalType": "uint256",
          "name": "",
          "type": "uint256"
        }
      ],
      "stateMutability": "view",
      "type": "function"
    },
    {
      "inputs": [
        {
          "internalType": "uint128",
          "name": "marketId",
          "type": "uint128"
        }
      ],
      "name": "getMarketTotalDebt",
      "outputs": [
        {
          "internalType": "int256",
          "name": "",
          "type": "int256"
        }
      ],
      "stateMutability": "view",
      "type": "function"
    },
    {
      "inputs": [
        {
          "internalType": "uint128",
          "name": "marketId",
          "type": "uint128"
        }
      ],
      "name": "getWithdrawableUsd",
      "outputs": [
        {
          "internalType": "uint256",
          "name": "",
          "type": "uint256"
        }
      ],
      "stateMutability": "view",
      "type": "function"
    },
    {
      "inputs": [
        {
          "internalType": "uint128",
          "name": "marketId",
          "type": "uint128"
        }
      ],
      "name": "isMarketCapacityLocked",
      "outputs": [
        {
          "internalType": "bool",
          "name": "",
          "type": "bool"
        }
      ],
      "stateMutability": "view",
      "type": "function"
    },
    {
      "inputs": [
        {
          "internalType": "address",
          "name": "market",
          "type": "address"
        }
      ],
      "name": "registerMarket",
      "outputs": [
        {
          "internalType": "uint128",
          "name": "marketId",
          "type": "uint128"
        }
      ],
      "stateMutability": "nonpayable",
      "type": "function"
    },
    {
      "inputs": [
        {
          "internalType": "uint128",
          "name": "marketId",
          "type": "uint128"
        },
        {
          "internalType": "address",
          "name": "target",
          "type": "address"
        },
        {
          "internalType": "uint256",
          "name": "amount",
          "type": "uint256"
        }
      ],
      "name": "withdrawMarketUsd",
      "outputs": [],
      "stateMutability": "nonpayable",
      "type": "function"
    }
  ],
  "bytecode": "0x608060405234801561001057600080fd5b5061206b806100206000396000f3fe608060405234801561001057600080fd5b506004361061009e5760003560e01c806385d99ebc1161006657806385d99ebc1461012757806386e3b1cf1461014d57806395909ba314610160578063a79b9ec914610173578063baa2a2641461019e57600080fd5b806307003f0a146100a357806310b0cf76146100cb578063140a7cfe146100e0578063150834a3146100f3578063691e84bd14610114575b600080fd5b6100b66100b1366004611b9f565b6101b1565b60405190151581526020015b60405180910390f35b6100de6100d9366004611bd1565b6101ca565b005b6100de6100ee366004611bd1565b61038e565b610106610101366004611b9f565b610579565b6040519081526020016100c2565b610106610122366004611b9f565b610597565b61013a610135366004611b9f565b6105d1565b604051600f9190910b81526020016100c2565b61010661015b366004611b9f565b6105e9565b61010661016e366004611b9f565b6105fc565b610186610181366004611c0d565b610628565b6040516001600160801b0390911681526020016100c2565b6101066101ac366004611b9f565b61072f565b60006101c46101bf83610742565b6107a1565b92915050565b60006101d584610742565b60018101549091506001600160a01b0316331461020c5760405163472511eb60e11b81523360048201526024015b60405180910390fd5b600061022a610225672aa9a22a37b5b2b760c11b6107cc565b61080a565b90506102358361082c565b600283018054601090610259908490600160801b90046001600160801b0316611c3e565b92506101000a8154816001600160801b0302191690836001600160801b0316021790555061028e6102898461085a565b610884565b6002830180546000906102a5908490600f0b611c5e565b82546001600160801b039182166101009390930a92830291909202199091161790555060405163aaa15fd160e01b81526001600160a01b0385811660048301523360248301526044820185905282169063aaa15fd190606401600060405180830381600087803b15801561031857600080fd5b505af115801561032c573d6000803e3d6000fd5b50505050336001600160a01b0316846001600160a01b0316866001600160801b03167fcbdbec7c74466ca0e764de5f6bca5bef859e31a7d6284be22ac6b4beabddf8358660405161037f91815260200190565b60405180910390a45050505050565b600061039984610742565b60018101549091506001600160a01b031633146103cb5760405163472511eb60e11b8152336004820152602401610203565b6103d484610597565b8211156104065760405163113c1fd160e11b81526001600160801b038516600482015260248101839052604401610203565b61040f8261082c565b600282018054601090610433908490600160801b90046001600160801b0316611c8b565b92506101000a8154816001600160801b0302191690836001600160801b031602179055506104636102898361085a565b60028201805460009061047a908490600f0b611cab565b92506101000a8154816001600160801b030219169083600f0b6001600160801b031602179055506104b8610225672aa9a22a37b5b2b760c11b6107cc565b6040516340c10f1960e01b81526001600160a01b0385811660048301526024820185905291909116906340c10f1990604401600060405180830381600087803b15801561050457600080fd5b505af1158015610518573d6000803e3d6000fd5b50505050336001600160a01b0316836001600160a01b0316856001600160801b03167f8669e4526579b1f1da479be2f96d1c7953fff439a4f98362a1c9ca07fe42ba418560405161056b91815260200190565b60405180910390a450505050565b600061058482610742565b600a01546001600160801b031692915050565b60006105aa6105a583610742565b6108c0565b6105b383610742565b600201546101c49190600160801b90046001600160801b0316611cd8565b60006105dc82610742565b60020154600f0b92915050565b60006101c46105f783610742565b610978565b60008061060883610742565b905061061881633b9ac9ff6109f4565b61062181610a9b565b9392505050565b60006106446d1c9959da5cdd195c93585c9ad95d60921b610aa9565b6040516301ffc9a760e01b815263598401bd60e11b60048201526001600160a01b038316906301ffc9a790602401602060405180830381865afa15801561068f573d6000803e3d6000fd5b505050506040513d601f19601f820116820180604052508101906106b39190611ceb565b6106db5760405163114624c960e31b81526001600160a01b0383166004820152602401610203565b6106e482610ad3565b546040516001600160801b039091169150339082906001600160a01b038516907feb87361ace8c1947e121293eb214f68d889d9cf273c48246b38c3cbf185748d090600090a4919050565b60006101c461073d83610742565b610c05565b60008082604051602001610782919060408082526006908201526513585c9ad95d60d21b60608201526001600160801b0391909116602082015260800190565b60408051601f1981840301815291905280516020909101209392505050565b60006107ac82610c40565b6002909201546001600160801b03600160801b9091041691909110919050565b6040805160208101829052601060608201526f4173736f63696174656453797374656d60801b6080820152908101829052600090819060a001610782565b600061081e8264065726332360dc1b610c7f565b50546001600160a01b031690565b60006001600160801b0382111561085657604051637d5864af60e11b815260040160405180910390fd5b5090565b60006001600160ff1b038211156108565760405163677c430560e11b815260040160405180910390fd5b600060016001607f1b03198212806108a2575060016001607f1b0382135b1561085657604051634022cc0360e01b815260040160405180910390fd5b600080805b600d84015481101561097157600084600d0182815481106108e8576108e8611d0d565b600091825260208083206040805180820190915260029093020180546001600160a01b03168084526001909101549183019190915290925061092990610ccc565b9050600061093682610d23565b905061094f836020015182610dbe90919063ffffffff16565b6109599086611cd8565b9450505050808061096990611d23565b9150506108c5565b5092915050565b6001810154815460405163bcec0d0f60e01b81526001600160801b0390911660048201526000916001600160a01b03169063bcec0d0f906024015b602060405180830381865afa1580156109d0573d6000803e3d6000fd5b505050506040513d601f19601f820116820180604052508101906101c49190611d3c565b60006109ff83610c05565b6003840154909150600090610a1790600f0b83611d55565b90506000610a26858386610ddd565b91505080158015610a435750600a8501546001600160801b031615155b15610a94576003850154610a6890610a5e90600f0b85611d55565b600a870190611126565b610a7183610884565b6003860180546001600160801b0319166001600160801b03929092169190911790555b5050505050565b60006101c482600a016111e3565b610ab381336111fd565b610ad05760405163e8298be560e01b815260040160405180910390fd5b50565b7f606063a8429276d8c8e2346bfa5860ad5c86a25685e48527b97f1fbea86284c7546000907f606063a8429276d8c8e2346bfa5860ad5c86a25685e48527b97f1fbea86284c6906001600160801b031680610b2d81611d75565b915050610b3981610742565b80546001600160801b03199081166001600160801b0384169081178355600180840180546001600160a01b0319166001600160a01b038a16179055850180549092161790559250610bbd846001600160a01b031660009081527f606063a8429276d8c8e2346bfa5860ad5c86a25685e48527b97f1fbea86284c66020526040902090565b80546001818101835560009283526020909220600282040180546001600160801b03948516601093909416929092026101000a92830293909202191691909117905550919050565b6000610c18610c13836108c0565b61085a565b6002830154600f0b610c2c610c1385610978565b610c369190611d9b565b6101c49190611d55565b6001810154815460405163c9c04a7f60e01b81526001600160801b0390911660048201526000916001600160a01b03169063c9c04a7f906024016109b3565b6002820154818114801590610ca05750681d5b9b585b9859d95960ba1b8114155b15610cc75760405162d5319f60e31b81526004810183905260248101829052604401610203565b505050565b60008082604051602001610782919060408082526017908201527f436f6c6c61746572616c436f6e66696775726174696f6e00000000000000000060608201526001600160a01b0391909116602082015260800190565b600080610d2e61122f565b6040805160208101825291546001600160a01b03168083526004808701549251632a952b2d60e01b81529394506000939192632a952b2d92610d74920190815260200190565b608060405180830381865afa158015610d91573d6000803e3d6000fd5b505050506040513d601f19601f82011682018060405250810190610db59190611dc3565b51949350505050565b6000670de0b6b3a7640000610dd38385611e37565b6106219190611e64565b600080831580610df85750600a8501546001600160801b0316155b15610e085750600090508061111e565b600080600080871315610e28575060019150506004860160078701610e38565b5060001991505060078601600487015b60005b868110156110cd57610e4c83611281565b156110cd576000610e5c846112a4565b9050610e718a610e6c898c611d55565b6112c3565b85600f0b610e7f9190611e78565b8160200151610e8d90611ea8565b600f0b12610e9b57506110cd565b610ea58484611301565b6000610efb610eb68c600a016111e3565b6020840151610ec489611ea8565b610ece9190611ece565b600f0b610edb9190611d55565b600a8d0154610ef2906001600160801b0316611332565b600f0b90611365565b9050610f0a600a8c0182611126565b610f148189611d9b565b975060008a131561101c5781516001600160801b039081166000908152600b8d01602052604090205416610f8a5760405162461bcd60e51b815260206004820152601e60248201527f6e6f20736861726573206265666f7265206163746f722072656d6f76616c00006044820152606401610203565b8151600090610fb090610fab90600a8f01906001600160801b031684611384565b611435565b9050610fbb8161082c565b83516001600160801b039081166000908152600c8f016020526040902080549091601091610ff2918591600160801b900416611c3e565b92506101000a8154816001600160801b0302191690836001600160801b03160217905550506110b8565b81516001600160801b039081166000908152600b8d01602052604090205416156110885760405162461bcd60e51b815260206004820152601b60248201527f6163746f722068617320736861726573206265666f72652061646400000000006044820152606401610203565b81516001600160801b039081166000818152600c8e0160205260409020546110b692600a8f01929116611384565b505b505080806110c590611d23565b915050610e3b565b6110d686610884565b60038a0180546000906110ed908490600f0b611cab565b92506101000a8154816001600160801b030219169083600f0b6001600160801b031602179055508681149450505050505b935093915050565b80600003611132575050565b81546001600160801b0316600081900361115f57604051633b182f5560e01b815260040160405180910390fd5b60006111776b033b2e3c9fd0803ce800000084611e78565b905060006111848361085a565b61118e9083611eee565b905061119981610884565b855486906010906111b5908490600160801b9004600f0b611cab565b92506101000a8154816001600160801b030219169083600f0b6001600160801b031602179055505050505050565b80546000906101c490600160801b9004600f0b6009611458565b6000806112098461146f565b600181015490915060ff1680611227575061122760028201846114a8565b949350505050565b600080604051602001611263906020808252600d908201526c27b930b1b632a6b0b730b3b2b960991b604082015260600190565b60408051601f19818403018152919052805160209091012092915050565b60018101546000906112945760006101c4565b6001828101546101c49190611f1c565b60408051808201909152600080825260208201526101c48260016114ca565b600a8201546000906112eb906112e1906001600160801b0316611332565b8390600f0b611553565b6112f784600a016111e3565b6106219190611d9b565b600061130c83611568565b905061132c8160000151826020015161132490611ea8565b849190611587565b50505050565b600060016001607f1b036001600160801b038316111561085657604051634593782f60e11b815260040160405180910390fd5b6000670de0b6b3a764000061137a8385611e78565b6106219190611eee565b6000611390848461164b565b600084815260018601602052604081209192506113ac8461082c565b825487549192506001600160801b03908116916113cb91849116611c3e565b6113d59190611c8b565b86546001600160801b03199081166001600160801b039283161788558354169082161782558315611411578554600160801b9004600f0b611414565b60005b82546001600160801b03918216600160801b02911617909155509392505050565b6000808212156108565760405163029f024d60e31b815260040160405180910390fd5b600061146582600a612013565b6106219084611eee565b6040805160208101829052600b60608201526a46656174757265466c616760a81b6080820152908101829052600090819060a001610782565b6001600160a01b03811660009081526001830160205260408120541515610621565b604080518082019091526000808252602082015260018301548210611502576040805180820190915260008082526020820152610621565b82600101828154811061151757611517611d0d565b6000918252602091829020604080518082019091529101546001600160801b0381168252600160801b9004600f0b918101919091529392505050565b60008161137a670de0b6b3a764000085611e78565b60408051808201909152600080825260208201526101c48260016116cc565b604080518082019091526000808252602082015260018401546000036115b0576115b084611865565b60408051808201909152600080825260208201526115ce85856118b5565b5084546001600160801b03168560006115e683611d75565b82546101009290920a6001600160801b03818102199093169183160217909155600187810180548201808255600091909152604080518082019091529288168352600f87900b602084015291935061122792508791849161164691611f1c565b6118ef565b6000818152600183016020526040812080548454839161167e91600160801b91829004600f90810b92909104900b611c5e565b8254600f9190910b915060009061169d906001600160801b0316611332565b6116aa90600f0b83611e78565b90506116c26b033b2e3c9fd0803ce800000082611eee565b9695505050505050565b60408051808201909152600080825260208201526001830154821015806116f1575081155b15611710575060408051808201909152600080825260208201526101c4565b600083600101838154811061172757611727611d0d565b6000918252602080832060408051808201825293909101546001600160801b038116808552600160801b909104600f0b848401528452600288019091528220829055600180870180549294509161177e9190611f1c565b8154811061178e5761178e611d0d565b6000918252602091829020604080518082019091529101546001600160801b0381168252600160801b9004600f0b9181019190915260018601805491925090806117da576117da61201f565b600082815260208120820160001990810191909155019055600185015484101561185d576118098582866118ef565b61185d8586600101868154811061182257611822611d0d565b6000918252602091829020604080518082019091529101546001600160801b0381168252600160801b9004600f0b91810191909152866119ba565b509392505050565b6001810154600003610ad057604080518082019091526000808252602080830182815260019485018054958601815583529120915190516001600160801b03908116600160801b02911617910155565b60408051808201909152600080825260208201526001600160801b03821660009081526002840160205260409020546106219084906116cc565b600181148061193c575060018301611908600283611e64565b8154811061191857611918611d0d565b6000918252602091829020015490830151600160801b909104600f90810b91900b13155b1561194c57610cc7838383611b28565b6119aa836001810161195f600285611e64565b8154811061196f5761196f611d0d565b6000918252602091829020604080518082019091529101546001600160801b0381168252600160801b9004600f0b9181019190915283611b28565b610cc78383611646600285611e64565b600183015460006119cc836002611e37565b90508082116119e5576119e0858585611b28565b610a94565b60008560010182815481106119fc576119fc611d0d565b6000918252602091829020604080518082019091529101546001600160801b0381168252600160801b9004600f0b918101919091529050611a3e826001611cd8565b83118015611a8857508060200151600f0b86600101836001611a609190611cd8565b81548110611a7057611a70611d0d565b600091825260209091200154600160801b9004600f0b135b15611ae55760018601611a9a83611d23565b92508281548110611aad57611aad611d0d565b6000918252602091829020604080518082019091529101546001600160801b0381168252600160801b9004600f0b9181019190915290505b8460200151600f0b8160200151600f0b13611b0a57611b05868686611b28565b611b20565b611b15868286611b28565b611b208686846119ba565b505050505050565b81836001018281548110611b3e57611b3e611d0d565b600091825260208083208451948201516001600160801b03908116600160801b0295811695909517920191909155935190911681526002909301909152604090912055565b80356001600160801b0381168114611b9a57600080fd5b919050565b600060208284031215611bb157600080fd5b61062182611b83565b80356001600160a01b0381168114611b9a57600080fd5b600080600060608486031215611be657600080fd5b611bef84611b83565b9250611bfd60208501611bba565b9150604084013590509250925092565b600060208284031215611c1f57600080fd5b61062182611bba565b634e487b7160e01b600052601160045260246000fd5b6001600160801b0381811683821601908082111561097157610971611c28565b600f82810b9082900b0360016001607f1b0319811260016001607f1b03821317156101c4576101c4611c28565b6001600160801b0382811682821603908082111561097157610971611c28565b600f81810b9083900b0160016001607f1b03811360016001607f1b0319821217156101c4576101c4611c28565b808201808211156101c4576101c4611c28565b600060208284031215611cfd57600080fd5b8151801515811461062157600080fd5b634e487b7160e01b600052603260045260246000fd5b600060018201611d3557611d35611c28565b5060010190565b600060208284031215611d4e57600080fd5b5051919050565b818103600083128015838313168383128216171561097157610971611c28565b60006001600160801b03808316818103611d9157611d91611c28565b6001019392505050565b8082018281126000831280158216821582161715611dbb57611dbb611c28565b505092915050565b600060808284031215611dd557600080fd5b6040516080810181811067ffffffffffffffff82111715611e0657634e487b7160e01b600052604160045260246000fd5b8060405250825181526020830151602082015260408301516040820152606083015160608201528091505092915050565b80820281158282048414176101c4576101c4611c28565b634e487b7160e01b600052601260045260246000fd5b600082611e7357611e73611e4e565b500490565b80820260008212600160ff1b84141615611e9457611e94611c28565b81810583148215176101c4576101c4611c28565b600081600f0b60016001607f1b03198103611ec557611ec5611c28565b60000392915050565b600082600f0b82600f0b0280600f0b915080821461097157610971611c28565b600082611efd57611efd611e4e565b600160ff1b821460001984141615611f1757611f17611c28565b500590565b818103818111156101c4576101c4611c28565b600181815b80851115611f6a578160001904821115611f5057611f50611c28565b80851615611f5d57918102915b93841c9390800290611f34565b509250929050565b600082611f81575060016101c4565b81611f8e575060006101c4565b8160018114611fa45760028114611fae57611fca565b60019150506101c4565b60ff841115611fbf57611fbf611c28565b50506001821b6101c4565b5060208310610133831016604e8410600b8410161715611fed575081810a6101c4565b611ff78383611f2f565b806000190482111561200b5761200b611c28565b029392505050565b60006106218383611f72565b634e487b7160e01b600052603160045260246000fdfea2646970667358221220ce8cadac4dd5e260067f41ea40be1ef73639979f10ca343efe06c21e3239a80764736f6c63430008110033",
  "linkReferences": {},
  "deployedLinkReferences": {}
}