{
  "_format": "hh-sol-artifact-1",
  "contractName": "PoolModule",
  "sourceName": "contracts/modules/core/PoolModule.sol",
  "abi": [
    {
      "inputs": [
        {
          "internalType": "uint256",
          "name": "marketId",
          "type": "uint256"
        }
      ],
      "name": "CapacityLocked",
      "type": "error"
    },
    {
      "inputs": [],
      "name": "EmptyDistribution",
      "type": "error"
    },
    {
      "inputs": [],
      "name": "FeatureUnavailable",
      "type": "error"
    },
    {
      "inputs": [
        {
          "internalType": "string",
          "name": "parameter",
          "type": "string"
        },
        {
          "internalType": "string",
          "name": "reason",
          "type": "string"
        }
      ],
      "name": "InvalidParameter",
      "type": "error"
    },
    {
      "inputs": [
        {
          "internalType": "uint128",
          "name": "marketId",
          "type": "uint128"
        }
      ],
      "name": "MarketNotFound",
      "type": "error"
    },
    {
      "inputs": [],
      "name": "OverflowInt256ToInt128",
      "type": "error"
    },
    {
      "inputs": [],
      "name": "OverflowInt256ToUint256",
      "type": "error"
    },
    {
      "inputs": [],
      "name": "OverflowUint128ToInt128",
      "type": "error"
    },
    {
      "inputs": [],
      "name": "OverflowUint256ToInt256",
      "type": "error"
    },
    {
      "inputs": [],
      "name": "OverflowUint256ToUint128",
      "type": "error"
    },
    {
      "inputs": [
        {
          "internalType": "uint128",
          "name": "poolId",
          "type": "uint128"
        }
      ],
      "name": "PoolAlreadyExists",
      "type": "error"
    },
    {
      "inputs": [
        {
          "internalType": "uint128",
          "name": "poolId",
          "type": "uint128"
        }
      ],
      "name": "PoolNotFound",
      "type": "error"
    },
    {
      "inputs": [
        {
          "internalType": "address",
          "name": "addr",
          "type": "address"
        }
      ],
      "name": "Unauthorized",
      "type": "error"
    },
    {
      "inputs": [],
      "name": "ZeroAddress",
      "type": "error"
    },
    {
      "anonymous": false,
      "inputs": [
        {
          "indexed": true,
          "internalType": "uint128",
          "name": "poolId",
          "type": "uint128"
        },
        {
          "components": [
            {
              "internalType": "uint128",
              "name": "marketId",
              "type": "uint128"
            },
            {
              "internalType": "uint128",
              "name": "weightD18",
              "type": "uint128"
            },
            {
              "internalType": "int128",
              "name": "maxDebtShareValueD18",
              "type": "int128"
            }
          ],
          "indexed": false,
          "internalType": "struct MarketConfiguration.Data[]",
          "name": "markets",
          "type": "tuple[]"
        },
        {
          "indexed": true,
          "internalType": "address",
          "name": "sender",
          "type": "address"
        }
      ],
      "name": "PoolConfigurationSet",
      "type": "event"
    },
    {
      "anonymous": false,
      "inputs": [
        {
          "indexed": true,
          "internalType": "uint128",
          "name": "poolId",
          "type": "uint128"
        },
        {
          "indexed": true,
          "internalType": "address",
          "name": "owner",
          "type": "address"
        },
        {
          "indexed": true,
          "internalType": "address",
          "name": "sender",
          "type": "address"
        }
      ],
      "name": "PoolCreated",
      "type": "event"
    },
    {
      "anonymous": false,
      "inputs": [
        {
          "indexed": true,
          "internalType": "uint128",
          "name": "poolId",
          "type": "uint128"
        },
        {
          "indexed": true,
          "internalType": "string",
          "name": "name",
          "type": "string"
        },
        {
          "indexed": true,
          "internalType": "address",
          "name": "sender",
          "type": "address"
        }
      ],
      "name": "PoolNameUpdated",
      "type": "event"
    },
    {
      "anonymous": false,
      "inputs": [
        {
          "indexed": true,
          "internalType": "uint128",
          "name": "poolId",
          "type": "uint128"
        },
        {
          "indexed": true,
          "internalType": "address",
          "name": "owner",
          "type": "address"
        }
      ],
      "name": "PoolNominationRenounced",
      "type": "event"
    },
    {
      "anonymous": false,
      "inputs": [
        {
          "indexed": true,
          "internalType": "uint128",
          "name": "poolId",
          "type": "uint128"
        },
        {
          "indexed": true,
          "internalType": "address",
          "name": "owner",
          "type": "address"
        }
      ],
      "name": "PoolNominationRevoked",
      "type": "event"
    },
    {
      "anonymous": false,
      "inputs": [
        {
          "indexed": true,
          "internalType": "uint128",
          "name": "poolId",
          "type": "uint128"
        },
        {
          "indexed": true,
          "internalType": "address",
          "name": "nominatedOwner",
          "type": "address"
        },
        {
          "indexed": true,
          "internalType": "address",
          "name": "owner",
          "type": "address"
        }
      ],
      "name": "PoolOwnerNominated",
      "type": "event"
    },
    {
      "anonymous": false,
      "inputs": [
        {
          "indexed": true,
          "internalType": "uint128",
          "name": "poolId",
          "type": "uint128"
        },
        {
          "indexed": true,
          "internalType": "address",
          "name": "owner",
          "type": "address"
        }
      ],
      "name": "PoolOwnershipAccepted",
      "type": "event"
    },
    {
      "inputs": [
        {
          "internalType": "uint128",
          "name": "poolId",
          "type": "uint128"
        }
      ],
      "name": "acceptPoolOwnership",
      "outputs": [],
      "stateMutability": "nonpayable",
      "type": "function"
    },
    {
      "inputs": [
        {
          "internalType": "uint128",
          "name": "requestedPoolId",
          "type": "uint128"
        },
        {
          "internalType": "address",
          "name": "owner",
          "type": "address"
        }
      ],
      "name": "createPool",
      "outputs": [],
      "stateMutability": "nonpayable",
      "type": "function"
    },
    {
      "inputs": [],
      "name": "getMinLiquidityRatio",
      "outputs": [
        {
          "internalType": "uint256",
          "name": "",
          "type": "uint256"
        }
      ],
      "stateMutability": "view",
      "type": "function"
    },
    {
      "inputs": [
        {
          "internalType": "uint128",
          "name": "poolId",
          "type": "uint128"
        }
      ],
      "name": "getNominatedPoolOwner",
      "outputs": [
        {
          "internalType": "address",
          "name": "",
          "type": "address"
        }
      ],
      "stateMutability": "view",
      "type": "function"
    },
    {
      "inputs": [
        {
          "internalType": "uint128",
          "name": "poolId",
          "type": "uint128"
        }
      ],
      "name": "getPoolConfiguration",
      "outputs": [
        {
          "components": [
            {
              "internalType": "uint128",
              "name": "marketId",
              "type": "uint128"
            },
            {
              "internalType": "uint128",
              "name": "weightD18",
              "type": "uint128"
            },
            {
              "internalType": "int128",
              "name": "maxDebtShareValueD18",
              "type": "int128"
            }
          ],
          "internalType": "struct MarketConfiguration.Data[]",
          "name": "",
          "type": "tuple[]"
        }
      ],
      "stateMutability": "view",
      "type": "function"
    },
    {
      "inputs": [
        {
          "internalType": "uint128",
          "name": "poolId",
          "type": "uint128"
        }
      ],
      "name": "getPoolName",
      "outputs": [
        {
          "internalType": "string",
          "name": "poolName",
          "type": "string"
        }
      ],
      "stateMutability": "view",
      "type": "function"
    },
    {
      "inputs": [
        {
          "internalType": "uint128",
          "name": "poolId",
          "type": "uint128"
        }
      ],
      "name": "getPoolOwner",
      "outputs": [
        {
          "internalType": "address",
          "name": "",
          "type": "address"
        }
      ],
      "stateMutability": "view",
      "type": "function"
    },
    {
      "inputs": [
        {
          "internalType": "address",
          "name": "nominatedOwner",
          "type": "address"
        },
        {
          "internalType": "uint128",
          "name": "poolId",
          "type": "uint128"
        }
      ],
      "name": "nominatePoolOwner",
      "outputs": [],
      "stateMutability": "nonpayable",
      "type": "function"
    },
    {
      "inputs": [
        {
          "internalType": "uint128",
          "name": "poolId",
          "type": "uint128"
        }
      ],
      "name": "renouncePoolNomination",
      "outputs": [],
      "stateMutability": "nonpayable",
      "type": "function"
    },
    {
      "inputs": [
        {
          "internalType": "uint128",
          "name": "poolId",
          "type": "uint128"
        }
      ],
      "name": "revokePoolNomination",
      "outputs": [],
      "stateMutability": "nonpayable",
      "type": "function"
    },
    {
      "inputs": [
        {
          "internalType": "uint256",
          "name": "minLiquidityRatio",
          "type": "uint256"
        }
      ],
      "name": "setMinLiquidityRatio",
      "outputs": [],
      "stateMutability": "nonpayable",
      "type": "function"
    },
    {
      "inputs": [
        {
          "internalType": "uint128",
          "name": "poolId",
          "type": "uint128"
        },
        {
          "components": [
            {
              "internalType": "uint128",
              "name": "marketId",
              "type": "uint128"
            },
            {
              "internalType": "uint128",
              "name": "weightD18",
              "type": "uint128"
            },
            {
              "internalType": "int128",
              "name": "maxDebtShareValueD18",
              "type": "int128"
            }
          ],
          "internalType": "struct MarketConfiguration.Data[]",
          "name": "newMarketConfigurations",
          "type": "tuple[]"
        }
      ],
      "name": "setPoolConfiguration",
      "outputs": [],
      "stateMutability": "nonpayable",
      "type": "function"
    },
    {
      "inputs": [
        {
          "internalType": "uint128",
          "name": "poolId",
          "type": "uint128"
        },
        {
          "internalType": "string",
          "name": "name",
          "type": "string"
        }
      ],
      "name": "setPoolName",
      "outputs": [],
      "stateMutability": "nonpayable",
      "type": "function"
    }
  ],
  "bytecode": "0x608060405234801561001057600080fd5b506134e0806100206000396000f3fe608060405234801561001057600080fd5b50600436106100cf5760003560e01c8063bbdd7c5a1161008c578063caab529b11610066578063caab529b1461019e578063efecf137146101b1578063f86e6f91146101d1578063fd85c1f8146101f157600080fd5b8063bbdd7c5a14610165578063c707a39f14610178578063ca5bed771461018b57600080fd5b806311e72a43146100d45780631f1b33b9146100e957806334078a01146100fc5780635d8c88441461010f5780636141f7a2146101225780639851af0114610135575b600080fd5b6100e76100e2366004612c5f565b610207565b005b6100e76100f7366004612d05565b610282565b6100e761010a366004612d20565b6102f1565b6100e761011d366004612d39565b610306565b6100e7610130366004612e55565b61073d565b610148610143366004612d05565b6107ab565b6040516001600160a01b0390911681526020015b60405180910390f35b610148610173366004612d05565b6107c9565b6100e7610186366004612d05565b6107e7565b6100e7610199366004612d05565b61087f565b6100e76101ac366004612e88565b610908565b6101c46101bf366004612d05565b610995565b60405161015c9190612eb2565b6101e46101df366004612d05565b610abd565b60405161015c9190612f3e565b6101f9610b5b565b60405190815260200161015c565b61021082610b6b565b61021a8233610b9f565b8061022483610bec565b600101906102329082612ff1565b5060405133906102439083906130b1565b604051908190038120906001600160801b038516907f63b42abaf7e145a993f20bc64259f45d09c43d18838ab0bca078b15093ac55f490600090a45050565b61028c8133610b9f565b600061029782610bec565b60030180546001600160a01b0319166001600160a01b039290921691909117905560405133906001600160801b038316907fa20a605599b6da4a06e0662f1284c442a576bc452b77a38c8c55805cb82a186590600090a350565b6102f9610c49565b80610302610c86565b5550565b61030f82610b6b565b6103198233610b9f565b600061032483610bec565b905061032f81610cdc565b60008061033c8385610e53565b915091506000806000856005018054905087511061035e576005860154610361565b86515b90505b808310156104375786838151811061037e5761037e6130cd565b602002602001015186600501848154811061039b5761039b6130cd565b60009182526020918290208351928401516001600160801b03938416600160801b918516919091021760029290920201908155604090920151600190920180546001600160801b031916929091169190911790558651879084908110610403576104036130cd565b6020026020010151602001516001600160801b03168261042391906130f9565b91508261042f8161310c565b935050610364565b86518310156105015785600501878481518110610456576104566130cd565b6020908102919091018101518254600180820185556000948552938390208251938301516001600160801b03948516600160801b9186169190910217600290920201908155604090910151920180546001600160801b0319169290911691909117905586518790849081106104cd576104cd6130cd565b6020026020010151602001516001600160801b0316826104ed91906130f9565b9150826104f98161310c565b935050610437565b6005860154600090610514908590613125565b9050600093505b80841015610573578660050180548061053657610536613138565b60008281526020812060026000199093019283020190815560010180546001600160801b031916905590558361056b8161310c565b94505061051b565b600093505b8451841080156105ab5750848481518110610595576105956130cd565b60200260200101516001600160801b0316600014155b156105e9576105d68585815181106105c5576105c56130cd565b60200260200101518a600080611480565b50836105e18161310c565b945050610578565b6105f2836114ec565b6004880180546001600160801b0319166001600160801b039290921691909117905561061d87610cdc565b600093505b855184108015610655575085848151811061063f5761063f6130cd565b60200260200101516001600160801b0316600014155b156106e75761068461067f878681518110610672576106726130cd565b602002602001015161151a565b61155a565b156106d55785848151811061069b5761069b6130cd565b60200260200101516040516391b9419f60e01b81526004016106cc91906001600160801b0391909116815260200190565b60405180910390fd5b836106df8161310c565b945050610622565b336001600160a01b0316896001600160801b03167fdd812c2e47943d98e6c66b2b9872d1f9270b8523c82eb60ad5c8d580a614081c8a60405161072a9190612eb2565b60405180910390a3505050505050505050565b6107478133610b9f565b8161075182610bec565b60030180546001600160a01b0319166001600160a01b0392831617905560405133918416906001600160801b038416907f55d98f82a53fb5776e9ea48d624ab9cb015b51a45249b1ed8425fc857c82f4f890600090a45050565b60006107b682610bec565b600301546001600160a01b031692915050565b60006107d482610bec565b600201546001600160a01b031692915050565b60006107f282610bec565b60038101549091506001600160a01b031633146108245760405163472511eb60e11b81523360048201526024016106cc565b600281018054336001600160a01b0319918216811790925560038301805490911690556040516001600160801b038416907f4f86f2ce8b08e27d0e470f4269b71c3bbc68407d51a2e692f6573236074ebc5a90600090a35050565b600061088a82610bec565b60038101549091506001600160a01b031633146108bc5760405163472511eb60e11b81523360048201526024016106cc565b6003810180546001600160a01b031916905560405133906001600160801b038416907f28301da5fb0feefb138efa6310af4547a74f415d62616f90519436dc169c3ae090600090a35050565b61091e6918dc99585d19541bdbdb60b21b611585565b6001600160a01b0381166109455760405163d92e233d60e01b815260040160405180910390fd5b61094f82826115ac565b5060405133906001600160a01b038316906001600160801b038516907fb1517ad708e5f9a104c30d3f1ff749d55833b1d03bf472013c29888e741cf34090600090a45050565b606060006109a283610bec565b600581015490915060009067ffffffffffffffff8111156109c5576109c5612bef565b604051908082528060200260200182016040528015610a1057816020015b60408051606081018252600080825260208083018290529282015282526000199092019101816109e35790505b50905060005b6005830154811015610ab557826005018181548110610a3757610a376130cd565b600091825260209182902060408051606081018252600290930290910180546001600160801b038082168552600160801b9091041693830193909352600190920154600f0b918101919091528251839083908110610a9757610a976130cd565b60200260200101819052508080610aad9061310c565b915050610a16565b509392505050565b6060610ac882610bec565b6001018054610ad690612f71565b80601f0160208091040260200160405190810160405280929190818152602001828054610b0290612f71565b8015610b4f5780601f10610b2457610100808354040283529160200191610b4f565b820191906000526020600020905b815481529060010190602001808311610b3257829003601f168201915b50505050509050919050565b6000610b65610c86565b54919050565b610b748161162d565b610b9c576040516332b961eb60e01b81526001600160801b03821660048201526024016106cc565b50565b806001600160a01b0316610bb283610bec565b600201546001600160a01b031614610be85760405163472511eb60e11b81526001600160a01b03821660048201526024016106cc565b5050565b60008082604051602001610c2a9190604080825260049082015263141bdbdb60e21b60608201526001600160801b0391909116602082015260800190565b60408051601f1981840301815291905280516020909101209392505050565b610c51611665565b6001600160a01b0316336001600160a01b031614610c845760405163472511eb60e11b81523360048201526024016106cc565b565b600080604051602001610cbe906020808252601190820152702837b7b621b7b73334b3bab930ba34b7b760791b604082015260600190565b60408051601f19818403018152919052805160209091012092915050565b60048101546001600160801b03166000819003610cf7575050565b600682015460048301546001600160801b0390911690600160801b9004600f0b6000805b6005860154811015610e3e576000866005018281548110610d3e57610d3e6130cd565b60009182526020822060029091020180549092506001600160801b03600160801b909104169087610d6f838961314e565b610d79919061317b565b90506000610d8689611683565b610d8f84611683565b88600f0b610d9d919061318f565b610da791906131bf565b8454909150600090610dc1906001600160801b031661151a565b8054909150600090610ddf908d906001600160801b031686866116ad565b6001870154909150600f0b808212610df75780610df9565b815b87548e54919350610e18916001600160801b0391821691168488611480565b610e22908a6131ed565b9850505050505050508080610e369061310c565b915050610d1b565b50610e4c6006860182611785565b5050505050565b606080600080600080876005018054905067ffffffffffffffff811115610e7c57610e7c612bef565b604051908082528060200260200182016040528015610ea5578160200160208202803683370190505b50600589015490965067ffffffffffffffff811115610ec657610ec6612bef565b604051908082528060200260200182016040528015610eef578160200160208202803683370190505b5094506000805b8851811015610f4557888181518110610f1157610f116130cd565b6020026020010151602001516001600160801b031682610f3191906130f9565b915080610f3d8161310c565b915050610ef6565b5060005b88518110156113f057826001600160801b0316898281518110610f6e57610f6e6130cd565b6020026020010151600001516001600160801b0316116110065760408051634bab873760e11b8152600481019190915260076044820152666d61726b65747360c81b606482015260806024820152602c60848201527f6d75737420626520737570706c69656420696e207374726963746c792061736360a48201526b32b73234b7339037b93232b960a11b60c482015260e4016106cc565b888181518110611018576110186130cd565b6020026020010151600001519250888181518110611038576110386130cd565b6020026020010151602001516001600160801b03166000036110bd5760408051634bab873760e11b8152600481019190915260076044820152667765696768747360c81b606482015260806024820152601760848201527f776569676874206d757374206265206e6f6e2d7a65726f00000000000000000060a482015260c4016106cc565b60058a01548610801561112357508881815181106110dd576110dd6130cd565b6020026020010151600001516001600160801b03168a6005018781548110611107576111076130cd565b60009182526020909120600290910201546001600160801b0316105b156111f85789600501868154811061113d5761113d6130cd565b60009182526020909120600290910201546001600160801b031688866111628161310c565b975081518110611174576111746130cd565b6001600160801b039092166020928302919091019091015287611198600187613125565b815181106111a8576111a86130cd565b60200260200101518785806111bc9061310c565b9650815181106111ce576111ce6130cd565b6001600160801b0390921660209283029190910190910152856111f08161310c565b9650506110bd565b60058a01548610801561125e5750888181518110611218576112186130cd565b6020026020010151600001516001600160801b03168a6005018781548110611242576112426130cd565b60009182526020909120600290910201546001600160801b0316145b156113de5760006112a9836112a360098d8681518110611280576112806130cd565b6020026020010151602001516001600160801b031661184290919063ffffffff16565b90611860565b60048c015460058d018054929350600092611307926001600160801b0316916112a391600991908d9081106112e0576112e06130cd565b6000918252602090912060029091020154600160801b90046001600160801b031690611842565b90508b600501888154811061131e5761131e6130cd565b906000526020600020906002020160010160009054906101000a9004600f0b600f0b8b8481518110611352576113526130cd565b602002602001015160400151600f0b128061136c57508082105b156113ce578a8381518110611383576113836130cd565b6020026020010151600001518a888061139b9061310c565b9950815181106113ad576113ad6130cd565b60200260200101906001600160801b031690816001600160801b0316815250505b876113d88161310c565b98505050505b806113e88161310c565b915050610f49565b505b600589015485101561147457886005018581548110611413576114136130cd565b60009182526020909120600290910201546001600160801b031686846114388161310c565b95508151811061144a5761144a6130cd565b6001600160801b03909216602092830291909101909101528461146c8161310c565b9550506113f2565b50505050509250929050565b60008061148c8661151a565b60018101549091506001600160a01b03166114c55760405163784060f560e11b81526001600160801b03871660048201526024016106cc565b6114d4816402540be3ff61187f565b6114e081868587611927565b9150505b949350505050565b60006001600160801b0382111561151657604051637d5864af60e11b815260040160405180910390fd5b5090565b60008082604051602001610c2a919060408082526006908201526513585c9ad95d60d21b60608201526001600160801b0391909116602082015260800190565b600061156582611b65565b6002909201546001600160801b03600160801b9091041691909110919050565b61158f8133611be1565b610b9c5760405163e8298be560e01b815260040160405180910390fd5b60006115b78361162d565b156115e057604051631551f68960e11b81526001600160801b03841660048201526024016106cc565b6115e983610bec565b80546001600160801b0319166001600160801b0394909416939093178355506002820180546001600160a01b0319166001600160a01b039290921691909117905590565b60006001600160801b038216158061165f5750816001600160801b031661165383610bec565b546001600160801b0316145b92915050565b600061166f611c0b565b5461010090046001600160a01b0316919050565b60006001600160ff1b038211156115165760405163677c430560e11b815260040160405180910390fd5b6000806116b98561151a565b905060006116c5610c86565b5460068801549091506001600160801b031660006116e5600a8501611c39565b90508260000361170c57611701670de0b6b3a7640000826131ed565b9450505050506114e4565b8160000361171f5793506114e492505050565b600061172f836112a38a87611860565b905061174461173d84611683565b8890611c53565b61174d82611683565b61175987600a01611c39565b61176391906131ed565b61176d9190613215565b955050505050506114e4565b50505050949350505050565b80600003611791575050565b81546001600160801b031660008190036117be57604051633b182f5560e01b815260040160405180910390fd5b60006117d66b033b2e3c9fd0803ce80000008461318f565b905060006117e383611683565b6117ed90836131bf565b90506117f881611c72565b85548690601090611814908490600160801b9004600f0b613235565b92506101000a8154816001600160801b030219169083600f0b6001600160801b031602179055505050505050565b600061184f82600a613346565b611859908461314e565b9392505050565b600081611875670de0b6b3a76400008561314e565b611859919061317b565b600061188a83611cae565b60038401549091506000906118a290600f0b83613215565b905060006118b1858386611ce9565b915050801580156118ce5750600a8501546001600160801b031615155b15610e4c5760038501546118f3906118e990600f0b85613215565b600a870190611785565b6118fc83611c72565b6003860180546001600160801b03929092166001600160801b03199092169190911790555050505050565b6000806119348686612032565b905060006119456004880187612056565b6020015161195290613352565b600f0b9050611960856114ec565b6001600160801b038781166000908152600c8a016020526040812080546001600160801b031916939092169290921790556119a56119a0600a8a01611c39565b611c72565b905080600f0b8512156119e257600095506119c36004890188612090565b506119dc876119d187611c72565b60078b0191906120ca565b50611a13565b611a03876119ef87611c72565b6119f890613352565b60048b0191906120ca565b50611a116007890188612090565b505b6000611a2c600a8a016001600160801b038a168961218e565b6001600160801b03808a166000908152600c8c0160205260409020549192508291611a5f91600160801b9091041661223f565b600f0b611a6c91906131ed565b6001600160801b03808a166000908152600c8c0160205260409020805490911690559450600f82900b861315611af857611aaf611aaa8a8989612272565b6114ec565b60028a018054601090611ad3908490600160801b90046001600160801b0316613378565b92506101000a8154816001600160801b0302191690836001600160801b031602179055505b81600f0b83131561177957611b11611aaa8a8686612272565b60028a018054601090611b35908490600160801b90046001600160801b0316613398565b92506101000a8154816001600160801b0302191690836001600160801b0316021790555050505050949350505050565b6001810154815460405163c9c04a7f60e01b81526001600160801b0390911660048201526000916001600160a01b03169063c9c04a7f906024015b602060405180830381865afa158015611bbd573d6000803e3d6000fd5b505050506040513d601f19601f8201168201806040525081019061165f91906133b8565b600080611bed846122a3565b600181015490915060ff16806114e457506114e460028201846122dc565b600080604051602001610cbe906020808252600790820152664f776e61626c6560c81b604082015260600190565b805460009061165f90600160801b9004600f0b60096122fe565b600081611c68670de0b6b3a76400008561318f565b61185991906131bf565b600060016001607f1b0319821280611c90575060016001607f1b0382135b1561151657604051634022cc0360e01b815260040160405180910390fd5b6000611cc1611cbc83612315565b611683565b6002830154600f0b611cd5611cbc856123cd565b611cdf91906131ed565b61165f9190613215565b600080831580611d045750600a8501546001600160801b0316155b15611d145750600090508061202a565b600080600080871315611d34575060019150506004860160078701611d44565b5060001991505060078601600487015b60005b86811015611fd957611d588361240c565b15611fd9576000611d688461242f565b9050611d7d8a611d78898c613215565b61244e565b85600f0b611d8b919061318f565b8160200151611d9990613352565b600f0b12611da75750611fd9565b611db1848461248c565b6000611e07611dc28c600a01611c39565b6020840151611dd089613352565b611dda91906133d1565b600f0b611de79190613215565b600a8d0154611dfe906001600160801b031661223f565b600f0b906124bd565b9050611e16600a8c0182611785565b611e2081896131ed565b975060008a1315611f285781516001600160801b039081166000908152600b8d01602052604090205416611e965760405162461bcd60e51b815260206004820152601e60248201527f6e6f20736861726573206265666f7265206163746f722072656d6f76616c000060448201526064016106cc565b8151600090611ebc90611eb790600a8f01906001600160801b03168461218e565b6124d2565b9050611ec7816114ec565b83516001600160801b039081166000908152600c8f016020526040902080549091601091611efe918591600160801b900416613378565b92506101000a8154816001600160801b0302191690836001600160801b0316021790555050611fc4565b81516001600160801b039081166000908152600b8d0160205260409020541615611f945760405162461bcd60e51b815260206004820152601b60248201527f6163746f722068617320736861726573206265666f726520616464000000000060448201526064016106cc565b81516001600160801b039081166000818152600c8e016020526040902054611fc292600a8f0192911661218e565b505b50508080611fd19061310c565b915050611d47565b611fe286611c72565b60038a018054600090611ff9908490600f0b613235565b92506101000a8154816001600160801b030219169083600f0b6001600160801b031602179055508681149450505050505b935093915050565b6001600160801b038181166000908152600b84016020526040812054909116611859565b60408051808201909152600080825260208201526001600160801b03821660009081526002840160205260409020546118599084906124f5565b60408051808201909152600080825260208201526001600160801b038216600090815260028401602052604090205461185990849061257e565b604080518082019091526000808252602082015260018401546000036120f3576120f38461270f565b60408051808201909152600080825260208201526121118585612090565b5084546001600160801b0316856000612129836133f1565b82546101009290920a6001600160801b03818102199093169183160217909155600187810180548201808255600091909152604080518082019091529288168352600f87900b60208401529193506114e492508791849161218991613125565b61275f565b600061219a848461282f565b600084815260018601602052604081209192506121b6846114ec565b825487549192506001600160801b03908116916121d591849116613378565b6121df9190613398565b86546001600160801b03199081166001600160801b03928316178855835416908216178255831561221b578554600160801b9004600f0b61221e565b60005b82546001600160801b03918216600160801b02911617909155509392505050565b600060016001607f1b036001600160801b038316111561151657604051634593782f60e11b815260040160405180910390fd5b60008061228e61228486600a01611c39565b611eb79085613215565b905061229a81856128b0565b95945050505050565b6040805160208101829052600b60608201526a46656174757265466c616760a81b6080820152908101829052600090819060a001610c2a565b6001600160a01b03811660009081526001830160205260408120541515611859565b600061230b82600a613346565b61185990846131bf565b600080805b600d8401548110156123c657600084600d01828154811061233d5761233d6130cd565b600091825260208083206040805180820190915260029093020180546001600160a01b03168084526001909101549183019190915290925061237e906128c5565b9050600061238b8261291c565b90506123a48360200151826128b090919063ffffffff16565b6123ae90866130f9565b945050505080806123be9061310c565b91505061231a565b5092915050565b6001810154815460405163bcec0d0f60e01b81526001600160801b0390911660048201526000916001600160a01b03169063bcec0d0f90602401611ba0565b600181015460009061241f57600061165f565b60018281015461165f9190613125565b604080518082019091526000808252602082015261165f8260016124f5565b600a8201546000906124769061246c906001600160801b031661223f565b8390600f0b611c53565b61248284600a01611c39565b61185991906131ed565b6000612497836129b7565b90506124b7816000015182602001516124af90613352565b8491906120ca565b50505050565b6000670de0b6b3a7640000611c68838561318f565b6000808212156115165760405163029f024d60e31b815260040160405180910390fd5b60408051808201909152600080825260208201526001830154821061252d576040805180820190915260008082526020820152611859565b826001018281548110612542576125426130cd565b6000918252602091829020604080518082019091529101546001600160801b0381168252600160801b9004600f0b918101919091529392505050565b60408051808201909152600080825260208201526001830154821015806125a3575081155b156125c25750604080518082019091526000808252602082015261165f565b60008360010183815481106125d9576125d96130cd565b6000918252602080832060408051808201825293909101546001600160801b038116808552600160801b909104600f0b84840152845260028801909152822082905560018087018054929450916126309190613125565b81548110612640576126406130cd565b6000918252602091829020604080518082019091529101546001600160801b0381168252600160801b9004600f0b91810191909152600186018054919250908061268c5761268c613138565b6000828152602081208201600019908101919091550190556001850154841015610ab5576126bb85828661275f565b610ab5858660010186815481106126d4576126d46130cd565b6000918252602091829020604080518082019091529101546001600160801b0381168252600160801b9004600f0b91810191909152866129d6565b6001810154600003610b9c57604080518082019091526000808252602080830182815260019485018054958601815583529120915190516001600160801b03908116600160801b02911617910155565b60018114806127ac57506001830161277860028361317b565b81548110612788576127886130cd565b6000918252602091829020015490830151600160801b909104600f90810b91900b13155b156127c1576127bc838383612b44565b505050565b61281f83600181016127d460028561317b565b815481106127e4576127e46130cd565b6000918252602091829020604080518082019091529101546001600160801b0381168252600160801b9004600f0b9181019190915283612b44565b6127bc838361218960028561317b565b6000818152600183016020526040812080548454839161286291600160801b91829004600f90810b92909104900b613417565b8254600f9190910b9150600090612881906001600160801b031661223f565b61288e90600f0b8361318f565b90506128a66b033b2e3c9fd0803ce8000000826131bf565b9695505050505050565b6000670de0b6b3a7640000611875838561314e565b60008082604051602001610c2a919060408082526017908201527f436f6c6c61746572616c436f6e66696775726174696f6e00000000000000000060608201526001600160a01b0391909116602082015260800190565b600080612927612b9f565b6040805160208101825291546001600160a01b03168083526004808701549251632a952b2d60e01b81529394506000939192632a952b2d9261296d920190815260200190565b608060405180830381865afa15801561298a573d6000803e3d6000fd5b505050506040513d601f19601f820116820180604052508101906129ae9190613444565b51949350505050565b604080518082019091526000808252602082015261165f82600161257e565b600183015460006129e883600261314e565b9050808211612a01576129fc858585612b44565b610e4c565b6000856001018281548110612a1857612a186130cd565b6000918252602091829020604080518082019091529101546001600160801b0381168252600160801b9004600f0b918101919091529050612a5a8260016130f9565b83118015612aa457508060200151600f0b86600101836001612a7c91906130f9565b81548110612a8c57612a8c6130cd565b600091825260209091200154600160801b9004600f0b135b15612b015760018601612ab68361310c565b92508281548110612ac957612ac96130cd565b6000918252602091829020604080518082019091529101546001600160801b0381168252600160801b9004600f0b9181019190915290505b8460200151600f0b8160200151600f0b13612b2657612b21868686612b44565b612b3c565b612b31868286612b44565b612b3c8686846129d6565b505050505050565b81836001018281548110612b5a57612b5a6130cd565b600091825260208083208451948201516001600160801b03908116600160801b0295811695909517920191909155935190911681526002909301909152604090912055565b600080604051602001610cbe906020808252600d908201526c27b930b1b632a6b0b730b3b2b960991b604082015260600190565b80356001600160801b0381168114612bea57600080fd5b919050565b634e487b7160e01b600052604160045260246000fd5b6040516060810167ffffffffffffffff81118282101715612c2857612c28612bef565b60405290565b604051601f8201601f1916810167ffffffffffffffff81118282101715612c5757612c57612bef565b604052919050565b60008060408385031215612c7257600080fd5b612c7b83612bd3565b915060208084013567ffffffffffffffff80821115612c9957600080fd5b818601915086601f830112612cad57600080fd5b813581811115612cbf57612cbf612bef565b612cd1601f8201601f19168501612c2e565b91508082528784828501011115612ce757600080fd5b80848401858401376000848284010152508093505050509250929050565b600060208284031215612d1757600080fd5b61185982612bd3565b600060208284031215612d3257600080fd5b5035919050565b6000806040808486031215612d4d57600080fd5b612d5684612bd3565b925060208085013567ffffffffffffffff80821115612d7457600080fd5b818701915087601f830112612d8857600080fd5b813581811115612d9a57612d9a612bef565b612da8848260051b01612c2e565b8181528481019250606091820284018501918a831115612dc757600080fd5b938501935b82851015612e2d5780858c031215612de45760008081fd5b612dec612c05565b612df586612bd3565b8152612e02878701612bd3565b878201528786013580600f0b8114612e1a5760008081fd5b8189015284529384019392850192612dcc565b508096505050505050509250929050565b80356001600160a01b0381168114612bea57600080fd5b60008060408385031215612e6857600080fd5b612e7183612e3e565b9150612e7f60208401612bd3565b90509250929050565b60008060408385031215612e9b57600080fd5b612ea483612bd3565b9150612e7f60208401612e3e565b602080825282518282018190526000919060409081850190868401855b82811015612f0d57815180516001600160801b039081168652878201511687860152850151600f0b8585015260609093019290850190600101612ecf565b5091979650505050505050565b60005b83811015612f35578181015183820152602001612f1d565b50506000910152565b6020815260008251806020840152612f5d816040850160208701612f1a565b601f01601f19169190910160400192915050565b600181811c90821680612f8557607f821691505b602082108103612fa557634e487b7160e01b600052602260045260246000fd5b50919050565b601f8211156127bc57600081815260208120601f850160051c81016020861015612fd25750805b601f850160051c820191505b81811015612b3c57828155600101612fde565b815167ffffffffffffffff81111561300b5761300b612bef565b61301f816130198454612f71565b84612fab565b602080601f831160018114613054576000841561303c5750858301515b600019600386901b1c1916600185901b178555612b3c565b600085815260208120601f198616915b8281101561308357888601518255948401946001909101908401613064565b50858210156130a15787850151600019600388901b60f8161c191681555b5050505050600190811b01905550565b600082516130c3818460208701612f1a565b9190910192915050565b634e487b7160e01b600052603260045260246000fd5b634e487b7160e01b600052601160045260246000fd5b8082018082111561165f5761165f6130e3565b60006001820161311e5761311e6130e3565b5060010190565b8181038181111561165f5761165f6130e3565b634e487b7160e01b600052603160045260246000fd5b808202811582820484141761165f5761165f6130e3565b634e487b7160e01b600052601260045260246000fd5b60008261318a5761318a613165565b500490565b80820260008212600160ff1b841416156131ab576131ab6130e3565b818105831482151761165f5761165f6130e3565b6000826131ce576131ce613165565b600160ff1b8214600019841416156131e8576131e86130e3565b500590565b808201828112600083128015821682158216171561320d5761320d6130e3565b505092915050565b81810360008312801583831316838312821617156123c6576123c66130e3565b600f81810b9083900b0160016001607f1b03811360016001607f1b03198212171561165f5761165f6130e3565b600181815b8085111561329d578160001904821115613283576132836130e3565b8085161561329057918102915b93841c9390800290613267565b509250929050565b6000826132b45750600161165f565b816132c15750600061165f565b81600181146132d757600281146132e1576132fd565b600191505061165f565b60ff8411156132f2576132f26130e3565b50506001821b61165f565b5060208310610133831016604e8410600b8410161715613320575081810a61165f565b61332a8383613262565b806000190482111561333e5761333e6130e3565b029392505050565b600061185983836132a5565b600081600f0b60016001607f1b0319810361336f5761336f6130e3565b60000392915050565b6001600160801b038181168382160190808211156123c6576123c66130e3565b6001600160801b038281168282160390808211156123c6576123c66130e3565b6000602082840312156133ca57600080fd5b5051919050565b600082600f0b82600f0b0280600f0b91508082146123c6576123c66130e3565b60006001600160801b0380831681810361340d5761340d6130e3565b6001019392505050565b600f82810b9082900b0360016001607f1b0319811260016001607f1b038213171561165f5761165f6130e3565b60006080828403121561345657600080fd5b6040516080810181811067ffffffffffffffff8211171561347957613479612bef565b806040525082518152602083015160208201526040830151604082015260608301516060820152809150509291505056fea264697066735822122089c07d23bdf9bb75dcddfdcafaff7de82a61fcd723d5988f057e87f847feaabb64736f6c63430008110033",
  "linkReferences": {},
  "deployedLinkReferences": {}
}