{
  "_format": "hh-sol-artifact-1",
  "contractName": "PoolModule",
  "sourceName": "contracts/modules/core/PoolModule.sol",
  "abi": [
    {
      "inputs": [
        {
          "internalType": "uint256",
          "name": "marketId",
          "type": "uint256"
        }
      ],
      "name": "CapacityLocked",
      "type": "error"
    },
    {
      "inputs": [],
      "name": "EmptyDistribution",
      "type": "error"
    },
    {
      "inputs": [],
      "name": "FeatureUnavailable",
      "type": "error"
    },
    {
      "inputs": [
        {
          "internalType": "string",
          "name": "incorrectParameter",
          "type": "string"
        },
        {
          "internalType": "string",
          "name": "help",
          "type": "string"
        }
      ],
      "name": "InvalidParameters",
      "type": "error"
    },
    {
      "inputs": [
        {
          "internalType": "uint128",
          "name": "marketId",
          "type": "uint128"
        }
      ],
      "name": "MarketNotFound",
      "type": "error"
    },
    {
      "inputs": [
        {
          "internalType": "uint128",
          "name": "poolId",
          "type": "uint128"
        }
      ],
      "name": "PoolAlreadyExists",
      "type": "error"
    },
    {
      "inputs": [
        {
          "internalType": "uint128",
          "name": "poolId",
          "type": "uint128"
        }
      ],
      "name": "PoolNotFound",
      "type": "error"
    },
    {
      "inputs": [
        {
          "internalType": "uint128",
          "name": "poolId",
          "type": "uint128"
        }
      ],
      "name": "PoolNotFound",
      "type": "error"
    },
    {
      "inputs": [
        {
          "internalType": "address",
          "name": "addr",
          "type": "address"
        }
      ],
      "name": "Unauthorized",
      "type": "error"
    },
    {
      "inputs": [],
      "name": "ZeroAddress",
      "type": "error"
    },
    {
      "anonymous": false,
      "inputs": [
        {
          "indexed": true,
          "internalType": "uint128",
          "name": "poolId",
          "type": "uint128"
        },
        {
          "indexed": true,
          "internalType": "address",
          "name": "owner",
          "type": "address"
        }
      ],
      "name": "NominatedPoolOwner",
      "type": "event"
    },
    {
      "anonymous": false,
      "inputs": [
        {
          "indexed": true,
          "internalType": "uint128",
          "name": "poolId",
          "type": "uint128"
        },
        {
          "components": [
            {
              "internalType": "uint128",
              "name": "market",
              "type": "uint128"
            },
            {
              "internalType": "uint128",
              "name": "weight",
              "type": "uint128"
            },
            {
              "internalType": "int128",
              "name": "maxDebtShareValue",
              "type": "int128"
            }
          ],
          "indexed": false,
          "internalType": "struct MarketConfiguration.Data[]",
          "name": "markets",
          "type": "tuple[]"
        },
        {
          "indexed": true,
          "internalType": "address",
          "name": "sender",
          "type": "address"
        }
      ],
      "name": "PoolConfigurationSet",
      "type": "event"
    },
    {
      "anonymous": false,
      "inputs": [
        {
          "indexed": true,
          "internalType": "uint128",
          "name": "poolId",
          "type": "uint128"
        },
        {
          "indexed": true,
          "internalType": "address",
          "name": "owner",
          "type": "address"
        }
      ],
      "name": "PoolCreated",
      "type": "event"
    },
    {
      "anonymous": false,
      "inputs": [
        {
          "indexed": true,
          "internalType": "uint128",
          "name": "poolId",
          "type": "uint128"
        },
        {
          "indexed": true,
          "internalType": "string",
          "name": "name",
          "type": "string"
        },
        {
          "indexed": true,
          "internalType": "address",
          "name": "sender",
          "type": "address"
        }
      ],
      "name": "PoolNameUpdated",
      "type": "event"
    },
    {
      "anonymous": false,
      "inputs": [
        {
          "indexed": true,
          "internalType": "uint128",
          "name": "poolId",
          "type": "uint128"
        },
        {
          "indexed": true,
          "internalType": "address",
          "name": "owner",
          "type": "address"
        }
      ],
      "name": "PoolNominationRenounced",
      "type": "event"
    },
    {
      "anonymous": false,
      "inputs": [
        {
          "indexed": true,
          "internalType": "uint128",
          "name": "poolId",
          "type": "uint128"
        },
        {
          "indexed": true,
          "internalType": "address",
          "name": "owner",
          "type": "address"
        }
      ],
      "name": "PoolNominationRevoked",
      "type": "event"
    },
    {
      "anonymous": false,
      "inputs": [
        {
          "indexed": true,
          "internalType": "uint128",
          "name": "poolId",
          "type": "uint128"
        },
        {
          "indexed": true,
          "internalType": "address",
          "name": "owner",
          "type": "address"
        }
      ],
      "name": "PoolOwnershipAccepted",
      "type": "event"
    },
    {
      "inputs": [
        {
          "internalType": "uint128",
          "name": "poolId",
          "type": "uint128"
        }
      ],
      "name": "acceptPoolOwnership",
      "outputs": [],
      "stateMutability": "nonpayable",
      "type": "function"
    },
    {
      "inputs": [
        {
          "internalType": "uint128",
          "name": "requestedPoolId",
          "type": "uint128"
        },
        {
          "internalType": "address",
          "name": "owner",
          "type": "address"
        }
      ],
      "name": "createPool",
      "outputs": [],
      "stateMutability": "nonpayable",
      "type": "function"
    },
    {
      "inputs": [],
      "name": "getMinLiquidityRatio",
      "outputs": [
        {
          "internalType": "uint256",
          "name": "",
          "type": "uint256"
        }
      ],
      "stateMutability": "view",
      "type": "function"
    },
    {
      "inputs": [
        {
          "internalType": "uint128",
          "name": "poolId",
          "type": "uint128"
        }
      ],
      "name": "getNominatedPoolOwner",
      "outputs": [
        {
          "internalType": "address",
          "name": "",
          "type": "address"
        }
      ],
      "stateMutability": "view",
      "type": "function"
    },
    {
      "inputs": [
        {
          "internalType": "uint128",
          "name": "poolId",
          "type": "uint128"
        }
      ],
      "name": "getPoolConfiguration",
      "outputs": [
        {
          "components": [
            {
              "internalType": "uint128",
              "name": "market",
              "type": "uint128"
            },
            {
              "internalType": "uint128",
              "name": "weight",
              "type": "uint128"
            },
            {
              "internalType": "int128",
              "name": "maxDebtShareValue",
              "type": "int128"
            }
          ],
          "internalType": "struct MarketConfiguration.Data[]",
          "name": "",
          "type": "tuple[]"
        }
      ],
      "stateMutability": "view",
      "type": "function"
    },
    {
      "inputs": [
        {
          "internalType": "uint128",
          "name": "poolId",
          "type": "uint128"
        }
      ],
      "name": "getPoolName",
      "outputs": [
        {
          "internalType": "string",
          "name": "poolName",
          "type": "string"
        }
      ],
      "stateMutability": "view",
      "type": "function"
    },
    {
      "inputs": [
        {
          "internalType": "uint128",
          "name": "poolId",
          "type": "uint128"
        }
      ],
      "name": "getPoolOwner",
      "outputs": [
        {
          "internalType": "address",
          "name": "",
          "type": "address"
        }
      ],
      "stateMutability": "view",
      "type": "function"
    },
    {
      "inputs": [
        {
          "internalType": "address",
          "name": "nominatedOwner",
          "type": "address"
        },
        {
          "internalType": "uint128",
          "name": "poolId",
          "type": "uint128"
        }
      ],
      "name": "nominatePoolOwner",
      "outputs": [],
      "stateMutability": "nonpayable",
      "type": "function"
    },
    {
      "inputs": [
        {
          "internalType": "uint128",
          "name": "poolId",
          "type": "uint128"
        }
      ],
      "name": "renouncePoolNomination",
      "outputs": [],
      "stateMutability": "nonpayable",
      "type": "function"
    },
    {
      "inputs": [
        {
          "internalType": "uint128",
          "name": "poolId",
          "type": "uint128"
        }
      ],
      "name": "revokePoolNomination",
      "outputs": [],
      "stateMutability": "nonpayable",
      "type": "function"
    },
    {
      "inputs": [
        {
          "internalType": "uint256",
          "name": "minLiquidityRatio",
          "type": "uint256"
        }
      ],
      "name": "setMinLiquidityRatio",
      "outputs": [],
      "stateMutability": "nonpayable",
      "type": "function"
    },
    {
      "inputs": [
        {
          "internalType": "uint128",
          "name": "poolId",
          "type": "uint128"
        },
        {
          "components": [
            {
              "internalType": "uint128",
              "name": "market",
              "type": "uint128"
            },
            {
              "internalType": "uint128",
              "name": "weight",
              "type": "uint128"
            },
            {
              "internalType": "int128",
              "name": "maxDebtShareValue",
              "type": "int128"
            }
          ],
          "internalType": "struct MarketConfiguration.Data[]",
          "name": "newDistributions",
          "type": "tuple[]"
        }
      ],
      "name": "setPoolConfiguration",
      "outputs": [],
      "stateMutability": "nonpayable",
      "type": "function"
    },
    {
      "inputs": [
        {
          "internalType": "uint128",
          "name": "poolId",
          "type": "uint128"
        },
        {
          "internalType": "string",
          "name": "name",
          "type": "string"
        }
      ],
      "name": "setPoolName",
      "outputs": [],
      "stateMutability": "nonpayable",
      "type": "function"
    }
  ],
  "bytecode": "0x608060405234801561001057600080fd5b506153ad806100206000396000f3fe608060405234801561001057600080fd5b50600436106100cf5760003560e01c8063bbdd7c5a1161008c578063caab529b11610066578063caab529b146101f8578063efecf13714610214578063f86e6f9114610244578063fd85c1f814610274576100cf565b8063bbdd7c5a14610190578063c707a39f146101c0578063ca5bed77146101dc576100cf565b806311e72a43146100d45780631f1b33b9146100f057806334078a011461010c5780635d8c8844146101285780636141f7a2146101445780639851af0114610160575b600080fd5b6100ee60048036038101906100e99190613e67565b610292565b005b61010a60048036038101906101059190613ec3565b610336565b005b61012660048036038101906101219190613f26565b6103e5565b005b610142600480360381019061013d91906140bd565b610400565b005b61015e60048036038101906101599190614177565b6109fb565b005b61017a60048036038101906101759190613ec3565b610aaa565b60405161018791906141c6565b60405180910390f35b6101aa60048036038101906101a59190613ec3565b610ae0565b6040516101b791906141c6565b60405180910390f35b6101da60048036038101906101d59190613ec3565b610b16565b005b6101f660048036038101906101f19190613ec3565b610c98565b005b610212600480360381019061020d91906141e1565b610dd7565b005b61022e60048036038101906102299190613ec3565b610ecc565b60405161023b9190614330565b60405180910390f35b61025e60048036038101906102599190613ec3565b611068565b60405161026b91906143da565b60405180910390f35b61027c611106565b604051610289919061440b565b60405180910390f35b61029b82611119565b6102a58233611166565b806102af83611206565b60010190805190602001906102c5929190613bab565b503373ffffffffffffffffffffffffffffffffffffffff16816040516102eb9190614462565b6040518091039020836fffffffffffffffffffffffffffffffff167f63b42abaf7e145a993f20bc64259f45d09c43d18838ab0bca078b15093ac55f460405160405180910390a45050565b6103408133611166565b600061034b82611206565b60030160006101000a81548173ffffffffffffffffffffffffffffffffffffffff021916908373ffffffffffffffffffffffffffffffffffffffff1602179055503373ffffffffffffffffffffffffffffffffffffffff16816fffffffffffffffffffffffffffffffff167fa20a605599b6da4a06e0662f1284c442a576bc452b77a38c8c55805cb82a186560405160405180910390a350565b6103ed61123b565b806103f66112b4565b6000018190555050565b61040982611119565b6104138233611166565b600061041e83611206565b9050610429816112e5565b600080610436838561153c565b915091506000805b846005018054905086511061045a57846005018054905061045d565b85515b8110156105b75785818151811061047757610476614479565b5b602002602001015185600501828154811061049557610494614479565b5b906000526020600020906002020160008201518160000160006101000a8154816fffffffffffffffffffffffffffffffff02191690836fffffffffffffffffffffffffffffffff16021790555060208201518160000160106101000a8154816fffffffffffffffffffffffffffffffff02191690836fffffffffffffffffffffffffffffffff16021790555060408201518160010160006101000a8154816fffffffffffffffffffffffffffffffff0219169083600f0b6fffffffffffffffffffffffffffffffff16021790555090505085818151811061057957610578614479565b5b6020026020010151602001516fffffffffffffffffffffffffffffffff16826105a291906144d7565b915080806105af9061452d565b91505061043e565b5b855181101561071c57846005018682815181106105d8576105d7614479565b5b6020026020010151908060018154018082558091505060019003906000526020600020906002020160009091909190915060008201518160000160006101000a8154816fffffffffffffffffffffffffffffffff02191690836fffffffffffffffffffffffffffffffff16021790555060208201518160000160106101000a8154816fffffffffffffffffffffffffffffffff02191690836fffffffffffffffffffffffffffffffff16021790555060408201518160010160006101000a8154816fffffffffffffffffffffffffffffffff0219169083600f0b6fffffffffffffffffffffffffffffffff16021790555050508581815181106106de576106dd614479565b5b6020026020010151602001516fffffffffffffffffffffffffffffffff168261070791906144d7565b915080806107149061452d565b9150506105b8565b60008186600501805490506107319190614576565b9050600091505b808210156107e95785600501805480610754576107536145aa565b5b6001900381819060005260206000209060020201600080820160006101000a8154906fffffffffffffffffffffffffffffffff02191690556000820160106101000a8154906fffffffffffffffffffffffffffffffff02191690556001820160006101000a8154906fffffffffffffffffffffffffffffffff02191690555050905581806107e19061452d565b925050610738565b600091505b83518210801561082b5750600084838151811061080e5761080d614479565b5b60200260200101516fffffffffffffffffffffffffffffffff1614155b1561086b5761085784838151811061084657610845614479565b5b602002602001015189600080611c87565b5081806108639061452d565b9250506107ee565b828660040160006101000a8154816fffffffffffffffffffffffffffffffff02191690836fffffffffffffffffffffffffffffffff1602179055506108af866112e5565b600091505b8451821080156108f1575060008583815181106108d4576108d3614479565b5b60200260200101516fffffffffffffffffffffffffffffffff1614155b156109905761092161091c86848151811061090f5761090e614479565b5b6020026020010151611d51565b611d86565b1561097d5784828151811061093957610938614479565b5b60200260200101516040517f91b9419f0000000000000000000000000000000000000000000000000000000081526004016109749190614614565b60405180910390fd5b81806109889061452d565b9250506108b4565b3373ffffffffffffffffffffffffffffffffffffffff16886fffffffffffffffffffffffffffffffff167fdd812c2e47943d98e6c66b2b9872d1f9270b8523c82eb60ad5c8d580a614081c896040516109e99190614330565b60405180910390a35050505050505050565b610a058133611166565b81610a0f82611206565b60030160006101000a81548173ffffffffffffffffffffffffffffffffffffffff021916908373ffffffffffffffffffffffffffffffffffffffff1602179055508173ffffffffffffffffffffffffffffffffffffffff16816fffffffffffffffffffffffffffffffff167f8003776a8bebc2616839b1bce6ab7fdb54516369d079fb0bb0550a1965989e6560405160405180910390a35050565b6000610ab582611206565b60030160009054906101000a900473ffffffffffffffffffffffffffffffffffffffff169050919050565b6000610aeb82611206565b60020160009054906101000a900473ffffffffffffffffffffffffffffffffffffffff169050919050565b6000610b2182611206565b90503373ffffffffffffffffffffffffffffffffffffffff168160030160009054906101000a900473ffffffffffffffffffffffffffffffffffffffff1673ffffffffffffffffffffffffffffffffffffffff1614610bb757336040517f8e4a23d6000000000000000000000000000000000000000000000000000000008152600401610bae91906141c6565b60405180910390fd5b338160020160006101000a81548173ffffffffffffffffffffffffffffffffffffffff021916908373ffffffffffffffffffffffffffffffffffffffff16021790555060008160030160006101000a81548173ffffffffffffffffffffffffffffffffffffffff021916908373ffffffffffffffffffffffffffffffffffffffff1602179055503373ffffffffffffffffffffffffffffffffffffffff16826fffffffffffffffffffffffffffffffff167f4f86f2ce8b08e27d0e470f4269b71c3bbc68407d51a2e692f6573236074ebc5a60405160405180910390a35050565b6000610ca382611206565b90503373ffffffffffffffffffffffffffffffffffffffff168160030160009054906101000a900473ffffffffffffffffffffffffffffffffffffffff1673ffffffffffffffffffffffffffffffffffffffff1614610d3957336040517f8e4a23d6000000000000000000000000000000000000000000000000000000008152600401610d3091906141c6565b60405180910390fd5b60008160030160006101000a81548173ffffffffffffffffffffffffffffffffffffffff021916908373ffffffffffffffffffffffffffffffffffffffff1602179055503373ffffffffffffffffffffffffffffffffffffffff16826fffffffffffffffffffffffffffffffff167f28301da5fb0feefb138efa6310af4547a74f415d62616f90519436dc169c3ae060405160405180910390a35050565b610e007f637265617465506f6f6c00000000000000000000000000000000000000000000611dcc565b600073ffffffffffffffffffffffffffffffffffffffff168173ffffffffffffffffffffffffffffffffffffffff161415610e67576040517fd92e233d00000000000000000000000000000000000000000000000000000000815260040160405180910390fd5b610e718282611e0f565b508073ffffffffffffffffffffffffffffffffffffffff16826fffffffffffffffffffffffffffffffff167f4dfd1dac627094e53abc04dd7243d9a095a40b99486b50296644f64deff98bbb60405160405180910390a35050565b60606000610ed983611206565b90506000816005018054905067ffffffffffffffff811115610efe57610efd613d3c565b5b604051908082528060200260200182016040528015610f3757816020015b610f24613c31565b815260200190600190039081610f1c5790505b50905060005b826005018054905081101561105d57826005018181548110610f6257610f61614479565b5b90600052602060002090600202016040518060600160405290816000820160009054906101000a90046fffffffffffffffffffffffffffffffff166fffffffffffffffffffffffffffffffff166fffffffffffffffffffffffffffffffff1681526020016000820160109054906101000a90046fffffffffffffffffffffffffffffffff166fffffffffffffffffffffffffffffffff166fffffffffffffffffffffffffffffffff1681526020016001820160009054906101000a9004600f0b600f0b600f0b8152505082828151811061103f5761103e614479565b5b602002602001018190525080806110559061452d565b915050610f3d565b508092505050919050565b606061107382611206565b60010180546110819061465e565b80601f01602080910402602001604051908101604052809291908181526020018280546110ad9061465e565b80156110fa5780601f106110cf576101008083540402835291602001916110fa565b820191906000526020600020905b8154815290600101906020018083116110dd57829003601f168201915b50505050509050919050565b60006111106112b4565b60000154905090565b61112281611eeb565b61116357806040517f32b961eb00000000000000000000000000000000000000000000000000000000815260040161115a919061469f565b60405180910390fd5b50565b8073ffffffffffffffffffffffffffffffffffffffff1661118683611206565b60020160009054906101000a900473ffffffffffffffffffffffffffffffffffffffff1673ffffffffffffffffffffffffffffffffffffffff161461120257806040517f8e4a23d60000000000000000000000000000000000000000000000000000000081526004016111f991906141c6565b60405180910390fd5b5050565b6000808260405160200161121a9190614706565b60405160208183030381529060405280519060200120905080915050919050565b611243611f5f565b73ffffffffffffffffffffffffffffffffffffffff163373ffffffffffffffffffffffffffffffffffffffff16146112b257336040517f8e4a23d60000000000000000000000000000000000000000000000000000000081526004016112a991906141c6565b60405180910390fd5b565b6000806040516020016112c690614780565b6040516020818303038152906040528051906020012090508091505090565b60008160040160009054906101000a90046fffffffffffffffffffffffffffffffff166fffffffffffffffffffffffffffffffff169050600081141561132b5750611539565b60008260060160000160009054906101000a90046fffffffffffffffffffffffffffffffff16600f0b905060008360040160109054906101000a90046fffffffffffffffffffffffffffffffff1690506000805b856005018054905081101561151d5760008660050182815481106113a6576113a5614479565b5b9060005260206000209060020201905060008160000160109054906101000a90046fffffffffffffffffffffffffffffffff166fffffffffffffffffffffffffffffffff16905060008087136113fd576000611415565b87828861140a91906147a0565b6114149190614829565b5b905060008883886fffffffffffffffffffffffffffffffff1661143891906147a0565b6114429190614829565b9050600061146f8560000160009054906101000a90046fffffffffffffffffffffffffffffffff16611d51565b9050600061147e8c8385611f92565b905060008660010160009054906101000a9004600f0b600f0b90508082126114a657806114a8565b815b91506114f68760000160009054906101000a90046fffffffffffffffffffffffffffffffff168e60000160009054906101000a90046fffffffffffffffffffffffffffffffff168488611c87565b896115019190614864565b98505050505050505080806115159061452d565b91505061137f565b50611534818660060161205390919063ffffffff16565b505050505b50565b606080600080600080876005018054905067ffffffffffffffff81111561156657611565613d3c565b5b6040519080825280602002602001820160405280156115945781602001602082028036833780820191505090505b509550876005018054905067ffffffffffffffff8111156115b8576115b7613d3c565b5b6040519080825280602002602001820160405280156115e65781602001602082028036833780820191505090505b5094506000805b88518110156116475788818151811061160957611608614479565b5b6020026020010151602001516fffffffffffffffffffffffffffffffff168261163291906144d7565b9150808061163f9061452d565b9150506115ed565b5060005b8851811015611bc257826fffffffffffffffffffffffffffffffff1689828151811061167a57611679614479565b5b6020026020010151600001516fffffffffffffffffffffffffffffffff16116116d8576040517f01674a6b0000000000000000000000000000000000000000000000000000000081526004016116cf906149b6565b60405180910390fd5b8881815181106116eb576116ea614479565b5b6020026020010151600001519250600089828151811061170e5761170d614479565b5b6020026020010151602001516fffffffffffffffffffffffffffffffff16141561176d576040517f01674a6b00000000000000000000000000000000000000000000000000000000815260040161176490614a81565b60405180910390fd5b5b896005018054905086108015611808575088818151811061179257611791614479565b5b6020026020010151600001516fffffffffffffffffffffffffffffffff168a60050187815481106117c6576117c5614479565b5b906000526020600020906002020160000160009054906101000a90046fffffffffffffffffffffffffffffffff166fffffffffffffffffffffffffffffffff16105b1561192d5789600501868154811061182357611822614479565b5b906000526020600020906002020160000160009054906101000a90046fffffffffffffffffffffffffffffffff1688868061185d9061452d565b9750815181106118705761186f614479565b5b60200260200101906fffffffffffffffffffffffffffffffff1690816fffffffffffffffffffffffffffffffff1681525050876001866118b09190614576565b815181106118c1576118c0614479565b5b60200260200101518785806118d59061452d565b9650815181106118e8576118e7614479565b5b60200260200101906fffffffffffffffffffffffffffffffff1690816fffffffffffffffffffffffffffffffff168152505085806119259061452d565b96505061176e565b8960050180549050861080156119c7575088818151811061195157611950614479565b5b6020026020010151600001516fffffffffffffffffffffffffffffffff168a600501878154811061198557611984614479565b5b906000526020600020906002020160000160009054906101000a90046fffffffffffffffffffffffffffffffff166fffffffffffffffffffffffffffffffff16145b15611baf578960050186815481106119e2576119e1614479565b5b906000526020600020906002020160010160009054906101000a9004600f0b600f0b898281518110611a1757611a16614479565b5b602002602001015160400151600f0b1280611b2a5750611ad68a60040160009054906101000a90046fffffffffffffffffffffffffffffffff166fffffffffffffffffffffffffffffffff16633b9aca008c6005018981548110611a7e57611a7d614479565b5b906000526020600020906002020160000160109054906101000a90046fffffffffffffffffffffffffffffffff16611ab69190614ab4565b6fffffffffffffffffffffffffffffffff1661216090919063ffffffff16565b611b2883633b9aca008c8581518110611af257611af1614479565b5b602002602001015160200151611b089190614ab4565b6fffffffffffffffffffffffffffffffff1661216090919063ffffffff16565b105b15611ba057888181518110611b4257611b41614479565b5b602002602001015160000151888680611b5a9061452d565b975081518110611b6d57611b6c614479565b5b60200260200101906fffffffffffffffffffffffffffffffff1690816fffffffffffffffffffffffffffffffff16815250505b8580611bab9061452d565b9650505b8080611bba9061452d565b91505061164b565b505b8860050180549050851015611c7b57886005018581548110611be957611be8614479565b5b906000526020600020906002020160000160009054906101000a90046fffffffffffffffffffffffffffffffff16868480611c239061452d565b955081518110611c3657611c35614479565b5b60200260200101906fffffffffffffffffffffffffffffffff1690816fffffffffffffffffffffffffffffffff16815250508480611c739061452d565b955050611bc4565b50505050509250929050565b600080611c9386611d51565b9050600073ffffffffffffffffffffffffffffffffffffffff168160010160009054906101000a900473ffffffffffffffffffffffffffffffffffffffff1673ffffffffffffffffffffffffffffffffffffffff161415611d2b57856040517ff080c1ea000000000000000000000000000000000000000000000000000000008152600401611d22919061469f565b60405180910390fd5b611d3a816402540be3ff612189565b611d46818685876125cf565b915050949350505050565b60008082604051602001611d659190614b4a565b60405160208183030381529060405280519060200120905080915050919050565b6000611d918261282c565b8260020160109054906101000a90046fffffffffffffffffffffffffffffffff166fffffffffffffffffffffffffffffffff16109050919050565b611dd681336128f3565b611e0c576040517fe8298be500000000000000000000000000000000000000000000000000000000815260040160405180910390fd5b50565b6000611e1a83611eeb565b15611e5c57826040517f2aa3ed12000000000000000000000000000000000000000000000000000000008152600401611e53919061469f565b60405180910390fd5b611e6583611206565b9050828160000160006101000a8154816fffffffffffffffffffffffffffffffff02191690836fffffffffffffffffffffffffffffffff160217905550818160020160006101000a81548173ffffffffffffffffffffffffffffffffffffffff021916908373ffffffffffffffffffffffffffffffffffffffff16021790555092915050565b600080826fffffffffffffffffffffffffffffffff161480611f585750816fffffffffffffffffffffffffffffffff16611f2483611206565b60000160009054906101000a90046fffffffffffffffffffffffffffffffff166fffffffffffffffffffffffffffffffff16145b9050919050565b6000611f69612939565b60000160019054906101000a900473ffffffffffffffffffffffffffffffffffffffff16905090565b600080611f9d6112b4565b600001549050600080821415611fbd57670de0b6b3a7640000905061201a565b6120178660060160000160009054906101000a90046fffffffffffffffffffffffffffffffff166fffffffffffffffffffffffffffffffff16612009848761216090919063ffffffff16565b61216090919063ffffffff16565b90505b8061203b86600a0160000160109054906101000a9004600f0b600f0b61296a565b600f0b6120489190614864565b925050509392505050565b60008114156120615761215c565b60008260000160009054906101000a90046fffffffffffffffffffffffffffffffff166fffffffffffffffffffffffffffffffff16905060008114156120d3576040517f3b182f5500000000000000000000000000000000000000000000000000000000815260040160405180910390fd5b60006b033b2e3c9fd0803ce8000000836120ed9190614b78565b9050600082826120fd9190614c8f565b9050808560000160108282829054906101000a9004600f0b61211f9190614cf9565b92506101000a8154816fffffffffffffffffffffffffffffffff0219169083600f0b6fffffffffffffffffffffffffffffffff1602179055505050505b5050565b600081670de0b6b3a76400008461217791906147a0565b6121819190614829565b905092915050565b600082600a0160000160009054906101000a90046fffffffffffffffffffffffffffffffff166fffffffffffffffffffffffffffffffff1614156121cc576125cb565b60006121d783612983565b905060008360030160009054906101000a9004600f0b600f0b9050600081836122009190614d7d565b9050600061223d86600a0160000160009054906101000a90046fffffffffffffffffffffffffffffffff16600f0b836129c790919063ffffffff16565b61225d87600a0160000160109054906101000a9004600f0b600f0b61296a565b600f0b61226a9190614864565b905060005b85811015612563576000612285886004016129f0565b141561229057612563565b600061229e88600401612a23565b602001516122ab90614e11565b600f0b90508281126122bd5750612563565b60006122cb89600401612a3d565b9050600081600001516fffffffffffffffffffffffffffffffff169050600082602001516122f890614e11565b9050600061236261231f8d600a0160000160109054906101000a9004600f0b600f0b61296a565b8361232a9190614e5a565b600f0b8d600a0160000160009054906101000a90046fffffffffffffffffffffffffffffffff16600f0b612a5790919063ffffffff16565b905061237a818d600a0161205390919063ffffffff16565b80896123869190614864565b9850888a6123949190614d7d565b975060006123b18460001b8e600a01612a8090919063ffffffff16565b116123f1576040517f08c379a00000000000000000000000000000000000000000000000000000000081526004016123e890614f2a565b60405180910390fd5b600061240f8460001b60008f600a01612ad19092919063ffffffff16565b9050808d600c016000866fffffffffffffffffffffffffffffffff166fffffffffffffffffffffffffffffffff168152602001908152602001600020600082825461245a9190614864565b9250508190555060008d600a0160000160009054906101000a90046fffffffffffffffffffffffffffffffff166fffffffffffffffffffffffffffffffff1614156124ed57898d60030160006101000a8154816fffffffffffffffffffffffffffffffff0219169083600f0b6fffffffffffffffffffffffffffffffff16021790555050505050505050505050506125cb565b6125268d600a0160000160009054906101000a90046fffffffffffffffffffffffffffffffff16600f0b8a6129c790919063ffffffff16565b8d600a0160000160109054906101000a9004600f0b600f0b6125489190614864565b9750505050505050808061255b9061452d565b91505061226f565b5082846125709190614d7d565b91506125888287600a0161205390919063ffffffff16565b838660030160006101000a8154816fffffffffffffffffffffffffffffffff0219169083600f0b6fffffffffffffffffffffffffffffffff160217905550505050505b5050565b6000806125dc8686612cc6565b905060006125f68688600401612cfb90919063ffffffff16565b6020015161260390614e11565b600f0b9050600061262a88600a0160000160109054906101000a9004600f0b600f0b61296a565b905080600f0b851361265657600095506126508789600401612d4e90919063ffffffff16565b50612679565b612677878661266490614e11565b8a600401612da19092919063ffffffff16565b505b6126a6876fffffffffffffffffffffffffffffffff1660001b878a600a01612ad19092919063ffffffff16565b88600c016000896fffffffffffffffffffffffffffffffff166fffffffffffffffffffffffffffffffff168152602001908152602001600020546126ea9190614864565b9350600088600c016000896fffffffffffffffffffffffffffffffff166fffffffffffffffffffffffffffffffff1681526020019081526020016000208190555080600f0b8513156127a657612741888787612eb1565b8860020160108282829054906101000a90046fffffffffffffffffffffffffffffffff1661276f9190614f4a565b92506101000a8154816fffffffffffffffffffffffffffffffff02191690836fffffffffffffffffffffffffffffffff1602179055505b80600f0b821315612821576127bc888484612eb1565b8860020160108282829054906101000a90046fffffffffffffffffffffffffffffffff166127ea9190614f90565b92506101000a8154816fffffffffffffffffffffffffffffffff02191690836fffffffffffffffffffffffffffffffff1602179055505b505050949350505050565b60008160010160009054906101000a900473ffffffffffffffffffffffffffffffffffffffff1673ffffffffffffffffffffffffffffffffffffffff1663c9c04a7f8360000160009054906101000a90046fffffffffffffffffffffffffffffffff166040518263ffffffff1660e01b81526004016128ab919061469f565b602060405180830381865afa1580156128c8573d6000803e3d6000fd5b505050506040513d601f19601f820116820180604052508101906128ec9190614fd9565b9050919050565b6000806128ff84612f01565b90508060010160009054906101000a900460ff1680612930575061292f8382600201612f3690919063ffffffff16565b5b91505092915050565b60008060405160200161294b90615052565b6040516020818303038152906040528051906020012090508091505090565b6000633b9aca008261297c9190615072565b9050919050565b600061298e82612f66565b8260020160009054906101000a9004600f0b600f0b6129ac84613074565b6129b69190614864565b6129c09190614d7d565b9050919050565b600081670de0b6b3a7640000846129de9190614b78565b6129e89190614c8f565b905092915050565b600080826001018054905011612a07576000612a1c565b60018260010180549050612a1b9190614576565b5b9050919050565b612a2b613c79565b612a3682600161313b565b9050919050565b612a45613c79565b612a5082600161321d565b9050919050565b6000670de0b6b3a76400008284612a6e9190614b78565b612a789190614c8f565b905092915050565b600082600101600083815260200190815260200160002060000160009054906101000a90046fffffffffffffffffffffffffffffffff166fffffffffffffffffffffffffffffffff16905092915050565b600080846001016000858152602001908152602001600020905060008160000160109054906101000a9004600f0b8660000160109054906101000a9004600f0b612b1b9190614e5a565b905060008260000160009054906101000a90046fffffffffffffffffffffffffffffffff16600f0b82600f0b612b519190614b78565b90506b033b2e3c9fd0803ce800000081612b6b9190614c8f565b93508260000160009054906101000a90046fffffffffffffffffffffffffffffffff166fffffffffffffffffffffffffffffffff16858860000160009054906101000a90046fffffffffffffffffffffffffffffffff166fffffffffffffffffffffffffffffffff16612bde91906144d7565b612be89190614576565b8760000160006101000a8154816fffffffffffffffffffffffffffffffff02191690836fffffffffffffffffffffffffffffffff160217905550848360000160006101000a8154816fffffffffffffffffffffffffffffffff02191690836fffffffffffffffffffffffffffffffff16021790555060008514612c7c578660000160109054906101000a9004600f0b612c7f565b60005b8360000160106101000a8154816fffffffffffffffffffffffffffffffff0219169083600f0b6fffffffffffffffffffffffffffffffff1602179055505050509392505050565b6000612cf3826fffffffffffffffffffffffffffffffff1660001b84600a01612a8090919063ffffffff16565b905092915050565b612d03613c79565b612d4683846002016000856fffffffffffffffffffffffffffffffff166fffffffffffffffffffffffffffffffff1681526020019081526020016000205461313b565b905092915050565b612d56613c79565b612d9983846002016000856fffffffffffffffffffffffffffffffff166fffffffffffffffffffffffffffffffff1681526020019081526020016000205461321d565b905092915050565b612da9613c79565b600084600101805490501415612dc357612dc284613526565b5b612dcb613c79565b612dd58585612d4e565b5084600001600081819054906101000a90046fffffffffffffffffffffffffffffffff1680929190612e06906150dc565b91906101000a8154816fffffffffffffffffffffffffffffffff02191690836fffffffffffffffffffffffffffffffff16021790555050846001016001816001815401808255809150500390600052602060002050506040518060400160405280856fffffffffffffffffffffffffffffffff16815260200184600f0b8152509050612ea6858260018860010180549050612ea19190614576565b613612565b809150509392505050565b600080612ed485600a0160000160109054906101000a9004600f0b600f0b61296a565b600f0b83612ee29190614d7d565b9050612ef7848261374190919063ffffffff16565b9150509392505050565b60008082604051602001612f15919061517a565b60405160208183030381529060405280519060200120905080915050919050565b6000612f5e836000018373ffffffffffffffffffffffffffffffffffffffff1660001b61376a565b905092915050565b6000806000905060005b83600d018054905081101561306a57600084600d018281548110612f9757612f96614479565b5b90600052602060002090600202016040518060400160405290816000820160009054906101000a900473ffffffffffffffffffffffffffffffffffffffff1673ffffffffffffffffffffffffffffffffffffffff1673ffffffffffffffffffffffffffffffffffffffff16815260200160018201548152505090506000613021826000015161378d565b9050600061302e826137c2565b905061304783602001518261374190919063ffffffff16565b8561305291906144d7565b945050505080806130629061452d565b915050612f70565b5080915050919050565b60008160010160009054906101000a900473ffffffffffffffffffffffffffffffffffffffff1673ffffffffffffffffffffffffffffffffffffffff1663bcec0d0f8360000160009054906101000a90046fffffffffffffffffffffffffffffffff166040518263ffffffff1660e01b81526004016130f3919061469f565b602060405180830381865afa158015613110573d6000803e3d6000fd5b505050506040513d601f19601f820116820180604052508101906131349190614fd9565b9050919050565b613143613c79565b8183600101805490501161318257604051806040016040528060006fffffffffffffffffffffffffffffffff1681526020016000600f0b815250613215565b82600101828154811061319857613197614479565b5b906000526020600020016040518060400160405290816000820160009054906101000a90046fffffffffffffffffffffffffffffffff166fffffffffffffffffffffffffffffffff166fffffffffffffffffffffffffffffffff1681526020016000820160109054906101000a9004600f0b600f0b600f0b815250505b905092915050565b613225613c79565b81836001018054905011158061323c575060008211155b1561327457604051806040016040528060006fffffffffffffffffffffffffffffffff1681526020016000600f0b8152509050613520565b600083600101838154811061328c5761328b614479565b5b906000526020600020016040518060400160405290816000820160009054906101000a90046fffffffffffffffffffffffffffffffff166fffffffffffffffffffffffffffffffff166fffffffffffffffffffffffffffffffff1681526020016000820160109054906101000a9004600f0b600f0b600f0b81525050905083600201600082600001516fffffffffffffffffffffffffffffffff166fffffffffffffffffffffffffffffffff16815260200190815260200160002060009055600084600101600186600101805490506133659190614576565b8154811061337657613375614479565b5b906000526020600020016040518060400160405290816000820160009054906101000a90046fffffffffffffffffffffffffffffffff166fffffffffffffffffffffffffffffffff166fffffffffffffffffffffffffffffffff1681526020016000820160109054906101000a9004600f0b600f0b600f0b81525050905084600101805480613408576134076145aa565b5b60019003818190600052602060002001600080820160006101000a8154906fffffffffffffffffffffffffffffffff02191690556000820160106101000a8154906fffffffffffffffffffffffffffffffff021916905550509055846001018054905084101561351a5761347d858286613612565b6135198586600101868154811061349757613496614479565b5b906000526020600020016040518060400160405290816000820160009054906101000a90046fffffffffffffffffffffffffffffffff166fffffffffffffffffffffffffffffffff166fffffffffffffffffffffffffffffffff1681526020016000820160109054906101000a9004600f0b600f0b600f0b81525050866138aa565b5b81925050505b92915050565b60008160010180549050141561360f5780600101604051806040016040528060006fffffffffffffffffffffffffffffffff1681526020016000600f0b8152509080600181540180825580915050600190039060005260206000200160009091909190915060008201518160000160006101000a8154816fffffffffffffffffffffffffffffffff02191690836fffffffffffffffffffffffffffffffff16021790555060208201518160000160106101000a8154816fffffffffffffffffffffffffffffffff0219169083600f0b6fffffffffffffffffffffffffffffffff16021790555050505b50565b600181148061366757508260010160028261362d9190614829565b8154811061363e5761363d614479565b5b9060005260206000200160000160109054906101000a9004600f0b600f0b8260200151600f0b13155b1561367c57613677838383613abf565b61373c565b61372483846001016002846136919190614829565b815481106136a2576136a1614479565b5b906000526020600020016040518060400160405290816000820160009054906101000a90046fffffffffffffffffffffffffffffffff166fffffffffffffffffffffffffffffffff166fffffffffffffffffffffffffffffffff1681526020016000820160109054906101000a9004600f0b600f0b600f0b8152505083613abf565b61373b83836002846137369190614829565b613612565b5b505050565b6000670de0b6b3a7640000828461375891906147a0565b6137629190614829565b905092915050565b600080836001016000848152602001908152602001600020541415905092915050565b600080826040516020016137a191906151f4565b60405160208183030381529060405280519060200120905080915050919050565b6000808260040160009054906101000a900473ffffffffffffffffffffffffffffffffffffffff1673ffffffffffffffffffffffffffffffffffffffff1663feaf968c6040518163ffffffff1660e01b815260040160a060405180830381865afa158015613834573d6000803e3d6000fd5b505050506040513d601f19601f820116820180604052508101906138589190615290565b505050915050600081136138a1576040517f08c379a000000000000000000000000000000000000000000000000000000000815260040161389890615357565b60405180910390fd5b80915050919050565b60008360010180549050905060006002836138c591906147a0565b90508082116138de576138d9858585613abf565b613ab8565b60008560010182815481106138f6576138f5614479565b5b906000526020600020016040518060400160405290816000820160009054906101000a90046fffffffffffffffffffffffffffffffff166fffffffffffffffffffffffffffffffff166fffffffffffffffffffffffffffffffff1681526020016000820160109054906101000a9004600f0b600f0b600f0b81525050905060018261398191906144d7565b831180156139d457508060200151600f0b866001016001846139a391906144d7565b815481106139b4576139b3614479565b5b9060005260206000200160000160109054906101000a9004600f0b600f0b135b15613a7a5785600101826139e79061452d565b925082815481106139fb576139fa614479565b5b906000526020600020016040518060400160405290816000820160009054906101000a90046fffffffffffffffffffffffffffffffff166fffffffffffffffffffffffffffffffff166fffffffffffffffffffffffffffffffff1681526020016000820160109054906101000a9004600f0b600f0b600f0b8152505090505b8460200151600f0b8160200151600f0b13613a9f57613a9a868686613abf565b613ab6565b613aaa868286613abf565b613ab58686846138aa565b5b505b5050505050565b81836001018281548110613ad657613ad5614479565b5b9060005260206000200160008201518160000160006101000a8154816fffffffffffffffffffffffffffffffff02191690836fffffffffffffffffffffffffffffffff16021790555060208201518160000160106101000a8154816fffffffffffffffffffffffffffffffff0219169083600f0b6fffffffffffffffffffffffffffffffff1602179055509050508083600201600084600001516fffffffffffffffffffffffffffffffff166fffffffffffffffffffffffffffffffff16815260200190815260200160002081905550505050565b828054613bb79061465e565b90600052602060002090601f016020900481019282613bd95760008555613c20565b82601f10613bf257805160ff1916838001178555613c20565b82800160010185558215613c20579182015b82811115613c1f578251825591602001919060010190613c04565b5b509050613c2d9190613ca8565b5090565b604051806060016040528060006fffffffffffffffffffffffffffffffff16815260200160006fffffffffffffffffffffffffffffffff1681526020016000600f0b81525090565b604051806040016040528060006fffffffffffffffffffffffffffffffff1681526020016000600f0b81525090565b5b80821115613cc1576000816000905550600101613ca9565b5090565b6000604051905090565b600080fd5b600080fd5b60006fffffffffffffffffffffffffffffffff82169050919050565b613cfe81613cd9565b8114613d0957600080fd5b50565b600081359050613d1b81613cf5565b92915050565b600080fd5b600080fd5b6000601f19601f8301169050919050565b7f4e487b7100000000000000000000000000000000000000000000000000000000600052604160045260246000fd5b613d7482613d2b565b810181811067ffffffffffffffff82111715613d9357613d92613d3c565b5b80604052505050565b6000613da6613cc5565b9050613db28282613d6b565b919050565b600067ffffffffffffffff821115613dd257613dd1613d3c565b5b613ddb82613d2b565b9050602081019050919050565b82818337600083830152505050565b6000613e0a613e0584613db7565b613d9c565b905082815260208101848484011115613e2657613e25613d26565b5b613e31848285613de8565b509392505050565b600082601f830112613e4e57613e4d613d21565b5b8135613e5e848260208601613df7565b91505092915050565b60008060408385031215613e7e57613e7d613ccf565b5b6000613e8c85828601613d0c565b925050602083013567ffffffffffffffff811115613ead57613eac613cd4565b5b613eb985828601613e39565b9150509250929050565b600060208284031215613ed957613ed8613ccf565b5b6000613ee784828501613d0c565b91505092915050565b6000819050919050565b613f0381613ef0565b8114613f0e57600080fd5b50565b600081359050613f2081613efa565b92915050565b600060208284031215613f3c57613f3b613ccf565b5b6000613f4a84828501613f11565b91505092915050565b600067ffffffffffffffff821115613f6e57613f6d613d3c565b5b602082029050602081019050919050565b600080fd5b600080fd5b600081600f0b9050919050565b613f9f81613f89565b8114613faa57600080fd5b50565b600081359050613fbc81613f96565b92915050565b600060608284031215613fd857613fd7613f84565b5b613fe26060613d9c565b90506000613ff284828501613d0c565b600083015250602061400684828501613d0c565b602083015250604061401a84828501613fad565b60408301525092915050565b600061403961403484613f53565b613d9c565b9050808382526020820190506060840283018581111561405c5761405b613f7f565b5b835b8181101561408557806140718882613fc2565b84526020840193505060608101905061405e565b5050509392505050565b600082601f8301126140a4576140a3613d21565b5b81356140b4848260208601614026565b91505092915050565b600080604083850312156140d4576140d3613ccf565b5b60006140e285828601613d0c565b925050602083013567ffffffffffffffff81111561410357614102613cd4565b5b61410f8582860161408f565b9150509250929050565b600073ffffffffffffffffffffffffffffffffffffffff82169050919050565b600061414482614119565b9050919050565b61415481614139565b811461415f57600080fd5b50565b6000813590506141718161414b565b92915050565b6000806040838503121561418e5761418d613ccf565b5b600061419c85828601614162565b92505060206141ad85828601613d0c565b9150509250929050565b6141c081614139565b82525050565b60006020820190506141db60008301846141b7565b92915050565b600080604083850312156141f8576141f7613ccf565b5b600061420685828601613d0c565b925050602061421785828601614162565b9150509250929050565b600081519050919050565b600082825260208201905092915050565b6000819050602082019050919050565b61425681613cd9565b82525050565b61426581613f89565b82525050565b606082016000820151614281600085018261424d565b506020820151614294602085018261424d565b5060408201516142a7604085018261425c565b50505050565b60006142b9838361426b565b60608301905092915050565b6000602082019050919050565b60006142dd82614221565b6142e7818561422c565b93506142f28361423d565b8060005b8381101561432357815161430a88826142ad565b9750614315836142c5565b9250506001810190506142f6565b5085935050505092915050565b6000602082019050818103600083015261434a81846142d2565b905092915050565b600081519050919050565b600082825260208201905092915050565b60005b8381101561438c578082015181840152602081019050614371565b8381111561439b576000848401525b50505050565b60006143ac82614352565b6143b6818561435d565b93506143c681856020860161436e565b6143cf81613d2b565b840191505092915050565b600060208201905081810360008301526143f481846143a1565b905092915050565b61440581613ef0565b82525050565b600060208201905061442060008301846143fc565b92915050565b600081905092915050565b600061443c82614352565b6144468185614426565b935061445681856020860161436e565b80840191505092915050565b600061446e8284614431565b915081905092915050565b7f4e487b7100000000000000000000000000000000000000000000000000000000600052603260045260246000fd5b7f4e487b7100000000000000000000000000000000000000000000000000000000600052601160045260246000fd5b60006144e282613ef0565b91506144ed83613ef0565b9250827fffffffffffffffffffffffffffffffffffffffffffffffffffffffffffffffff03821115614522576145216144a8565b5b828201905092915050565b600061453882613ef0565b91507fffffffffffffffffffffffffffffffffffffffffffffffffffffffffffffffff82141561456b5761456a6144a8565b5b600182019050919050565b600061458182613ef0565b915061458c83613ef0565b92508282101561459f5761459e6144a8565b5b828203905092915050565b7f4e487b7100000000000000000000000000000000000000000000000000000000600052603160045260246000fd5b6000819050919050565b60006145fe6145f96145f484613cd9565b6145d9565b613ef0565b9050919050565b61460e816145e3565b82525050565b60006020820190506146296000830184614605565b92915050565b7f4e487b7100000000000000000000000000000000000000000000000000000000600052602260045260246000fd5b6000600282049050600182168061467657607f821691505b6020821081141561468a5761468961462f565b5b50919050565b61469981613cd9565b82525050565b60006020820190506146b46000830184614690565b92915050565b7f506f6f6c00000000000000000000000000000000000000000000000000000000600082015250565b60006146f060048361435d565b91506146fb826146ba565b602082019050919050565b6000604082019050818103600083015261471f816146e3565b905061472e6020830184614690565b92915050565b7f506f6f6c436f6e66696775726174696f6e000000000000000000000000000000600082015250565b600061476a60118361435d565b915061477582614734565b602082019050919050565b600060208201905081810360008301526147998161475d565b9050919050565b60006147ab82613ef0565b91506147b683613ef0565b9250817fffffffffffffffffffffffffffffffffffffffffffffffffffffffffffffffff04831182151516156147ef576147ee6144a8565b5b828202905092915050565b7f4e487b7100000000000000000000000000000000000000000000000000000000600052601260045260246000fd5b600061483482613ef0565b915061483f83613ef0565b92508261484f5761484e6147fa565b5b828204905092915050565b6000819050919050565b600061486f8261485a565b915061487a8361485a565b9250817f7fffffffffffffffffffffffffffffffffffffffffffffffffffffffffffffff038313600083121516156148b5576148b46144a8565b5b817f80000000000000000000000000000000000000000000000000000000000000000383126000831216156148ed576148ec6144a8565b5b828201905092915050565b7f6d61726b65747300000000000000000000000000000000000000000000000000600082015250565b600061492e60078361435d565b9150614939826148f8565b602082019050919050565b7f6d75737420626520737570706c69656420696e207374726963746c792061736360008201527f656e64696e67206f726465720000000000000000000000000000000000000000602082015250565b60006149a0602c8361435d565b91506149ab82614944565b604082019050919050565b600060408201905081810360008301526149cf81614921565b905081810360208301526149e281614993565b9050919050565b7f7765696768747300000000000000000000000000000000000000000000000000600082015250565b6000614a1f60078361435d565b9150614a2a826149e9565b602082019050919050565b7f776569676874206d757374206265206e6f6e2d7a65726f000000000000000000600082015250565b6000614a6b60178361435d565b9150614a7682614a35565b602082019050919050565b60006040820190508181036000830152614a9a81614a12565b90508181036020830152614aad81614a5e565b9050919050565b6000614abf82613cd9565b9150614aca83613cd9565b9250816fffffffffffffffffffffffffffffffff0483118215151615614af357614af26144a8565b5b828202905092915050565b7f4d61726b65740000000000000000000000000000000000000000000000000000600082015250565b6000614b3460068361435d565b9150614b3f82614afe565b602082019050919050565b60006040820190508181036000830152614b6381614b27565b9050614b726020830184614690565b92915050565b6000614b838261485a565b9150614b8e8361485a565b9250827f7fffffffffffffffffffffffffffffffffffffffffffffffffffffffffffffff0482116000841360008413161615614bcd57614bcc6144a8565b5b817f80000000000000000000000000000000000000000000000000000000000000000583126000841260008413161615614c0a57614c096144a8565b5b827f80000000000000000000000000000000000000000000000000000000000000000582126000841360008412161615614c4757614c466144a8565b5b827f7fffffffffffffffffffffffffffffffffffffffffffffffffffffffffffffff0582126000841260008412161615614c8457614c836144a8565b5b828202905092915050565b6000614c9a8261485a565b9150614ca58361485a565b925082614cb557614cb46147fa565b5b600160000383147f800000000000000000000000000000000000000000000000000000000000000083141615614cee57614ced6144a8565b5b828205905092915050565b6000614d0482613f89565b9150614d0f83613f89565b9250816f7fffffffffffffffffffffffffffffff03831360008312151615614d3a57614d396144a8565b5b817fffffffffffffffffffffffffffffffff80000000000000000000000000000000038312600083121615614d7257614d716144a8565b5b828201905092915050565b6000614d888261485a565b9150614d938361485a565b9250827f800000000000000000000000000000000000000000000000000000000000000001821260008412151615614dce57614dcd6144a8565b5b827f7fffffffffffffffffffffffffffffffffffffffffffffffffffffffffffffff018213600084121615614e0657614e056144a8565b5b828203905092915050565b6000614e1c82613f89565b91507fffffffffffffffffffffffffffffffff80000000000000000000000000000000821415614e4f57614e4e6144a8565b5b816000039050919050565b6000614e6582613f89565b9150614e7083613f89565b9250827fffffffffffffffffffffffffffffffff8000000000000000000000000000000001821260008412151615614eab57614eaa6144a8565b5b826f7fffffffffffffffffffffffffffffff018213600084121615614ed357614ed26144a8565b5b828203905092915050565b7f6e6f20736861726573206f6e206163746f722072656d6f76616c000000000000600082015250565b6000614f14601a8361435d565b9150614f1f82614ede565b602082019050919050565b60006020820190508181036000830152614f4381614f07565b9050919050565b6000614f5582613cd9565b9150614f6083613cd9565b9250826fffffffffffffffffffffffffffffffff03821115614f8557614f846144a8565b5b828201905092915050565b6000614f9b82613cd9565b9150614fa683613cd9565b925082821015614fb957614fb86144a8565b5b828203905092915050565b600081519050614fd381613efa565b92915050565b600060208284031215614fef57614fee613ccf565b5b6000614ffd84828501614fc4565b91505092915050565b7f4f776e61626c6500000000000000000000000000000000000000000000000000600082015250565b600061503c60078361435d565b915061504782615006565b602082019050919050565b6000602082019050818103600083015261506b8161502f565b9050919050565b600061507d82613f89565b915061508883613f89565b925082615098576150976147fa565b5b600160000383147fffffffffffffffffffffffffffffffff80000000000000000000000000000000831416156150d1576150d06144a8565b5b828205905092915050565b60006150e782613cd9565b91506fffffffffffffffffffffffffffffffff82141561510a576151096144a8565b5b600182019050919050565b7f46656174757265466c6167000000000000000000000000000000000000000000600082015250565b600061514b600b8361435d565b915061515682615115565b602082019050919050565b6000819050919050565b61517481615161565b82525050565b600060408201905081810360008301526151938161513e565b90506151a2602083018461516b565b92915050565b7f436f6c6c61746572616c436f6e66696775726174696f6e000000000000000000600082015250565b60006151de60178361435d565b91506151e9826151a8565b602082019050919050565b6000604082019050818103600083015261520d816151d1565b905061521c60208301846141b7565b92915050565b600069ffffffffffffffffffff82169050919050565b61524181615222565b811461524c57600080fd5b50565b60008151905061525e81615238565b92915050565b61526d8161485a565b811461527857600080fd5b50565b60008151905061528a81615264565b92915050565b600080600080600060a086880312156152ac576152ab613ccf565b5b60006152ba8882890161524f565b95505060206152cb8882890161527b565b94505060406152dc88828901614fc4565b93505060606152ed88828901614fc4565b92505060806152fe8882890161524f565b9150509295509295909350565b7f54686520636f6c6c61746572616c2076616c7565206973203000000000000000600082015250565b600061534160198361435d565b915061534c8261530b565b602082019050919050565b6000602082019050818103600083015261537081615334565b905091905056fea2646970667358221220623da90057980173d092dbf111d6d79bad9f16bb4a4a1801863e30a900fa157e64736f6c634300080b0033",
  "linkReferences": {},
  "deployedLinkReferences": {}
}