{
  "_format": "hh-sol-artifact-1",
  "contractName": "RewardsManagerModule",
  "sourceName": "contracts/modules/core/RewardsManagerModule.sol",
  "abi": [
    {
      "inputs": [
        {
          "internalType": "string",
          "name": "parameter",
          "type": "string"
        },
        {
          "internalType": "string",
          "name": "reason",
          "type": "string"
        }
      ],
      "name": "InvalidParameter",
      "type": "error"
    },
    {
      "inputs": [],
      "name": "OverflowInt256ToInt128",
      "type": "error"
    },
    {
      "inputs": [],
      "name": "OverflowInt256ToUint256",
      "type": "error"
    },
    {
      "inputs": [],
      "name": "OverflowUint256ToInt256",
      "type": "error"
    },
    {
      "inputs": [],
      "name": "OverflowUint256ToUint128",
      "type": "error"
    },
    {
      "inputs": [
        {
          "internalType": "uint128",
          "name": "accountId",
          "type": "uint128"
        },
        {
          "internalType": "bytes32",
          "name": "permission",
          "type": "bytes32"
        },
        {
          "internalType": "address",
          "name": "target",
          "type": "address"
        }
      ],
      "name": "PermissionDenied",
      "type": "error"
    },
    {
      "inputs": [],
      "name": "PositionOutOfBounds",
      "type": "error"
    },
    {
      "inputs": [
        {
          "internalType": "address",
          "name": "addr",
          "type": "address"
        }
      ],
      "name": "Unauthorized",
      "type": "error"
    },
    {
      "inputs": [],
      "name": "ValueAlreadyInSet",
      "type": "error"
    },
    {
      "anonymous": false,
      "inputs": [
        {
          "indexed": true,
          "internalType": "uint128",
          "name": "accountId",
          "type": "uint128"
        },
        {
          "indexed": true,
          "internalType": "uint128",
          "name": "poolId",
          "type": "uint128"
        },
        {
          "indexed": true,
          "internalType": "address",
          "name": "collateralType",
          "type": "address"
        },
        {
          "indexed": false,
          "internalType": "address",
          "name": "distributor",
          "type": "address"
        },
        {
          "indexed": false,
          "internalType": "uint256",
          "name": "amount",
          "type": "uint256"
        }
      ],
      "name": "RewardsClaimed",
      "type": "event"
    },
    {
      "anonymous": false,
      "inputs": [
        {
          "indexed": true,
          "internalType": "uint128",
          "name": "poolId",
          "type": "uint128"
        },
        {
          "indexed": true,
          "internalType": "address",
          "name": "collateralType",
          "type": "address"
        },
        {
          "indexed": false,
          "internalType": "address",
          "name": "distributor",
          "type": "address"
        },
        {
          "indexed": false,
          "internalType": "uint256",
          "name": "amount",
          "type": "uint256"
        },
        {
          "indexed": false,
          "internalType": "uint256",
          "name": "start",
          "type": "uint256"
        },
        {
          "indexed": false,
          "internalType": "uint256",
          "name": "duration",
          "type": "uint256"
        }
      ],
      "name": "RewardsDistributed",
      "type": "event"
    },
    {
      "anonymous": false,
      "inputs": [
        {
          "indexed": true,
          "internalType": "uint128",
          "name": "poolId",
          "type": "uint128"
        },
        {
          "indexed": true,
          "internalType": "address",
          "name": "collateralType",
          "type": "address"
        },
        {
          "indexed": true,
          "internalType": "address",
          "name": "distributor",
          "type": "address"
        }
      ],
      "name": "RewardsDistributorRegistered",
      "type": "event"
    },
    {
      "inputs": [
        {
          "internalType": "uint128",
          "name": "poolId",
          "type": "uint128"
        },
        {
          "internalType": "address",
          "name": "collateralType",
          "type": "address"
        },
        {
          "internalType": "uint128",
          "name": "accountId",
          "type": "uint128"
        },
        {
          "internalType": "address",
          "name": "distributor",
          "type": "address"
        }
      ],
      "name": "claimRewards",
      "outputs": [
        {
          "internalType": "uint256",
          "name": "",
          "type": "uint256"
        }
      ],
      "stateMutability": "nonpayable",
      "type": "function"
    },
    {
      "inputs": [
        {
          "internalType": "uint128",
          "name": "poolId",
          "type": "uint128"
        },
        {
          "internalType": "address",
          "name": "collateralType",
          "type": "address"
        },
        {
          "internalType": "uint256",
          "name": "amount",
          "type": "uint256"
        },
        {
          "internalType": "uint64",
          "name": "start",
          "type": "uint64"
        },
        {
          "internalType": "uint32",
          "name": "duration",
          "type": "uint32"
        }
      ],
      "name": "distributeRewards",
      "outputs": [],
      "stateMutability": "nonpayable",
      "type": "function"
    },
    {
      "inputs": [
        {
          "internalType": "uint128",
          "name": "poolId",
          "type": "uint128"
        },
        {
          "internalType": "address",
          "name": "collateralType",
          "type": "address"
        },
        {
          "internalType": "uint128",
          "name": "accountId",
          "type": "uint128"
        }
      ],
      "name": "getClaimableRewards",
      "outputs": [
        {
          "internalType": "uint256[]",
          "name": "",
          "type": "uint256[]"
        },
        {
          "internalType": "address[]",
          "name": "",
          "type": "address[]"
        }
      ],
      "stateMutability": "nonpayable",
      "type": "function"
    },
    {
      "inputs": [
        {
          "internalType": "uint128",
          "name": "poolId",
          "type": "uint128"
        },
        {
          "internalType": "address",
          "name": "collateralType",
          "type": "address"
        },
        {
          "internalType": "address",
          "name": "distributor",
          "type": "address"
        }
      ],
      "name": "getRewardRate",
      "outputs": [
        {
          "internalType": "uint256",
          "name": "",
          "type": "uint256"
        }
      ],
      "stateMutability": "view",
      "type": "function"
    },
    {
      "inputs": [
        {
          "internalType": "uint128",
          "name": "poolId",
          "type": "uint128"
        },
        {
          "internalType": "address",
          "name": "collateralType",
          "type": "address"
        },
        {
          "internalType": "address",
          "name": "distributor",
          "type": "address"
        }
      ],
      "name": "registerRewardsDistributor",
      "outputs": [],
      "stateMutability": "nonpayable",
      "type": "function"
    }
  ],
  "bytecode": "0x608060405234801561001057600080fd5b506118fd806100206000396000f3fe608060405234801561001057600080fd5b50600436106100575760003560e01c80630dd2395a1461005c578063170c135114610082578063573b6715146100975780635a7ff7c5146100aa578063a64d491a146100bd575b600080fd5b61006f61006a3660046113a4565b6100de565b6040519081526020015b60405180910390f35b6100956100903660046113a4565b6100f5565b005b61006f6100a53660046113e7565b61028e565b6100956100b836600461143b565b6104c5565b6100d06100cb3660046114b4565b6106cb565b6040516100799291906114ee565b60006100eb84848461070e565b90505b9392505050565b600061010084610890565b6001600160a01b038085166000908152600883016020526040902060028301549293506004019116331461014e5760405163472511eb60e11b81523360048201526024015b60405180910390fd5b600a610158825490565b11156101b15760408051634bab873760e11b8152600481019190915260056044820152640d2dcc8caf60db1b6064820152608060248201526009608482015268746f6f206c6172676560b81b60a482015260c401610145565b60006101be8686866108ed565b90506101ca828261093f565b156101e857604051634bab873760e11b815260040161014590611572565b6101f28282610959565b6001600160a01b03841661021957604051634bab873760e11b8152600401610145906115d1565b6001600160a01b038581166000818152600886016020908152604080832086845260030190915280822080546001600160a01b0319169489169485179055516001600160801b038a16917f9d3609c05a83dc93a5b355d62c2b37dfde8f0833b1184d4d05c6f51cd46b6e5b91a4505050505050565b60006102a483665245574152445360c81b6109ab565b60006102af86610890565b6001600160a01b0380871660008181526008939093016020908152604080852081516001600160801b038d1693810193909352908201929092529186166060830152925060800160408051601f198184030181529190528051602090910120905061031d600483018261093f565b6103875760408051634bab873760e11b81526004810191909152600e60448201526d696e76616c69642d706172616d7360901b60648201526080602482015260136084820152721c995dd85c99081a5cc81b9bdd08199bdd5b99606a1b60a482015260c401610145565b60006103948387846109fb565b600083815260038501602052604090819020549051636910f3f960e11b81526001600160801b03808a1660048301528b1660248201526001600160a01b038a811660448301523360648301526084820184905292935091169063d221e7f29060a4016020604051808303816000875af1158015610415573d6000803e3d6000fd5b505050506040513d601f19601f82011682018060405250810190610439919061162b565b5060008281526003848101602081815260408085206001600160801b038c8116808852958201845282872080548216905595889052928252915482516001600160a01b0391821681529182018690528b16938c1692917fa4a60be4203e7975e54ab5314c7e9e18aba9ad71e8da714d8de987f4f05410f2910160405180910390a4979650505050505050565b60006104d086610890565b6001600160a01b038616600090815260088201602052604081209192506004909101906104fe8888336108ed565b905061050a828261093f565b6105975760408051634bab873760e11b81526004810191909152602160448201527f706f6f6c49642d636f6c6c61746572616c547970652d6469737472696275746f6064820152603960f91b608482015260a06024820152601860a48201527f726577617264206973206e6f742072656769737465726564000000000000000060c482015260e401610145565b6001600160a01b038716600090815260088401602090815260408083208484526003810183528184208154855260029091019092529091206105fe906105f9906105f4906001016105e78b610bc0565b6001860191908b8b610bee565b610d82565b610da5565b60028201805460009061061b9084906001600160801b0316611663565b92506101000a8154816001600160801b0302191690836001600160801b03160217905550876001600160a01b0316896001600160801b03167f19ced31d71d1db45f99d5a8d3a7616fe9d78828df58f2a28feb68c9f9ab876ca338a8a8a6040516106b894939291906001600160a01b0394909416845260208401929092526001600160401b0316604083015263ffffffff16606082015260800190565b60405180910390a3505050505050505050565b60608060006106d986610890565b6001600160a01b03861660009081526008919091016020526040902090506107018185610dcf565b9250925050935093915050565b60008061071a85610890565b6001600160a01b03851660009081526008919091016020908152604080832080548452600281019092528220600101549092506001600160801b0316906107628787876108ed565b9050600061076f42610bc0565b60008381526003860160205260409020549091506001600160a01b031615806107c2575061079c81610d82565b6000838152600386016020526040902060010154600160801b90046001600160401b0316115b8061081857506107d181610d82565b600083815260038601602052604090206001015461080c90600160c01b810463ffffffff1690600160801b90046001600160401b031661168a565b6001600160401b031611155b1561082a5760009450505050506100ee565b60008281526003850160205260409020600101546108849061085e9063ffffffff600160c01b9091048116908690610f6916565b600084815260038701602052604090206001015461087e90600f0b610d82565b90610f69565b98975050505050505050565b600080826040516020016108ce9190604080825260049082015263141bdbdb60e21b60608201526001600160801b0391909116602082015260800190565b60408051601f1981840301815291905280516020909101209392505050565b604080516001600160801b03851660208201526001600160a01b038085169282019290925290821660608201526000906080016040516020818303038152906040528051906020012090509392505050565b600081815260018301602052604090205415155b92915050565b610963828261093f565b156109815760405163682ad32d60e01b815260040160405180910390fd5b81546001818101845560008481526020808220909301849055845493815293019052604090912055565b6109c381336109b985610f88565b6001019190610fc9565b6109f75760405162ef2a9160e11b81526001600160801b038316600482015260248101829052336044820152606401610145565b5050565b8254600090815260028085016020908152604080842060018101546001600160801b038881168752919094018352818520548686526003890190935290842080549382169392909116916001600160a01b0316610a8b5760405162461bcd60e51b815260206004820152600e60248201526d2737903234b9ba3934b13aba37b960911b6044820152606401610145565b610a9e6105f96105f46001840186611006565b600282018054600090610abb9084906001600160801b0316611663565b82546101009290920a6001600160801b0381810219909316918316021790915587811660009081526003840160205260409020546002840154610b1a93506105f992610b0a92811691166116aa565b84906001600160801b0316611263565b6001600160801b038088166000908152600384016020526040902080549091601091610b4f918591600160801b900416611663565b82546101009290920a6001600160801b03818102199093169183160217909155600283015497811660009081526003909301602052604090922080549783166fffffffffffffffffffffffffffffffff19909816979097179687905550600160801b90950490941695945050505050565b60006001600160ff1b03821115610bea5760405163677c430560e11b815260040160405180910390fd5b5090565b83546000906001600160801b0316808203610c7a5760408051634bab873760e11b815260048101919091526006604482015265185b5bdd5b9d60d21b606482015260806024820152602660848201527f63616e2774206469737472696275746520746f20656d7074792064697374726960a482015265313aba34b7b760d11b60c482015260e401610145565b6000610c8d610c8842610bc0565b611278565b8754600f9190910b9150610cab9089906001600160801b0316611006565b610cb590846116ca565b9250610cc081610d82565b610cd063ffffffff86168761168a565b6001600160401b031611610d0657610cf1610cea83610bc0565b87906112b4565b610cfb90846116ca565b600089559250610d77565b610d0f86611278565b88546001600160801b039182166001600160c01b031990911617600160801b6001600160401b03881602176001600160c01b0316600160c01b63ffffffff8716026001600160e01b03161789558754610d6a918a9116611006565b610d7490846116ca565b92505b505095945050505050565b600080821215610bea5760405163029f024d60e31b815260040160405180910390fd5b60006001600160801b03821115610bea57604051637d5864af60e11b815260040160405180910390fd5b6060806000610ddf856004015490565b6001600160401b03811115610df657610df66116f2565b604051908082528060200260200182016040528015610e1f578160200160208202803683370190505b5090506000610e2f866004015490565b6001600160401b03811115610e4657610e466116f2565b604051908082528060200260200182016040528015610e6f578160200160208202803683370190505b50905060005b6004870154811015610f5d5760006003880181610ea0610e96856001611708565b60048c01906112d3565b8152602081019190915260400160002080549091506001600160a01b0316610ec85750610f4b565b610eea8888610ee5610edb866001611708565b60048d01906112d3565b6109fb565b848381518110610efc57610efc61171b565b6020908102919091010152805483516001600160a01b0390911690849084908110610f2957610f2961171b565b60200260200101906001600160a01b031690816001600160a01b031681525050505b80610f5581611731565b915050610e75565b50909590945092505050565b600081610f7e670de0b6b3a76400008561174a565b6100ee9190611777565b600080826040516020016108ce91906040808252600790820152661058d8dbdd5b9d60ca1b60608201526001600160801b0391909116602082015260800190565b82546000906001600160a01b0383811691161480610ff55750610ff5846420a226a4a760d91b84611338565b806100eb57506100eb848484611338565b8154600090600f0b1580611018575081155b1561102557506000610953565b6000611033610c8842610bc0565b8454909150600090600160801b90046001600160401b031660070b600f83900b121561106457600092505050610953565b8454600160c01b900463ffffffff1615801561109d57508454600160801b81046001600160401b0316600160e01b90910463ffffffff16105b156110c0576110b96110ae85610bc0565b8654600f0b906112b4565b905061123a565b84546110e990600160c01b810463ffffffff1690600160801b90046001600160401b031661168a565b85546001600160401b0391909116600160e01b90910463ffffffff16101561123a578454600090600160801b81046001600160401b0316600160e01b90910463ffffffff161061118a57855463ffffffff600160c01b8204811660030b91611169916001600160401b03600160801b83041691600160e01b90041661178b565b875461117b9160070b90600f0b6117ab565b61118591906117cb565b61118d565b60005b8654600f91820b92509081900b906111c290600160c01b810463ffffffff1690600160801b90046001600160401b031661168a565b60070b84600f0b1215611219578654600160c01b810463ffffffff1660030b906111ff90600160801b90046001600160401b031660070b86611809565b61120c90600f0b83611836565b6112169190611866565b90505b61123561122587610bc0565b61122f8484611894565b906112b4565b925050505b845463ffffffff909216600160e01b026001600160e01b03909216919091178455905092915050565b6000670de0b6b3a7640000610f7e838561174a565b600060016001607f1b0319821280611296575060016001607f1b0382135b15610bea57604051634022cc0360e01b815260040160405180910390fd5b6000816112c9670de0b6b3a764000085611836565b6100ee9190611866565b60008115806112e25750825482115b156113005760405163eb9bc44760e01b815260040160405180910390fd5b600061130d6001846118b4565b90508360000181815481106113245761132461171b565b906000526020600020015491505092915050565b60006001600160a01b038216158015906100eb57506001600160a01b038216600090815260018501602052604090206100eb908461093f565b80356001600160801b038116811461138857600080fd5b919050565b80356001600160a01b038116811461138857600080fd5b6000806000606084860312156113b957600080fd5b6113c284611371565b92506113d06020850161138d565b91506113de6040850161138d565b90509250925092565b600080600080608085870312156113fd57600080fd5b61140685611371565b93506114146020860161138d565b925061142260408601611371565b91506114306060860161138d565b905092959194509250565b600080600080600060a0868803121561145357600080fd5b61145c86611371565b945061146a6020870161138d565b93506040860135925060608601356001600160401b038116811461148d57600080fd5b9150608086013563ffffffff811681146114a657600080fd5b809150509295509295909350565b6000806000606084860312156114c957600080fd5b6114d284611371565b92506114e06020850161138d565b91506113de60408501611371565b604080825283519082018190526000906020906060840190828701845b828110156115275781518452928401929084019060010161150b565b5050508381038285015284518082528583019183019060005b818110156115655783516001600160a01b031683529284019291840191600101611540565b5090979650505050505050565b60408152600061159d60408301600b81526a3234b9ba3934b13aba37b960a91b602082015260400190565b82810360209384015260158152741a5cc8185b1c9958591e481c9959da5cdd195c9959605a1b928101929092525060400190565b6040815260006115fc60408301600b81526a3234b9ba3934b13aba37b960a91b602082015260400190565b828103602093840152601081526f6d757374206265206e6f6e2d7a65726f60801b928101929092525060400190565b60006020828403121561163d57600080fd5b815180151581146100ee57600080fd5b634e487b7160e01b600052601160045260246000fd5b6001600160801b038181168382160190808211156116835761168361164d565b5092915050565b6001600160401b038181168382160190808211156116835761168361164d565b6001600160801b038281168282160390808211156116835761168361164d565b80820182811260008312801582168215821617156116ea576116ea61164d565b505092915050565b634e487b7160e01b600052604160045260246000fd5b808201808211156109535761095361164d565b634e487b7160e01b600052603260045260246000fd5b6000600182016117435761174361164d565b5060010190565b80820281158282048414176109535761095361164d565b634e487b7160e01b600052601260045260246000fd5b60008261178657611786611761565b500490565b6001600160401b038281168282160390808211156116835761168361164d565b600082600f0b82600f0b0280600f0b91508082146116835761168361164d565b600081600f0b83600f0b806117e2576117e2611761565b60016001607f1b03198214600019821416156118005761180061164d565b90059392505050565b600f82810b9082900b0360016001607f1b0319811260016001607f1b03821317156109535761095361164d565b80820260008212600160ff1b841416156118525761185261164d565b81810583148215176109535761095361164d565b60008261187557611875611761565b600160ff1b82146000198414161561188f5761188f61164d565b500590565b81810360008312801583831316838312821617156116835761168361164d565b818103818111156109535761095361164d56fea264697066735822122074e966ec40230d175ed46395c8612fcc7447fbedae0aa1f609b5f2df1bd4ff9d64736f6c63430008110033",
  "linkReferences": {},
  "deployedLinkReferences": {}
}