{
  "_format": "hh-sol-artifact-1",
  "contractName": "VaultModule",
  "sourceName": "contracts/modules/core/VaultModule.sol",
  "abi": [
    {
      "inputs": [
        {
          "internalType": "uint256",
          "name": "marketId",
          "type": "uint256"
        }
      ],
      "name": "CapacityLocked",
      "type": "error"
    },
    {
      "inputs": [],
      "name": "EmptyDistribution",
      "type": "error"
    },
    {
      "inputs": [],
      "name": "InconsistentDistribution",
      "type": "error"
    },
    {
      "inputs": [
        {
          "internalType": "uint256",
          "name": "requestedAmount",
          "type": "uint256"
        }
      ],
      "name": "InsufficientAccountCollateral",
      "type": "error"
    },
    {
      "inputs": [
        {
          "internalType": "uint256",
          "name": "collateralValue",
          "type": "uint256"
        },
        {
          "internalType": "uint256",
          "name": "debt",
          "type": "uint256"
        },
        {
          "internalType": "uint256",
          "name": "ratio",
          "type": "uint256"
        },
        {
          "internalType": "uint256",
          "name": "minRatio",
          "type": "uint256"
        }
      ],
      "name": "InsufficientCollateralRatio",
      "type": "error"
    },
    {
      "inputs": [
        {
          "internalType": "address",
          "name": "collateralType",
          "type": "address"
        }
      ],
      "name": "InvalidCollateral",
      "type": "error"
    },
    {
      "inputs": [
        {
          "internalType": "address",
          "name": "collateralType",
          "type": "address"
        }
      ],
      "name": "InvalidCollateral",
      "type": "error"
    },
    {
      "inputs": [
        {
          "internalType": "uint256",
          "name": "leverage",
          "type": "uint256"
        }
      ],
      "name": "InvalidLeverage",
      "type": "error"
    },
    {
      "inputs": [
        {
          "internalType": "string",
          "name": "incorrectParameter",
          "type": "string"
        },
        {
          "internalType": "string",
          "name": "help",
          "type": "string"
        }
      ],
      "name": "InvalidParameters",
      "type": "error"
    },
    {
      "inputs": [
        {
          "internalType": "uint128",
          "name": "marketId",
          "type": "uint128"
        }
      ],
      "name": "MarketNotFound",
      "type": "error"
    },
    {
      "inputs": [
        {
          "internalType": "uint128",
          "name": "accountId",
          "type": "uint128"
        },
        {
          "internalType": "bytes32",
          "name": "permission",
          "type": "bytes32"
        },
        {
          "internalType": "address",
          "name": "target",
          "type": "address"
        }
      ],
      "name": "PermissionDenied",
      "type": "error"
    },
    {
      "inputs": [
        {
          "internalType": "uint128",
          "name": "poolId",
          "type": "uint128"
        }
      ],
      "name": "PoolNotFound",
      "type": "error"
    },
    {
      "inputs": [
        {
          "internalType": "uint128",
          "name": "poolId",
          "type": "uint128"
        }
      ],
      "name": "PoolNotFound",
      "type": "error"
    },
    {
      "inputs": [],
      "name": "PositionOutOfBounds",
      "type": "error"
    },
    {
      "inputs": [],
      "name": "ValueAlreadyInSet",
      "type": "error"
    },
    {
      "inputs": [],
      "name": "ValueNotInSet",
      "type": "error"
    },
    {
      "inputs": [],
      "name": "ZeroValuePerShare",
      "type": "error"
    },
    {
      "anonymous": false,
      "inputs": [
        {
          "indexed": true,
          "internalType": "uint128",
          "name": "accountId",
          "type": "uint128"
        },
        {
          "indexed": true,
          "internalType": "uint128",
          "name": "poolId",
          "type": "uint128"
        },
        {
          "indexed": false,
          "internalType": "address",
          "name": "collateralType",
          "type": "address"
        },
        {
          "indexed": false,
          "internalType": "uint256",
          "name": "amount",
          "type": "uint256"
        },
        {
          "indexed": false,
          "internalType": "uint256",
          "name": "leverage",
          "type": "uint256"
        },
        {
          "indexed": true,
          "internalType": "address",
          "name": "sender",
          "type": "address"
        }
      ],
      "name": "DelegationUpdated",
      "type": "event"
    },
    {
      "inputs": [
        {
          "internalType": "uint128",
          "name": "accountId",
          "type": "uint128"
        },
        {
          "internalType": "uint128",
          "name": "poolId",
          "type": "uint128"
        },
        {
          "internalType": "address",
          "name": "collateralType",
          "type": "address"
        },
        {
          "internalType": "uint256",
          "name": "collateralAmount",
          "type": "uint256"
        },
        {
          "internalType": "uint256",
          "name": "leverage",
          "type": "uint256"
        }
      ],
      "name": "delegateCollateral",
      "outputs": [],
      "stateMutability": "nonpayable",
      "type": "function"
    },
    {
      "inputs": [
        {
          "internalType": "uint128",
          "name": "accountId",
          "type": "uint128"
        },
        {
          "internalType": "uint128",
          "name": "poolId",
          "type": "uint128"
        },
        {
          "internalType": "address",
          "name": "collateralType",
          "type": "address"
        }
      ],
      "name": "getPosition",
      "outputs": [
        {
          "internalType": "uint256",
          "name": "collateralAmount",
          "type": "uint256"
        },
        {
          "internalType": "uint256",
          "name": "collateralValue",
          "type": "uint256"
        },
        {
          "internalType": "int256",
          "name": "debt",
          "type": "int256"
        },
        {
          "internalType": "uint256",
          "name": "collateralizationRatio",
          "type": "uint256"
        }
      ],
      "stateMutability": "nonpayable",
      "type": "function"
    },
    {
      "inputs": [
        {
          "internalType": "uint128",
          "name": "accountId",
          "type": "uint128"
        },
        {
          "internalType": "uint128",
          "name": "poolId",
          "type": "uint128"
        },
        {
          "internalType": "address",
          "name": "collateralType",
          "type": "address"
        }
      ],
      "name": "getPositionCollateral",
      "outputs": [
        {
          "internalType": "uint256",
          "name": "amount",
          "type": "uint256"
        },
        {
          "internalType": "uint256",
          "name": "value",
          "type": "uint256"
        }
      ],
      "stateMutability": "view",
      "type": "function"
    },
    {
      "inputs": [
        {
          "internalType": "uint128",
          "name": "accountId",
          "type": "uint128"
        },
        {
          "internalType": "uint128",
          "name": "poolId",
          "type": "uint128"
        },
        {
          "internalType": "address",
          "name": "collateralType",
          "type": "address"
        }
      ],
      "name": "getPositionCollateralizationRatio",
      "outputs": [
        {
          "internalType": "uint256",
          "name": "",
          "type": "uint256"
        }
      ],
      "stateMutability": "nonpayable",
      "type": "function"
    },
    {
      "inputs": [
        {
          "internalType": "uint128",
          "name": "accountId",
          "type": "uint128"
        },
        {
          "internalType": "uint128",
          "name": "poolId",
          "type": "uint128"
        },
        {
          "internalType": "address",
          "name": "collateralType",
          "type": "address"
        }
      ],
      "name": "getPositionDebt",
      "outputs": [
        {
          "internalType": "int256",
          "name": "",
          "type": "int256"
        }
      ],
      "stateMutability": "nonpayable",
      "type": "function"
    },
    {
      "inputs": [
        {
          "internalType": "uint128",
          "name": "poolId",
          "type": "uint128"
        },
        {
          "internalType": "address",
          "name": "collateralType",
          "type": "address"
        }
      ],
      "name": "getVaultCollateral",
      "outputs": [
        {
          "internalType": "uint256",
          "name": "amount",
          "type": "uint256"
        },
        {
          "internalType": "uint256",
          "name": "value",
          "type": "uint256"
        }
      ],
      "stateMutability": "view",
      "type": "function"
    },
    {
      "inputs": [
        {
          "internalType": "uint128",
          "name": "poolId",
          "type": "uint128"
        },
        {
          "internalType": "address",
          "name": "collateralType",
          "type": "address"
        }
      ],
      "name": "getVaultCollateralRatio",
      "outputs": [
        {
          "internalType": "uint256",
          "name": "",
          "type": "uint256"
        }
      ],
      "stateMutability": "nonpayable",
      "type": "function"
    },
    {
      "inputs": [
        {
          "internalType": "uint128",
          "name": "poolId",
          "type": "uint128"
        },
        {
          "internalType": "address",
          "name": "collateralType",
          "type": "address"
        }
      ],
      "name": "getVaultDebt",
      "outputs": [
        {
          "internalType": "int256",
          "name": "",
          "type": "int256"
        }
      ],
      "stateMutability": "nonpayable",
      "type": "function"
    }
  ],
  "bytecode": "0x608060405234801561001057600080fd5b5061589180620000216000396000f3fe608060405234801561001057600080fd5b50600436106100885760003560e01c806360248c551161005b57806360248c551461014f5780637b0532a41461017f578063f08c9b5f1461019b578063f544d66e146101cb57610088565b8063078145a81461008d5780632fb8ff24146100be57806333cc422b146100ee5780633593bbd21461011f575b600080fd5b6100a760048036038101906100a291906145c8565b6101fe565b6040516100b5929190614621565b60405180910390f35b6100d860048036038101906100d391906145c8565b610227565b6040516100e59190614663565b60405180910390f35b6101086004803603810190610103919061467e565b61024c565b604051610116929190614621565b60405180910390f35b6101396004803603810190610134919061467e565b61027c565b6040516101469190614663565b60405180910390f35b610169600480360381019061016491906145c8565b6102a4565b60405161017691906146d1565b60405180910390f35b61019960048036038101906101949190614718565b6102c9565b005b6101b560048036038101906101b0919061467e565b61074e565b6040516101c291906146d1565b60405180910390f35b6101e560048036038101906101e0919061467e565b610776565b6040516101f59493929190614793565b60405180910390f35b60008061021c8361020e866107de565b61081390919063ffffffff16565b915091509250929050565b600061024482610236856107de565b61089390919063ffffffff16565b905092915050565b60008061026c838661025d876107de565b6108f19092919063ffffffff16565b8092508193505050935093915050565b600061029b828561028c866107de565b61097c9092919063ffffffff16565b90509392505050565b60006102c1826102b3856107de565b6109e590919063ffffffff16565b905092915050565b6102d284610a7b565b6102db83610ac8565b610305857f44454c4547415445000000000000000000000000000000000000000000000000610b26565b601260ff16600a610316919061493a565b811461035957806040517f69bb335500000000000000000000000000000000000000000000000000000000815260040161035091906146d1565b60405180910390fd5b6000610364856107de565b600a0160008573ffffffffffffffffffffffffffffffffffffffff1673ffffffffffffffffffffffffffffffffffffffff16815260200190815260200160002090506103b98682610b8f90919063ffffffff16565b505060006103d08783610dd390919063ffffffff16565b905060008185118015610439575081856103ea9190614985565b6103f389610df8565b60070160008873ffffffffffffffffffffffffffffffffffffffff1673ffffffffffffffffffffffffffffffffffffffff16815260200190815260200160002060010154105b1561047b57846040517f4c8cb9dc00000000000000000000000000000000000000000000000000000000815260040161047291906146d1565b60405180910390fd5b6000886fffffffffffffffffffffffffffffffff1660001b905060006104a0896107de565b90506104b7888b8361097c9092919063ffffffff16565b5060006104c38b610df8565b60070160008a73ffffffffffffffffffffffffffffffffffffffff1673ffffffffffffffffffffffffffffffffffffffff1681526020019081526020016000209050848811156105305761052b858961051c9190614985565b82610e2d90919063ffffffff16565b61054f565b61054e888661053f9190614985565b82610e4c90919063ffffffff16565b5b60008811801561058457506105828a6fffffffffffffffffffffffffffffffff1682600201610ead90919063ffffffff16565b155b156105b6576105b18a6fffffffffffffffffffffffffffffffff1682600201610ec790919063ffffffff16565b61060d565b6105de8a6fffffffffffffffffffffffffffffffff1682600201610ead90919063ffffffff16565b1561060c5761060b8a6fffffffffffffffffffffffffffffffff1682600201610edb90919063ffffffff16565b5b5b61062c8b898961061c8a610eef565b610f11909392919063ffffffff16565b61063f8983610f8990919063ffffffff16565b9350505061064e898989611108565b828610156106b95760006106768261066587610eef565b6005016111b090919063ffffffff16565b90506106b760008212610689578161068c565b60005b61069f858a61122890919063ffffffff16565b6106a88b61124d565b6112829092919063ffffffff16565b505b828610156106cb576106ca8861130b565b5b3373ffffffffffffffffffffffffffffffffffffffff16886fffffffffffffffffffffffffffffffff168a6fffffffffffffffffffffffffffffffff167f7b12dd38f18c0ff77ae702f6da13fbbcb28f53f807ecc7d39ee8d8b1ea8295ad8a8a8a60405161073b939291906149c8565b60405180910390a4505050505050505050565b600061076d828561075e866107de565b6113c29092919063ffffffff16565b90509392505050565b6000806000806000610787876107de565b905061079e86898361097c9092919063ffffffff16565b92506107b58689836108f19092919063ffffffff16565b80955081965050506107d28689836113c29092919063ffffffff16565b91505093509350935093565b600080826040516020016107f29190614a6b565b60405160208183030381529060405280519060200120905080915050919050565b60008060006108296108248561124d565b611410565b905061087485600a0160008673ffffffffffffffffffffffffffffffffffffffff1673ffffffffffffffffffffffffffffffffffffffff1681526020019081526020016000206114f8565b9250610889838261122890919063ffffffff16565b9150509250929050565b600061089f8383610f89565b506108e983600a0160008473ffffffffffffffffffffffffffffffffffffffff1673ffffffffffffffffffffffffffffffffffffffff168152602001908152602001600020611515565b905092915050565b60008060006109076109028661124d565b611410565b905061095c8487600a0160008873ffffffffffffffffffffffffffffffffffffffff1673ffffffffffffffffffffffffffffffffffffffff168152602001908152602001600020610dd390919063ffffffff16565b9250610971838261122890919063ffffffff16565b915050935093915050565b60006109888484610f89565b506109dc8285600a0160008673ffffffffffffffffffffffffffffffffffffffff1673ffffffffffffffffffffffffffffffffffffffff16815260200190815260200160002061152f90919063ffffffff16565b90509392505050565b60006109f18383610f89565b506000610a3d84600a0160008573ffffffffffffffffffffffffffffffffffffffff1673ffffffffffffffffffffffffffffffffffffffff168152602001908152602001600020611515565b90506000610a4b8585610813565b91505060008213610a5d576000610a71565b610a70818361155490919063ffffffff16565b5b9250505092915050565b610a8481611579565b610ac557806040517f32b961eb000000000000000000000000000000000000000000000000000000008152600401610abc9190614a99565b60405180910390fd5b50565b610ad18161124d565b60000160009054906101000a900460ff16610b2357806040517f719d8185000000000000000000000000000000000000000000000000000000008152600401610b1a9190614ab4565b60405180910390fd5b50565b610b468133610b3485610df8565b6001016115ed9092919063ffffffff16565b610b8b578181336040517f01de5522000000000000000000000000000000000000000000000000000000008152600401610b8293929190614ae8565b60405180910390fd5b5050565b6060806000610ba08560040161168f565b67ffffffffffffffff811115610bb957610bb8614b1f565b5b604051908082528060200260200182016040528015610be75781602001602082028036833780820191505090505b5090506000610bf88660040161168f565b67ffffffffffffffff811115610c1157610c10614b1f565b5b604051908082528060200260200182016040528015610c3f5781602001602082028036833780820191505090505b50905060005b610c518760040161168f565b811015610dc3576000876003016000610c82600185610c709190614b4e565b8b6004016116a090919063ffffffff16565b81526020019081526020016000209050600073ffffffffffffffffffffffffffffffffffffffff168160000160009054906101000a900473ffffffffffffffffffffffffffffffffffffffff1673ffffffffffffffffffffffffffffffffffffffff161415610cf15750610db0565b610d1d8888610d18600186610d069190614b4e565b8c6004016116a090919063ffffffff16565b611728565b848381518110610d3057610d2f614ba4565b5b6020026020010181815250508060000160009054906101000a900473ffffffffffffffffffffffffffffffffffffffff16838381518110610d7457610d73614ba4565b5b602002602001019073ffffffffffffffffffffffffffffffffffffffff16908173ffffffffffffffffffffffffffffffffffffffff1681525050505b8080610dbb90614bd3565b915050610c45565b5081819350935050509250929050565b6000610df082610de285610eef565b611adb90919063ffffffff16565b905092915050565b60008082604051602001610e0c9190614c68565b60405160208183030381529060405280519060200120905080915050919050565b80826001016000828254610e419190614985565b925050819055505050565b8160000160009054906101000a900460ff16610e8d5760018260000160006101000a81548160ff021916908315150217905550808260010181905550610ea9565b80826001016000828254610ea19190614b4e565b925050819055505b5050565b6000610ebf836000018360001b611b03565b905092915050565b610ed7826000018260001b611b26565b5050565b610eeb826000018260001b611bb7565b5050565b6000816002016000836000015481526020019081526020016000209050919050565b6000610f1c84611cec565b9050610f288585611d0b565b50610f41818487600301611dd39092919063ffffffff16565b50610f8181610f6e84610f60858a6003016120ab90919063ffffffff16565b61122890919063ffffffff16565b876001016120fc9092919063ffffffff16565b505050505050565b6000610f94836122f1565b610fa5610fa08361124d565b611410565b9050600080610ffd8386600a0160008773ffffffffffffffffffffffffffffffffffffffff1673ffffffffffffffffffffffffffffffffffffffff16815260200190815260200160002061254890919063ffffffff16565b925050915060008473ffffffffffffffffffffffffffffffffffffffff1660001b9050600061103a8285896006016120fc9092919063ffffffff16565b9050828760040160109054906101000a90046fffffffffffffffffffffffffffffffff166110689190614ca3565b8760040160106101000a8154816fffffffffffffffffffffffffffffffff02191690836fffffffffffffffffffffffffffffffff1602179055506110f58188600a0160008973ffffffffffffffffffffffffffffffffffffffff1673ffffffffffffffffffffffffffffffffffffffff16815260200190815260200160002061266590919063ffffffff16565b6110fe876122f1565b5050505092915050565b600061111384610df8565b60070160008373ffffffffffffffffffffffffffffffffffffffff1673ffffffffffffffffffffffffffffffffffffffff168152602001908152602001600020905061117d836fffffffffffffffffffffffffffffffff1682600201610ead90919063ffffffff16565b6111aa576111a9836fffffffffffffffffffffffffffffffff1682600201610ec790919063ffffffff16565b5b50505050565b60006b033b2e3c9fd0803ce800000083600101600084815260200190815260200160002060000160009054906101000a90046fffffffffffffffffffffffffffffffff16600f0b8460000160109054906101000a9004600f0b600f0b6112169190614d27565b6112209190614e6d565b905092915050565b60006112458383601260ff16600a611240919061493a565b612684565b905092915050565b600080826040516020016112619190614f23565b60405160208183030381529060405280519060200120905080915050919050565b600082141580156112a8575082600101546112a6838361155490919063ffffffff16565b105b156113065780826112c2848461155490919063ffffffff16565b85600101546040517f6119eca70000000000000000000000000000000000000000000000000000000081526004016112fd9493929190614f51565b60405180910390fd5b505050565b6000611316826107de565b90506000611323826126ac565b905060008160000160009054906101000a90046fffffffffffffffffffffffffffffffff166fffffffffffffffffffffffffffffffff1611156113bd578060000160009054906101000a90046fffffffffffffffffffffffffffffffff166040517f91b9419f0000000000000000000000000000000000000000000000000000000081526004016113b49190614fd1565b60405180910390fd5b505050565b6000806113d08585856108f1565b91505060006113e086868661097c565b9050611405600082126113f357816113f6565b60005b8361155490919063ffffffff16565b925050509392505050565b6000808260040160009054906101000a900473ffffffffffffffffffffffffffffffffffffffff1673ffffffffffffffffffffffffffffffffffffffff1663feaf968c6040518163ffffffff1660e01b815260040160a060405180830381865afa158015611482573d6000803e3d6000fd5b505050506040513d601f19601f820116820180604052508101906114a6919061506f565b505050915050600081136114ef576040517f08c379a00000000000000000000000000000000000000000000000000000000081526004016114e690615136565b60405180910390fd5b80915050919050565b600061150e61150683610eef565b600301612752565b9050919050565b600061152861152383610eef565b6127b5565b9050919050565b600061154c8261153e85610eef565b611d0b90919063ffffffff16565b905092915050565b600061157183601260ff16600a61156b919061493a565b84612684565b905092915050565b600080826fffffffffffffffffffffffffffffffff1614806115e65750816fffffffffffffffffffffffffffffffff166115b2836107de565b60000160009054906101000a90046fffffffffffffffffffffffffffffffff166fffffffffffffffffffffffffffffffff16145b9050919050565b60008360000160009054906101000a900473ffffffffffffffffffffffffffffffffffffffff1673ffffffffffffffffffffffffffffffffffffffff168273ffffffffffffffffffffffffffffffffffffffff1614806116745750611673847f41444d494e000000000000000000000000000000000000000000000000000000846127e9565b5b8061168657506116858484846127e9565b5b90509392505050565b600081600001805490509050919050565b6000808214806116b65750826000018054905082115b156116ed576040517feb9bc44700000000000000000000000000000000000000000000000000000000815260040160405180910390fd5b60006001836116fc9190614985565b905083600001818154811061171457611713614ba4565b5b906000526020600020015491505092915050565b60008061173485610eef565b60010160000160009054906101000a90046fffffffffffffffffffffffffffffffff166fffffffffffffffffffffffffffffffff16905060006117a0856fffffffffffffffffffffffffffffffff1660001b61178f88610eef565b6001016120ab90919063ffffffff16565b905060008660030160008681526020019081526020016000209050600073ffffffffffffffffffffffffffffffffffffffff168160000160009054906101000a900473ffffffffffffffffffffffffffffffffffffffff1673ffffffffffffffffffffffffffffffffffffffff16141561184f576040517f08c379a0000000000000000000000000000000000000000000000000000000008152600401611846906151a2565b60405180910390fd5b611865838260010161287f90919063ffffffff16565b8160020160008282829054906101000a90046fffffffffffffffffffffffffffffffff1661189391906151c2565b92506101000a8154816fffffffffffffffffffffffffffffffff02191690836fffffffffffffffffffffffffffffffff160217905550670de0b6b3a7640000816003016000886fffffffffffffffffffffffffffffffff16815260200190815260200160002060000160009054906101000a90046fffffffffffffffffffffffffffffffff168260020160009054906101000a90046fffffffffffffffffffffffffffffffff166119449190615208565b6fffffffffffffffffffffffffffffffff1683611961919061523c565b61196b9190615296565b816003016000886fffffffffffffffffffffffffffffffff16815260200190815260200160002060000160108282829054906101000a90046fffffffffffffffffffffffffffffffff166119bf91906151c2565b92506101000a8154816fffffffffffffffffffffffffffffffff02191690836fffffffffffffffffffffffffffffffff1602179055508060020160009054906101000a90046fffffffffffffffffffffffffffffffff16816003016000886fffffffffffffffffffffffffffffffff16815260200190815260200160002060000160006101000a8154816fffffffffffffffffffffffffffffffff02191690836fffffffffffffffffffffffffffffffff160217905550806003016000876fffffffffffffffffffffffffffffffff16815260200190815260200160002060000160109054906101000a90046fffffffffffffffffffffffffffffffff166fffffffffffffffffffffffffffffffff1693505050509392505050565b6000611afb611ae983611cec565b846003016111b090919063ffffffff16565b905092915050565b600080836001016000848152602001908152602001600020541415905092915050565b611b308282611b03565b15611b67576040517f682ad32d00000000000000000000000000000000000000000000000000000000815260040160405180910390fd5b816000018190806001815401808255809150506001900390600052602060002001600090919091909150558160000180549050826001016000838152602001908152602001600020819055505050565b60008260010160008381526020019081526020016000205490506000811415611c0c576040517fb3dbc29300000000000000000000000000000000000000000000000000000000815260040160405180910390fd5b6000600182611c1b9190614985565b9050600060018560000180549050611c339190614985565b9050808214611ca2576000856000018281548110611c5457611c53614ba4565b5b9060005260206000200154905080866000018481548110611c7857611c77614ba4565b5b90600052602060002001819055508386600101600083815260200190815260200160002081905550505b84600001805480611cb657611cb56152c7565b5b60019003818190600052602060002001600090559055846001016000858152602001908152602001600020600090555050505050565b6000816fffffffffffffffffffffffffffffffff1660001b9050919050565b600080611d1783611cec565b9050611d2f81856005016111b090919063ffffffff16565b91506000611d498286600101612b7490919063ffffffff16565b90508083611d5791906152f6565b9250611d71828487600501611dd39092919063ffffffff16565b50808560000160008282829054906101000a9004600f0b611d92919061538a565b92506101000a8154816fffffffffffffffffffffffffffffffff0219169083600f0b6fffffffffffffffffffffffffffffffff160217905550505092915050565b6000808460000160109054906101000a9004600f0b600f0b148015611e2b575060008460000160009054906101000a90046fffffffffffffffffffffffffffffffff166fffffffffffffffffffffffffffffffff1614155b15611e62576040517f7d06244800000000000000000000000000000000000000000000000000000000815260040160405180910390fd5b6000846001016000858152602001908152602001600020905060008160000160109054906101000a9004600f0b600f0b14611ec9576040517f842be92f00000000000000000000000000000000000000000000000000000000815260040160405180910390fd5b60008560000160009054906101000a90046fffffffffffffffffffffffffffffffff166fffffffffffffffffffffffffffffffff161415611f6e576b033b2e3c9fd0803ce80000008560000160106101000a8154816fffffffffffffffffffffffffffffffff0219169083600f0b6fffffffffffffffffffffffffffffffff16021790555060008313611f655782611f609061540e565b611f67565b825b9150611fb3565b611f7785612752565b8560000160009054906101000a90046fffffffffffffffffffffffffffffffff16600f0b84611fa69190614d27565b611fb09190614e6d565b91505b8060000160009054906101000a90046fffffffffffffffffffffffffffffffff166fffffffffffffffffffffffffffffffff16828660000160009054906101000a90046fffffffffffffffffffffffffffffffff166fffffffffffffffffffffffffffffffff166120249190614b4e565b61202e9190614985565b8560000160006101000a8154816fffffffffffffffffffffffffffffffff02191690836fffffffffffffffffffffffffffffffff160217905550818160000160006101000a8154816fffffffffffffffffffffffffffffffff02191690836fffffffffffffffffffffffffffffffff160217905550509392505050565b600082600101600083815260200190815260200160002060000160009054906101000a90046fffffffffffffffffffffffffffffffff166fffffffffffffffffffffffffffffffff16905092915050565b600080846001016000858152602001908152602001600020905060008160000160109054906101000a9004600f0b8660000160109054906101000a9004600f0b612146919061538a565b905060008260000160009054906101000a90046fffffffffffffffffffffffffffffffff16600f0b82600f0b61217c9190614d27565b90506b033b2e3c9fd0803ce8000000816121969190614e6d565b93508260000160009054906101000a90046fffffffffffffffffffffffffffffffff166fffffffffffffffffffffffffffffffff16858860000160009054906101000a90046fffffffffffffffffffffffffffffffff166fffffffffffffffffffffffffffffffff166122099190614b4e565b6122139190614985565b8760000160006101000a8154816fffffffffffffffffffffffffffffffff02191690836fffffffffffffffffffffffffffffffff160217905550848360000160006101000a8154816fffffffffffffffffffffffffffffffff02191690836fffffffffffffffffffffffffffffffff160217905550600085146122a7578660000160109054906101000a9004600f0b6122aa565b60005b8360000160106101000a8154816fffffffffffffffffffffffffffffffff0219169083600f0b6fffffffffffffffffffffffffffffffff1602179055505050509392505050565b60008160040160009054906101000a90046fffffffffffffffffffffffffffffffff166fffffffffffffffffffffffffffffffff16905060008114156123375750612545565b60008260060160000160009054906101000a90046fffffffffffffffffffffffffffffffff16600f0b905060008360040160109054906101000a90046fffffffffffffffffffffffffffffffff1690506000805b85600501805490508110156125295760008660050182815481106123b2576123b1614ba4565b5b9060005260206000209060020201905060008160000160109054906101000a90046fffffffffffffffffffffffffffffffff166fffffffffffffffffffffffffffffffff1690506000808713612409576000612421565b878288612416919061523c565b6124209190615296565b5b905060008883886fffffffffffffffffffffffffffffffff16612444919061523c565b61244e9190615296565b9050600061247b8560000160009054906101000a90046fffffffffffffffffffffffffffffffff16612b92565b9050600061248a8c8385612bc7565b905060008660010160009054906101000a9004600f0b600f0b90508082126124b257806124b4565b815b91506125028760000160009054906101000a90046fffffffffffffffffffffffffffffffff168e60000160009054906101000a90046fffffffffffffffffffffffffffffffff168488612c9a565b8961250d91906152f6565b985050505050505050808061252190614bd3565b91505061238b565b506125408186600601612d6490919063ffffffff16565b505050505b50565b60008060008061255786610eef565b90506125a1858260010160000160009054906101000a90046fffffffffffffffffffffffffffffffff166fffffffffffffffffffffffffffffffff1661122890919063ffffffff16565b935060006125c3866125b584600301612752565b61122890919063ffffffff16565b905060006125d0836127b5565b90508082136125e05760006125ed565b80826125ec9190615457565b5b94508760010160109054906101000a90046fffffffffffffffffffffffffffffffff16600f0b8561261e9190615457565b9350848860010160106101000a8154816fffffffffffffffffffffffffffffffff02191690836fffffffffffffffffffffffffffffffff1602179055505050509250925092565b6126808161267284610eef565b612e7190919063ffffffff16565b5050565b600082840290508284820414841517821515166126a057600080fd5b81810490509392505050565b600080600090505b826005018054905081101561273f5760006127118460050183815481106126de576126dd614ba4565b5b906000526020600020906002020160000160009054906101000a90046fffffffffffffffffffffffffffffffff16612b92565b905061271c81612ee4565b1561272b57809250505061274d565b50808061273790614bd3565b9150506126b4565b5061274a6000612b92565b90505b919050565b60006b033b2e3c9fd0803ce80000008260000160009054906101000a90046fffffffffffffffffffffffffffffffff16600f0b8360000160109054906101000a9004600f0b600f0b6127a49190614d27565b6127ae9190614e6d565b9050919050565b60006127c382600501612752565b8260000160009054906101000a9004600f0b600f0b6127e291906152f6565b9050919050565b60008073ffffffffffffffffffffffffffffffffffffffff168273ffffffffffffffffffffffffffffffffffffffff16141580156128765750612875838560010160008573ffffffffffffffffffffffffffffffffffffffff1673ffffffffffffffffffffffffffffffffffffffff168152602001908152602001600020611b0390919063ffffffff16565b5b90509392505050565b6000808360000160009054906101000a9004600f0b600f0b14806128a35750600082145b156128b15760009050612b6e565b600042905060008460000160109054906101000a900460070b60070b82600f0b12156128e257600092505050612b6e565b60008560000160189054906101000a900460030b60030b14801561292d57508460000160109054906101000a900460070b60070b85600001601c9054906101000a900460030b60030b125b1561296c5783670de0b6b3a76400008660000160009054906101000a9004600f0b600f0b61295b9190614d27565b6129659190614e6d565b9050612b42565b8460000160189054906101000a900460030b60030b8560000160109054906101000a900460070b61299d91906154f8565b60070b85600001601c9054906101000a900460030b60030b1215612b415760008560000160109054906101000a900460070b60070b86600001601c9054906101000a900460030b60030b12612a63578560000160189054906101000a900460030b60030b8660000160109054906101000a900460070b87600001601c9054906101000a900460030b60030b612a329190615574565b60070b8760000160009054906101000a9004600f0b600f0b612a549190614d27565b612a5e9190614e6d565b612a69565b6000600f0b5b905060008660000160009054906101000a9004600f0b600f0b90508660000160189054906101000a900460030b60030b8760000160109054906101000a900460070b612ab591906154f8565b60070b84600f0b1215612b12578660000160189054906101000a900460030b60030b8760000160109054906101000a900460070b60070b85612af7919061538a565b600f0b82612b059190614d27565b612b0f9190614e6d565b90505b85670de0b6b3a76400008383612b289190615457565b612b329190614d27565b612b3c9190614e6d565b925050505b5b8185600001601c6101000a81548163ffffffff021916908360030b63ffffffff16021790555080925050505b92915050565b6000612b8a8383612b8586866120ab565b6120fc565b905092915050565b60008082604051602001612ba6919061563c565b60405160208183030381529060405280519060200120905080915050919050565b600080612bd2612f2a565b6000015490506000633b9aca0085600a0160000160109054906101000a9004600f0b612bfe919061566a565b9050600080831415612c2257601260ff16600a612c1b919061493a565b9050612c7f565b612c7c8760060160000160009054906101000a90046fffffffffffffffffffffffffffffffff166fffffffffffffffffffffffffffffffff16612c6e858861155490919063ffffffff16565b61155490919063ffffffff16565b90505b8082600f0b612c8e91906152f6565b93505050509392505050565b600080612ca686612b92565b9050600073ffffffffffffffffffffffffffffffffffffffff168160010160009054906101000a900473ffffffffffffffffffffffffffffffffffffffff1673ffffffffffffffffffffffffffffffffffffffff161415612d3e57856040517ff080c1ea000000000000000000000000000000000000000000000000000000008152600401612d359190614a99565b60405180910390fd5b612d4d816402540be3ff612f5b565b612d59818685876133d1565b915050949350505050565b6000811415612d7257612e6d565b60008260000160009054906101000a90046fffffffffffffffffffffffffffffffff166fffffffffffffffffffffffffffffffff1690506000811415612de4576040517f3b182f5500000000000000000000000000000000000000000000000000000000815260040160405180910390fd5b60006b033b2e3c9fd0803ce800000083612dfe9190614d27565b905060008282612e0e9190614e6d565b9050808560000160108282829054906101000a9004600f0b612e309190614ca3565b92506101000a8154816fffffffffffffffffffffffffffffffff0219169083600f0b6fffffffffffffffffffffffffffffffff1602179055505050505b5050565b612e878183600101612d6490919063ffffffff16565b808260000160008282829054906101000a9004600f0b612ea79190614ca3565b92506101000a8154816fffffffffffffffffffffffffffffffff0219169083600f0b6fffffffffffffffffffffffffffffffff1602179055505050565b6000612eef82613672565b8260020160109054906101000a90046fffffffffffffffffffffffffffffffff166fffffffffffffffffffffffffffffffff16109050919050565b600080604051602001612f3c90615720565b6040516020818303038152906040528051906020012090508091505090565b600082600a0160000160009054906101000a90046fffffffffffffffffffffffffffffffff166fffffffffffffffffffffffffffffffff161415612f9e576133cd565b6000612fa983613739565b905060008360030160009054906101000a9004600f0b600f0b9050600084600a0160000160009054906101000a90046fffffffffffffffffffffffffffffffff16600f0b601260ff16600a612ffe919061493a565b838561300a9190615457565b6130149190614d27565b61301e9190614e6d565b633b9aca0086600a0160000160109054906101000a9004600f0b613042919061566a565b600f0b61304f91906152f6565b905060005b60006130628760040161377d565b118015613089575081613077876004016137b0565b6020015161308490615740565b600f0b125b801561309457508481105b156133695760006130a7876004016137ca565b90506000670de0b6b3a7640000633b9aca0089600a0160000160109054906101000a9004600f0b6130d8919061566a565b83602001516130e690615740565b6130f0919061538a565b600f0b89600a0160000160009054906101000a90046fffffffffffffffffffffffffffffffff16600f0b6131249190614d27565b61312e9190614e6d565b90506131468189600a01612d6490919063ffffffff16565b808561315291906152f6565b9450600061318583600001516fffffffffffffffffffffffffffffffff1660001b8a600a016120ab90919063ffffffff16565b116131c5576040517f08c379a00000000000000000000000000000000000000000000000000000000081526004016131bc906157d5565b60405180910390fd5b60006131f983600001516fffffffffffffffffffffffffffffffff1660001b60008b600a016120fc9092919063ffffffff16565b90508089600c01600085600001516fffffffffffffffffffffffffffffffff166fffffffffffffffffffffffffffffffff168152602001908152602001600020600082825461324891906152f6565b92505081905550600089600a0160000160009054906101000a90046fffffffffffffffffffffffffffffffff166fffffffffffffffffffffffffffffffff1614156132d757858960030160006101000a8154816fffffffffffffffffffffffffffffffff0219169083600f0b6fffffffffffffffffffffffffffffffff160217905550505050505050506133cd565b88600a0160000160009054906101000a90046fffffffffffffffffffffffffffffffff16600f0b601260ff16600a61330f919061493a565b878961331b9190615457565b6133259190614d27565b61332f9190614e6d565b89600a0160000160109054906101000a9004600f0b600f0b61335191906152f6565b9450505050808061336190614bd3565b915050613054565b5061338b82846133799190615457565b86600a01612d6490919063ffffffff16565b828560030160006101000a8154816fffffffffffffffffffffffffffffffff0219169083600f0b6fffffffffffffffffffffffffffffffff1602179055505050505b5050565b6000806133de86866137e4565b905060006133f8868860040161381990919063ffffffff16565b6020015161340590615740565b600f0b9050633b9aca0087600a0160000160109054906101000a9004600f0b61342e919061566a565b600f0b84136134575760009450613451868860040161386c90919063ffffffff16565b5061347a565b613478868561346590615740565b896004016138bf9092919063ffffffff16565b505b6134a7866fffffffffffffffffffffffffffffffff1660001b8689600a016120fc9092919063ffffffff16565b87600c016000886fffffffffffffffffffffffffffffffff166fffffffffffffffffffffffffffffffff168152602001908152602001600020546134eb91906152f6565b9250600087600c016000886fffffffffffffffffffffffffffffffff166fffffffffffffffffffffffffffffffff16815260200190815260200160002081905550633b9aca0087600a0160000160109054906101000a9004600f0b613550919061566a565b600f0b8413156135ca576135658786866139cf565b8760020160108282829054906101000a90046fffffffffffffffffffffffffffffffff1661359391906151c2565b92506101000a8154816fffffffffffffffffffffffffffffffff02191690836fffffffffffffffffffffffffffffffff1602179055505b633b9aca0087600a0160000160109054906101000a9004600f0b6135ee919061566a565b600f0b811315613668576136038783836139cf565b8760020160108282829054906101000a90046fffffffffffffffffffffffffffffffff166136319190615208565b92506101000a8154816fffffffffffffffffffffffffffffffff02191690836fffffffffffffffffffffffffffffffff1602179055505b5050949350505050565b60008160010160009054906101000a900473ffffffffffffffffffffffffffffffffffffffff1673ffffffffffffffffffffffffffffffffffffffff1663c9c04a7f8360000160009054906101000a90046fffffffffffffffffffffffffffffffff166040518263ffffffff1660e01b81526004016136f19190614a99565b602060405180830381865afa15801561370e573d6000803e3d6000fd5b505050506040513d601f19601f8201168201806040525081019061373291906157f5565b9050919050565b600061374482613a1e565b8260020160009054906101000a9004600f0b600f0b61376284613b20565b61376c91906152f6565b6137769190615457565b9050919050565b6000808260010180549050116137945760006137a9565b600182600101805490506137a89190614985565b5b9050919050565b6137b86144ee565b6137c3826001613be7565b9050919050565b6137d26144ee565b6137dd826001613cc9565b9050919050565b6000613811826fffffffffffffffffffffffffffffffff1660001b84600a016120ab90919063ffffffff16565b905092915050565b6138216144ee565b61386483846002016000856fffffffffffffffffffffffffffffffff166fffffffffffffffffffffffffffffffff16815260200190815260200160002054613be7565b905092915050565b6138746144ee565b6138b783846002016000856fffffffffffffffffffffffffffffffff166fffffffffffffffffffffffffffffffff16815260200190815260200160002054613cc9565b905092915050565b6138c76144ee565b6000846001018054905014156138e1576138e084613fd2565b5b6138e96144ee565b6138f3858561386c565b5084600001600081819054906101000a90046fffffffffffffffffffffffffffffffff168092919061392490615822565b91906101000a8154816fffffffffffffffffffffffffffffffff02191690836fffffffffffffffffffffffffffffffff16021790555050846001016001816001815401808255809150500390600052602060002050506040518060400160405280856fffffffffffffffffffffffffffffffff16815260200184600f0b81525090506139c48582600188600101805490506139bf9190614985565b6140be565b809150509392505050565b6000613a1583633b9aca0086600a0160000160109054906101000a9004600f0b6139f9919061566a565b600f0b84613a079190615457565b61122890919063ffffffff16565b90509392505050565b6000806000905060005b83600d0180549050811015613b1657600084600d018281548110613a4f57613a4e614ba4565b5b90600052602060002090600202016040518060400160405290816000820160009054906101000a900473ffffffffffffffffffffffffffffffffffffffff1673ffffffffffffffffffffffffffffffffffffffff1673ffffffffffffffffffffffffffffffffffffffff1681526020016001820154815250509050613af58160200151613ae7613ae2846000015161124d565b611410565b61122890919063ffffffff16565b83613b009190614b4e565b9250508080613b0e90614bd3565b915050613a28565b5080915050919050565b60008160010160009054906101000a900473ffffffffffffffffffffffffffffffffffffffff1673ffffffffffffffffffffffffffffffffffffffff1663bcec0d0f8360000160009054906101000a90046fffffffffffffffffffffffffffffffff166040518263ffffffff1660e01b8152600401613b9f9190614a99565b602060405180830381865afa158015613bbc573d6000803e3d6000fd5b505050506040513d601f19601f82011682018060405250810190613be091906157f5565b9050919050565b613bef6144ee565b81836001018054905011613c2e57604051806040016040528060006fffffffffffffffffffffffffffffffff1681526020016000600f0b815250613cc1565b826001018281548110613c4457613c43614ba4565b5b906000526020600020016040518060400160405290816000820160009054906101000a90046fffffffffffffffffffffffffffffffff166fffffffffffffffffffffffffffffffff166fffffffffffffffffffffffffffffffff1681526020016000820160109054906101000a9004600f0b600f0b600f0b815250505b905092915050565b613cd16144ee565b818360010180549050111580613ce8575060008211155b15613d2057604051806040016040528060006fffffffffffffffffffffffffffffffff1681526020016000600f0b8152509050613fcc565b6000836001018381548110613d3857613d37614ba4565b5b906000526020600020016040518060400160405290816000820160009054906101000a90046fffffffffffffffffffffffffffffffff166fffffffffffffffffffffffffffffffff166fffffffffffffffffffffffffffffffff1681526020016000820160109054906101000a9004600f0b600f0b600f0b81525050905083600201600082600001516fffffffffffffffffffffffffffffffff166fffffffffffffffffffffffffffffffff1681526020019081526020016000206000905560008460010160018660010180549050613e119190614985565b81548110613e2257613e21614ba4565b5b906000526020600020016040518060400160405290816000820160009054906101000a90046fffffffffffffffffffffffffffffffff166fffffffffffffffffffffffffffffffff166fffffffffffffffffffffffffffffffff1681526020016000820160109054906101000a9004600f0b600f0b600f0b81525050905084600101805480613eb457613eb36152c7565b5b60019003818190600052602060002001600080820160006101000a8154906fffffffffffffffffffffffffffffffff02191690556000820160106101000a8154906fffffffffffffffffffffffffffffffff0219169055505090558460010180549050841015613fc657613f298582866140be565b613fc585866001018681548110613f4357613f42614ba4565b5b906000526020600020016040518060400160405290816000820160009054906101000a90046fffffffffffffffffffffffffffffffff166fffffffffffffffffffffffffffffffff166fffffffffffffffffffffffffffffffff1681526020016000820160109054906101000a9004600f0b600f0b600f0b81525050866141ed565b5b81925050505b92915050565b6000816001018054905014156140bb5780600101604051806040016040528060006fffffffffffffffffffffffffffffffff1681526020016000600f0b8152509080600181540180825580915050600190039060005260206000200160009091909190915060008201518160000160006101000a8154816fffffffffffffffffffffffffffffffff02191690836fffffffffffffffffffffffffffffffff16021790555060208201518160000160106101000a8154816fffffffffffffffffffffffffffffffff0219169083600f0b6fffffffffffffffffffffffffffffffff16021790555050505b50565b60018114806141135750826001016002826140d99190615296565b815481106140ea576140e9614ba4565b5b9060005260206000200160000160109054906101000a9004600f0b600f0b8260200151600f0b13155b1561412857614123838383614402565b6141e8565b6141d0838460010160028461413d9190615296565b8154811061414e5761414d614ba4565b5b906000526020600020016040518060400160405290816000820160009054906101000a90046fffffffffffffffffffffffffffffffff166fffffffffffffffffffffffffffffffff166fffffffffffffffffffffffffffffffff1681526020016000820160109054906101000a9004600f0b600f0b600f0b8152505083614402565b6141e783836002846141e29190615296565b6140be565b5b505050565b6000836001018054905090506000600283614208919061523c565b90508082116142215761421c858585614402565b6143fb565b600085600101828154811061423957614238614ba4565b5b906000526020600020016040518060400160405290816000820160009054906101000a90046fffffffffffffffffffffffffffffffff166fffffffffffffffffffffffffffffffff166fffffffffffffffffffffffffffffffff1681526020016000820160109054906101000a9004600f0b600f0b600f0b8152505090506001826142c49190614b4e565b8311801561431757508060200151600f0b866001016001846142e69190614b4e565b815481106142f7576142f6614ba4565b5b9060005260206000200160000160109054906101000a9004600f0b600f0b135b156143bd57856001018261432a90614bd3565b9250828154811061433e5761433d614ba4565b5b906000526020600020016040518060400160405290816000820160009054906101000a90046fffffffffffffffffffffffffffffffff166fffffffffffffffffffffffffffffffff166fffffffffffffffffffffffffffffffff1681526020016000820160109054906101000a9004600f0b600f0b600f0b8152505090505b8460200151600f0b8160200151600f0b136143e2576143dd868686614402565b6143f9565b6143ed868286614402565b6143f88686846141ed565b5b505b5050505050565b8183600101828154811061441957614418614ba4565b5b9060005260206000200160008201518160000160006101000a8154816fffffffffffffffffffffffffffffffff02191690836fffffffffffffffffffffffffffffffff16021790555060208201518160000160106101000a8154816fffffffffffffffffffffffffffffffff0219169083600f0b6fffffffffffffffffffffffffffffffff1602179055509050508083600201600084600001516fffffffffffffffffffffffffffffffff166fffffffffffffffffffffffffffffffff16815260200190815260200160002081905550505050565b604051806040016040528060006fffffffffffffffffffffffffffffffff1681526020016000600f0b81525090565b600080fd5b60006fffffffffffffffffffffffffffffffff82169050919050565b61454781614522565b811461455257600080fd5b50565b6000813590506145648161453e565b92915050565b600073ffffffffffffffffffffffffffffffffffffffff82169050919050565b60006145958261456a565b9050919050565b6145a58161458a565b81146145b057600080fd5b50565b6000813590506145c28161459c565b92915050565b600080604083850312156145df576145de61451d565b5b60006145ed85828601614555565b92505060206145fe858286016145b3565b9150509250929050565b6000819050919050565b61461b81614608565b82525050565b60006040820190506146366000830185614612565b6146436020830184614612565b9392505050565b6000819050919050565b61465d8161464a565b82525050565b60006020820190506146786000830184614654565b92915050565b6000806000606084860312156146975761469661451d565b5b60006146a586828701614555565b93505060206146b686828701614555565b92505060406146c7868287016145b3565b9150509250925092565b60006020820190506146e66000830184614612565b92915050565b6146f581614608565b811461470057600080fd5b50565b600081359050614712816146ec565b92915050565b600080600080600060a086880312156147345761473361451d565b5b600061474288828901614555565b955050602061475388828901614555565b9450506040614764888289016145b3565b935050606061477588828901614703565b925050608061478688828901614703565b9150509295509295909350565b60006080820190506147a86000830187614612565b6147b56020830186614612565b6147c26040830185614654565b6147cf6060830184614612565b95945050505050565b7f4e487b7100000000000000000000000000000000000000000000000000000000600052601160045260246000fd5b60008160011c9050919050565b6000808291508390505b600185111561485e5780860481111561483a576148396147d8565b5b60018516156148495780820291505b808102905061485785614807565b945061481e565b94509492505050565b6000826148775760019050614933565b816148855760009050614933565b816001811461489b57600281146148a5576148d4565b6001915050614933565b60ff8411156148b7576148b66147d8565b5b8360020a9150848211156148ce576148cd6147d8565b5b50614933565b5060208310610133831016604e8410600b84101617156149095782820a905083811115614904576149036147d8565b5b614933565b6149168484846001614814565b9250905081840481111561492d5761492c6147d8565b5b81810290505b9392505050565b600061494582614608565b915061495083614608565b925061497d7fffffffffffffffffffffffffffffffffffffffffffffffffffffffffffffffff8484614867565b905092915050565b600061499082614608565b915061499b83614608565b9250828210156149ae576149ad6147d8565b5b828203905092915050565b6149c28161458a565b82525050565b60006060820190506149dd60008301866149b9565b6149ea6020830185614612565b6149f76040830184614612565b949350505050565b600082825260208201905092915050565b7f506f6f6c00000000000000000000000000000000000000000000000000000000600082015250565b6000614a466004836149ff565b9150614a5182614a10565b602082019050919050565b614a6581614522565b82525050565b60006040820190508181036000830152614a8481614a39565b9050614a936020830184614a5c565b92915050565b6000602082019050614aae6000830184614a5c565b92915050565b6000602082019050614ac960008301846149b9565b92915050565b6000819050919050565b614ae281614acf565b82525050565b6000606082019050614afd6000830186614a5c565b614b0a6020830185614ad9565b614b1760408301846149b9565b949350505050565b7f4e487b7100000000000000000000000000000000000000000000000000000000600052604160045260246000fd5b6000614b5982614608565b9150614b6483614608565b9250827fffffffffffffffffffffffffffffffffffffffffffffffffffffffffffffffff03821115614b9957614b986147d8565b5b828201905092915050565b7f4e487b7100000000000000000000000000000000000000000000000000000000600052603260045260246000fd5b6000614bde82614608565b91507fffffffffffffffffffffffffffffffffffffffffffffffffffffffffffffffff821415614c1157614c106147d8565b5b600182019050919050565b7f4163636f756e7400000000000000000000000000000000000000000000000000600082015250565b6000614c526007836149ff565b9150614c5d82614c1c565b602082019050919050565b60006040820190508181036000830152614c8181614c45565b9050614c906020830184614a5c565b92915050565b600081600f0b9050919050565b6000614cae82614c96565b9150614cb983614c96565b9250816f7fffffffffffffffffffffffffffffff03831360008312151615614ce457614ce36147d8565b5b817fffffffffffffffffffffffffffffffff80000000000000000000000000000000038312600083121615614d1c57614d1b6147d8565b5b828201905092915050565b6000614d328261464a565b9150614d3d8361464a565b9250827f7fffffffffffffffffffffffffffffffffffffffffffffffffffffffffffffff0482116000841360008413161615614d7c57614d7b6147d8565b5b817f80000000000000000000000000000000000000000000000000000000000000000583126000841260008413161615614db957614db86147d8565b5b827f80000000000000000000000000000000000000000000000000000000000000000582126000841360008412161615614df657614df56147d8565b5b827f7fffffffffffffffffffffffffffffffffffffffffffffffffffffffffffffff0582126000841260008412161615614e3357614e326147d8565b5b828202905092915050565b7f4e487b7100000000000000000000000000000000000000000000000000000000600052601260045260246000fd5b6000614e788261464a565b9150614e838361464a565b925082614e9357614e92614e3e565b5b600160000383147f800000000000000000000000000000000000000000000000000000000000000083141615614ecc57614ecb6147d8565b5b828205905092915050565b7f436f6c6c61746572616c436f6e66696775726174696f6e000000000000000000600082015250565b6000614f0d6017836149ff565b9150614f1882614ed7565b602082019050919050565b60006040820190508181036000830152614f3c81614f00565b9050614f4b60208301846149b9565b92915050565b6000608082019050614f666000830187614612565b614f736020830186614612565b614f806040830185614612565b614f8d6060830184614612565b95945050505050565b6000819050919050565b6000614fbb614fb6614fb184614522565b614f96565b614608565b9050919050565b614fcb81614fa0565b82525050565b6000602082019050614fe66000830184614fc2565b92915050565b600069ffffffffffffffffffff82169050919050565b61500b81614fec565b811461501657600080fd5b50565b60008151905061502881615002565b92915050565b6150378161464a565b811461504257600080fd5b50565b6000815190506150548161502e565b92915050565b600081519050615069816146ec565b92915050565b600080600080600060a0868803121561508b5761508a61451d565b5b600061509988828901615019565b95505060206150aa88828901615045565b94505060406150bb8882890161505a565b93505060606150cc8882890161505a565b92505060806150dd88828901615019565b9150509295509295909350565b7f54686520636f6c6c61746572616c2076616c7565206973203000000000000000600082015250565b60006151206019836149ff565b915061512b826150ea565b602082019050919050565b6000602082019050818103600083015261514f81615113565b9050919050565b7f4e6f206469737472696275746f72000000000000000000000000000000000000600082015250565b600061518c600e836149ff565b915061519782615156565b602082019050919050565b600060208201905081810360008301526151bb8161517f565b9050919050565b60006151cd82614522565b91506151d883614522565b9250826fffffffffffffffffffffffffffffffff038211156151fd576151fc6147d8565b5b828201905092915050565b600061521382614522565b915061521e83614522565b925082821015615231576152306147d8565b5b828203905092915050565b600061524782614608565b915061525283614608565b9250817fffffffffffffffffffffffffffffffffffffffffffffffffffffffffffffffff048311821515161561528b5761528a6147d8565b5b828202905092915050565b60006152a182614608565b91506152ac83614608565b9250826152bc576152bb614e3e565b5b828204905092915050565b7f4e487b7100000000000000000000000000000000000000000000000000000000600052603160045260246000fd5b60006153018261464a565b915061530c8361464a565b9250817f7fffffffffffffffffffffffffffffffffffffffffffffffffffffffffffffff03831360008312151615615347576153466147d8565b5b817f800000000000000000000000000000000000000000000000000000000000000003831260008312161561537f5761537e6147d8565b5b828201905092915050565b600061539582614c96565b91506153a083614c96565b9250827fffffffffffffffffffffffffffffffff80000000000000000000000000000000018212600084121516156153db576153da6147d8565b5b826f7fffffffffffffffffffffffffffffff018213600084121615615403576154026147d8565b5b828203905092915050565b60006154198261464a565b91507f800000000000000000000000000000000000000000000000000000000000000082141561544c5761544b6147d8565b5b816000039050919050565b60006154628261464a565b915061546d8361464a565b9250827f8000000000000000000000000000000000000000000000000000000000000000018212600084121516156154a8576154a76147d8565b5b827f7fffffffffffffffffffffffffffffffffffffffffffffffffffffffffffffff0182136000841216156154e0576154df6147d8565b5b828203905092915050565b60008160070b9050919050565b6000615503826154eb565b915061550e836154eb565b925081677fffffffffffffff03831360008312151615615531576155306147d8565b5b817fffffffffffffffffffffffffffffffffffffffffffffffff8000000000000000038312600083121615615569576155686147d8565b5b828201905092915050565b600061557f826154eb565b915061558a836154eb565b9250827fffffffffffffffffffffffffffffffffffffffffffffffff8000000000000000018212600084121516156155c5576155c46147d8565b5b82677fffffffffffffff0182136000841216156155e5576155e46147d8565b5b828203905092915050565b7f4d61726b65740000000000000000000000000000000000000000000000000000600082015250565b60006156266006836149ff565b9150615631826155f0565b602082019050919050565b6000604082019050818103600083015261565581615619565b90506156646020830184614a5c565b92915050565b600061567582614c96565b915061568083614c96565b9250826156905761568f614e3e565b5b600160000383147fffffffffffffffffffffffffffffffff80000000000000000000000000000000831416156156c9576156c86147d8565b5b828205905092915050565b7f506f6f6c436f6e66696775726174696f6e000000000000000000000000000000600082015250565b600061570a6011836149ff565b9150615715826156d4565b602082019050919050565b60006020820190508181036000830152615739816156fd565b9050919050565b600061574b82614c96565b91507fffffffffffffffffffffffffffffffff8000000000000000000000000000000082141561577e5761577d6147d8565b5b816000039050919050565b7f6e6f20736861726573206f6e206163746f722072656d6f76616c000000000000600082015250565b60006157bf601a836149ff565b91506157ca82615789565b602082019050919050565b600060208201905081810360008301526157ee816157b2565b9050919050565b60006020828403121561580b5761580a61451d565b5b60006158198482850161505a565b91505092915050565b600061582d82614522565b91506fffffffffffffffffffffffffffffffff8214156158505761584f6147d8565b5b60018201905091905056fea2646970667358221220355bfc6ffd026f5a75d2af76487342556eda08eacced71a3626913c0ce3919dd64736f6c634300080b0033",
  "linkReferences": {},
  "deployedLinkReferences": {}
}