{
  "_format": "hh-sol-artifact-1",
  "contractName": "VaultModule",
  "sourceName": "contracts/modules/core/VaultModule.sol",
  "abi": [
    {
      "inputs": [
        {
          "internalType": "uint256",
          "name": "marketId",
          "type": "uint256"
        }
      ],
      "name": "CapacityLocked",
      "type": "error"
    },
    {
      "inputs": [
        {
          "internalType": "address",
          "name": "collateralType",
          "type": "address"
        }
      ],
      "name": "CollateralDepositDisabled",
      "type": "error"
    },
    {
      "inputs": [],
      "name": "EmptyDistribution",
      "type": "error"
    },
    {
      "inputs": [],
      "name": "InconsistentDistribution",
      "type": "error"
    },
    {
      "inputs": [
        {
          "internalType": "uint256",
          "name": "requestedAmount",
          "type": "uint256"
        }
      ],
      "name": "InsufficientAccountCollateral",
      "type": "error"
    },
    {
      "inputs": [
        {
          "internalType": "uint256",
          "name": "collateralValue",
          "type": "uint256"
        },
        {
          "internalType": "uint256",
          "name": "debt",
          "type": "uint256"
        },
        {
          "internalType": "uint256",
          "name": "ratio",
          "type": "uint256"
        },
        {
          "internalType": "uint256",
          "name": "minRatio",
          "type": "uint256"
        }
      ],
      "name": "InsufficientCollateralRatio",
      "type": "error"
    },
    {
      "inputs": [
        {
          "internalType": "uint256",
          "name": "minDelegation",
          "type": "uint256"
        }
      ],
      "name": "InsufficientDelegation",
      "type": "error"
    },
    {
      "inputs": [
        {
          "internalType": "address",
          "name": "collateralType",
          "type": "address"
        }
      ],
      "name": "InvalidCollateral",
      "type": "error"
    },
    {
      "inputs": [
        {
          "internalType": "uint256",
          "name": "leverage",
          "type": "uint256"
        }
      ],
      "name": "InvalidLeverage",
      "type": "error"
    },
    {
      "inputs": [
        {
          "internalType": "string",
          "name": "incorrectParameter",
          "type": "string"
        },
        {
          "internalType": "string",
          "name": "help",
          "type": "string"
        }
      ],
      "name": "InvalidParameters",
      "type": "error"
    },
    {
      "inputs": [
        {
          "internalType": "uint128",
          "name": "marketId",
          "type": "uint128"
        }
      ],
      "name": "MarketNotFound",
      "type": "error"
    },
    {
      "inputs": [],
      "name": "OverflowInt256ToInt128",
      "type": "error"
    },
    {
      "inputs": [],
      "name": "OverflowInt256ToUint256",
      "type": "error"
    },
    {
      "inputs": [],
      "name": "OverflowUint128ToInt128",
      "type": "error"
    },
    {
      "inputs": [],
      "name": "OverflowUint256ToUint128",
      "type": "error"
    },
    {
      "inputs": [
        {
          "internalType": "uint128",
          "name": "accountId",
          "type": "uint128"
        },
        {
          "internalType": "bytes32",
          "name": "permission",
          "type": "bytes32"
        },
        {
          "internalType": "address",
          "name": "target",
          "type": "address"
        }
      ],
      "name": "PermissionDenied",
      "type": "error"
    },
    {
      "inputs": [
        {
          "internalType": "uint128",
          "name": "poolId",
          "type": "uint128"
        }
      ],
      "name": "PoolNotFound",
      "type": "error"
    },
    {
      "inputs": [
        {
          "internalType": "uint128",
          "name": "poolId",
          "type": "uint128"
        }
      ],
      "name": "PoolNotFound",
      "type": "error"
    },
    {
      "inputs": [],
      "name": "PositionOutOfBounds",
      "type": "error"
    },
    {
      "inputs": [],
      "name": "ValueAlreadyInSet",
      "type": "error"
    },
    {
      "inputs": [],
      "name": "ValueNotInSet",
      "type": "error"
    },
    {
      "inputs": [],
      "name": "ZeroValuePerShare",
      "type": "error"
    },
    {
      "anonymous": false,
      "inputs": [
        {
          "indexed": true,
          "internalType": "uint128",
          "name": "accountId",
          "type": "uint128"
        },
        {
          "indexed": true,
          "internalType": "uint128",
          "name": "poolId",
          "type": "uint128"
        },
        {
          "indexed": false,
          "internalType": "address",
          "name": "collateralType",
          "type": "address"
        },
        {
          "indexed": false,
          "internalType": "uint256",
          "name": "amount",
          "type": "uint256"
        },
        {
          "indexed": false,
          "internalType": "uint256",
          "name": "leverage",
          "type": "uint256"
        },
        {
          "indexed": true,
          "internalType": "address",
          "name": "sender",
          "type": "address"
        }
      ],
      "name": "DelegationUpdated",
      "type": "event"
    },
    {
      "inputs": [
        {
          "internalType": "uint128",
          "name": "accountId",
          "type": "uint128"
        },
        {
          "internalType": "uint128",
          "name": "poolId",
          "type": "uint128"
        },
        {
          "internalType": "address",
          "name": "collateralType",
          "type": "address"
        },
        {
          "internalType": "uint256",
          "name": "collateralAmount",
          "type": "uint256"
        },
        {
          "internalType": "uint256",
          "name": "leverage",
          "type": "uint256"
        }
      ],
      "name": "delegateCollateral",
      "outputs": [],
      "stateMutability": "nonpayable",
      "type": "function"
    },
    {
      "inputs": [
        {
          "internalType": "uint128",
          "name": "accountId",
          "type": "uint128"
        },
        {
          "internalType": "uint128",
          "name": "poolId",
          "type": "uint128"
        },
        {
          "internalType": "address",
          "name": "collateralType",
          "type": "address"
        }
      ],
      "name": "getPosition",
      "outputs": [
        {
          "internalType": "uint256",
          "name": "collateralAmount",
          "type": "uint256"
        },
        {
          "internalType": "uint256",
          "name": "collateralValue",
          "type": "uint256"
        },
        {
          "internalType": "int256",
          "name": "debt",
          "type": "int256"
        },
        {
          "internalType": "uint256",
          "name": "collateralizationRatio",
          "type": "uint256"
        }
      ],
      "stateMutability": "nonpayable",
      "type": "function"
    },
    {
      "inputs": [
        {
          "internalType": "uint128",
          "name": "accountId",
          "type": "uint128"
        },
        {
          "internalType": "uint128",
          "name": "poolId",
          "type": "uint128"
        },
        {
          "internalType": "address",
          "name": "collateralType",
          "type": "address"
        }
      ],
      "name": "getPositionCollateral",
      "outputs": [
        {
          "internalType": "uint256",
          "name": "amount",
          "type": "uint256"
        },
        {
          "internalType": "uint256",
          "name": "value",
          "type": "uint256"
        }
      ],
      "stateMutability": "view",
      "type": "function"
    },
    {
      "inputs": [
        {
          "internalType": "uint128",
          "name": "accountId",
          "type": "uint128"
        },
        {
          "internalType": "uint128",
          "name": "poolId",
          "type": "uint128"
        },
        {
          "internalType": "address",
          "name": "collateralType",
          "type": "address"
        }
      ],
      "name": "getPositionCollateralizationRatio",
      "outputs": [
        {
          "internalType": "uint256",
          "name": "",
          "type": "uint256"
        }
      ],
      "stateMutability": "nonpayable",
      "type": "function"
    },
    {
      "inputs": [
        {
          "internalType": "uint128",
          "name": "accountId",
          "type": "uint128"
        },
        {
          "internalType": "uint128",
          "name": "poolId",
          "type": "uint128"
        },
        {
          "internalType": "address",
          "name": "collateralType",
          "type": "address"
        }
      ],
      "name": "getPositionDebt",
      "outputs": [
        {
          "internalType": "int256",
          "name": "",
          "type": "int256"
        }
      ],
      "stateMutability": "nonpayable",
      "type": "function"
    },
    {
      "inputs": [
        {
          "internalType": "uint128",
          "name": "poolId",
          "type": "uint128"
        },
        {
          "internalType": "address",
          "name": "collateralType",
          "type": "address"
        }
      ],
      "name": "getVaultCollateral",
      "outputs": [
        {
          "internalType": "uint256",
          "name": "amount",
          "type": "uint256"
        },
        {
          "internalType": "uint256",
          "name": "value",
          "type": "uint256"
        }
      ],
      "stateMutability": "view",
      "type": "function"
    },
    {
      "inputs": [
        {
          "internalType": "uint128",
          "name": "poolId",
          "type": "uint128"
        },
        {
          "internalType": "address",
          "name": "collateralType",
          "type": "address"
        }
      ],
      "name": "getVaultCollateralRatio",
      "outputs": [
        {
          "internalType": "uint256",
          "name": "",
          "type": "uint256"
        }
      ],
      "stateMutability": "nonpayable",
      "type": "function"
    },
    {
      "inputs": [
        {
          "internalType": "uint128",
          "name": "poolId",
          "type": "uint128"
        },
        {
          "internalType": "address",
          "name": "collateralType",
          "type": "address"
        }
      ],
      "name": "getVaultDebt",
      "outputs": [
        {
          "internalType": "int256",
          "name": "",
          "type": "int256"
        }
      ],
      "stateMutability": "nonpayable",
      "type": "function"
    }
  ],
  "bytecode": "0x608060405234801561001057600080fd5b50615f9080620000216000396000f3fe608060405234801561001057600080fd5b50600436106100885760003560e01c806360248c551161005b57806360248c551461014f5780637b0532a41461017f578063f08c9b5f1461019b578063f544d66e146101cb57610088565b8063078145a81461008d5780632fb8ff24146100be57806333cc422b146100ee5780633593bbd21461011f575b600080fd5b6100a760048036038101906100a29190614dd9565b6101fe565b6040516100b5929190614e32565b60405180910390f35b6100d860048036038101906100d39190614dd9565b610227565b6040516100e59190614e74565b60405180910390f35b61010860048036038101906101039190614e8f565b61024c565b604051610116929190614e32565b60405180910390f35b61013960048036038101906101349190614e8f565b61027c565b6040516101469190614e74565b60405180910390f35b61016960048036038101906101649190614dd9565b6102a4565b6040516101769190614ee2565b60405180910390f35b61019960048036038101906101949190614f29565b6102c9565b005b6101b560048036038101906101b09190614e8f565b610534565b6040516101c29190614ee2565b60405180910390f35b6101e560048036038101906101e09190614e8f565b61055c565b6040516101f59493929190614fa4565b60405180910390f35b60008061021c8361020e866105c4565b6105f990919063ffffffff16565b915091509250929050565b600061024482610236856105c4565b61067990919063ffffffff16565b905092915050565b60008061026c838661025d876105c4565b6106d79092919063ffffffff16565b8092508193505050935093915050565b600061029b828561028c866105c4565b6107629092919063ffffffff16565b90509392505050565b60006102c1826102b3856105c4565b6107cb90919063ffffffff16565b905092915050565b6102d284610861565b6102fc857f44454c45474154450000000000000000000000000000000000000000000000006108ae565b60008211156103105761030f8383610917565b5b670de0b6b3a7640000811461035c57806040517f69bb33550000000000000000000000000000000000000000000000000000000081526004016103539190614ee2565b60405180910390fd5b6000610367856105c4565b600a0160008573ffffffffffffffffffffffffffffffffffffffff1673ffffffffffffffffffffffffffffffffffffffff16815260200190815260200160002090506103bc868261098990919063ffffffff16565b505060006103d38783610bcd90919063ffffffff16565b9050808411156103fd576103e685610bf2565b6103fc878683876103f79190615018565b610c50565b5b6000876fffffffffffffffffffffffffffffffff1660001b9050600061042789898989878a610ce6565b9050610434898989610edf565b8286101561049f57600061045c8361044b87610f87565b600501610fa990919063ffffffff16565b905061049d6000821261046f5781610472565b60005b610485848a61101290919063ffffffff16565b61048e8b61103b565b6110709092919063ffffffff16565b505b828610156104b1576104b0886110f9565b5b3373ffffffffffffffffffffffffffffffffffffffff16886fffffffffffffffffffffffffffffffff168a6fffffffffffffffffffffffffffffffff167f7b12dd38f18c0ff77ae702f6da13fbbcb28f53f807ecc7d39ee8d8b1ea8295ad8a8a8a6040516105219392919061505b565b60405180910390a4505050505050505050565b60006105538285610544866105c4565b6111b09092919063ffffffff16565b90509392505050565b600080600080600061056d876105c4565b90506105848689836107629092919063ffffffff16565b925061059b8689836106d79092919063ffffffff16565b80955081965050506105b88689836111b09092919063ffffffff16565b91505093509350935093565b600080826040516020016105d891906150fe565b60405160208183030381529060405280519060200120905080915050919050565b600080600061060f61060a8561103b565b6111fe565b905061065a85600a0160008673ffffffffffffffffffffffffffffffffffffffff1673ffffffffffffffffffffffffffffffffffffffff1681526020019081526020016000206112e6565b925061066f838261101290919063ffffffff16565b9150509250929050565b60006106858383611303565b506106cf83600a0160008473ffffffffffffffffffffffffffffffffffffffff1673ffffffffffffffffffffffffffffffffffffffff168152602001908152602001600020611482565b905092915050565b60008060006106ed6106e88661103b565b6111fe565b90506107428487600a0160008873ffffffffffffffffffffffffffffffffffffffff1673ffffffffffffffffffffffffffffffffffffffff168152602001908152602001600020610bcd90919063ffffffff16565b9250610757838261101290919063ffffffff16565b915050935093915050565b600061076e8484611303565b506107c28285600a0160008673ffffffffffffffffffffffffffffffffffffffff1673ffffffffffffffffffffffffffffffffffffffff16815260200190815260200160002061149c90919063ffffffff16565b90509392505050565b60006107d78383611303565b50600061082384600a0160008573ffffffffffffffffffffffffffffffffffffffff1673ffffffffffffffffffffffffffffffffffffffff168152602001908152602001600020611482565b9050600061083185856105f9565b91505060008213610843576000610857565b61085681836114c190919063ffffffff16565b5b9250505092915050565b61086a816114ea565b6108ab57806040517f32b961eb0000000000000000000000000000000000000000000000000000000081526004016108a2919061512c565b60405180910390fd5b50565b6108ce81336108bc8561155e565b6001016115939092919063ffffffff16565b610913578181336040517f01de552200000000000000000000000000000000000000000000000000000000815260040161090a93929190615160565b60405180910390fd5b5050565b60006109228361103b565b9050600081600601549050600081141561093e57816003015490505b8083101561098357806040517f9231d1c600000000000000000000000000000000000000000000000000000000815260040161097a9190614ee2565b60405180910390fd5b50505050565b606080600061099a85600401611635565b67ffffffffffffffff8111156109b3576109b2615197565b5b6040519080825280602002602001820160405280156109e15781602001602082028036833780820191505090505b50905060006109f286600401611635565b67ffffffffffffffff811115610a0b57610a0a615197565b5b604051908082528060200260200182016040528015610a395781602001602082028036833780820191505090505b50905060005b610a4b87600401611635565b811015610bbd576000876003016000610a7c600185610a6a91906151c6565b8b60040161164690919063ffffffff16565b81526020019081526020016000209050600073ffffffffffffffffffffffffffffffffffffffff168160000160009054906101000a900473ffffffffffffffffffffffffffffffffffffffff1673ffffffffffffffffffffffffffffffffffffffff161415610aeb5750610baa565b610b178888610b12600186610b0091906151c6565b8c60040161164690919063ffffffff16565b6116ce565b848381518110610b2a57610b2961521c565b5b6020026020010181815250508060000160009054906101000a900473ffffffffffffffffffffffffffffffffffffffff16838381518110610b6e57610b6d61521c565b5b602002602001019073ffffffffffffffffffffffffffffffffffffffff16908173ffffffffffffffffffffffffffffffffffffffff1681525050505b8080610bb59061524b565b915050610a3f565b5081819350935050509250929050565b6000610bea82610bdc85610f87565b611a7590919063ffffffff16565b905092915050565b610bfb8161103b565b60000160009054906101000a900460ff16610c4d57806040517fc109f9e8000000000000000000000000000000000000000000000000000000008152600401610c449190615294565b60405180910390fd5b50565b80610c5a8461155e565b60070160008473ffffffffffffffffffffffffffffffffffffffff1673ffffffffffffffffffffffffffffffffffffffff168152602001908152602001600020600101541015610ce157806040517f4c8cb9dc000000000000000000000000000000000000000000000000000000008152600401610cd89190614ee2565b60405180910390fd5b505050565b600080610cf2876105c4565b9050610d098689836107629092919063ffffffff16565b506000610d158961155e565b60070160008873ffffffffffffffffffffffffffffffffffffffff1673ffffffffffffffffffffffffffffffffffffffff168152602001908152602001600020905084861115610d8257610d7d8587610d6e9190615018565b82611a9d90919063ffffffff16565b610da1565b610da08686610d919190615018565b82611abc90919063ffffffff16565b5b600086118015610dd65750610dd4886fffffffffffffffffffffffffffffffff1682600201611b1d90919063ffffffff16565b155b15610e0857610e03886fffffffffffffffffffffffffffffffff1682600201611b3790919063ffffffff16565b610e5f565b610e30886fffffffffffffffffffffffffffffffff1682600201611b1d90919063ffffffff16565b15610e5e57610e5d886fffffffffffffffffffffffffffffffff1682600201611b4b90919063ffffffff16565b5b5b610ebe898786610eae86600a0160008d73ffffffffffffffffffffffffffffffffffffffff1673ffffffffffffffffffffffffffffffffffffffff168152602001908152602001600020610f87565b611b5f909392919063ffffffff16565b610ed1878361130390919063ffffffff16565b925050509695505050505050565b6000610eea8461155e565b60070160008373ffffffffffffffffffffffffffffffffffffffff1673ffffffffffffffffffffffffffffffffffffffff1681526020019081526020016000209050610f54836fffffffffffffffffffffffffffffffff1682600201611b1d90919063ffffffff16565b610f8157610f80836fffffffffffffffffffffffffffffffff1682600201611b3790919063ffffffff16565b5b50505050565b6000816002016000836000015481526020019081526020016000209050919050565b600061100a83600101600084815260200190815260200160002060000160009054906101000a90046fffffffffffffffffffffffffffffffff16600f0b8460000160109054906101000a9004600f0b600f0b61100591906152af565b611bd7565b905092915050565b6000670de0b6b3a7640000828461102991906153c6565b611033919061544f565b905092915050565b6000808260405160200161104f91906154cc565b60405160208183030381529060405280519060200120905080915050919050565b600082141580156110965750826001015461109483836114c190919063ffffffff16565b105b156110f45780826110b084846114c190919063ffffffff16565b85600101546040517f6119eca70000000000000000000000000000000000000000000000000000000081526004016110eb94939291906154fa565b60405180910390fd5b505050565b6000611104826105c4565b9050600061111182611bf8565b905060008160000160009054906101000a90046fffffffffffffffffffffffffffffffff166fffffffffffffffffffffffffffffffff1611156111ab578060000160009054906101000a90046fffffffffffffffffffffffffffffffff166040517f91b9419f0000000000000000000000000000000000000000000000000000000081526004016111a2919061557a565b60405180910390fd5b505050565b6000806111be8585856106d7565b91505060006111ce868686610762565b90506111f3600082126111e157816111e4565b60005b836114c190919063ffffffff16565b925050509392505050565b6000808260040160009054906101000a900473ffffffffffffffffffffffffffffffffffffffff1673ffffffffffffffffffffffffffffffffffffffff1663feaf968c6040518163ffffffff1660e01b815260040160a060405180830381865afa158015611270573d6000803e3d6000fd5b505050506040513d601f19601f820116820180604052508101906112949190615618565b505050915050600081136112dd576040517f08c379a00000000000000000000000000000000000000000000000000000000081526004016112d4906156df565b60405180910390fd5b80915050919050565b60006112fc6112f483610f87565b600301611c9e565b9050919050565b600061130e83611cf2565b61131f61131a8361103b565b6111fe565b90506000806113778386600a0160008773ffffffffffffffffffffffffffffffffffffffff1673ffffffffffffffffffffffffffffffffffffffff168152602001908152602001600020611f4990919063ffffffff16565b925050915060008473ffffffffffffffffffffffffffffffffffffffff1660001b905060006113b48285896006016120669092919063ffffffff16565b9050828760040160109054906101000a90046fffffffffffffffffffffffffffffffff166113e2919061570c565b8760040160106101000a8154816fffffffffffffffffffffffffffffffff02191690836fffffffffffffffffffffffffffffffff16021790555061146f8188600a0160008973ffffffffffffffffffffffffffffffffffffffff1673ffffffffffffffffffffffffffffffffffffffff16815260200190815260200160002061224d90919063ffffffff16565b61147887611cf2565b5050505092915050565b600061149561149083610f87565b61226c565b9050919050565b60006114b9826114ab85610f87565b6122a090919063ffffffff16565b905092915050565b600081670de0b6b3a7640000846114d891906153c6565b6114e2919061544f565b905092915050565b600080826fffffffffffffffffffffffffffffffff1614806115575750816fffffffffffffffffffffffffffffffff16611523836105c4565b60000160009054906101000a90046fffffffffffffffffffffffffffffffff166fffffffffffffffffffffffffffffffff16145b9050919050565b6000808260405160200161157291906157dc565b60405160208183030381529060405280519060200120905080915050919050565b60008360000160009054906101000a900473ffffffffffffffffffffffffffffffffffffffff1673ffffffffffffffffffffffffffffffffffffffff168273ffffffffffffffffffffffffffffffffffffffff16148061161a5750611619847f41444d494e00000000000000000000000000000000000000000000000000000084612368565b5b8061162c575061162b848484612368565b5b90509392505050565b600081600001805490509050919050565b60008082148061165c5750826000018054905082115b15611693576040517feb9bc44700000000000000000000000000000000000000000000000000000000815260040160405180910390fd5b60006001836116a29190615018565b90508360000181815481106116ba576116b961521c565b5b906000526020600020015491505092915050565b6000806116da85610f87565b60010160000160009054906101000a90046fffffffffffffffffffffffffffffffff166fffffffffffffffffffffffffffffffff1690506000611746856fffffffffffffffffffffffffffffffff1660001b61173588610f87565b6001016123fe90919063ffffffff16565b905060008660030160008681526020019081526020016000209050600073ffffffffffffffffffffffffffffffffffffffff168160000160009054906101000a900473ffffffffffffffffffffffffffffffffffffffff1673ffffffffffffffffffffffffffffffffffffffff1614156117f5576040517f08c379a00000000000000000000000000000000000000000000000000000000081526004016117ec90615856565b60405180910390fd5b61180b838260010161244f90919063ffffffff16565b8160020160008282829054906101000a90046fffffffffffffffffffffffffffffffff166118399190615876565b92506101000a8154816fffffffffffffffffffffffffffffffff02191690836fffffffffffffffffffffffffffffffff160217905550611905816003016000886fffffffffffffffffffffffffffffffff16815260200190815260200160002060000160009054906101000a90046fffffffffffffffffffffffffffffffff168260020160009054906101000a90046fffffffffffffffffffffffffffffffff166118e491906158bc565b6fffffffffffffffffffffffffffffffff168361101290919063ffffffff16565b816003016000886fffffffffffffffffffffffffffffffff16815260200190815260200160002060000160108282829054906101000a90046fffffffffffffffffffffffffffffffff166119599190615876565b92506101000a8154816fffffffffffffffffffffffffffffffff02191690836fffffffffffffffffffffffffffffffff1602179055508060020160009054906101000a90046fffffffffffffffffffffffffffffffff16816003016000886fffffffffffffffffffffffffffffffff16815260200190815260200160002060000160006101000a8154816fffffffffffffffffffffffffffffffff02191690836fffffffffffffffffffffffffffffffff160217905550806003016000876fffffffffffffffffffffffffffffffff16815260200190815260200160002060000160109054906101000a90046fffffffffffffffffffffffffffffffff166fffffffffffffffffffffffffffffffff1693505050509392505050565b6000611a95611a8383612744565b84600301610fa990919063ffffffff16565b905092915050565b80826001016000828254611ab19190615018565b925050819055505050565b8160000160009054906101000a900460ff16611afd5760018260000160006101000a81548160ff021916908315150217905550808260010181905550611b19565b80826001016000828254611b1191906151c6565b925050819055505b5050565b6000611b2f836000018360001b612763565b905092915050565b611b47826000018260001b612786565b5050565b611b5b826000018260001b612817565b5050565b6000611b6a84612744565b9050611b7685856122a0565b50611b8f81848760030161294c9092919063ffffffff16565b50611bcf81611bbc84611bae858a6003016123fe90919063ffffffff16565b61101290919063ffffffff16565b876001016120669092919063ffffffff16565b505050505050565b60006b033b2e3c9fd0803ce800000082611bf191906158f0565b9050919050565b600080600090505b8260050180549050811015611c8b576000611c5d846005018381548110611c2a57611c2961521c565b5b906000526020600020906002020160000160009054906101000a90046fffffffffffffffffffffffffffffffff16612c3c565b9050611c6881612c71565b15611c77578092505050611c99565b508080611c839061524b565b915050611c00565b50611c966000612c3c565b90505b919050565b6000611ceb8260000160009054906101000a90046fffffffffffffffffffffffffffffffff16600f0b8360000160109054906101000a9004600f0b600f0b611ce691906152af565b611bd7565b9050919050565b60008160040160009054906101000a90046fffffffffffffffffffffffffffffffff166fffffffffffffffffffffffffffffffff1690506000811415611d385750611f46565b60008260060160000160009054906101000a90046fffffffffffffffffffffffffffffffff16600f0b905060008360040160109054906101000a90046fffffffffffffffffffffffffffffffff1690506000805b8560050180549050811015611f2a576000866005018281548110611db357611db261521c565b5b9060005260206000209060020201905060008160000160109054906101000a90046fffffffffffffffffffffffffffffffff166fffffffffffffffffffffffffffffffff1690506000808713611e0a576000611e22565b878288611e1791906153c6565b611e21919061544f565b5b905060008883886fffffffffffffffffffffffffffffffff16611e4591906153c6565b611e4f919061544f565b90506000611e7c8560000160009054906101000a90046fffffffffffffffffffffffffffffffff16612c3c565b90506000611e8b8c8385612cb7565b905060008660010160009054906101000a9004600f0b600f0b9050808212611eb35780611eb5565b815b9150611f038760000160009054906101000a90046fffffffffffffffffffffffffffffffff168e60000160009054906101000a90046fffffffffffffffffffffffffffffffff168488612d78565b89611f0e919061595a565b9850505050505050508080611f229061524b565b915050611d8c565b50611f418186600601612e4290919063ffffffff16565b505050505b50565b600080600080611f5886610f87565b9050611fa2858260010160000160009054906101000a90046fffffffffffffffffffffffffffffffff166fffffffffffffffffffffffffffffffff1661101290919063ffffffff16565b93506000611fc486611fb684600301611c9e565b61101290919063ffffffff16565b90506000611fd18361226c565b9050808213611fe1576000611fee565b8082611fed91906159ee565b5b94508760010160109054906101000a90046fffffffffffffffffffffffffffffffff16600f0b8561201f91906159ee565b9350848860010160106101000a8154816fffffffffffffffffffffffffffffffff02191690836fffffffffffffffffffffffffffffffff1602179055505050509250925092565b600080846001016000858152602001908152602001600020905060008160000160109054906101000a9004600f0b8660000160109054906101000a9004600f0b6120b09190615a82565b905060006120ef8360000160009054906101000a90046fffffffffffffffffffffffffffffffff166fffffffffffffffffffffffffffffffff16612f40565b82600f0b6120fd91906152af565b905061210881611bd7565b9350600061211586612f55565b90508360000160009054906101000a90046fffffffffffffffffffffffffffffffff16818960000160009054906101000a90046fffffffffffffffffffffffffffffffff166121649190615876565b61216e91906158bc565b8860000160006101000a8154816fffffffffffffffffffffffffffffffff02191690836fffffffffffffffffffffffffffffffff160217905550808460000160006101000a8154816fffffffffffffffffffffffffffffffff02191690836fffffffffffffffffffffffffffffffff16021790555060008614612202578760000160109054906101000a9004600f0b612205565b60005b8460000160106101000a8154816fffffffffffffffffffffffffffffffff0219169083600f0b6fffffffffffffffffffffffffffffffff160217905550505050509392505050565b6122688161225a84610f87565b612fab90919063ffffffff16565b5050565b600061227a82600501611c9e565b8260000160009054906101000a9004600f0b600f0b612299919061595a565b9050919050565b6000806122ac83612744565b90506122c48185600501610fa990919063ffffffff16565b915060006122de828660010161301e90919063ffffffff16565b905080836122ec919061595a565b925061230682848760050161294c9092919063ffffffff16565b50808560000160008282829054906101000a9004600f0b6123279190615a82565b92506101000a8154816fffffffffffffffffffffffffffffffff0219169083600f0b6fffffffffffffffffffffffffffffffff160217905550505092915050565b60008073ffffffffffffffffffffffffffffffffffffffff168273ffffffffffffffffffffffffffffffffffffffff16141580156123f557506123f4838560010160008573ffffffffffffffffffffffffffffffffffffffff1673ffffffffffffffffffffffffffffffffffffffff16815260200190815260200160002061276390919063ffffffff16565b5b90509392505050565b600082600101600083815260200190815260200160002060000160009054906101000a90046fffffffffffffffffffffffffffffffff166fffffffffffffffffffffffffffffffff16905092915050565b6000808360000160009054906101000a9004600f0b600f0b14806124735750600082145b15612481576000905061273e565b600042905060008460000160109054906101000a900460070b60070b82600f0b12156124b25760009250505061273e565b60008560000160189054906101000a900460030b60030b1480156124fd57508460000160109054906101000a900460070b60070b85600001601c9054906101000a900460030b60030b125b1561253c5783670de0b6b3a76400008660000160009054906101000a9004600f0b600f0b61252b91906152af565b61253591906158f0565b9050612712565b8460000160189054906101000a900460030b60030b8560000160109054906101000a900460070b61256d9190615b13565b60070b85600001601c9054906101000a900460030b60030b12156127115760008560000160109054906101000a900460070b60070b86600001601c9054906101000a900460030b60030b12612633578560000160189054906101000a900460030b60030b8660000160109054906101000a900460070b87600001601c9054906101000a900460030b60030b6126029190615b8f565b60070b8760000160009054906101000a9004600f0b600f0b61262491906152af565b61262e91906158f0565b612639565b6000600f0b5b905060008660000160009054906101000a9004600f0b600f0b90508660000160189054906101000a900460030b60030b8760000160109054906101000a900460070b6126859190615b13565b60070b84600f0b12156126e2578660000160189054906101000a900460030b60030b8760000160109054906101000a900460070b60070b856126c79190615a82565b600f0b826126d591906152af565b6126df91906158f0565b90505b85670de0b6b3a764000083836126f891906159ee565b61270291906152af565b61270c91906158f0565b925050505b5b8185600001601c6101000a81548163ffffffff021916908360030b63ffffffff16021790555080925050505b92915050565b6000816fffffffffffffffffffffffffffffffff1660001b9050919050565b600080836001016000848152602001908152602001600020541415905092915050565b6127908282612763565b156127c7576040517f682ad32d00000000000000000000000000000000000000000000000000000000815260040160405180910390fd5b816000018190806001815401808255809150506001900390600052602060002001600090919091909150558160000180549050826001016000838152602001908152602001600020819055505050565b6000826001016000838152602001908152602001600020549050600081141561286c576040517fb3dbc29300000000000000000000000000000000000000000000000000000000815260040160405180910390fd5b600060018261287b9190615018565b90506000600185600001805490506128939190615018565b90508082146129025760008560000182815481106128b4576128b361521c565b5b90600052602060002001549050808660000184815481106128d8576128d761521c565b5b90600052602060002001819055508386600101600083815260200190815260200160002081905550505b8460000180548061291657612915615c0b565b5b60019003818190600052602060002001600090559055846001016000858152602001908152602001600020600090555050505050565b6000808460000160109054906101000a9004600f0b600f0b1480156129a4575060008460000160009054906101000a90046fffffffffffffffffffffffffffffffff166fffffffffffffffffffffffffffffffff1614155b156129db576040517f7d06244800000000000000000000000000000000000000000000000000000000815260040160405180910390fd5b6000846001016000858152602001908152602001600020905060008160000160109054906101000a9004600f0b600f0b14612a42576040517f842be92f00000000000000000000000000000000000000000000000000000000815260040160405180910390fd5b60008560000160009054906101000a90046fffffffffffffffffffffffffffffffff166fffffffffffffffffffffffffffffffff161415612aef576b033b2e3c9fd0803ce80000008560000160106101000a8154816fffffffffffffffffffffffffffffffff0219169083600f0b6fffffffffffffffffffffffffffffffff160217905550612ae860008413612ae15783612adc90615c3a565b612ae3565b835b61303c565b9150612b34565b612af885611c9e565b8560000160009054906101000a90046fffffffffffffffffffffffffffffffff16600f0b84612b2791906152af565b612b3191906158f0565b91505b612bb78160000160009054906101000a90046fffffffffffffffffffffffffffffffff166fffffffffffffffffffffffffffffffff16838760000160009054906101000a90046fffffffffffffffffffffffffffffffff166fffffffffffffffffffffffffffffffff16612ba891906151c6565b612bb29190615018565b612f55565b8560000160006101000a8154816fffffffffffffffffffffffffffffffff02191690836fffffffffffffffffffffffffffffffff160217905550612bfa82612f55565b8160000160006101000a8154816fffffffffffffffffffffffffffffffff02191690836fffffffffffffffffffffffffffffffff160217905550509392505050565b60008082604051602001612c509190615ccf565b60405160208183030381529060405280519060200120905080915050919050565b6000612c7c82613080565b8260020160109054906101000a90046fffffffffffffffffffffffffffffffff166fffffffffffffffffffffffffffffffff16109050919050565b600080612cc2613147565b600001549050600080821415612ce257670de0b6b3a76400009050612d3f565b612d3c8660060160000160009054906101000a90046fffffffffffffffffffffffffffffffff166fffffffffffffffffffffffffffffffff16612d2e84876114c190919063ffffffff16565b6114c190919063ffffffff16565b90505b80612d6086600a0160000160109054906101000a9004600f0b600f0b613178565b600f0b612d6d919061595a565b925050509392505050565b600080612d8486612c3c565b9050600073ffffffffffffffffffffffffffffffffffffffff168160010160009054906101000a900473ffffffffffffffffffffffffffffffffffffffff1673ffffffffffffffffffffffffffffffffffffffff161415612e1c57856040517ff080c1ea000000000000000000000000000000000000000000000000000000008152600401612e13919061512c565b60405180910390fd5b612e2b816402540be3ff613191565b612e37818685876132b8565b915050949350505050565b6000811415612e5057612f3c565b60008260000160009054906101000a90046fffffffffffffffffffffffffffffffff166fffffffffffffffffffffffffffffffff1690506000811415612ec2576040517f3b182f5500000000000000000000000000000000000000000000000000000000815260040160405180910390fd5b6000612ecd8361366c565b905060008282612edd91906158f0565b9050808560000160108282829054906101000a9004600f0b612eff919061570c565b92506101000a8154816fffffffffffffffffffffffffffffffff0219169083600f0b6fffffffffffffffffffffffffffffffff1602179055505050505b5050565b6000612f4b8261368d565b600f0b9050919050565b60006fffffffffffffffffffffffffffffffff8016821115612fa3576040517ffab0c95e00000000000000000000000000000000000000000000000000000000815260040160405180910390fd5b819050919050565b612fc18183600101612e4290919063ffffffff16565b808260000160008282829054906101000a9004600f0b612fe1919061570c565b92506101000a8154816fffffffffffffffffffffffffffffffff0219169083600f0b6fffffffffffffffffffffffffffffffff1602179055505050565b6000613034838361302f86866123fe565b612066565b905092915050565b600080821215613078576040517f14f8126800000000000000000000000000000000000000000000000000000000815260040160405180910390fd5b819050919050565b60008160010160009054906101000a900473ffffffffffffffffffffffffffffffffffffffff1673ffffffffffffffffffffffffffffffffffffffff1663c9c04a7f8360000160009054906101000a90046fffffffffffffffffffffffffffffffff166040518263ffffffff1660e01b81526004016130ff919061512c565b602060405180830381865afa15801561311c573d6000803e3d6000fd5b505050506040513d601f19601f820116820180604052508101906131409190615cfd565b9050919050565b60008060405160200161315990615d76565b6040516020818303038152906040528051906020012090508091505090565b6000633b9aca008261318a9190615d96565b9050919050565b600061319c83613705565b905060008360030160009054906101000a9004600f0b600f0b826131c091906159ee565b905060006131cf858386613749565b91505060006131df868487613adb565b915050801580156131ee575081155b801561322f5750600086600a0160000160009054906101000a90046fffffffffffffffffffffffffffffffff166fffffffffffffffffffffffffffffffff16115b156132b0576132698660030160009054906101000a9004600f0b600f0b8561325791906159ee565b87600a01612e4290919063ffffffff16565b61327284613e5c565b8660030160006101000a8154816fffffffffffffffffffffffffffffffff0219169083600f0b6fffffffffffffffffffffffffffffffff1602179055505b505050505050565b6000806132c58686613ee0565b905060006132df8688600401613f1590919063ffffffff16565b602001516132ec90615e00565b600f0b90506132fa85612f55565b87600c016000886fffffffffffffffffffffffffffffffff166fffffffffffffffffffffffffffffffff16815260200190815260200160002060000160006101000a8154816fffffffffffffffffffffffffffffffff02191690836fffffffffffffffffffffffffffffffff160217905550600061338e88600a0160000160109054906101000a9004600f0b600f0b613178565b905080600f0b8512156133f657600095506133cf6133bd886fffffffffffffffffffffffffffffffff16612f55565b89600401613f6890919063ffffffff16565b506133f0876133dd87613e5c565b8a600701613fbb9092919063ffffffff16565b50613438565b61341f8761340387613e5c565b61340c90615e00565b8a600401613fbb9092919063ffffffff16565b506134368789600701613f6890919063ffffffff16565b505b613465876fffffffffffffffffffffffffffffffff1660001b878a600a016120669092919063ffffffff16565b6134d889600c0160008a6fffffffffffffffffffffffffffffffff166fffffffffffffffffffffffffffffffff16815260200190815260200160002060010160009054906101000a90046fffffffffffffffffffffffffffffffff166fffffffffffffffffffffffffffffffff1661368d565b600f0b6134e5919061595a565b9350600088600c016000896fffffffffffffffffffffffffffffffff166fffffffffffffffffffffffffffffffff16815260200190815260200160002060010160006101000a8154816fffffffffffffffffffffffffffffffff02191690836fffffffffffffffffffffffffffffffff16021790555080600f0b8513156135de576135796135748988886140cb565b612f55565b8860020160108282829054906101000a90046fffffffffffffffffffffffffffffffff166135a79190615876565b92506101000a8154816fffffffffffffffffffffffffffffffff02191690836fffffffffffffffffffffffffffffffff1602179055505b80600f0b821315613661576135fc6135f78985856140cb565b612f55565b8860020160108282829054906101000a90046fffffffffffffffffffffffffffffffff1661362a91906158bc565b92506101000a8154816fffffffffffffffffffffffffffffffff02191690836fffffffffffffffffffffffffffffffff1602179055505b505050949350505050565b60006b033b2e3c9fd0803ce80000008261368691906152af565b9050919050565b60006f7fffffffffffffffffffffffffffffff6fffffffffffffffffffffffffffffffff16826fffffffffffffffffffffffffffffffff1611156136fd576040517f8b26f05e00000000000000000000000000000000000000000000000000000000815260040160405180910390fd5b819050919050565b600061371082614118565b8260020160009054906101000a9004600f0b600f0b61372e84614226565b613738919061595a565b61374291906159ee565b9050919050565b600080600084136137605760008091509150613ad3565b60005b83811015613a6b576000613779876004016142ed565b141561378457613a6b565b60006137e46137c788600a0160000160009054906101000a90046fffffffffffffffffffffffffffffffff166fffffffffffffffffffffffffffffffff1661368d565b600f0b85886137d691906159ee565b61432090919063ffffffff16565b61380488600a0160000160109054906101000a9004600f0b600f0b614349565b61380e919061595a565b9050600061381e88600401614362565b905081816020015161382f90615e00565b600f0b1261383e575050613a6b565b61384e886004018960070161437c565b6000816020015161385e90615e00565b905060006138df6138858b600a0160000160109054906101000a9004600f0b600f0b614349565b83600f0b61389391906159ee565b6138d18c600a0160000160009054906101000a90046fffffffffffffffffffffffffffffffff166fffffffffffffffffffffffffffffffff16612f40565b6143b590919063ffffffff16565b90506138f7818b600a01612e4290919063ffffffff16565b8087613903919061595a565b9650600083600001519050600061393b826fffffffffffffffffffffffffffffffff1660001b8d600a016123fe90919063ffffffff16565b1161397b576040517f08c379a000000000000000000000000000000000000000000000000000000000815260040161397290615e95565b60405180910390fd5b60006139ab826fffffffffffffffffffffffffffffffff1660001b60008e600a016120669092919063ffffffff16565b90506139b681612f55565b8c600c016000846fffffffffffffffffffffffffffffffff166fffffffffffffffffffffffffffffffff16815260200190815260200160002060010160008282829054906101000a90046fffffffffffffffffffffffffffffffff16613a1c9190615876565b92506101000a8154816fffffffffffffffffffffffffffffffff02191690836fffffffffffffffffffffffffffffffff1602179055505050505050508080613a639061524b565b915050613763565b613a7483613e5c565b8660030160008282829054906101000a9004600f0b613a93919061570c565b92506101000a8154816fffffffffffffffffffffffffffffffff0219169083600f0b6fffffffffffffffffffffffffffffffff1602179055508381149150505b935093915050565b600080600084121580613b235750600085600a0160000160009054906101000a90046fffffffffffffffffffffffffffffffff166fffffffffffffffffffffffffffffffff16145b15613b345760008091509150613e54565b60005b83811015613dec576000613b9c613b8288600a0160000160009054906101000a90046fffffffffffffffffffffffffffffffff166fffffffffffffffffffffffffffffffff16612f40565b8588613b8e91906159ee565b61432090919063ffffffff16565b613bbc88600a0160000160109054906101000a9004600f0b600f0b614349565b613bc6919061595a565b90506000613bd6886007016142ed565b1415613be25750613dec565b6000613bf088600701614362565b9050818160200151600f0b1215613c08575050613dec565b613c18886007018960040161437c565b6000816020015190506000613ca0613c468b600a0160000160109054906101000a9004600f0b600f0b614349565b83600f0b613c5491906159ee565b613c928c600a0160000160009054906101000a90046fffffffffffffffffffffffffffffffff166fffffffffffffffffffffffffffffffff16612f40565b6143b590919063ffffffff16565b9050613cb8818b600a01612e4290919063ffffffff16565b8087613cc4919061595a565b96506000836000015190506000613cfc826fffffffffffffffffffffffffffffffff1660001b8d600a016123fe90919063ffffffff16565b14613d3c576040517f08c379a0000000000000000000000000000000000000000000000000000000008152600401613d3390615f01565b60405180910390fd5b613dd3816fffffffffffffffffffffffffffffffff1660001b8c600c016000846fffffffffffffffffffffffffffffffff166fffffffffffffffffffffffffffffffff16815260200190815260200160002060000160009054906101000a90046fffffffffffffffffffffffffffffffff166fffffffffffffffffffffffffffffffff168d600a016120669092919063ffffffff16565b5050505050508080613de49061524b565b915050613b37565b613df583613e5c565b8660030160008282829054906101000a9004600f0b613e14919061570c565b92506101000a8154816fffffffffffffffffffffffffffffffff0219169083600f0b6fffffffffffffffffffffffffffffffff1602179055508381149150505b935093915050565b60007fffffffffffffffffffffffffffffffff80000000000000000000000000000000600f0b821280613ea157506f7fffffffffffffffffffffffffffffff600f0b82135b15613ed8576040517f4022cc0300000000000000000000000000000000000000000000000000000000815260040160405180910390fd5b819050919050565b6000613f0d826fffffffffffffffffffffffffffffffff1660001b84600a016123fe90919063ffffffff16565b905092915050565b613f1d614cff565b613f6083846002016000856fffffffffffffffffffffffffffffffff166fffffffffffffffffffffffffffffffff168152602001908152602001600020546143de565b905092915050565b613f70614cff565b613fb383846002016000856fffffffffffffffffffffffffffffffff166fffffffffffffffffffffffffffffffff168152602001908152602001600020546144c0565b905092915050565b613fc3614cff565b600084600101805490501415613fdd57613fdc846147c9565b5b613fe5614cff565b613fef8585613f68565b5084600001600081819054906101000a90046fffffffffffffffffffffffffffffffff168092919061402090615f21565b91906101000a8154816fffffffffffffffffffffffffffffffff02191690836fffffffffffffffffffffffffffffffff16021790555050846001016001816001815401808255809150500390600052602060002050506040518060400160405280856fffffffffffffffffffffffffffffffff16815260200184600f0b81525090506140c08582600188600101805490506140bb9190615018565b6148b5565b809150509392505050565b6000806140ee85600a0160000160109054906101000a9004600f0b600f0b614349565b836140f991906159ee565b905061410e848261101290919063ffffffff16565b9150509392505050565b6000806000905060005b83600d018054905081101561421c57600084600d0182815481106141495761414861521c565b5b90600052602060002090600202016040518060400160405290816000820160009054906101000a900473ffffffffffffffffffffffffffffffffffffffff1673ffffffffffffffffffffffffffffffffffffffff1673ffffffffffffffffffffffffffffffffffffffff168152602001600182015481525050905060006141d3826000015161103b565b905060006141e0826111fe565b90506141f983602001518261101290919063ffffffff16565b8561420491906151c6565b945050505080806142149061524b565b915050614122565b5080915050919050565b60008160010160009054906101000a900473ffffffffffffffffffffffffffffffffffffffff1673ffffffffffffffffffffffffffffffffffffffff1663bcec0d0f8360000160009054906101000a90046fffffffffffffffffffffffffffffffff166040518263ffffffff1660e01b81526004016142a5919061512c565b602060405180830381865afa1580156142c2573d6000803e3d6000fd5b505050506040513d601f19601f820116820180604052508101906142e69190615cfd565b9050919050565b600080826001018054905011614304576000614319565b600182600101805490506143189190615018565b5b9050919050565b600081670de0b6b3a76400008461433791906152af565b61434191906158f0565b905092915050565b6000633b9aca008261435b91906158f0565b9050919050565b61436a614cff565b6143758260016143de565b9050919050565b6000614387836149e4565b90506143af8160000151826020015161439f90615e00565b84613fbb9092919063ffffffff16565b50505050565b6000670de0b6b3a764000082846143cc91906152af565b6143d691906158f0565b905092915050565b6143e6614cff565b8183600101805490501161442557604051806040016040528060006fffffffffffffffffffffffffffffffff1681526020016000600f0b8152506144b8565b82600101828154811061443b5761443a61521c565b5b906000526020600020016040518060400160405290816000820160009054906101000a90046fffffffffffffffffffffffffffffffff166fffffffffffffffffffffffffffffffff166fffffffffffffffffffffffffffffffff1681526020016000820160109054906101000a9004600f0b600f0b600f0b815250505b905092915050565b6144c8614cff565b8183600101805490501115806144df575060008211155b1561451757604051806040016040528060006fffffffffffffffffffffffffffffffff1681526020016000600f0b81525090506147c3565b600083600101838154811061452f5761452e61521c565b5b906000526020600020016040518060400160405290816000820160009054906101000a90046fffffffffffffffffffffffffffffffff166fffffffffffffffffffffffffffffffff166fffffffffffffffffffffffffffffffff1681526020016000820160109054906101000a9004600f0b600f0b600f0b81525050905083600201600082600001516fffffffffffffffffffffffffffffffff166fffffffffffffffffffffffffffffffff16815260200190815260200160002060009055600084600101600186600101805490506146089190615018565b815481106146195761461861521c565b5b906000526020600020016040518060400160405290816000820160009054906101000a90046fffffffffffffffffffffffffffffffff166fffffffffffffffffffffffffffffffff166fffffffffffffffffffffffffffffffff1681526020016000820160109054906101000a9004600f0b600f0b600f0b815250509050846001018054806146ab576146aa615c0b565b5b60019003818190600052602060002001600080820160006101000a8154906fffffffffffffffffffffffffffffffff02191690556000820160106101000a8154906fffffffffffffffffffffffffffffffff02191690555050905584600101805490508410156147bd576147208582866148b5565b6147bc8586600101868154811061473a5761473961521c565b5b906000526020600020016040518060400160405290816000820160009054906101000a90046fffffffffffffffffffffffffffffffff166fffffffffffffffffffffffffffffffff166fffffffffffffffffffffffffffffffff1681526020016000820160109054906101000a9004600f0b600f0b600f0b81525050866149fe565b5b81925050505b92915050565b6000816001018054905014156148b25780600101604051806040016040528060006fffffffffffffffffffffffffffffffff1681526020016000600f0b8152509080600181540180825580915050600190039060005260206000200160009091909190915060008201518160000160006101000a8154816fffffffffffffffffffffffffffffffff02191690836fffffffffffffffffffffffffffffffff16021790555060208201518160000160106101000a8154816fffffffffffffffffffffffffffffffff0219169083600f0b6fffffffffffffffffffffffffffffffff16021790555050505b50565b600181148061490a5750826001016002826148d0919061544f565b815481106148e1576148e061521c565b5b9060005260206000200160000160109054906101000a9004600f0b600f0b8260200151600f0b13155b1561491f5761491a838383614c13565b6149df565b6149c78384600101600284614934919061544f565b815481106149455761494461521c565b5b906000526020600020016040518060400160405290816000820160009054906101000a90046fffffffffffffffffffffffffffffffff166fffffffffffffffffffffffffffffffff166fffffffffffffffffffffffffffffffff1681526020016000820160109054906101000a9004600f0b600f0b600f0b8152505083614c13565b6149de83836002846149d9919061544f565b6148b5565b5b505050565b6149ec614cff565b6149f78260016144c0565b9050919050565b6000836001018054905090506000600283614a1991906153c6565b9050808211614a3257614a2d858585614c13565b614c0c565b6000856001018281548110614a4a57614a4961521c565b5b906000526020600020016040518060400160405290816000820160009054906101000a90046fffffffffffffffffffffffffffffffff166fffffffffffffffffffffffffffffffff166fffffffffffffffffffffffffffffffff1681526020016000820160109054906101000a9004600f0b600f0b600f0b815250509050600182614ad591906151c6565b83118015614b2857508060200151600f0b86600101600184614af791906151c6565b81548110614b0857614b0761521c565b5b9060005260206000200160000160109054906101000a9004600f0b600f0b135b15614bce578560010182614b3b9061524b565b92508281548110614b4f57614b4e61521c565b5b906000526020600020016040518060400160405290816000820160009054906101000a90046fffffffffffffffffffffffffffffffff166fffffffffffffffffffffffffffffffff166fffffffffffffffffffffffffffffffff1681526020016000820160109054906101000a9004600f0b600f0b600f0b8152505090505b8460200151600f0b8160200151600f0b13614bf357614bee868686614c13565b614c0a565b614bfe868286614c13565b614c098686846149fe565b5b505b5050505050565b81836001018281548110614c2a57614c2961521c565b5b9060005260206000200160008201518160000160006101000a8154816fffffffffffffffffffffffffffffffff02191690836fffffffffffffffffffffffffffffffff16021790555060208201518160000160106101000a8154816fffffffffffffffffffffffffffffffff0219169083600f0b6fffffffffffffffffffffffffffffffff1602179055509050508083600201600084600001516fffffffffffffffffffffffffffffffff166fffffffffffffffffffffffffffffffff16815260200190815260200160002081905550505050565b604051806040016040528060006fffffffffffffffffffffffffffffffff1681526020016000600f0b81525090565b600080fd5b60006fffffffffffffffffffffffffffffffff82169050919050565b614d5881614d33565b8114614d6357600080fd5b50565b600081359050614d7581614d4f565b92915050565b600073ffffffffffffffffffffffffffffffffffffffff82169050919050565b6000614da682614d7b565b9050919050565b614db681614d9b565b8114614dc157600080fd5b50565b600081359050614dd381614dad565b92915050565b60008060408385031215614df057614def614d2e565b5b6000614dfe85828601614d66565b9250506020614e0f85828601614dc4565b9150509250929050565b6000819050919050565b614e2c81614e19565b82525050565b6000604082019050614e476000830185614e23565b614e546020830184614e23565b9392505050565b6000819050919050565b614e6e81614e5b565b82525050565b6000602082019050614e896000830184614e65565b92915050565b600080600060608486031215614ea857614ea7614d2e565b5b6000614eb686828701614d66565b9350506020614ec786828701614d66565b9250506040614ed886828701614dc4565b9150509250925092565b6000602082019050614ef76000830184614e23565b92915050565b614f0681614e19565b8114614f1157600080fd5b50565b600081359050614f2381614efd565b92915050565b600080600080600060a08688031215614f4557614f44614d2e565b5b6000614f5388828901614d66565b9550506020614f6488828901614d66565b9450506040614f7588828901614dc4565b9350506060614f8688828901614f14565b9250506080614f9788828901614f14565b9150509295509295909350565b6000608082019050614fb96000830187614e23565b614fc66020830186614e23565b614fd36040830185614e65565b614fe06060830184614e23565b95945050505050565b7f4e487b7100000000000000000000000000000000000000000000000000000000600052601160045260246000fd5b600061502382614e19565b915061502e83614e19565b92508282101561504157615040614fe9565b5b828203905092915050565b61505581614d9b565b82525050565b6000606082019050615070600083018661504c565b61507d6020830185614e23565b61508a6040830184614e23565b949350505050565b600082825260208201905092915050565b7f506f6f6c00000000000000000000000000000000000000000000000000000000600082015250565b60006150d9600483615092565b91506150e4826150a3565b602082019050919050565b6150f881614d33565b82525050565b60006040820190508181036000830152615117816150cc565b905061512660208301846150ef565b92915050565b600060208201905061514160008301846150ef565b92915050565b6000819050919050565b61515a81615147565b82525050565b600060608201905061517560008301866150ef565b6151826020830185615151565b61518f604083018461504c565b949350505050565b7f4e487b7100000000000000000000000000000000000000000000000000000000600052604160045260246000fd5b60006151d182614e19565b91506151dc83614e19565b9250827fffffffffffffffffffffffffffffffffffffffffffffffffffffffffffffffff0382111561521157615210614fe9565b5b828201905092915050565b7f4e487b7100000000000000000000000000000000000000000000000000000000600052603260045260246000fd5b600061525682614e19565b91507fffffffffffffffffffffffffffffffffffffffffffffffffffffffffffffffff82141561528957615288614fe9565b5b600182019050919050565b60006020820190506152a9600083018461504c565b92915050565b60006152ba82614e5b565b91506152c583614e5b565b9250827f7fffffffffffffffffffffffffffffffffffffffffffffffffffffffffffffff048211600084136000841316161561530457615303614fe9565b5b817f8000000000000000000000000000000000000000000000000000000000000000058312600084126000841316161561534157615340614fe9565b5b827f8000000000000000000000000000000000000000000000000000000000000000058212600084136000841216161561537e5761537d614fe9565b5b827f7fffffffffffffffffffffffffffffffffffffffffffffffffffffffffffffff05821260008412600084121616156153bb576153ba614fe9565b5b828202905092915050565b60006153d182614e19565b91506153dc83614e19565b9250817fffffffffffffffffffffffffffffffffffffffffffffffffffffffffffffffff048311821515161561541557615414614fe9565b5b828202905092915050565b7f4e487b7100000000000000000000000000000000000000000000000000000000600052601260045260246000fd5b600061545a82614e19565b915061546583614e19565b92508261547557615474615420565b5b828204905092915050565b7f436f6c6c61746572616c436f6e66696775726174696f6e000000000000000000600082015250565b60006154b6601783615092565b91506154c182615480565b602082019050919050565b600060408201905081810360008301526154e5816154a9565b90506154f4602083018461504c565b92915050565b600060808201905061550f6000830187614e23565b61551c6020830186614e23565b6155296040830185614e23565b6155366060830184614e23565b95945050505050565b6000819050919050565b600061556461555f61555a84614d33565b61553f565b614e19565b9050919050565b61557481615549565b82525050565b600060208201905061558f600083018461556b565b92915050565b600069ffffffffffffffffffff82169050919050565b6155b481615595565b81146155bf57600080fd5b50565b6000815190506155d1816155ab565b92915050565b6155e081614e5b565b81146155eb57600080fd5b50565b6000815190506155fd816155d7565b92915050565b60008151905061561281614efd565b92915050565b600080600080600060a0868803121561563457615633614d2e565b5b6000615642888289016155c2565b9550506020615653888289016155ee565b945050604061566488828901615603565b935050606061567588828901615603565b9250506080615686888289016155c2565b9150509295509295909350565b7f54686520636f6c6c61746572616c2076616c7565206973203000000000000000600082015250565b60006156c9601983615092565b91506156d482615693565b602082019050919050565b600060208201905081810360008301526156f8816156bc565b9050919050565b600081600f0b9050919050565b6000615717826156ff565b9150615722836156ff565b9250816f7fffffffffffffffffffffffffffffff0383136000831215161561574d5761574c614fe9565b5b817fffffffffffffffffffffffffffffffff8000000000000000000000000000000003831260008312161561578557615784614fe9565b5b828201905092915050565b7f4163636f756e7400000000000000000000000000000000000000000000000000600082015250565b60006157c6600783615092565b91506157d182615790565b602082019050919050565b600060408201905081810360008301526157f5816157b9565b905061580460208301846150ef565b92915050565b7f4e6f206469737472696275746f72000000000000000000000000000000000000600082015250565b6000615840600e83615092565b915061584b8261580a565b602082019050919050565b6000602082019050818103600083015261586f81615833565b9050919050565b600061588182614d33565b915061588c83614d33565b9250826fffffffffffffffffffffffffffffffff038211156158b1576158b0614fe9565b5b828201905092915050565b60006158c782614d33565b91506158d283614d33565b9250828210156158e5576158e4614fe9565b5b828203905092915050565b60006158fb82614e5b565b915061590683614e5b565b92508261591657615915615420565b5b600160000383147f80000000000000000000000000000000000000000000000000000000000000008314161561594f5761594e614fe9565b5b828205905092915050565b600061596582614e5b565b915061597083614e5b565b9250817f7fffffffffffffffffffffffffffffffffffffffffffffffffffffffffffffff038313600083121516156159ab576159aa614fe9565b5b817f80000000000000000000000000000000000000000000000000000000000000000383126000831216156159e3576159e2614fe9565b5b828201905092915050565b60006159f982614e5b565b9150615a0483614e5b565b9250827f800000000000000000000000000000000000000000000000000000000000000001821260008412151615615a3f57615a3e614fe9565b5b827f7fffffffffffffffffffffffffffffffffffffffffffffffffffffffffffffff018213600084121615615a7757615a76614fe9565b5b828203905092915050565b6000615a8d826156ff565b9150615a98836156ff565b9250827fffffffffffffffffffffffffffffffff8000000000000000000000000000000001821260008412151615615ad357615ad2614fe9565b5b826f7fffffffffffffffffffffffffffffff018213600084121615615afb57615afa614fe9565b5b828203905092915050565b60008160070b9050919050565b6000615b1e82615b06565b9150615b2983615b06565b925081677fffffffffffffff03831360008312151615615b4c57615b4b614fe9565b5b817fffffffffffffffffffffffffffffffffffffffffffffffff8000000000000000038312600083121615615b8457615b83614fe9565b5b828201905092915050565b6000615b9a82615b06565b9150615ba583615b06565b9250827fffffffffffffffffffffffffffffffffffffffffffffffff800000000000000001821260008412151615615be057615bdf614fe9565b5b82677fffffffffffffff018213600084121615615c0057615bff614fe9565b5b828203905092915050565b7f4e487b7100000000000000000000000000000000000000000000000000000000600052603160045260246000fd5b6000615c4582614e5b565b91507f8000000000000000000000000000000000000000000000000000000000000000821415615c7857615c77614fe9565b5b816000039050919050565b7f4d61726b65740000000000000000000000000000000000000000000000000000600082015250565b6000615cb9600683615092565b9150615cc482615c83565b602082019050919050565b60006040820190508181036000830152615ce881615cac565b9050615cf760208301846150ef565b92915050565b600060208284031215615d1357615d12614d2e565b5b6000615d2184828501615603565b91505092915050565b7f506f6f6c436f6e66696775726174696f6e000000000000000000000000000000600082015250565b6000615d60601183615092565b9150615d6b82615d2a565b602082019050919050565b60006020820190508181036000830152615d8f81615d53565b9050919050565b6000615da1826156ff565b9150615dac836156ff565b925082615dbc57615dbb615420565b5b600160000383147fffffffffffffffffffffffffffffffff8000000000000000000000000000000083141615615df557615df4614fe9565b5b828205905092915050565b6000615e0b826156ff565b91507fffffffffffffffffffffffffffffffff80000000000000000000000000000000821415615e3e57615e3d614fe9565b5b816000039050919050565b7f6e6f20736861726573206265666f7265206163746f722072656d6f76616c0000600082015250565b6000615e7f601e83615092565b9150615e8a82615e49565b602082019050919050565b60006020820190508181036000830152615eae81615e72565b9050919050565b7f6163746f722068617320736861726573206265666f7265206164640000000000600082015250565b6000615eeb601b83615092565b9150615ef682615eb5565b602082019050919050565b60006020820190508181036000830152615f1a81615ede565b9050919050565b6000615f2c82614d33565b91506fffffffffffffffffffffffffffffffff821415615f4f57615f4e614fe9565b5b60018201905091905056fea2646970667358221220c9eefdc7332838a86a4a6c78999171cbd0ee398db89e9fb92fa58de85294b04d64736f6c634300080b0033",
  "linkReferences": {},
  "deployedLinkReferences": {}
}